:020000040800F2
:100000000000022009070008950300089703000874
:10001000990300089B0300089D03000800000000EE
:100020000000000000000000000000009F03000826
:10003000A103000800000000A3030008A5030008B6
:100040005907000859070008590700085907000810
:100050005907000859070008590700085907000800
:1000600059070008590700085907000859070008F0
:1000700059070008590700085907000859070008E0
:1000800059070008590700085907000859070008D0
:1000900059070008590700085907000859070008C0
:1000A00059070008590700085907000859070008B0
:1000B000590700086103000859070008590700089C
:1000C0005907000859070008590700085907000890
:1000D0005907000859070008590700085907000880
:1000E0005907000859070008590700085907000870
:1000F0005907000859070008590700085907000860
:10010000590700085907000859070008590700084F
:10011000590700085907000859070008590700083F
:10012000590700085907000859070008590700082F
:10013000590700085907000859070008590700081F
:10014000590700085907000859070008590700080F
:1001500059070008590700085907000859070008FF
:1001600059070008590700085907000859070008EF
:100170005907000859070008590700080000000047
:080180005907000859070008A7
:1001880010B5054C237833B9044B13B10448AFF3C9
:1001980000800123237010BD000000200000000033
:1001A800A407000808B5034B1BB103490348AFF384
:1001B800008008BD0000000004000020A40700081B
:1001C80008B54FF4A06000F0EBF8A82000F016F88E
:1001D80000F066F842F2CF0142F20F7000F08CF89E
:1001E800054AD2F88432B3FA83F35B09C2F8843241
:1001F800C82000F039F8F3E70000404210B5044683
:100208006FF0040000F008F9E008054B1870C0EB27
:10021800401300EB8300C000024B188010BD00BFE4
:100228001E0000201C0000200E4B1B8803FB00F062
:100238004FF0E023586100229A611A6942F00102E6
:100248001A614FF0E0231B6903F00113012BF8D06A
:100258004FF0E0231A6922F001021A6100229A6124
:10026800704700BF1C00002038B50C4CA4FB0034BC
:10027800650A2C464FF4077303FB150085B205E0A9
:100288004FF40770FFF7D0FF013CE4B2002CF7D120
:1002980005B938BD2846FFF7C7FFFAE749D6B9F2CE
:1002A80030B583B00121052000F01CF90225009526
:1002B80001238DF8043000228DF8062003228DF8E2
:1002C80005208DF807300B4C6946204600F0B4F83D
:1002D8002946204600F003F92025009504F500641E
:1002E8006946204600F0A8F82946204600F0F7F8AD
:1002F80003B030BD0000024030B585B005460C465D
:100308000121022000F0FCF80295ADF8044000231A
:10031800ADF80630ADF80C300E4C01A9204600F0BF
:10032800FDF801221146204600F044F9012120463B
:1003380000F032F91D238DF8003001238DF80130CB
:1003480003228DF802208DF80330684600F032F859
:1003580005B030BD0004004008B50121094800F08F
:1003680035F9012804D00121064800F03BF908BD01
:10037800054AD2F89432B3FA83F35B09C2F894328F
:10038800F1E700BF00040040000041427047FEE76B
:10039800FEE7FEE7FEE770477047704770470000CA
:1003A80040F0BF6040F40030014BD860704700BF98
:1003B80000ED00E0C378FBB1154BDB68DB43C3F30A
:1003C8000222C2F10401C9B20F23134142788A40C4
:1003D800D2B281780B4013431B01DBB202780D497E
:1003E8000A4482F80033037803F01F005B090122F6
:1003F800824041F823207047037803F01F015B090E
:1004080001228A402033034941F82320704700BF66
:1004180000ED00E000E100E0042806D04FF0E02203
:10042800136923F00403136170474FF0E022136946
:1004380043F004031361704700230F2B4ED830B5E7
:1004480016E0C2681FFA83FE4FEA4E044FF0030E0F
:100458000EFA04FE22EA0E02C260C26891F807E0B2
:100468000EFA0CFC42EA0C02C26001330F2B34D89E
:1004780001229A400C68A243F7D104684FEA430C62
:10048800032202FA0CF26FEA020E24EA0202026068
:1004980002680C7904FA0CF4224302600A79013AE2
:1004A800D2B2012ACDD882680EEA0202826082683E
:1004B8004C7904FA0CF42243826044689DB24FF0F0
:1004C800010E0EFA05FE24EA0E04446044688A7997
:1004D800AA4092B222434260B3E730BD704701831D
:1004E8007047000021B1054A136B18431063704729
:1004F800024A136B23EA0000106370470038024079
:1005080021B1054A136C184310647047024A136CF2
:1005180023EA0000106470470038024003889BB249
:100528001B4A904212D002F5806290420ED0B0F180
:10053800804F0BD0A2F58032904207D002F580623E
:10054800904203D002F58062904203D123F07003F9
:100558004A8813430F4A904208D002F580629042BD
:1005680004D023F440739BB20A89134303804B6879
:10057800C3620B880385064B984203D003F580635A
:10058800984201D18B7A038601238382704700BF8A
:10059800000001400010004029B103889BB243F0DD
:1005A80001030380704703889BB223F001039BB2C9
:1005B8000380704722B183899BB2194381817047B8
:1005C8008389C94389B2194081817047028A838926
:1005D8000B40114202D01BB9002070470020704721
:1005E80001207047C94389B20182704782B0002355
:1005F800019300932A4A136843F480331360284B0D
:100608001B6803F400330093019B01330193009BA3
:100618001BB9019BB3F5A04FF1D1214B1B6813F413
:10062800003F06D001230093009B012B04D002B0A9
:10063800704700230093F7E7194B1A6C42F0805279
:100648001A6418490A6842F440420A609A689A6033
:100658009A6842F400429A609A6842F4A0529A60FA
:10066800114A5A601A6842F080721A600C4B1B6873
:1006780013F0007FFAD00D4B40F205721A60A3F513
:1006880080639A6822F003029A609A6842F0020234
:100698009A60034B9B6803F00C03082BF9D1C6E75B
:1006A800003802400070004008544007003C0240F7
:1006B80010B5104CD4F8883043F47003C4F888306F
:1006C8000D4B1A6842F001021A60002199601A68FD
:1006D80022F0847222F480321A60084A5A601A683A
:1006E80022F480221A60D960FFF780FF4FF0006380
:1006F800A36010BD00ED00E0003802401030002477
:10070800DFF834D00D480E490E4A002302E0D458D1
:10071800C4500433C4188C42F9D30B4A0B4C002341
:1007280001E013600432A242FBD3FFF7C1FF00F0DF
:1007380011F8FFF745FD7047000002200000002077
:1007480000000020C407000800000020200000204E
:10075800FEE7000070B50D4D0D4C641BA41000267B
:10076800A64209D10B4D0C4C00F018F8641BA410DC
:100778000026A64205D170BD55F8043B98470136BE
:10078800EEE755F8043B98470136F2E7BC07000846
:10079800BC070008BC070008C0070008F8B500BF80
:1007A800F8BC08BC9E467047F8B500BFF8BC08BC4A
:0407B8009E467047A2
:0407BC00AD01000883
:0407C00089010008A3
:0400000508000709DF
:00000001FF
