:020000040800F2
:100000000000022005060008F9030008FB030008B1
:10001000FD030008FF0300080104000800000000C1
:1000200000000000000000000000000003040008C1
:100030000504000800000000070400080904000887
:100040005506000855060008550600085506000824
:100050005506000855060008550600085506000814
:100060005506000855060008550600085506000804
:1000700055060008550600085506000855060008F4
:1000800055060008550600085506000855060008E4
:1000900055060008550600085506000855060008D4
:1000A00055060008550600085506000855060008C4
:1000B00055060008550600085506000855060008B4
:1000C00055060008550600085506000855060008A4
:1000D0005506000855060008550600085506000894
:1000E0005506000855060008550600085506000884
:1000F0005506000855060008550600085506000874
:100100005506000855060008550600085506000863
:100110005506000855060008550600085506000853
:100120005506000855060008550600085506000843
:100130005506000855060008550600085506000833
:100140005506000855060008550600085506000823
:100150005506000855060008550600085506000813
:100160005506000855060008550600085506000803
:100170005506000855060008550600080000000056
:080180005506000855060008B1
:1001880010B5054C237833B9044B13B10448AFF3C9
:1001980000800123237010BD04000020000000002F
:1001A800A006000808B5034B1BB103490348AFF389
:1001B800008008BD0000000008000020A00600081C
:1001C80038B5A82000F034F800F084F800F0E4F81E
:1001D80000252C4617E084F001032CB9124A0021AF
:1001E800C2F884121C460EE00F4A0121C2F884129C
:1001F8001C4608E00D4A0121C2F894121D4602E08F
:100208000A2000F04BF8002000F088F80128E2D01E
:100218000228F5D185F00103002DEBD1034A002116
:10022800C2F894121D46EEE7000040420000414229
:1002380010B504466FF0040000F0E3F8E008054B41
:100248001870C0EB401300EB8300C000024B18800D
:1002580010BD00BF22000020200000200E4B1B888C
:1002680003FB00F04FF0E023586100229A611A69FD
:1002780042F001021A614FF0E0231B6903F00113F9
:10028800012BF8D04FF0E0231A6922F001021A611D
:1002980000229A61704700BF2000002038B50C4C3E
:1002A800A4FB0034650A2C464FF4077303FB1500C2
:1002B80085B205E04FF40770FFF7D0FF013CE4B2C8
:1002C800002CF7D105B938BD2846FFF7C7FFFAE774
:1002D80049D6B9F210B582B00121112000F0F6F824
:1002E8001023009300238DF8043003238DF8053084
:1002F80001248DF807406946064800F092F80094FA
:1003080002238DF807306946034800F08AF802B0E6
:1003180010BD00BF001002400000024008B510B137
:100328001A4B01221A70194B1B7843B1184BD3F89A
:1003380010325BB1174BD3F80032012B06D0144BA7
:10034800D3F81032012B12D0002008BD0A20FFF785
:10035800A5FF0E4B00221A700D4BD3F810327BB15B
:100368000C4BD3F80032012B0CD01046EDE7094BAB
:10037800D3F8003243B9054B01221A700020E4E794
:100388000120E2E70220E0E70020DEE7000000208D
:10039800000042420000404230B583B001210520F0
:1003A80000F094F80225009501238DF8043000220E
:1003B8008DF8062003228DF805208DF807300B4CA8
:1003C8006946204600F02DF82946204600F07CF8C2
:1003D8002025009504F500646946204600F021F8C0
:1003E8002946204600F070F803B030BD00000240F6
:1003F8007047FEE7FEE7FEE7FEE770477047704785
:100408007047042806D04FF0E022136923F0040354
:10041800136170474FF0E022136943F0040313613E
:10042800704700230F2B4ED830B516E0C2681FFA6C
:1004380083FE4FEA4E044FF0030E0EFA04FE22EA42
:100448000E02C260C26891F807E00EFA0CFC42EA9C
:100458000C02C26001330F2B34D801229A400C6879
:10046800A243F7D104684FEA430C032202FA0CF2C4
:100478006FEA020E24EA0202026002680C7904FAAA
:100488000CF4224302600A79013AD2B2012ACDD88B
:1004980082680EEA0202826082684C7904FA0CF4DF
:1004A8002243826044689DB24FF0010E0EFA05FEA9
:1004B80024EA0E04446044688A79AA4092B222432E
:1004C8004260B3E730BD70470183704721B1054AE8
:1004D800136B184310637047024A136B23EA00003A
:1004E800106370470038024082B0002301930093E4
:1004F8002A4A136843F480331360284B1B6803F4BB
:1005080000330093019B01330193009B1BB9019BAE
:10051800B3F5A04FF1D1214B1B6813F4003F06D06F
:1005280001230093009B012B04D002B070470023E5
:100538000093F7E7194B1A6C42F080521A64184975
:100548000A6842F440420A609A689A609A6842F4DB
:1005580000429A609A6842F4A0529A60114A5A601E
:100568001A6842F080721A600C4B1B6813F0007F07
:10057800FAD00D4B40F205721A60A3F580639A68B1
:1005880022F003029A609A6842F002029A60034BD2
:100598009B6803F00C03082BF9D1C6E7003802402A
:1005A8000070004008544007003C024010B5104C51
:1005B800D4F8883043F47003C4F888300D4B1A68B7
:1005C80042F001021A60002199601A6822F08472D0
:1005D80022F480321A60084A5A601A6822F480228B
:1005E8001A60D960FFF780FF4FF00063A36010BD69
:1005F80000ED00E00038024010300024DFF834D06D
:100608000D480E490E4A002302E0D458C450043362
:10061800C4188C42F9D30B4A0B4C002301E0136039
:100628000432A242FBD3FFF7C1FF00F011F8FFF735
:10063800C7FD7047000002200000002004000020D1
:10064800C00600080400002024000020FEE7000087
:1006580070B50D4D0D4C641BA4100026A64209D19F
:100668000B4D0C4C00F018F8641BA4100026A64291
:1006780005D170BD55F8043B98470136EEE755F8AB
:10068800043B98470136F2E7B8060008B8060008A8
:10069800B8060008BC060008F8B500BFF8BC08BCDE
:1006A8009E467047F8B500BFF8BC08BC9E46704728
:0406B800AD01000888
:0406BC0089010008A8
:0406C0000100000035
:0400000508000605E4
:00000001FF
