:020000040800F2
:1000000000000220F50A0008D5050008D705000801
:10001000D9050008DB050008DD0500080000000028
:10002000000000000000000000000000DF050008E4
:10003000E105000800000000E3050008E5050008F0
:10004000450B0008450B0008450B0008450B000850
:10005000450B0008450B0008450B0008450B000840
:10006000450B0008450B0008450B0008450B000830
:10007000450B0008450B0008450B0008450B000820
:10008000450B0008450B0008450B0008450B000810
:10009000450B0008450B0008450B0008450B000800
:1000A000450B0008450B0008450B0008450B0008F0
:1000B000450B0008450B0008450B0008450B0008E0
:1000C000450B0008450B0008450B0008450B0008D0
:1000D000450B000859050008450B0008450B0008B2
:1000E000450B0008450B0008450B0008450B0008B0
:1000F000450B0008450B0008450B0008450B0008A0
:10010000450B0008450B0008450B0008450B00088F
:10011000450B0008450B0008450B0008450B00087F
:10012000450B0008450B0008450B0008450B00086F
:10013000450B0008450B0008450B0008450B00085F
:10014000450B0008450B0008450B0008450B00084F
:10015000450B0008450B0008450B0008450B00083F
:10016000450B0008450B0008450B0008450B00082F
:10017000450B0008450B0008450B00080000000077
:08018000450B0008450B0008C7
:1001880010B5054C237833B9044B13B10448AFF3C9
:1001980000800123237010BD14000020000000001F
:1001A800900B000808B5034B1BB103490348AFF394
:1001B800008008BD0000000018000020900B000817
:1001C80010B54FF4A06000F00BFAA82000F070F80A
:1001D8004FF4E13000F04CF900F0BCF800F01CF9E5
:1001E800002419E0284800F09FF9284B00221A80C3
:1001F8000AE0274800F098F920E0264800F094F932
:1002080026E00A2000F08AF8002000F0C7F8224B08
:10021800D3F81032984230D01C4BB3F90030002B81
:10022800E0DB0134A4B21D4BA3FB04231B0B41F2FA
:10023800883202FB13439BB2002BDAD0184BA3FB86
:1002480004239B09C82202FB13439BB2002BD4D082
:10025800144AA2FB043222F00F03A3EB1213A4EBFF
:1002680043039BB2002BCCD10F4AD2F88432B3FAA5
:1002780083F35B09C2F88432C3E7C82000F04EF864
:100288000A4800F051F9C7E7A80B0008340100201C
:10029800C00B0008D80B0008000042425917B7D11C
:1002A8001F85EB518988888800004042F00B0008C0
:1002B80010B504466FF0040000F0CEF9E008054BD5
:1002C8001870C0EB401300EB8300C000024B18808D
:1002D80010BD00BF32000020300000200E4B1B88EC
:1002E80003FB00F04FF0E023586100229A611A697D
:1002F80042F001021A614FF0E0231B6903F0011379
:10030800012BF8D04FF0E0231A6922F001021A619C
:1003180000229A61704700BF3000002038B50C4CAD
:10032800A4FB0034650A2C464FF4077303FB150041
:1003380085B205E04FF40770FFF7D0FF013CE4B247
:10034800002CF7D105B938BD2846FFF7C7FFFAE7F3
:1003580049D6B9F210B582B00121112000F058FA3F
:100368001023009300238DF8043003238DF8053003
:1003780001248DF807406946064800F07DF900948D
:1003880002238DF807306946034800F075F902B07A
:1003980010BD00BF001002400000024008B510B1B7
:1003A8001A4B01221A70194B1B7843B1184BD3F81A
:1003B80010325BB1174BD3F80032012B06D0144B27
:1003C800D3F81032012B12D0002008BD0A20FFF705
:1003D800A5FF0E4B00221A700D4BD3F810327BB1DB
:1003E8000C4BD3F80032012B0CD01046EDE7094B2B
:1003F800D3F8003243B9054B01221A700020E4E714
:100408000120E2E70220E0E70020DEE7000000200C
:10041800000042420000404230B583B0012105206F
:1004280000F0F6F90225009501238DF8043000222A
:100438008DF8062003228DF805208DF807300B4C27
:100448006946204600F018F92946204600F067F969
:100458002025009504F500646946204600F00CF953
:100468002946204600F05BF903B030BD0000024089
:10047800F0B589B006460121084600F0C9F9012106
:10048800102000F0D3F9274F07220921384600F041
:1004980048F907220A21384600F043F94FF4C063AF
:1004A800069302238DF81C308DF81D3000248DF83A
:1004B8001E4001258DF81F5006A9384600F0DCF8CB
:1004C8000296ADF80C40ADF80E40ADF81040ADF80E
:1004D80014400C23ADF8123004F1804404F588343C
:1004E80002A9204600F0B0F92946204600F012FA89
:1004F8004021204600F046FA2A4640F2255120467F
:1005080000F01EFA25238DF8043003238DF80530FA
:100518008DF806308DF8075001A800F06BF809B087
:10052800F0BD00BF0000024010B504460AE080217B
:10053800064800F020FA0028F9D014F8011B0348F7
:1005480000F0F6F92378002BF1D110BD001001401E
:1005580008B540F225511A4800F018FA00B908BD4C
:10056800174800F0E9F9C0B2164A1388B2F900201A
:10057800002AF4DB13F4804F0CD00A2803D0114B67
:1005880000221A80EBE76FEA43436FEA53430D4AB0
:100598001380E4E70D280DD0C3F30D020A498854EF
:1005A80001339BB2074A1380FF2BD8D91346002288
:1005B8001A80D4E743F48043024A1380CFE700BF90
:1005C8000010014034010020340000207047FEE78D
:1005D800FEE7FEE7FEE77047704770477047000088
:1005E80040F0BF6040F40030014BD860704700BF56
:1005F80000ED00E0C378FBB1154BDB68DB43C3F3C8
:100608000222C2F10401C9B20F23134142788A4081
:10061800D2B281780B4013431B01DBB202780D493B
:100628000A4482F80033037803F01F005B090122B3
:10063800824041F823207047037803F01F015B09CB
:1006480001228A402033034941F82320704700BF24
:1006580000ED00E000E100E0042806D04FF0E022C1
:10066800136923F00403136170474FF0E022136904
:1006780043F004031361704700230F2B4ED830B5A5
:1006880016E0C2681FFA83FE4FEA4E044FF0030ECD
:100698000EFA04FE22EA0E02C260C26891F807E070
:1006A8000EFA0CFC42EA0C02C26001330F2B34D85C
:1006B80001229A400C68A243F7D104684FEA430C20
:1006C800032202FA0CF26FEA020E24EA0202026026
:1006D80002680C7904FA0CF4224302600A79013AA0
:1006E800D2B2012ACDD882680EEA020282608268FC
:1006F8004C7904FA0CF42243826044689DB24FF0AE
:10070800010E0EFA05FE24EA0E04446044688A7954
:10071800AA4092B222434260B3E730BD70470183DA
:10072800704700B501F007039B0002FA03FCC908F3
:10073800083150F821204FF00F0E0EFA03F322EA89
:10074800030340F8213050F8212042EA0C0240F817
:1007580021205DF804FB000010B4294B9B6803F0CE
:100768000C03042B23D0082B24D013B1254B036092
:1007780001E0244B0360224CA368C3F3031322490E
:10078800CB5CDAB20368D3404360A268C2F382222A
:100798008A5CD2B223FA02F28260A268C2F34232C1
:1007A8008A5CD2B2D340C3605DF8044B7047174BE4
:1007B8000360E0E7124B59685A6802F03F0211F4EF
:1007C800800F12D0114BB3FBF2F30D4A5268C2F3FB
:1007D800881202FB03F30A4A5268C2F3014201324B
:1007E8005200B3FBF2F30360C5E7064BB3FBF2F329
:1007F800034A5268C2F3881202FB03F3EBE700BF17
:10080800003802400024F4000400002000127A009E
:1008180021B1054A136B184310637047024A136BE2
:1008280023EA0000106370470038024021B1054AEE
:10083800536C184350647047024A536C23EA000013
:10084800506470470038024030B585B004460D4604
:10085800038A9BB223F44053CA88134303828389D3
:100868009BB223F4B05323F00C03898828896A8942
:1008780001430A431343A381A38A9BB223F4407321
:10088800AA891343A3826846FFF766FF1F4B9C4261
:1008980005D003F580639C4201D0029B00E0039BD6
:1008A800A28912F4004F1FD103EB830303EB8303E8
:1008B8002A689200B3FBF2F3154AA2FB031252090D
:1008C8001101642002FB1033A28912F4004F14D1E5
:1008D8001B0132330E4AA2FB0323C3F343130B431A
:1008E8009BB2238105B030BD03EB830303EB830385
:1008F8002A685200B3FBF2F3DEE7DB003233044A26
:10090800A2FB0323C3F342130B43E9E700100140A2
:100918001F85EB5129B183899BB243F4005383812E
:10092800704783899BB223F400539BB2838170473D
:10093800C1F30801818070478088C0F308007047C0
:10094800C1F3421C01F01F01012303FA01F19C4588
:1009580008D0BCF1020F07D014303AB1036819432C
:10096800016070470C30F8E71030F6E7036823EAB7
:100978000101016070470388194201D001207047C6
:1009880000207047C94389B201807047C1F3421201
:1009980001F01F0C012303FA0CF3012A0FD0022ADD
:1009A80011D0828A92B21340090A012202FA01F197
:1009B800028892B20A4053B15AB90020704782891E
:1009C80092B21340F0E7028A92B21340ECE700209B
:1009D800704701207047000082B000230193009304
:1009E8002A4A136843F480331360284B1B6803F4C6
:1009F80000330093019B01330193009B1BB9019BBA
:100A0800B3F5A04FF1D1214B1B6813F4003F06D07A
:100A180001230093009B012B04D002B070470023F0
:100A28000093F7E7194B1A6C42F080521A64184980
:100A38000A6842F440420A609A689A609A6842F4E6
:100A480000429A609A6842F4A0529A60114A5A6029
:100A58001A6842F080721A600C4B1B6813F0007F12
:100A6800FAD00D4B40F205721A60A3F580639A68BC
:100A780022F003029A609A6842F002029A60034BDD
:100A88009B6803F00C03082BF9D1C6E70038024035
:100A98000070004008544007003C024010B5104C5C
:100AA800D4F8883043F47003C4F888300D4B1A68C2
:100AB80042F001021A60002199601A6822F08472DB
:100AC80022F480321A60084A5A601A6822F4802296
:100AD8001A60D960FFF780FF4FF00063A36010BD74
:100AE80000ED00E00038024010300024DFF834D078
:100AF8000D480E490E4A002302E0D458C45004336E
:100B0800C4188C42F9D30B4A0B4C002301E0136044
:100B18000432A242FBD3FFF7C1FF00F011F8FFF740
:100B28004FFB704700000220000000201400002046
:100B38000C0C00081400002038010020FEE700001B
:100B480070B50D4D0D4C641BA4100026A64209D1AA
:100B58000B4D0C4C00F018F8641BA4100026A6429C
:100B680005D170BD55F8043B98470136EEE755F8B6
:100B7800043B98470136F2E7040C0008040C00080F
:100B8800040C0008080C0008F8B500BFF8BC08BC45
:100B98009E467047F8B500BFF8BC08BC9E46704733
:100BA8000D0A68656C6C6F205068756E67204D691A
:100BB8006E682044756300000D0A53544D33324665
:100BC800343037567854362074696D65350D0A000F
:100BD80053544D333246343037567854362074697E
:100BE8006D65320D0A0000000D0A4B4559306461ED
:0C0BF8002064756F6320616E0D0A000020
:040C0400AD01000836
:040C08008901000856
:100C0C0001000000000000000102030401020304C3
:040C1C0006070809B6
:0400000508000AF5F0
:00000001FF
