:020000040800F2
:10000000000002201105000805030008070300088E
:10001000090300080B0300080D030008000000009E
:100020000000000000000000000000000F030008B6
:100030001103000800000000130300081503000866
:1000400061050008610500086105000861050008F8
:1000500061050008610500086105000861050008E8
:1000600061050008610500086105000861050008D8
:1000700061050008610500086105000861050008C8
:1000800061050008610500086105000861050008B8
:1000900061050008610500086105000861050008A8
:1000A0006105000861050008610500086105000898
:1000B0006105000861050008610500086105000888
:1000C0006105000861050008610500086105000878
:1000D0006105000861050008610500086105000868
:1000E0006105000861050008610500086105000858
:1000F0006105000861050008610500086105000848
:100100006105000861050008610500086105000837
:100110006105000861050008610500086105000827
:100120006105000861050008610500086105000817
:100130006105000861050008610500086105000807
:1001400061050008610500086105000861050008F7
:1001500061050008610500086105000861050008E7
:1001600061050008610500086105000861050008D7
:100170006105000861050008610500080000000035
:0801800061050008610500089B
:1001880010B5054C237833B9044B13B10448AFF3C9
:1001980000800123237010BD000000200000000033
:1001A800AC05000808B5034B1BB103490348AFF37E
:1001B800008008BD0000000004000020AC05000815
:1001C80080B5A82000F048F800F01AF80A4E00257B
:1001D800C6F88452094C0127C4F894724FF4FA7097
:1001E80000F070F8C6F88472C4F894524FF4FA70AC
:1001F80000F068F8EAE700BF000040420000414212
:1002080030B583B00121052000F0E6F802250095FD
:1002180001238DF8043000228DF8062003228DF882
:1002280005208DF807300B4C6946204600F07FF812
:100238002946204600F0CEF82025009504F50064F4
:100248006946204600F073F82946204600F0C2F8B7
:1002580003B030BD0000024010B504466FF0040042
:1002680000F055F8E008054B1870C0EB401300EBA0
:100278008300C000024B188010BD00BF1E00002084
:100288001C0000200E4B1B8803FB00F04FF0E023FE
:10029800586100229A611A6942F001021A614FF00E
:1002A800E0231B6903F00113012BF8D04FF0E02382
:1002B8001A6922F001021A6100229A61704700BF90
:1002C8001C00002038B50C4CA4FB0034650A2C46F1
:1002D8004FF4077303FB150085B205E04FF4077070
:1002E800FFF7D0FF013CE4B2002CF7D105B938BDC7
:1002F8002846FFF7C7FFFAE749D6B9F27047FEE785
:10030800FEE7FEE7FEE7704770477047704704282E
:1003180006D04FF0E022136923F0040313617047FD
:100328004FF0E022136943F0040313617047002380
:100338000F2B4ED830B516E0C2681FFA83FE4FEA7D
:100348004E044FF0030E0EFA04FE22EA0E02C260BB
:10035800C26891F807E00EFA0CFC42EA0C02C2608F
:1003680001330F2B34D801229A400C68A243F7D1ED
:1003780004684FEA430C032202FA0CF26FEA020EF9
:1003880024EA0202026002680C7904FA0CF422439F
:1003980002600A79013AD2B2012ACDD882680EEAFF
:1003A8000202826082684C7904FA0CF4224382606B
:1003B80044689DB24FF0010E0EFA05FE24EA0E04C1
:1003C800446044688A79AA4092B222434260B3E703
:1003D80030BD70470183704721B1054A136B18433C
:1003E80010637047024A136B23EA000010637047DA
:1003F8000038024082B00023019300932A4A136810
:1004080043F480331360284B1B6803F400330093D4
:10041800019B01330193009B1BB9019BB3F5A04FCE
:10042800F1D1214B1B6813F4003F06D00123009340
:10043800009B012B04D002B0704700230093F7E71C
:10044800194B1A6C42F080521A6418490A6842F42F
:1004580040420A609A689A609A6842F400429A6038
:100468009A6842F4A0529A60114A5A601A6842F097
:1004780080721A600C4B1B6813F0007FFAD00D4B8A
:1004880040F205721A60A3F580639A6822F00302AD
:100498009A609A6842F002029A60034B9B6803F0E4
:1004A8000C03082BF9D1C6E7003802400070004061
:1004B80008544007003C024010B5104CD4F888306E
:1004C80043F47003C4F888300D4B1A6842F00102F7
:1004D8001A60002199601A6822F0847222F480322E
:1004E8001A60084A5A601A6822F480221A60D96091
:1004F800FFF780FF4FF00063A36010BD00ED00E040
:100508000038024010300024DFF834D00D480E497E
:100518000E4A002302E0D458C4500433C4188C4255
:10052800F9D30B4A0B4C002301E013600432A242BA
:10053800FBD3FFF7C1FF00F011F8FFF741FE70474A
:10054800000002200000002000000020CC05000868
:100558000000002020000020FEE7000070B50D4DCF
:100568000D4C641BA4100026A64209D10B4D0C4C5F
:1005780000F018F8641BA4100026A64205D170BD2F
:1005880055F8043B98470136EEE755F8043B984781
:100598000136F2E7C4050008C4050008C4050008D0
:1005A800C8050008F8B500BFF8BC08BC9E467047EF
:0C05B800F8B500BFF8BC08BC9E467047B8
:0405C400AD0100087D
:0405C800890100089D
:0400000508000511D9
:00000001FF
