:020000040800F2
:1000000000000220E5590008AD510008AF5100087A
:10001000B1510008B3510008B551000800000000BC
:10002000000000000000000000000000B7510008C0
:10003000B951000800000000BB510008BD51000884
:10004000355A0008355A0008355A0008355A000854
:10005000355A0008355A0008355A0008355A000844
:10006000355A0008355A0008355A0008355A000834
:10007000355A0008355A0008355A0008355A000824
:10008000355A0008355A0008355A0008355A000814
:10009000355A0008355A0008355A0008355A000804
:1000A000355A0008355A0008355A0008355A0008F4
:1000B000355A0008355A0008355A0008355A0008E4
:1000C000355A0008355A0008355A0008355A0008D4
:1000D000355A000831510008355A0008355A0008D1
:1000E000355A0008355A0008355A0008355A0008B4
:1000F000355A0008355A0008355A0008355A0008A4
:10010000355A0008355A0008355A0008355A000893
:10011000355A0008355A0008355A0008355A000883
:10012000355A0008355A0008355A0008355A000873
:10013000355A0008355A0008355A0008355A000863
:10014000355A0008355A0008355A0008355A000853
:10015000355A0008355A0008355A0008355A000843
:10016000355A0008355A0008355A0008355A000833
:10017000355A0008355A0008355A000800000000BA
:08018000355A0008355A000849
:1001900010B5054C237833B9044B13B10448AFF3C1
:1001A00000800123237010BD7800002000000000B3
:1001B000A06A000808B5034B1BB103490348AFF31D
:1001C000008008BD000000007C000020A06A00083C
:1001D000034613F8012B002AFBD1181A0138704787
:1001E00001F0FF01102A2BDB10F0070F08D010F8E8
:1001F000013B013A8B422DD010F0070F42B3F6D1EC
:10020000F0B441EA012141EA014122F007047FF004
:1002100000070023F0E80256083C85EA010586EA5B
:10022000010685FA47F5A3FA87F586FA47F6A5FA97
:1002300087F68EB9EED1F0BC01F0FF0102F00702A3
:1002400032B110F8013B013A83EA010313B1F8D14E
:100250000020704701387047002D06BF354603382F
:10026000073815F0010F07D1013015F4807F02BF68
:10027000013015F4C03F0130F0BC0138704700BFB9
:1002800070B54FF0FF0C4CF4E06C1CEA11541DBF2C
:100290001CEA135594EA0C0F95EA0C0F00F0DEF8F7
:1002A0002C4481EA030621EA4C5123EA4C5350EADC
:1002B000013518BF52EA033541F4801143F480132D
:1002C00038D0A0FB02CE4FF00005E1FB02E506F0BE
:1002D0000042E0FB03E54FF00006E1FB03569CF013
:1002E000000F18BF4EF0010EA4F1FF04B6F5007F19
:1002F00064F5407404D25FEA4E0E6D4146EB06068B
:1003000042EAC62141EA55514FEAC52040EA5E5013
:100310004FEACE2EB4F1FD0C88BFBCF5E06F1ED8BD
:10032000BEF1004F08BF5FEA500E50F1000041EBF4
:10033000045170BD06F0004646EA010140EA0200A1
:1003400081EA0301B4EB5C04C2BFD4EB0C0541EAC3
:10035000045170BD41F480114FF0000E013C00F3D8
:10036000AB8014F1360FDEBF002001F0004170BDFC
:10037000C4F10004203C35DA0C341BDC04F1140415
:10038000C4F1200500FA05F320FA04F001FA05F2A1
:1003900040EA020001F0004221F0004110EBD3706E
:1003A00021FA04F642EB06015EEA430E08BF20EA9A
:1003B000D37070BDC4F10C04C4F1200500FA04F33D
:1003C00020FA05F001FA04F240EA020001F00041CF
:1003D00010EBD37041F100015EEA430E08BF20EA42
:1003E000D37070BDC4F1200500FA05F24EEA020E8A
:1003F00020FA04F301FA05F243EA020321FA04F0B9
:1004000001F0004121FA04F220EA020000EBD3706F
:100410005EEA430E08BF20EAD37070BD94F0000F6F
:100420000FD101F00046400041EB010111F4801FA3
:1004300008BF013CF7D041EA060195F0000F18BF54
:10044000704703F00046520043EB030313F4801F90
:1004500008BF013DF7D043EA0603704794EA0C0F4A
:100460000CEA135518BF95EA0C0F0CD050EA410660
:1004700018BF52EA4306D1D181EA030101F00041DD
:100480004FF0000070BD50EA410606BF1046194605
:1004900052EA430619D094EA0C0F02D150EA013611
:1004A00013D195EA0C0F05D152EA03361CBF104652
:1004B00019460AD181EA030101F0004141F0FE41F1
:1004C00041F470014FF0000070BD41F0FE4141F475
:1004D000780170BD81F0004102E000BF83F000436D
:1004E00030B54FEA41044FEA430594EA050F08BFCF
:1004F00090EA020F1FBF54EA000C55EA020C7FEA93
:10050000645C7FEA655C00F0E2804FEA5454D4EB0F
:100510005555B8BF6D420CDD2C4480EA020281EAD9
:10052000030382EA000083EA010180EA020281EA11
:100530000303362D88BF30BD11F0004F4FEA013163
:100540004FF4801C4CEA113102D0404261EB410172
:1005500013F0004F4FEA03334CEA133302D05242F8
:1005600063EB430394EA050F00F0A780A4F10104B4
:10057000D5F1200E0DDB02FA0EFC22FA05F28018EE
:1005800041F1000103FA0EF2801843FA05F35941D4
:100590000EE0A5F120050EF1200E012A03FA0EFC53
:1005A00028BF4CF0020C43FA05F3C01851EBE3717D
:1005B00001F0004507D54FF0000EDCF1000C7EEB9A
:1005C00000006EEB0101B1F5801F1BD3B1F5001FD8
:1005D0000CD349085FEA30004FEA3C0C04F10104F7
:1005E0004FEA445212F5800F80F09A80BCF1004F20
:1005F00008BF5FEA500C50F1000041EB045141EAA2
:10060000050130BD5FEA4C0C404141EB0101013C6A
:1006100028BFB1F5801FE9D291F0000F04BF014659
:100620000020B1FA81F308BF2033A3F10B03B3F12B
:1006300020020CDA0C3208DD02F1140CC2F10C02BB
:1006400001FA0CF021FA02F10CE002F11402D8BF19
:10065000C2F1200C01FA02F120FA0CFCDCBF41EAE5
:100660000C019040E41AA2BF01EB0451294330BDB4
:100670006FEA04041F3C1CDA0C340EDC04F1140491
:10068000C4F1200220FA04F001FA02F340EA030068
:1006900021FA04F345EA030130BDC4F10C04C4F1AE
:1006A000200220FA02F001FA04F340EA030029468E
:1006B00030BD21FA04F0294630BD94F0000F83F4D8
:1006C000801306BF81F480110134013D4EE77FEABB
:1006D000645C18BF7FEA655C29D094EA050F08BF07
:1006E00090EA020F05D054EA000C04BF19461046E8
:1006F00030BD91EA030F1EBF0021002030BD5FEA2C
:10070000545C05D14000494128BF41F0004130BD53
:1007100014F580043CBF01F5801130BD01F00045A7
:1007200045F0FE4141F470014FF0000030BD7FEA1A
:10073000645C1ABF194610467FEA655C1CBF0B4615
:10074000024650EA013406BF52EA033591EA030F2C
:1007500041F4002130BD00BF90F0000F04BF002124
:10076000704730B54FF4806404F132044FF0000557
:100770004FF0000150E700BF90F0000F04BF0021D0
:10078000704730B54FF4806404F1320410F0004536
:1007900048BF40424FF000013EE700BF42004FEA31
:1007A000E2014FEA31014FEA02701FBF12F07F43AE
:1007B00093F07F4F81F06051704732F07F4208BF65
:1007C000704793F07F4F04BF41F40021704730B56C
:1007D0004FF4607401F0004521F000411CE700BFB8
:1007E00050EA010208BF704730B54FF000050AE03B
:1007F00050EA010208BF704730B511F0004502D53C
:10080000404261EB41014FF4806404F132045FEA3D
:10081000915C3FF4D8AE4FF003025FEADC0C18BFE6
:1008200003325FEADC0C18BF033202EBDC02C2F1D8
:10083000200300FA03FC20FA02F001FA03FE40EA6A
:100840000E0021FA02F11444BDE600BF4A0011D2A5
:1008500012F5001211D20DD56FF47873B3EB62521A
:100860000ED44FEAC12343F0004343EA505323FA26
:1008700002F070474FF00000704750EA013002D19B
:100880004FF0FF3070474FF0000070474FEA4102D1
:10089000B2F1E04324BFB3F5001CDCF1FE5C0DD9DE
:1008A00001F0004C4FEAC0024CEA5070B2F1004F28
:1008B00040EB830008BF20F00100704711F0804F2B
:1008C00021D113F13872BCBF01F00040704741F4F0
:1008D00080114FEA5252C2F11802C2F1200C10FAF4
:1008E0000CF320FA02F018BF40F001004FEAC123D8
:1008F0004FEAD32303FA0CFC40EA0C0023FA02F37C
:100900004FEA4303CCE77FEA625307D150EA013351
:100910001EBF4FF0FE4040F44000704701F0004021
:1009200040F0FE4040F40000704700BF70B5002565
:100930004FF4A06004F044FCA82000F04DF84FF400
:10094000E13004F099FB04F02BFA01F0FFF900F01C
:10095000B5F800F025F900F0B1FC04F04DFA2E4690
:1009600024E0B6F57A6F01D26436B6B23146002083
:1009700004F044FD013CE4B2012C24D9144BA3FB48
:1009800005231B0903EB8303A5EB830313F0FF0F80
:1009900007D1104AD2F88432B3FA83F35B09C2F864
:1009A00084320135EDB20A2000F06CF8002000F02E
:1009B000A9FC04460228D4D00128D7D1632ED5D96A
:1009C000643EB6B2D2E704F0FFFA04F0ADFAD5E720
:1009D000CDCCCCCC0000404210B504466FF00400F2
:1009E00004F02AFCE008054B1870C0EB401300EB44
:1009F0008300C000024B188010BD00BF960000208D
:100A0000940000200E4B1B7803FB00F04FF0E02316
:100A1000586100229A611A6942F001021A614FF08E
:100A2000E0231B6903F00113012BF8D04FF0E02302
:100A30001A6922F001021A6100229A61704700BF10
:100A4000960000200E4B1B8803FB00F04FF0E023C4
:100A5000586100229A611A6942F001021A614FF04E
:100A6000E0231B6903F00113012BF8D04FF0E023C2
:100A70001A6922F001021A6100229A61704700BFD0
:100A80009400002038B50C4CA4FB0034650A2C46B9
:100A90004FF4077303FB150085B205E04FF40770B0
:100AA000FFF7D0FF013CE4B2002CF7D105B938BD07
:100AB0002846FFF7C7FFFAE749D6B9F230B58DB03F
:100AC0000121084604F002FE01214FF4807004F079
:100AD00027FE20230A9303238DF82C3000248DF861
:100AE0002F400AA9164804F025FD01214FF480701B
:100AF00004F024FE21464FF4807004F01FFE06949B
:100B0000099408944FF48033079306A804F0CEFBB1
:100B100000948DF804408DF805400294049401255A
:100B20008DF8145004F1804404F590346946204651
:100B300004F092FB2946204604F0CEFB0DB030BDF8
:100B40000000024010B50146094C0723012220464F
:100B500004F0CDFB204604F016FC0221044804F00A
:100B60001AFC0028F9D0024804F012FC10BD00BFA6
:100B700000200140F8B507460E460024254608E04F
:100B80003846FFF7DFFF05440520FFF77BFF013400
:100B9000E4B2B442F4D3B5FBF6F080B2F8BD000085
:100BA00030B587B00121084604F090FD01214FF0D7
:100BB000005004F0A7FD1023049303238DF8143094
:100BC00002258DF8175004A90A4804F0B3FC00244C
:100BD00000940194029403956946204604F0E2FBD8
:100BE0000121204604F0F6FB2146204604F006FCD5
:100BF00007B030BD000002402DE9F04F85B08B46B4
:100C000017461D469DF83C909DF840400194464B88
:100C10001A8802929DF838A0AAF1200A5FFA8AFA8F
:100C20004FEA5906039000EB590292B201EB090317
:100C30009BB2013B013A9BB292B200F07BFD84B3C0
:100C40004FF00008CDF804A0DDF80CA04DE00AEB51
:100C50004A03364A02EB830313F80B801FE0384641
:100C600000F0E4FB4FEA48085FFA88F80134E4B288
:100C7000A64206D918F0800FF1D1284600F0D6FB25
:100C8000F0E70BF1010B5FFA8BFBCB453AD2B9F1E0
:100C90000C0FDCD0264B03EB0A1313F80B80019CDE
:100CA000E6E7DDF804B0F0E7019B03EB43031F4ADE
:100CB00002EB830313F8085022E06D00EDB201341B
:100CC000E4B2A6420DD9184B1F8015F0800FF4D066
:100CD0000BEB08010AEB040089B280B200F07CFE45
:100CE000EBE708F101085FFA88F8C8450AD2B9F1C4
:100CF0000C0FD9D00E4B019A03EB021313F80850D6
:100D00000024DEE7084B029A1A800A4B9A88DB8897
:100D1000013B013A9BB292B20021084600F00AFD65
:100D200005B0BDE8F08F00BF98000020B86A000849
:100D30002C6F00089C0000200246012002E002FB0C
:100D400000F019464B1EDBB20029F8D170470000B5
:100D50002DE9F04F85B08246894690461D469DF8A4
:100D600038609DF83CB000273C4636E0BBF1000FF0
:100D70000FD0700800FB04A002930196302300936B
:100D8000264B1B88264A1288494680B2FFF734FF5B
:100D900021E0700800FB04A00023029301962023A9
:100DA00000931E4B1B881E4A1288494680B2FFF7EB
:100DB00023FF10E0700800FB04A0002202920196BD
:100DC0003033DBB20093154B1B88154A1288494615
:100DD00080B2FFF711FF0134E4B2AC421AD2291BF2
:100DE000C9B20139C9B20A20FFF7A6FFB8FBF0F07B
:100DF0000C4BA3FB0023DB0803EB8303A0EB4303B3
:100E0000DBB2002FD6D16A1E9442D3DA002BADD0CC
:100E10000127CFE705B0BDE8F08F00BF020000203A
:100E200098000020CDCCCCCC2DE9F04F85B0834686
:100E30000191924603939DF83C9005464FF00008BF
:100E400043E0404600F0F2FA13E03A4BA3F800A06A
:100E500006EB0613384A02EB43033B449A7880239F
:100E600023411A421BD10135ADB2A5EB0B03102B68
:100E70001AD00134E4B2072C1BD8B9F1000FE4D129
:100E800006EB06132C4A02EB43033B449A7880237B
:100E900023411A42D5D0504600F0C8FAE9E701993B
:100EA000284600F099FDDEE7019B01339BB20193D8
:100EB0005D460137FFB21F2F01D80024DBE7DDF8C4
:100EC000088008F101081FFA88F8B8F1470F23D805
:100ED000464608EB0813184A12F813200E9B1B789D
:100EE0009A42EED108EB0813134A02EB43035A78F7
:100EF0000E9B5B789A42E4D101990B460F3305F1C2
:100F00000F029BB292B2284600F014FC0027CDF8E5
:100F10000880DDF80C80CEE7084B9A88DB88013B1F
:100F2000013A9BB292B20021084600F003FC05B0E2
:100F3000BDE8F08F980000201C7500089C00002080
:100F40002DE9F04F85B082460191914602939DF8BC
:100F50003C8005464FF0000B41E0584600F066FA31
:100F600012E0394BA3F80090384B4A2202FB0733BA
:100F700033449A78802323411A421AD10135ADB205
:100F8000A5EB0A03182B19D00134E4B2072C1AD8A8
:100F9000B8F1000FE5D12D4B4A2202FB0733334451
:100FA0009A78802323411A42D7D0484600F03EFA6F
:100FB000EAE70199284600F00FFDDFE7019B0133C6
:100FC0009BB2019355460136F6B2472E01D8002454
:100FD000DCE7DDF80CB00BF1010B1FFA8BFBBBF16A
:100FE000060F22D85F464A2303FB0BF3174AD25C55
:100FF0000E9B1B789A42EED1144B4A2202FB0B3314
:101000005A780E9B5B789A42E5D101990B461733CB
:1010100005F117029BB292B2284600F08BFB002626
:10102000CDF80CB0DDF808B0CFE7094B9A88DB8823
:10103000013B013A9BB292B20021084600F07AFBD4
:1010400005B0BDE8F08F00BF98000020AC7E00081E
:101050009C0000202DE9F04F85B082460191914619
:1010600002939DF83C8005464FF0000B44E0584643
:1010700000F0DCF913E03B4BA3F8009006EB86137D
:10108000394A02EB43033B449A78802323411A42B6
:101090001BD10135ADB2A5EB0A03202B1AD00134C8
:1010A000E4B2072C1BD8B8F1000FE4D106EB86138D
:1010B0002D4A02EB43033B449A78802323411A4292
:1010C000D5D0484600F0B2F9E9E70199284600F08A
:1010D00083FCDEE7019B01339BB201935546013748
:1010E000FFB217F0800F01D10024DAE7DDF80CB071
:1010F0000BF1010B1FFA8BFBBBF1030F23D85E46EC
:101100000BEB8B13184A12F813200E9B1B789A4294
:10111000EED10BEB8B13144A02EB43035A780E9B70
:101120005B789A42E4D101990B461F3305F11F0207
:101130009BB292B2284600F0FDFA0027CDF80CB021
:10114000DDF808B0CDE7094B9A88DB88013B013A0E
:101150009BB292B20021084600F0ECFA05B0BDE85F
:10116000F08F00BF98000020B48000089C00002091
:101170002DE9F04F87B00590884692460493109F62
:101180009DF844609DF848B004464FF000092FE0F8
:10119000B0441FFA88F80137059C013728E0CDF8E4
:1011A00008B001960093049B524641462046FFF743
:1011B00023FD2C44A4B2F0E72D4B9B889B1B9C4243
:1011C00053DC2B4BDB889B1B98454EDC202E35D007
:1011D000182E3DD0CDF804B00097049B52464146EE
:1011E0002046FFF721FE02373444A4B24FF0000935
:1011F0003B78002B39D0B9F1000FDDD11C4A928821
:101200007508A2EB560294422FDC194AD288921B31
:1012100090452ADC802B25D80D2BB9D0102EBED9B5
:10122000CDF808B0102201920093049B524641462B
:101230002046FFF7E1FC0834A4B2AEE7CDF804B0D5
:101240000097049B524641462046FFF703FFCAE73A
:10125000CDF804B00097049B524641462046FFF764
:101260006FFEC0E74FF00109C2E707B0BDE8F08F9D
:101270009C000020F0B585B00C4615461E460A9F1E
:101280003846FEF7A5FF0C4BB3F804C080B2ACEBB8
:10129000C00000EBD0709DF8303002939DF82C30E8
:1012A0000193009733462A462146C0F34F00FFF7CB
:1012B0005FFF05B0F0BD00BF9C00002010B582B0FC
:1012C0000121112004F002FA1023009300238DF86D
:1012D000043003238DF8053001248DF8074069465A
:1012E000064804F027F9009402238DF80730694678
:1012F000034804F01FF902B010BD00BF0010024007
:101300000000024008B510B11A4B01221A70194BA7
:101310001B7843B1184BD3F810325BB1174BD3F89D
:101320000032012B06D0144BD3F81032012B12D00F
:10133000002008BD0A20FFF7A5FB0E4B00221A7003
:101340000D4BD3F810327BB10C4BD3F80032012B8C
:101350000CD01046EDE7094BD3F8003243B9054BEA
:1013600001221A700020E4E70120E2E70220E0E712
:101370000020DEE700000020000042420000404262
:1013800082B0ADF80600BDF806309BB2ADF806306D
:10139000BDF806309BB2024AA2F8FE3002B0704798
:1013A00000FF016082B0ADF80600BDF806309BB2C8
:1013B000ADF80630BDF806309BB2024AA2F8003103
:1013C00002B0704700FF016082B0054BB3F80031F6
:1013D0009BB2ADF80630BDF8060080B202B070478F
:1013E00000FF0160024BA3F8FE00A3F80011704754
:1013F00000FF016070B50C461546FFF7C1FF08E01D
:10140000FFF7E2FF24F8020B4FF49670FFF7FAFAA9
:1014100035466E1E002DF3D170BD000008B5024B9D
:101420009889FFF7ADFF08BD9C000020014BA3F891
:101430000001704700FF016010B50446BE20FFF7B1
:101440009FFF0520FFF7AEFF2046FFF795F90CA39D
:10145000D3E90023FEF714FFFFF7F8F980B2FFF796
:10146000A1FF0120FFF79EFFFF20FFF79BFF002059
:10147000FFF798FF0020FFF795FF10BDAFF3008046
:1014800066666666666604402DE9F043A1B00121F8
:101490001A2004F01BF90121084604F025F94FF445
:1014A00000431E9301278DF87C7000248DF87E4048
:1014B0004FF002098DF87D908DF87F701EA96C4861
:1014C00004F038F84FF400531E938DF87C708DF8BB
:1014D0007E404FF003088DF87D808DF87F70654D5C
:1014E0001EA9284604F026F84CF233731E938DF89B
:1014F0007C908DF87E408DF87D808DF87F701EA9E0
:10150000284604F017F84FF680731E938DF87C90F0
:101510008DF87E408DF87D808DF87F70564E1EA927
:10152000304604F007F84FF408631E938DF87C9062
:101530008DF87E408DF87D808DF87F701EA928463D
:1015400003F0F8FF0C222146284604F048F80C224C
:101550003946284604F043F80C220421284604F0BA
:101560003EF80C220521284604F039F80C22082107
:10157000284604F034F80C220921284604F02FF8FC
:101580000C220A21284604F02AF80C220E212846B3
:1015900004F025F80C220F21284604F020F80C2234
:1015A0000721304604F01BF80C220821304604F0D5
:1015B00016F80C220921304604F011F80C220A21F9
:1015C000304604F00CF80C220B21304604F007F8EA
:1015D0000C221146304604F002F80C220D21304650
:1015E00003F0FDFF0C220E21304603F0F8FF0C2221
:1015F0000F21304603F0F3FF0C220721284603F0A9
:10160000EEFF0C220B21284603F0E9FF0F2308937D
:1016100009943C230A930B940C940D940E94092383
:101620000193029408230393049405940694079469
:101630000F941094119410231293139415941494EE
:10164000169417944FF48053189319944FF48043D1
:101650001A931B9408AB1C9301AB1D930FA803F0C6
:10166000EFFE3946204603F04FFF21B0BDE8F0837E
:1016700000040240000C0240001002402B4B5A684C
:1016800022F00F025A605A6822F470625A60284BA6
:101690001B8949F24132934220D049F2864293425B
:1016A00026D049F28842934222D045F2103293422A
:1016B0001ED047F2967293421AD041F663129342BB
:1016C00016D04BF2095293421CD047F293729342C8
:1016D00018D045F2105293421ED07047134B5A68EF
:1016E00042F004025A605A6842F440725A607047ED
:1016F0000E4B5A6842F004025A605A6842F4806203
:101700005A607047094B5A6842F005025A605A689D
:1017100042F480625A607047044B5A6842F00302F8
:101720005A605A6842F400725A60D6E7000100A07D
:101730009C0000202DE9F84305460C4617461E463E
:101740004FF00008C146924B1B894BF2095293425D
:1017500037D047F29372934233D045F210529342FE
:1017600000F0958041F66312934200F0DD80DFF8CF
:101770002082B8F81000FFF703FEC5F30F20FFF733
:1017800011FEE8B2FFF70EFEC7F30F20FFF70AFEC7
:10179000F8B2FFF707FEB8F81200FFF7F1FDC4F347
:1017A0000F20FFF7FFFDE0B2FFF7FCFDC6F30F20AF
:1017B000FFF7F8FDF0B2FFF7F5FDFFF72FFEBDE8EC
:1017C000F883734B9B7A032B41D8DFE803F03E028A
:1017D000152B6F4BDA88931B9BB2013BA2EB0408DD
:1017E0001FFA88F808F1FF381FFA88F8A9463E4624
:1017F00047462C469DB22AE0654A9388D91B89B298
:1018000001395F1BBFB2013FBFB2D288931B9BB2AD
:10181000013B161BB6B2013EB6B2B146B8469CB209
:101820008DB214E05A4B9B88DA1B92B2013AA3EBBB
:1018300005091FFA89F909F1FF391FFA89F9A0464C
:1018400037464E46254694B201E0A146A8462946B1
:101850004FF40470FFF7C6FD214640F21220FFF757
:10186000C1FD394640F21120FFF7BCFD314640F280
:101870001320FFF7B7FD464C4146208AFFF7B2FD23
:101880004946608AFFF7AEFDFFF7C8FD97E7DFF82E
:101890000081B8F81000FFF773FDC5F30F20FFF7C4
:1018A00081FDB8F81000013080B2FFF769FDE8B2A1
:1018B000FFF778FDB8F81000023080B2FFF760FD46
:1018C000C7F30F20FFF76EFDB8F81000033080B2A9
:1018D000FFF756FDF8B2FFF765FDB8F81200FFF705
:1018E0004FFDC4F30F20FFF75DFDB8F81200013083
:1018F00080B2FFF745FDE0B2FFF754FDB8F81200E3
:10190000023080B2FFF73CFDC6F30F20FFF74AFD1F
:10191000B8F81200033080B2FFF732FDF0B2FFF7E3
:1019200041FDFFF77BFD4AE7194B9B7A022B0FD055
:10193000032B18D0002B7FF41AAF154B9B88DA1BB2
:1019400092B2013A1F1ABFB2013FBFB295B20EE781
:101950000F4BDB889A1B92B2013A5E1AB6B2013E77
:10196000B6B294B203E70A498B88DA1B92B2013A05
:101970001F1ABFB2013FBFB2CB88991B89B2013990
:101980001E1BB6B2013EB6B28CB295B2EFE600BFF6
:101990009C00002038B504460A4B9A88DB8803FB7C
:1019A00002F5013B013A9BB292B200210846FFF7D3
:1019B000C1FE002303E0044AA2F800410133AB4218
:1019C000F9D338BD9C00002000FF016008B5024635
:1019D0000B46FFF7AFFE08BD08B5FFF7F7FF024B58
:1019E0001888FFF723FD08BD9800002000B583B0DC
:1019F00000230093019300F00300874B987210F0CE
:101A0000010145D05A889A801A88DA80824B1B8956
:101A100049F24132934241D049F2864293423DD04D
:101A200049F28842934239D045F21032934235D080
:101A300047F29672934231D045F21052934200F031
:101A40008F804BF20952934200F0A48047F29372C8
:101A5000934200F09F8041F66312934256D10029D1
:101A600000F0B6806C4B2A221A822B225A826A4BD3
:101A70002C229A812E22DA8136229A82A023ADF876
:101A800000306023ADF80430C023ADF806303DE0EF
:101A9000614B1A889A805A88DA80B7E75E4A2A2111
:101AA00011822B2151822C2191812E21D18136212D
:101AB000918249F2413293421CD049F286429342CC
:101AC0002AD049F28842934233D045F210329342F1
:101AD0003CD047F29672934218D14823ADF80030BB
:101AE0002823ADF802309823ADF80430F823ADF880
:101AF00006300BE00823ADF800306823ADF8023063
:101B0000C823ADF80430A823ADF8063003286BD8FD
:101B1000DFE800F0646D747B4823ADF800303823B3
:101B2000ADF802308823ADF80430E823ADF8063074
:101B3000ECE70823ADF800306823ADF80230C82385
:101B4000ADF80430A823ADF80630DFE76023ADF828
:101B50000230C023ADF80430A023ADF80630D5E73D
:101B60002D4B4FF428521A824FF42C525A824FF4C4
:101B700030529A814FF43852DA814FF458529A8297
:101B80006023ADF80230C023ADF80430A023ADF8D7
:101B90000630BBE7204B4FF400721A8240F201225C
:101BA0005A8240F202229A81DA8103229A8241F219
:101BB0003003ADF8003041F22803ADF802304FF4A5
:101BC0008053ADF8043041F21803ADF806309DE7BC
:101BD000114B2B221A822A225A8248E7BDF80010A4
:101BE0000D4B988AFFF7FEFB03B05DF804FBBDF8D0
:101BF0000210094B988AFFF7F5FBF5E7BDF80410D2
:101C0000054B988AFFF7EEFBEEE7BDF80610024B96
:101C1000988AFFF7E7FBE7E79C00002000B583B058
:101C2000012269460020FFF7E5FBBDF800004BF2FA
:101C30000953984200F0848047F2937398427FD012
:101C400004226946D320FFF7D5FBBDF80430BDF967
:101C5000060040EA032080B2ADF8000049F24133AB
:101C600098426DD049F28643984269D049F2884340
:101C7000984265D047F29673984261D00422694633
:101C8000D420FFF7B7FBBDF80430BDF9060040EAE9
:101C9000032080B2ADF8000045F2103398424FD0D7
:101CA00003226946A120FFF7A5FBBDF80220BDF97C
:101CB000043043EA02239BB2ADF8003045F2617272
:101CC000934240D04FF47040FFF75AFB5520FFF786
:101CD00069FB4FF20100FFF753FBAA20FFF762FBFD
:101CE0004FF20200FFF74CFB5220FFF75BFB4FF275
:101CF0000300FFF745FB0820FFF754FB4FF20400F9
:101D0000FFF73EFB0120FFF74DFB01220DF1020121
:101D10004FF44540FFF76EFB012201A94CF2015040
:101D2000FFF768FBBDF80230BDF9040040EA03206C
:101D300080B2ADF8000045F21053984200D0002068
:101D400003B05DF804FB41F66310F9E710B5FFF747
:101D50009BFBFFF763FF0146794C2081794803F034
:101D600097FEFFF78BFC6420FEF78CFE238947F279
:101D70009672934201F09A8740F2E68049F28642D9
:101D8000934201F0A98641F2738549F28842934259
:101D900041F09986F720FFF7F3FAA920FFF702FB3D
:101DA0005120FFF7FFFA2C20FFF7FCFA8220FFF703
:101DB000F9FAC020FFF7E4FA1120FFF7F3FA09203F
:101DC000FFF7F0FAC120FFF7DBFA4120FFF7EAFA4C
:101DD000C520FFF7D5FA0020FFF7E4FA0A20FFF745
:101DE000E1FA8020FFF7DEFAB120FFF7C9FAB02050
:101DF000FFF7D8FA1120FFF7D5FAB420FFF7C0FAA1
:101E00000220FFF7CFFAB620FFF7BAFA0220FFF759
:101E1000C9FA2220FFF7C6FAB720FFF7B1FAC620A9
:101E2000FFF7C0FABE20FFF7ABFA0020FFF7BAFABF
:101E30000420FFF7B7FAE920FFF7A2FA0020FFF726
:101E4000B1FA3620FFF79CFA0820FFF7ABFA3A20E8
:101E5000FFF796FA5520FFF7A5FAE020FFF790FA72
:101E60000020FFF79FFA0720FFF79CFA1020FFF7EA
:101E700099FA0920FFF796FA1720FFF793FA0B203B
:101E8000FFF790FA4120FFF78DFA8920FFF78AFAD1
:101E90004B20FFF787FA0A20FFF784FA0C20FFF7A0
:101EA00081FA0E20FFF77EFA1820FFF77BFA1B203D
:101EB000FFF778FA0F20FFF775FAE120FFF760FAD5
:101EC0000020FFF76FFA1720FFF76CFA1A20FFF7D0
:101ED00069FA0420FFF766FA0E20FFF763FA06207E
:101EE000FFF760FA2F20FFF75DFA4520FFF75AFA57
:101EF0004320FFF757FA0220FFF754FA0A20FFF7B2
:101F000051FA0920FFF74EFA3220FFF74BFA36203C
:101F1000FFF748FA0F20FFF745FA1120FFF730FAD4
:101F20007820FEF7AFFD2920FFF72AFA044B4FF483
:101F3000A0721A804FF4F0725A8001F0B8BD00BF51
:101F40009C000020BC82000845F21032934201F050
:101F5000A58741F2C68245F21052934241F0868332
:101F60004FF47040FFF70CFA5520FFF71BFA4FF2C1
:101F70000100FFF705FAAA20FFF714FA4FF202005A
:101F8000FFF7FEF95220FFF70DFA4FF20300FFF7BB
:101F9000F7F90820FFF706FA4FF20400FFF7F0F90F
:101FA0000120FFF7FFF94FF43640FFF7E9F934203D
:101FB000FFF7F8F94BF20160FFF7E2F93420FFF781
:101FC000F1F94BF20260FFF7DBF93420FFF7EAF991
:101FD0004FF43040FFF7D4F90D20FFF7E3F94BF24F
:101FE0000100FFF7CDF90D20FFF7DCF94BF20200FD
:101FF000FFF7C6F90D20FFF7D5F94FF43740FFF78B
:10200000BFF92420FFF7CEF94BF20170FFF7B8F9C2
:102010002420FFF7C7F94BF20270FFF7B1F9242033
:10202000FFF7C0F94FF43140FFF7AAF90D20FFF791
:10203000B9F94BF20110FFF7A3F90D20FFF7B2F940
:102040004BF20210FFF79CF90D20FFF7ABF94FF4AC
:102050003840FFF795F92420FFF7A4F94BF601006B
:10206000FFF78EF92420FFF79DF94BF60200FFF7EA
:1020700087F92420FFF796F94FF43240FFF780F9F3
:102080000020FFF78FF94FF43940FFF779F924204A
:10209000FFF788F94BF60110FFF772F92420FFF7DC
:1020A00081F94BF60210FFF76BF92420FFF77AF95C
:1020B0004FF43340FFF764F90520FFF773F94BF253
:1020C0000130FFF75DF90520FFF76CF94BF20230A4
:1020D000FFF756F90520FFF765F94FF43A40FFF78F
:1020E0004FF93420FFF75EF94BF60120FFF748F96E
:1020F0003420FFF757F94BF60220FFF741F934205F
:10210000FFF750F94FF43540FFF73AF90B20FFF78E
:1021100049F94BF20150FFF733F90B20FFF742F971
:102120004BF20250FFF72CF90B20FFF73BF94FF46D
:102130003C40FFF725F90020FFF734F94BF601404A
:10214000FFF71EF9A320FFF72DF94BF60240FFF72A
:1021500017F90020FFF726F94FF43D40FFF710F97B
:102160000020FFF71FF94BF60150FFF709F9A320F4
:10217000FFF718F94BF60250FFF702F90020FFF7BE
:1021800011F94FF43E40FFF7FBF80020FFF70AF982
:102190004BF60160FFF7F4F86320FFF703F94FF403
:1021A0005140FFF7EDF80020FFF7FCF84DF2011069
:1021B000FFF7E6F83720FFF7F5F84DF20210FFF7CA
:1021C000DFF80020FFF7EEF84DF20310FFF7D8F824
:1021D0005220FFF7E7F84DF20410FFF7D1F8002086
:1021E000FFF7E0F84DF20510FFF7CAF87B20FFF784
:1021F000D9F84DF20610FFF7C3F80020FFF7D2F828
:102200004DF20710FFF7BCF89920FFF7CBF84DF21D
:102210000810FFF7B5F80020FFF7C4F84DF20910D9
:10222000FFF7AEF8B120FFF7BDF84DF20A10FFF747
:10223000A7F80020FFF7B6F84DF20B10FFF7A0F853
:10224000D220FFF7AFF84DF20C10FFF799F80020FD
:10225000FFF7A8F84DF20D10FFF792F8F620FFF700
:10226000A1F84DF20E10FFF78BF80120FFF79AF856
:102270004DF20F10FFF784F82720FFF793F84DF287
:102280001010FFF77DF80120FFF78CF84DF21110C8
:10229000FFF776F84E20FFF785F84DF21210FFF7A2
:1022A0006FF80120FFF77EF84DF21310FFF768F882
:1022B0008C20FFF777F84DF21410FFF761F801203A
:1022C000FFF770F84DF21510FFF75AF8BE20FFF730
:1022D00069F84DF21610FFF753F80220FFF762F885
:1022E0004DF21710FFF74CF80B20FFF75BF84DF29B
:1022F0001810FFF745F80220FFF754F84DF21910B7
:10230000FFF73EF84820FFF74DF84DF21A10FFF79F
:1023100037F80220FFF746F84DF21B10FFF730F8B0
:102320004A20FFF73FF84DF21C10FFF729F8022072
:10233000FFF738F84DF21D10FFF722F87E20FFF767
:1023400031F84DF21E10FFF71BF80220FFF72AF8B4
:102350004DF21F10FFF714F8BC20FFF723F84DF2E1
:102360002010FFF70DF80220FFF71CF84DF22110A6
:10237000FFF706F8E120FFF715F84DF22210FEF7FF
:10238000FFFF0320FFF70EF84DF22310FEF7F8FFD2
:102390001020FFF707F84DF22410FEF7F1FF03209D
:1023A000FFF700F84DF22510FEF7EAFF3120FEF7A7
:1023B000F9FF4DF22610FEF7E3FF0320FEF7F2FFD0
:1023C0004DF22710FEF7DCFF5A20FEF7EBFF4DF22F
:1023D0002810FEF7D5FF0320FEF7E4FF4DF2291089
:1023E000FEF7CEFF7320FEF7DDFF4DF22A10FEF759
:1023F000C7FF0320FEF7D6FF4DF22B10FEF7C0FFFC
:102400009420FEF7CFFF4DF22C10FEF7B9FF03200A
:10241000FEF7C8FF4DF22D10FEF7B2FF9F20FEF72A
:10242000C1FF4DF22E10FEF7ABFF0320FEF7BAFFFF
:102430004DF22F10FEF7A4FFB320FEF7B3FF4DF2CD
:102440003010FEF79DFF0320FEF7ACFF4DF2311078
:10245000FEF796FFB920FEF7A5FF4DF23210FEF70A
:102460008FFF0320FEF79EFF4DF23310FEF788FF2B
:10247000C120FEF797FF4FF45240FEF781FF002086
:10248000FEF790FF4DF20120FEF77AFF3720FEF7AE
:1024900089FF4DF20220FEF773FF0020FEF782FF56
:1024A0004DF20320FEF76CFF5220FEF77BFF4DF24A
:1024B0000420FEF765FF0020FEF774FF4DF20520B3
:1024C000FEF75EFF7B20FEF76DFF4DF20620FEF764
:1024D00057FF0020FEF766FF4DF20720FEF750FF82
:1024E0009920FEF75FFF4DF20820FEF749FF00201C
:1024F000FEF758FF4DF20920FEF742FFB120FEF72C
:1025000051FF4DF20A20FEF73BFF0020FEF74AFF85
:102510004DF20B20FEF734FFD220FEF743FF4DF2C1
:102520000C20FEF72DFF0020FEF73CFF4DF20D20A2
:10253000FEF726FFF620FEF735FF4DF20E20FEF7E0
:102540001FFF0120FEF72EFF4DF20F20FEF718FFB0
:102550002720FEF727FF4DF21020FEF711FF012084
:10256000FEF720FF4DF21120FEF70AFF4E20FEF786
:1025700019FF4DF21220FEF703FF0120FEF712FFB4
:102580004DF21320FEF7FCFE8C20FEF70BFF4DF200
:102590001420FEF7F5FE0120FEF704FF4DF2152092
:1025A000FEF7EEFEBE20FEF7FDFE4DF21620FEF712
:1025B000E7FE0220FEF7F6FE4DF21720FEF7E0FEE2
:1025C0000B20FEF7EFFE4DF21820FEF7D9FE022099
:1025D000FEF7E8FE4DF21920FEF7D2FE4820FEF786
:1025E000E1FE4DF21A20FEF7CBFE0220FEF7DAFEE6
:1025F0004DF21B20FEF7C4FE4A20FEF7D3FE4DF23B
:102600001C20FEF7BDFE0220FEF7CCFE4DF21D2081
:10261000FEF7B6FE7E20FEF7C5FE4DF21E20FEF749
:10262000AFFE0220FEF7BEFE4DF21F20FEF7A8FE11
:10263000BC20FEF7B7FE4DF22020FEF7A1FE0220DF
:10264000FEF7B0FE4DF22120FEF79AFEE120FEF7E4
:10265000A9FE4DF22220FEF793FE0320FEF7A2FE14
:102660004DF22320FEF78CFE1020FEF79BFE4DF26C
:102670002420FEF785FE0320FEF794FE4DF2252070
:10268000FEF77EFE3120FEF78DFE4DF22620FEF78E
:1026900077FE0320FEF786FE4DF22720FEF770FE40
:1026A0005A20FEF77FFE4DF22820FEF769FE032038
:1026B000FEF778FE4DF22920FEF762FE7320FEF74A
:1026C00071FE4DF22A20FEF75BFE0320FEF76AFE44
:1026D0004DF22B20FEF754FE9420FEF763FE4DF2E0
:1026E0002C20FEF74DFE0320FEF75CFE4DF22D2060
:1026F000FEF746FE9F20FEF755FE4DF22E20FEF718
:102700003FFE0320FEF74EFE4DF22F20FEF738FE6F
:10271000B320FEF747FE4DF23020FEF731FE0320D6
:10272000FEF740FE4DF23120FEF72AFEB920FEF7FB
:1027300039FE4DF23220FEF723FE0320FEF732FE73
:102740004DF23320FEF71CFEC120FEF72BFE4FF4A6
:102750005340FEF715FE0020FEF724FE4DF2013037
:10276000FEF70EFE3720FEF71DFE4DF20230FEF79B
:1027700007FE0020FEF716FE4DF20330FEF700FEC6
:102780005220FEF70FFE4DF20430FEF7F9FD002057
:10279000FEF708FE4DF20530FEF7F2FD7B20FEF756
:1027A00001FE4DF20630FEF7EBFD0020FEF7FAFDCC
:1027B0004DF20730FEF7E4FD9920FEF7F3FD4DF2F0
:1027C0000830FEF7DDFD0020FEF7ECFD4DF209308C
:1027D000FEF7D6FDB120FEF7E5FD4DF20A30FEF71B
:1027E000CFFD0020FEF7DEFD4DF20B30FEF7C8FDF9
:1027F000D220FEF7D7FD4DF20C30FEF7C1FD0020D0
:10280000FEF7D0FD4DF20D30FEF7BAFDF620FEF7D3
:10281000C9FD4DF20E30FEF7B3FD0120FEF7C2FDFB
:102820004DF20F30FEF7ACFD2720FEF7BBFD4DF259
:102830001030FEF7A5FD0120FEF7B4FD4DF211307A
:10284000FEF79EFD4E20FEF7ADFD4DF21230FEF775
:1028500097FD0120FEF7A6FD4DF21330FEF790FD27
:102860008C20FEF79FFD4DF21430FEF789FD01200C
:10287000FEF798FD4DF21530FEF782FDBE20FEF703
:1028800091FD4DF21630FEF77BFD0220FEF78AFD2A
:102890004DF21730FEF774FD0B20FEF783FD4DF26D
:1028A0001830FEF76DFD0220FEF77CFD4DF2193069
:1028B000FEF766FD4820FEF775FD4DF21A30FEF773
:1028C0005FFD0220FEF76EFD4DF21B30FEF758FD56
:1028D0004A20FEF767FD4DF21C30FEF751FD022045
:1028E000FEF760FD4DF21D30FEF74AFD7E20FEF73B
:1028F00059FD4DF21E30FEF743FD0220FEF752FD5A
:102900004DF21F30FEF73CFDBC20FEF74BFD4DF2B3
:102910002030FEF735FD0220FEF744FD4DF2213058
:10292000FEF72EFDE120FEF73DFD4DF22230FEF7D1
:1029300027FD0320FEF736FD4DF22330FEF720FD84
:102940001020FEF72FFD4DF22430FEF719FD032075
:10295000FEF728FD4DF22530FEF712FD3120FEF77F
:1029600021FD4DF22630FEF70BFD0320FEF71AFD88
:102970004DF22730FEF704FD5A20FEF713FD4DF20D
:102980002830FEF7FDFC0320FEF70CFD4DF2293048
:10299000FEF7F6FC7320FEF705FD4DF22A30FEF738
:1029A000EFFC0320FEF7FEFC4DF22B30FEF7E8FCB7
:1029B0009420FEF7F7FC4DF22C30FEF7E1FC0320EB
:1029C000FEF7F0FC4DF22D30FEF7DAFC9F20FEF70B
:1029D000E9FC4DF22E30FEF7D3FC0320FEF7E2FCBB
:1029E0004DF22F30FEF7CCFCB320FEF7DBFC4DF2AE
:1029F0003030FEF7C5FC0320FEF7D4FC4DF2313039
:102A0000FEF7BEFCB920FEF7CDFC4DF23230FEF7EA
:102A1000B7FC0320FEF7C6FC4DF23330FEF7B0FCE6
:102A2000C120FEF7BFFC4FF45440FEF7A9FC002084
:102A3000FEF7B8FC4DF20140FEF7A2FC3720FEF78E
:102A4000B1FC4DF20240FEF79BFC0020FEF7AAFC11
:102A50004DF20340FEF794FC5220FEF7A3FC4DF22A
:102A60000440FEF78DFC0020FEF79CFC4DF2054073
:102A7000FEF786FC7B20FEF795FC4DF20640FEF744
:102A80007FFC0020FEF78EFC4DF20740FEF778FC3D
:102A90009920FEF787FC4DF20840FEF771FC0020FC
:102AA000FEF780FC4DF20940FEF76AFCB120FEF70C
:102AB00079FC4DF20A40FEF763FC0020FEF772FC41
:102AC0004DF20B40FEF75CFCD220FEF76BFC4DF2A2
:102AD0000C40FEF755FC0020FEF764FC4DF20D4063
:102AE000FEF74EFCF620FEF75DFC4DF20E40FEF7C1
:102AF00047FC0120FEF756FC4DF20F40FEF740FC6C
:102B00002720FEF74FFC4DF21040FEF739FC012064
:102B1000FEF748FC4DF21140FEF732FC4E20FEF766
:102B200041FC4DF21240FEF72BFC0120FEF73AFC6F
:102B30004DF21340FEF724FC8C20FEF733FC4DF2DF
:102B40001440FEF71DFC0120FEF72CFC4DF2154051
:102B5000FEF716FCBE20FEF725FC4DF21640FEF7F0
:102B60000FFC0220FEF71EFC4DF21740FEF708FC9A
:102B70000B20FEF717FC4DF21840FEF701FC022077
:102B8000FEF710FC4DF21940FEF7FAFB4820FEF765
:102B900009FC4DF21A40FEF7F3FB0220FEF702FC9F
:102BA0004DF21B40FEF7ECFB4A20FEF7FBFB4DF21B
:102BB0001C40FEF7E5FB0220FEF7F4FB4DF21D4042
:102BC000FEF7DEFB7E20FEF7EDFB4DF21E40FEF72A
:102BD000D7FB0220FEF7E6FB4DF21F40FEF7D0FBCD
:102BE000BC20FEF7DFFB4DF22040FEF7C9FB0220C0
:102BF000FEF7D8FB4DF22140FEF7C2FBE120FEF7C5
:102C0000D1FB4DF22240FEF7BBFB0320FEF7CAFBCF
:102C10004DF22340FEF7B4FB1020FEF7C3FB4DF24C
:102C20002440FEF7ADFB0320FEF7BCFB4DF2254030
:102C3000FEF7A6FB3120FEF7B5FB4DF22640FEF76E
:102C40009FFB0320FEF7AEFB4DF22740FEF798FBFB
:102C50005A20FEF7A7FB4DF22840FEF791FB032018
:102C6000FEF7A0FB4DF22940FEF78AFB7320FEF72A
:102C700099FB4DF22A40FEF783FB0320FEF792FBFF
:102C80004DF22B40FEF77CFB9420FEF78BFB4DF2C0
:102C90002C40FEF775FB0320FEF784FB4DF22D4020
:102CA000FEF76EFB9F20FEF77DFB4DF22E40FEF7F8
:102CB00067FB0320FEF776FB4DF22F40FEF760FB2B
:102CC000B320FEF76FFB4DF23040FEF759FB0320B7
:102CD000FEF768FB4DF23140FEF752FBB920FEF7DC
:102CE00061FB4DF23240FEF74BFB0320FEF75AFB2F
:102CF0004DF23340FEF744FBC120FEF753FB4FF487
:102D00005540FEF73DFB0020FEF74CFB4DF2015015
:102D1000FEF736FB3720FEF745FB4DF20250FEF77B
:102D20002FFB0020FEF73EFB4DF20350FEF728FB81
:102D30005220FEF737FB4DF20450FEF721FB002036
:102D4000FEF730FB4DF20550FEF71AFB7B20FEF735
:102D500029FB4DF20650FEF713FB0020FEF722FB85
:102D60004DF20750FEF70CFB9920FEF71BFB4DF2CE
:102D70000850FEF705FB0020FEF714FB4DF209504A
:102D8000FEF7FEFAB120FEF70DFB4DF20A50FEF7FA
:102D9000F7FA0020FEF706FB4DF20B50FEF7F0FAB3
:102DA000D220FEF7FFFA4DF20C50FEF7E9FA0020B0
:102DB000FEF7F8FA4DF20D50FEF7E2FAF620FEF7B4
:102DC000F1FA4DF20E50FEF7DBFA0120FEF7EAFAB7
:102DD0004DF20F50FEF7D4FA2720FEF7E3FA4DF23A
:102DE0001050FEF7CDFA0120FEF7DCFA4DF211503B
:102DF000FEF7C6FA4E20FEF7D5FA4DF21250FEF756
:102E0000BFFA0120FEF7CEFA4DF21350FEF7B8FAE2
:102E10008C20FEF7C7FA4DF21450FEF7B1FA0120EC
:102E2000FEF7C0FA4DF21550FEF7AAFABE20FEF7E3
:102E3000B9FA4DF21650FEF7A3FA0220FEF7B2FAE5
:102E40004DF21750FEF79CFA0B20FEF7ABFA4DF24D
:102E50001850FEF795FA0220FEF7A4FA4DF2195029
:102E6000FEF78EFA4820FEF79DFA4DF21A50FEF753
:102E700087FA0220FEF796FA4DF21B50FEF780FA11
:102E80004A20FEF78FFA4DF21C50FEF779FA022025
:102E9000FEF788FA4DF21D50FEF772FA7E20FEF71B
:102EA00081FA4DF21E50FEF76BFA0220FEF77AFA15
:102EB0004DF21F50FEF764FABC20FEF773FA4DF294
:102EC0002050FEF75DFA0220FEF76CFA4DF2215019
:102ED000FEF756FAE120FEF765FA4DF22250FEF7B2
:102EE0004FFA0320FEF75EFA4DF22350FEF748FA40
:102EF0001020FEF757FA4DF22450FEF741FA032056
:102F0000FEF750FA4DF22550FEF73AFA3120FEF75F
:102F100049FA4DF22650FEF733FA0320FEF742FA43
:102F20004DF22750FEF72CFA5A20FEF73BFA4DF2ED
:102F30002850FEF725FA0320FEF734FA4DF2295007
:102F4000FEF71EFA7320FEF72DFA4DF22A50FEF717
:102F500017FA0320FEF726FA4DF22B50FEF710FA6F
:102F60009420FEF71FFA4DF22C50FEF709FA0320C9
:102F7000FEF718FA4DF22D50FEF702FA9F20FEF7E9
:102F800011FA4DF22E50FEF7FBF90320FEF70AFA74
:102F90004DF22F50FEF7F4F9B320FEF703FA4DF28D
:102FA0003050FEF7EDF90320FEF7FCF94DF23150F9
:102FB000FEF7E6F9B920FEF7F5F94DF23250FEF7CB
:102FC000DFF90320FEF7EEF94DF23350FEF7D8F9A2
:102FD000C120FEF7E7F94FF45640FEF7D1F9002083
:102FE000FEF7E0F94DF20160FEF7CAF93720FEF76F
:102FF000D9F94DF20260FEF7C3F90020FEF7D2F9CD
:103000004DF20360FEF7BCF95220FEF7CBF94DF20A
:103010000460FEF7B5F90020FEF7C4F94DF2056033
:10302000FEF7AEF97B20FEF7BDF94DF20660FEF724
:10303000A7F90020FEF7B6F94DF20760FEF7A0F9F8
:103040009920FEF7AFF94DF20860FEF799F90020DC
:10305000FEF7A8F94DF20960FEF792F9B120FEF7EC
:10306000A1F94DF20A60FEF78BF90020FEF79AF9FC
:103070004DF20B60FEF784F9D220FEF793F94DF282
:103080000C60FEF77DF90020FEF78CF94DF20D6023
:10309000FEF776F9F620FEF785F94DF20E60FEF7A1
:1030A0006FF90120FEF77EF94DF20F60FEF768F927
:1030B0002720FEF777F94DF21060FEF761F9012045
:1030C000FEF770F94DF21160FEF75AF94E20FEF747
:1030D00069F94DF21260FEF753F90120FEF762F92B
:1030E0004DF21360FEF74CF98C20FEF75BF94DF2C0
:1030F0001460FEF745F90120FEF754F94DF2156012
:10310000FEF73EF9BE20FEF74DF94DF21660FEF7D0
:1031100037F90220FEF746F94DF21760FEF730F955
:103120000B20FEF73FF94DF21860FEF729F9022057
:10313000FEF738F94DF21960FEF722F94820FEF744
:1031400031F94DF21A60FEF71BF90220FEF72AF959
:103150004DF21B60FEF714F94A20FEF723F94DF2F9
:103160001C60FEF70DF90220FEF71CF94DF21D6000
:10317000FEF706F97E20FEF715F94DF21E60FEF708
:10318000FFF80220FEF70EF94DF21F60FEF7F8F887
:10319000BC20FEF707F94DF22060FEF7F1F802209F
:1031A000FEF700F94DF22160FEF7EAF8E120FEF7A4
:1031B000F9F84DF22260FEF7E3F80320FEF7F2F88B
:1031C0004DF22360FEF7DCF81020FEF7EBF84DF22D
:1031D0002460FEF7D5F80320FEF7E4F84DF22560F1
:1031E000FEF7CEF83120FEF7DDF84DF22660FEF74F
:1031F000C7F80320FEF7D6F84DF22760FEF7C0F8B7
:103200005A20FEF7CFF84DF22860FEF7B9F80320F8
:10321000FEF7C8F84DF22960FEF7B2F87320FEF70A
:10322000C1F84DF22A60FEF7ABF80320FEF7BAF8BA
:103230004DF22B60FEF7A4F89420FEF7B3F84DF2A0
:103240002C60FEF79DF80320FEF7ACF84DF22D60E0
:10325000FEF796F89F20FEF7A5F84DF22E60FEF7D8
:103260008FF80320FEF79EF84DF22F60FEF788F8E6
:10327000B320FEF797F84DF23060FEF781F8032097
:10328000FEF790F84DF23160FEF77AF8B920FEF7BC
:1032900089F84DF23260FEF773F80320FEF782F8EA
:1032A0004DF23360FEF76CF8C120FEF77BF84FF467
:1032B0007040FEF765F85520FEF774F84FF20100F4
:1032C000FEF75EF8AA20FEF76DF84FF20200FEF757
:1032D00057F85220FEF766F84FF20300FEF750F859
:1032E0000820FEF75FF84FF20400FEF749F80020CF
:1032F000FEF758F84FF43040FEF742F80820FEF78A
:1033000051F84BF20100FEF73BF80520FEF74AF8B2
:103310004BF20200FEF734F80220FEF743F84BF2BE
:103320000300FEF72DF80520FEF73CF84BF20400F1
:10333000FEF726F80220FEF735F84FF43640FEF788
:103340001FF80820FEF72EF84FF43540FEF718F866
:103350005020FEF727F84FF43740FEF711F8002011
:10336000FEF720F84BF20170FEF70AF80020FEF796
:1033700019F84FF43840FEF703F80120FEF712F871
:103380004BF60100FDF7FCFF0520FEF70BF84BF6AE
:103390000200FDF7F5FF0520FEF704F84BF60300E9
:1033A000FDF7EEFF0520FDF7FDFF4FF43C40FDF774
:1033B000E7FF0020FDF7F6FF4BF60140FDF7E0FFC9
:1033C0000020FDF7EFFF4BF60240FDF7D9FF00208C
:1033D000FDF7E8FF4FF44C40FDF7D2FF0320FDF767
:1033E000E1FF4CF60140FDF7CBFF0020FDF7DAFFCF
:1033F0004CF60240FDF7C4FF0020FDF7D3FF4FF469
:103400003D40FDF7BDFF0120FDF7CCFF4BF601501D
:10341000FDF7B6FF8420FDF7C5FF4BF60250FDF720
:10342000AFFF0720FDF7BEFF4BF60350FDF7A8FFE7
:103430003120FDF7B7FF4BF60450FDF7A1FF002048
:10344000FDF7B0FF4FF43A40FDF79AFF0120FDF77A
:10345000A9FF4FF47F40FDF793FFAA20FDF7A2FFDD
:103460004FF60170FDF78CFF5520FDF79BFF4FF6DF
:103470000270FDF785FF2520FDF794FF4FF60370DE
:10348000FDF77EFF0120FDF78DFF4FF45450FDF74F
:1034900077FF0020FDF786FF4FF45850FDF770FFCF
:1034A0000020FDF77FFF4FF46850FDF769FF5520BE
:1034B000FDF778FF4FF48850FDF762FF7820FDF7A5
:1034C000E1FA4FF42450FDF75BFF4FF43050FDF765
:1034D00057FFE64B4FF4F0721A804FF448725A804F
:1034E000E5E241F66312934240F0F282E220FDF7FA
:1034F00047FF1D20FDF756FF0220FDF753FF042074
:10350000FDF750FF6420FDF77DFAE020FDF738FF5E
:103510000120FDF747FF0A20FDF7B4FAE020FDF790
:103520002FFF0320FDF73EFF0C20FDF7ABFA012033
:10353000FDF726FF0A20FDF7A5FAE620FDF720FF9C
:103540002F20FDF72FFFFF20FDF72CFFFF20FDF7B9
:1035500029FFB020FDF714FF2020FDF723FF0020F6
:10356000FDF720FF0320FDF71DFF40F21F30FDF7A0
:1035700019FF0120FDF716FF40F2DF10FDF712FFE3
:103580000020FDF70FFFB420FDF7FAFE0420FDF741
:1035900009FF40F21F40FDF705FF0020FDF702FF85
:1035A0002E20FDF7FFFE0020FDF7FCFE0020FDF7BA
:1035B000F9FE0020FDF7F6FE0020FDF7F3FEB62031
:1035C000FDF7DEFE0220FDF7EDFE4FF40370FDF780
:1035D000E9FE0020FDF7E6FE1720FDF7E3FE1520CB
:1035E000FDF7E0FE0020FDF7DDFE0020FDF7DAFE2E
:1035F000F020FDF7C5FE0320FDF7D4FE2920FDF7DE
:10360000BFFED020FDF7BCFE0020FDF7CBFEBE20A4
:10361000FDF7B6FE0520FDF7C5FEFE20FDF7C2FE54
:103620000120FDF7BFFE0020FDF7BCFE0020FDF7E6
:10363000B9FE0020FDF7B6FEB820FDF7A1FE03207D
:10364000FDF7B0FE0120FDF7ADFEBA20FDF798FEB4
:103650000120FDF7A7FE6420FDF7EEFE834B4FF43B
:10366000F0721A804FF448725A8020E247F2937247
:10367000934240F02D8200210846FDF7B3FE002161
:103680000846FDF7AFFE00210846FDF7ABFE00211E
:103690000846FDF7A7FE0F20FDF7F4F94FF4C441EB
:1036A0004FF48060FDF79EFE40F608010820FDF70C
:1036B00099FE4FF440614FF44070FDF793FE45F6DC
:1036C0000B2140F20130FDF78DFE40F6061140F26D
:1036D0000230FDF787FE41F2170140F20330FDF79B
:1036E00081FE4FF40C514FF44170FDF77BFE4FF417
:1036F000B85140F20530FDF775FE46F2093140F24F
:103700000630FDF76FFE40F6094140F20730FDF745
:1037100069FE41F20C014FF44270FDF763FE42F284
:10372000322140F20930FDF75DFE16211020FDF731
:1037300059FE40F201111120FDF754FE0021122024
:10374000FDF750FE01211320FDF74CFE4FF44C71A4
:103750004FF48070FDF746FE40F2372140F2011031
:10376000FDF740FE4FF4506140F20310FDF73AFEC2
:103770004FF4C2414FF42070FDF734FE4CF2B0110B
:103780004FF48170FDF72EFE3220FDF77BF94FF4E8
:1037900080710120FDF726FE4FF480710220FDF7B5
:1037A00021FE41F230010320FDF71CFE012109201A
:1037B000FDF718FE00210C20FDF714FE4FF4004128
:1037C0009020FDF70FFE00210F20FDF70BFE0021DA
:1037D0004FF40470FDF706FEEF2140F21120FDF7D3
:1037E00001FE002140F21220FDF7FCFD40F28F1196
:1037F00040F21320FDF7F6FD00214FF4A060FDF725
:10380000F1FD002140F20150FDF7ECFD5F2140F297
:103810000250FDF7E7FD012140F20140FDF7E2FD16
:10382000002140F20440FDF7DDFD3220FDF72AF9CA
:103830004FF480710720FDF7D5FD3220FDF722F906
:1038400000214FF40070FDF7CDFD002140F2012072
:10385000FDF7C8FD40F20220FDF792FD034BF02278
:103860001A804FF4C8725A8021E100BF9C000020EA
:1038700049F24132934240F02B81CF20FDF780FD89
:103880000020FDF78FFDC920FDF78CFD3020FDF7EE
:1038900089FDED20FDF774FD6420FDF783FD032015
:1038A000FDF780FD1220FDF77DFD8120FDF77AFDFB
:1038B000E820FDF765FD8520FDF774FD1020FDF77C
:1038C00071FD7A20FDF76EFDCB20FDF759FD392003
:1038D000FDF768FD2C20FDF765FD0020FDF762FD7A
:1038E0003420FDF75FFD0220FDF75CFDF720FDF7BA
:1038F00047FD2020FDF756FDEA20FDF741FD0020A1
:10390000FDF750FD0020FDF74DFDC020FDF738FD0F
:103910001B20FDF747FDC120FDF732FD0020FDF71C
:1039200041FDC520FDF72CFD3020FDF73BFD30208B
:10393000FDF738FDC720FDF723FDB720FDF732FD69
:103940003620FDF71DFD0820FDF72CFD3A20FDF780
:1039500017FD5520FDF726FDB120FDF711FD0020D4
:10396000FDF720FD1A20FDF71DFDB620FDF708FD2F
:103970000A20FDF717FDA220FDF714FDF220FDF748
:10398000FFFC0020FDF70EFD2620FDF7F9FC0120CD
:10399000FDF708FDE020FDF7F3FC0F20FDF702FD29
:1039A0002A20FDF7FFFC2820FDF7FCFC0820FDF78E
:1039B000F9FC0E20FDF7F6FC0820FDF7F3FC54207F
:1039C000FDF7F0FCA920FDF7EDFC4320FDF7EAFC34
:1039D0000A20FDF7E7FC0F20FDF7E4FC0020FDF7CF
:1039E000E1FC0020FDF7DEFC0020FDF7DBFC002001
:1039F000FDF7D8FCE120FDF7C3FC0020FDF7D2FC69
:103A00001520FDF7CFFC1720FDF7CCFC0720FDF7B4
:103A1000C9FC1120FDF7C6FC0620FDF7C3FC2B20D6
:103A2000FDF7C0FC5620FDF7BDFC3C20FDF7BAFCBD
:103A30000520FDF7B7FC1020FDF7B4FC0F20FDF7C3
:103A4000B1FC3F20FDF7AEFC3F20FDF7ABFC0F20A3
:103A5000FDF7A8FC2B20FDF793FC0020FDF7A2FC4E
:103A60000020FDF79FFC0120FDF79CFC3F20FDF7A7
:103A700099FC2A20FDF784FC0020FDF793FC002030
:103A8000FDF790FC0020FDF78DFCEF20FDF78AFC90
:103A90001120FDF775FC7820FCF7F4FF2920FDF7D5
:103AA0006FFC7F4BF0221A804FF4A0725A800020E6
:103AB000FDF79CFF7B4B0122C3F8BC224FF6FF7041
:103AC000FDF768FF10BD4BF2095293423FF4D3ADAE
:103AD000754802F063F8EAE7F120FDF751FC362063
:103AE000FDF760FC0420FDF75DFC0020FDF75AFCAB
:103AF0003C20FDF757FC0F20FDF754FC8F20FDF70D
:103B000051FCF220FDF73CFC1820FDF74BFCA320F4
:103B1000FDF748FC1220FDF745FC0220FDF742FCB2
:103B2000B220FDF73FFC1220FDF73CFCFF20FDF723
:103B300039FC1020FDF736FC0020FDF733FCF8209F
:103B4000FDF71EFC2120FDF72DFC0420FDF72AFCCB
:103B5000F920FDF715FC0020FDF724FC0820FDF7F7
:103B600021FC3620FDF70CFC0820FDF71BFCB420DF
:103B7000FDF706FC0020FDF715FCC120FDF700FC59
:103B80004720FDF70FFCC520FDF7FAFB0020FDF7ED
:103B900009FCAF20FDF706FC8020FDF703FC0020A8
:103BA000FDF700FCE020FDF7EBFB0F20FDF7FAFB33
:103BB0001F20FDF7F7FB1C20FDF7F4FB0C20FDF7A1
:103BC000F1FB0F20FDF7EEFB0820FDF7EBFB482093
:103BD000FDF7E8FB9820FDF7E5FB3720FDF7E2FB5A
:103BE0000A20FDF7DFFB1320FDF7DCFB0420FDF7C7
:103BF000D9FB1120FDF7D6FB0D20FDF7D3FB0020EC
:103C0000FDF7D0FBE120FDF7BBFB0F20FDF7CAFB62
:103C10003220FDF7C7FB2E20FDF7C4FB0B20FDF77C
:103C2000C1FB0D20FDF7BEFB0520FDF7BBFB4720C8
:103C3000FDF7B8FB7520FDF7B5FB3720FDF7B2FBAC
:103C40000620FDF7AFFB1020FDF7ACFB0320FDF7CE
:103C5000A9FB2420FDF7A6FB2020FDF7A3FB0020F5
:103C6000FDF7A0FB3A20FDF78BFB5520FDF79AFBF3
:103C70001120FDF785FB3620FDF782FB2820FDF79C
:103C800091FB7820FCF7FEFE2920FDF779FB044B21
:103C90004FF4A0721A804FF4F0725A8007E700BF09
:103CA0009C00002000804042CC820008F020FDF7FC
:103CB00067FBC320FDF776FBF020FDF761FB962044
:103CC000FDF770FB3620FDF75BFB6820FDF76AFB14
:103CD0003A20FDF755FB0520FDF764FBB020FDF70A
:103CE0004FFB8020FDF75EFBB620FDF749FB20204F
:103CF000FDF758FB0220FDF755FBB520FDF740FB13
:103D00000220FDF74FFB0320FDF74CFB0020FDF7E1
:103D100049FB0420FDF746FBB120FDF731FB802075
:103D2000FDF740FB1020FDF73DFBB420FDF728FB1D
:103D30000020FDF737FBB720FDF722FBC620FDF77B
:103D400031FBC520FDF71CFB2420FDF72BFBE420F5
:103D5000FDF716FB3120FDF725FBE820FDF710FBF2
:103D60004020FDF71FFB8A20FDF71CFB0020FDF71C
:103D700019FB0020FDF716FB2920FDF713FB192086
:103D8000FDF710FBA520FDF70DFB3320FDF70AFB27
:103D9000C220FDF7F5FAA720FDF7F2FAE020FDF7C3
:103DA000EFFAF020FDF7FEFA0920FDF7FBFA1320E9
:103DB000FDF7F8FA1220FDF7F5FA1220FDF7F2FAF6
:103DC0002B20FDF7EFFA3C20FDF7ECFA4420FDF73D
:103DD000E9FA4B20FDF7E6FA1B20FDF7E3FA18207D
:103DE000FDF7E0FA1720FDF7DDFA1D20FDF7DAFAFE
:103DF0002120FDF7D7FAE120FDF7C2FAF020FDF708
:103E0000D1FA0920FDF7CEFA1320FDF7CBFA0C20EA
:103E1000FDF7C8FA0D20FDF7C5FA2720FDF7C2FA15
:103E20003B20FDF7BFFA4420FDF7BCFA4D20FDF71B
:103E3000B9FA0B20FDF7B6FA1720FDF7B3FA1720F1
:103E4000FDF7B0FA1D20FDF7ADFA2120FDF7AAFA23
:103E50003620FDF795FAEC20FDF7A4FAF020FDF7E7
:103E60008FFAC320FDF79EFAF020FDF789FA69204A
:103E7000FDF798FA1320FDF783FA1120FDF780FA79
:103E80002920FDF77DFA044B4FF4A0721A804FF4FD
:103E9000F0725A800BE600BF9C000020ED20FDF779
:103EA0006FFA0120FDF77EFAFE20FDF77BFAEE2087
:103EB000FDF766FADE20FDF775FA2120FDF772FAAC
:103EC000F120FDF75DFA0120FDF76CFADF20FDF728
:103ED00057FA1020FDF766FAC420FDF751FA8F203B
:103EE000FDF760FAC620FDF74BFA0020FDF75AFAFD
:103EF000E220FDF757FAE220FDF754FAE220FDF741
:103F000051FABF20FDF73CFAAA20FDF74BFAB0208A
:103F1000FDF736FA0D20FDF745FA0020FDF742FACD
:103F20000D20FDF73FFA0020FDF73CFA1120FDF7C8
:103F300039FA0020FDF736FA1920FDF733FA002090
:103F4000FDF730FA2120FDF72DFA0020FDF72AFABF
:103F50002D20FDF727FA0020FDF724FA3D20FDF77C
:103F600021FA0020FDF71EFA5D20FDF71BFA002064
:103F7000FDF718FA5D20FDF715FA0020FDF712FA9B
:103F8000B120FDF7FDF98020FDF70CFA0020FDF7C8
:103F900009FA8B20FDF706FA0020FDF703FA9620B8
:103FA000FDF700FA0020FDF7FDF9B220FDF7E8F972
:103FB0000020FDF7F7F90020FDF7F4F90220FDF7E6
:103FC000F1F90020FDF7EEF90320FDF7EBF90020F1
:103FD000FDF7E8F9B320FDF7D3F90020FDF7E2F98A
:103FE0000020FDF7DFF90020FDF7DCF90020FDF7E8
:103FF000D9F90020FDF7D6F90020FDF7D3F900200C
:10400000FDF7D0F90020FDF7CDF90020FDF7CAF942
:104010000020FDF7C7F90020FDF7C4F90020FDF7E7
:10402000C1F90020FDF7BEF90020FDF7BBF9002023
:10403000FDF7B8F90020FDF7B5F90020FDF7B2F95A
:104040000020FDF7AFF90020FDF7ACF90020FDF7E7
:10405000A9F90020FDF7A6F90020FDF7A3F900203B
:10406000FDF7A0F90020FDF79DF9B420FDF788F9D0
:104070008B20FDF797F90020FDF794F99620FDF7C6
:1040800091F90020FDF78EF9A120FDF78BF90020B2
:10409000FDF788F9B520FDF773F90220FDF782F9E5
:1040A0000020FDF77FF90320FDF77CF90020FDF7E4
:1040B00079F90420FDF776F90020FDF773F9B620B1
:1040C000FDF75EF90020FDF76DF90020FDF76AF9B4
:1040D000B720FDF755F90020FDF764F90020FDF742
:1040E00061F93F20FDF75EF90020FDF75BF95E20E6
:1040F000FDF758F90020FDF755F96420FDF752F956
:104100000020FDF74FF98C20FDF74CF90020FDF75A
:1041100049F9AC20FDF746F90020FDF743F9DC2012
:10412000FDF740F90020FDF73DF97020FDF73AF961
:104130000020FDF737F99020FDF734F90020FDF756
:1041400031F9EB20FDF72EF90020FDF72BF9DC20EB
:10415000FDF728F90020FDF725F9B820FDF710F943
:104160000020FDF71FF90020FDF71CF90020FDF7E6
:1041700019F90020FDF716F90020FDF713F90020CA
:10418000FDF710F90020FDF70DF90020FDF70AF901
:10419000BA20FDF7F5F82420FDF704F90020FDF71B
:1041A00001F90020FDF7FEF80020FDF7FBF8C12023
:1041B000FDF7E6F82020FDF7F5F80020FDF7F2F80E
:1041C0005420FDF7EFF80020FDF7ECF8FF20FDF795
:1041D000E9F80020FDF7E6F8C220FDF7D1F80A2043
:1041E000FDF7E0F80020FDF7DDF80420FDF7DAF830
:1041F0000020FDF7D7F8C320FDF7C2F83C20FDF7FB
:10420000D1F80020FDF7CEF83A20FDF7CBF80020DA
:10421000FDF7C8F83920FDF7C5F80020FDF7C2F812
:104220003720FDF7BFF80020FDF7BCF83C20FDF774
:10423000B9F80020FDF7B6F83620FDF7B3F80020F6
:10424000FDF7B0F83220FDF7ADF80020FDF7AAF831
:104250002F20FDF7A7F80020FDF7A4F82C20FDF78C
:10426000A1F80020FDF79EF82920FDF79BF800201B
:10427000FDF798F82620FDF795F80020FDF792F855
:104280002420FDF78FF80020FDF78CF82420FDF79F
:1042900089F80020FDF786F82320FDF783F8002039
:1042A000FDF780F83C20FDF77DF80020FDF77AF857
:1042B0003620FDF777F80020FDF774F83220FDF77F
:1042C00071F80020FDF76EF82F20FDF76BF8002045
:1042D000FDF768F82C20FDF765F80020FDF762F87F
:1042E0002920FDF75FF80020FDF75CF82620FDF798
:1042F00059F80020FDF756F82420FDF753F8002068
:10430000FDF750F82420FDF74DF80020FDF74AF89E
:104310002320FDF747F80020FDF744F8C420FDF7FF
:104320002FF86220FDF73EF80020FDF73BF805204E
:10433000FDF738F80020FDF735F88420FDF732F856
:104340000020FDF72FF8F020FDF72CF80020FDF7F6
:1043500029F81820FDF726F80020FDF723F8A420FF
:10436000FDF720F80020FDF71DF81820FDF71AF8DA
:104370000020FDF717F85020FDF714F80020FDF796
:1043800011F80C20FDF70EF80020FDF70BF81720B0
:10439000FDF708F80020FDF705F89520FDF702F875
:1043A0000020FCF7FFFFF320FCF7FCFF0020FCF7E8
:1043B000F9FFE620FCF7F6FF0020FCF7F3FFC5202D
:1043C000FCF7DEFF3220FCF7EDFF0020FCF7EAFFF0
:1043D0004420FCF7E7FF0020FCF7E4FF6520FCF732
:1043E000E1FF0020FCF7DEFF7620FCF7DBFF00207A
:1043F000FCF7D8FF8820FCF7D5FF0020FCF7D2FFA0
:10440000C620FCF7BDFF2020FCF7CCFF0020FCF706
:10441000C9FF1720FCF7C6FF0020FCF7C3FF0120EF
:10442000FCF7C0FF0020FCF7BDFFC720FCF7A8FF8A
:104430000020FCF7B7FF0020FCF7B4FF0020FCF7DA
:10444000B1FF0020FCF7AEFFC820FCF799FF002069
:10445000FCF7A8FF0020FCF7A5FF0020FCF7A2FF57
:104460000020FCF79FFFC920FCF78AFF0020FCF723
:1044700099FF0020FCF796FF0020FCF793FF002037
:10448000FCF790FF0020FCF78DFF0020FCF78AFF6F
:104490000020FCF787FF0020FCF784FF0020FCF7DA
:1044A00081FF0020FCF77EFF0020FCF77BFF00204F
:1044B000FCF778FF0020FCF775FF0020FCF772FF87
:1044C0000020FCF76FFF0020FCF76CFFE020FCF7FA
:1044D00057FF1620FCF766FF0020FCF763FF1C2047
:1044E000FCF760FF0020FCF75DFF2120FCF75AFF7E
:1044F0000020FCF757FF3620FCF754FF0020FCF7A4
:1045000051FF4620FCF74EFF0020FCF74BFF5220E6
:10451000FCF748FF0020FCF745FF6420FCF742FF52
:104520000020FCF73FFF7A20FCF73CFF0020FCF75F
:1045300039FF8B20FCF736FF0020FCF733FF992072
:10454000FCF730FF0020FCF72DFFA820FCF72AFF26
:104550000020FCF727FFB920FCF724FF0020FCF720
:1045600021FFC420FCF71EFF0020FCF71BFFCA2020
:10457000FCF718FF0020FCF715FFD220FCF712FF14
:104580000020FCF70FFFD920FCF70CFF0020FCF700
:1045900009FFE020FCF706FF0020FCF703FFF320F3
:1045A000FCF700FF0020FCF7FDFEE120FCF7E8FE31
:1045B0001620FCF7F7FE0020FCF7F4FE1C20FCF7A9
:1045C000F1FE0020FCF7EEFE2220FCF7EBFE0020BF
:1045D000FCF7E8FE3620FCF7E5FE0020FCF7E2FEE3
:1045E0004520FCF7DFFE0020FCF7DCFE5220FCF744
:1045F000D9FE0020FCF7D6FE6420FCF7D3FE002095
:10460000FCF7D0FE7A20FCF7CDFE0020FCF7CAFEB6
:104610008B20FCF7C7FE0020FCF7C4FE9920FCF7B6
:10462000C1FE0020FCF7BEFEA820FCF7BBFE002068
:10463000FCF7B8FEB920FCF7B5FE0020FCF7B2FE8F
:10464000C420FCF7AFFE0020FCF7ACFECA20FCF74C
:10465000A9FE0020FCF7A6FED220FCF7A3FE002056
:10466000FCF7A0FED820FCF79DFE0020FCF79AFE88
:10467000E020FCF797FE0020FCF794FEF320FCF707
:1046800091FE0020FCF78EFEE220FCF779FE05206B
:10469000FCF788FE0020FCF785FE0B20FCF782FE6D
:1046A0000020FCF77FFE1B20FCF77CFE0020FCF7BF
:1046B00079FE3420FCF776FE0020FCF773FE4420E0
:1046C000FCF770FE0020FCF76DFE4F20FCF76AFE41
:1046D0000020FCF767FE6120FCF764FE0020FCF779
:1046E00061FE7920FCF75EFE0020FCF75BFE88206F
:1046F000FCF758FE0020FCF755FE9720FCF752FE11
:104700000020FCF74FFEA620FCF74CFE0020FCF733
:1047100049FEB720FCF746FE0020FCF743FEC2200E
:10472000FCF740FE0020FCF73DFEC720FCF73AFEF8
:104730000020FCF737FED120FCF734FE0020FCF708
:1047400031FED620FCF72EFE0020FCF72BFEDD20EC
:10475000FCF728FE0020FCF725FEF320FCF722FEE4
:104760000020FCF71FFEE320FCF70AFE0520FCF703
:1047700019FE0020FCF716FE0A20FCF713FE0020AD
:10478000FCF710FE1C20FCF70DFE0020FCF70AFED3
:104790003320FCF707FE0020FCF704FE4420FCF762
:1047A00001FE0020FCF7FEFD5020FCF7FBFD002081
:1047B000FCF7F8FD6220FCF7F5FD0020FCF7F2FDA8
:1047C0007820FCF7EFFD0020FCF7ECFD8820FCF7DB
:1047D000E9FD0020FCF7E6FD9720FCF7E3FD002053
:1047E000FCF7E0FDA620FCF7DDFD0020FCF7DAFD7C
:1047F000B720FCF7D7FD0020FCF7D4FDC220FCF762
:10480000D1FD0020FCF7CEFDC720FCF7CBFD00203A
:10481000FCF7C8FDD120FCF7C5FD0020FCF7C2FD68
:10482000D520FCF7BFFD0020FCF7BCFDDD20FCF728
:10483000B9FD0020FCF7B6FDF320FCF7B3FD002026
:10484000FCF7B0FDE420FCF79BFD0120FCF7AAFD7E
:104850000020FCF7A7FD0120FCF7A4FD0020FCF7D9
:10486000A1FD0220FCF79EFD0020FCF79BFD2A2005
:10487000FCF798FD0020FCF795FD3C20FCF792FD2D
:104880000020FCF78FFD4B20FCF78CFD0020FCF78F
:1048900089FD5D20FCF786FD0020FCF783FD742078
:1048A000FCF780FD0020FCF77DFD8420FCF77AFDFD
:1048B0000020FCF777FD9320FCF774FD0020FCF747
:1048C00071FDA220FCF76EFD0020FCF76BFDB3200C
:1048D000FCF768FD0020FCF765FDBE20FCF762FDDB
:1048E0000020FCF75FFDC420FCF75CFD0020FCF716
:1048F00059FDCD20FCF756FD0020FCF753FDD320D9
:10490000FCF750FD0020FCF74DFDDD20FCF74AFDD3
:104910000020FCF747FDF320FCF744FD0020FCF7E6
:1049200041FDE520FCF72CFD0020FCF73BFD0020BD
:10493000FCF738FD0020FCF735FD0020FCF732FDC8
:104940000220FCF72FFD0020FCF72CFD2920FCF7AE
:1049500029FD0020FCF726FD3C20FCF723FD00206C
:10496000FCF720FD4B20FCF71DFD0020FCF71AFD95
:104970005D20FCF717FD0020FCF714FD7420FCF708
:1049800011FD0020FCF70EFD8420FCF70BFD00203C
:10499000FCF708FD9320FCF705FD0020FCF702FD65
:1049A000A220FCF7FFFC0020FCF7FCFCB320FCF786
:1049B000F9FC0020FCF7F6FCBE20FCF7F3FC00201D
:1049C000FCF7F0FCC420FCF7EDFC0020FCF7EAFC4F
:1049D000CD20FCF7E7FC0020FCF7E4FCD320FCF73B
:1049E000E1FC0020FCF7DEFCDC20FCF7DBFC002017
:1049F000FCF7D8FCF320FCF7D5FC0020FCF7D2FC38
:104A0000E620FCF7BDFC1120FCF7CCFC0020FCF7F5
:104A1000C9FC3420FCF7C6FC0020FCF7C3FC562080
:104A2000FCF7C0FC0020FCF7BDFC7620FCF7BAFCCC
:104A30000020FCF7B7FC7720FCF7B4FC0020FCF763
:104A4000B1FC6620FCF7AEFC0020FCF7ABFC882034
:104A5000FCF7A8FC0020FCF7A5FC9920FCF7A2FCC1
:104A60000020FCF79FFCBB20FCF79CFC0020FCF71F
:104A700099FC9920FCF796FC0020FCF793FC66203B
:104A8000FCF790FC0020FCF78DFC5520FCF78AFC1D
:104A90000020FCF787FC5520FCF784FC0020FCF785
:104AA00081FC4520FCF77EFC0020FCF77BFC4320CA
:104AB000FCF778FC0020FCF775FC4420FCF772FC46
:104AC0000020FCF76FFCE720FCF75AFC3220FCF7D3
:104AD00069FC0020FCF766FC5520FCF763FC002015
:104AE000FCF760FC7620FCF75DFC0020FCF75AFC2C
:104AF0006620FCF757FC0020FCF754FC6720FCF70D
:104B000051FC0020FCF74EFC6720FCF74BFC00201A
:104B1000FCF748FC8720FCF745FC0020FCF742FC32
:104B20009920FCF73FFC0020FCF73CFCBB20FCF785
:104B300039FC0020FCF736FC9920FCF733FC002000
:104B4000FCF730FC7720FCF72DFC0020FCF72AFC5A
:104B50004420FCF727FC0020FCF724FC5620FCF73F
:104B600021FC0020FCF71EFC2320FCF71BFC00208E
:104B7000FCF718FC3320FCF715FC0020FCF712FCB6
:104B80004520FCF70FFC0020FCF70CFCE820FCF7AC
:104B9000F7FB0020FCF706FC0020FCF703FC992043
:104BA000FCF700FC0020FCF7FDFB8720FCF7FAFB7C
:104BB0000020FCF7F7FB8820FCF7F4FB0020FCF753
:104BC000F1FB7720FCF7EEFB0020FCF7EBFB662007
:104BD000FCF7E8FB0020FCF7E5FB8820FCF7E2FB94
:104BE0000020FCF7DFFBAA20FCF7DCFB0020FCF731
:104BF000D9FBBB20FCF7D6FB0020FCF7D3FB9920A8
:104C0000FCF7D0FB0020FCF7CDFB6620FCF7CAFBCD
:104C10000020FCF7C7FB5520FCF7C4FB0020FCF785
:104C2000C1FB5520FCF7BEFB0020FCF7BBFB44207A
:104C3000FCF7B8FB0020FCF7B5FB4420FCF7B2FB07
:104C40000020FCF7AFFB5520FCF7ACFB0020FCF785
:104C5000A9FBE920FCF794FBAA20FCF7A3FB0020AA
:104C6000FCF7A0FB0020FCF79DFB0020FCF79AFB63
:104C70000020FCF785FBAA20FCF794FBCF20FCF773
:104C80007FFB0020FCF78EFB0020FCF78BFB002055
:104C9000FCF788FB0020FCF785FB0020FCF782FB7B
:104CA0000020FCF77FFB0020FCF77CFB0020FCF7DA
:104CB00079FB0020FCF776FB0020FCF773FB00205B
:104CC000FCF770FB0020FCF76DFB0020FCF76AFB93
:104CD0000020FCF767FB0020FCF764FB0020FCF7DA
:104CE00061FB0020FCF75EFBF020FCF749FB002095
:104CF000FCF758FB5020FCF755FB0020FCF752FB5B
:104D00000020FCF74FFB0020FCF74CFBF320FCF7E6
:104D100037FB0020FCF746FBF920FCF731FB0620AF
:104D2000FCF740FB1020FCF73DFB2920FCF73AFB89
:104D30000020FCF737FB3A20FCF722FB5520FCF75C
:104D400031FB1120FCF71CFB6420FBF79BFE2920A4
:104D5000FCF716FB3520FCF713FB0020FCF722FBC9
:104D60005120FCF70DFBFF20FCF71CFB5320FCF748
:104D700007FB2C20FCF716FB5520FCF701FB8220DB
:104D8000FCF710FB2C20FCF7FBFA044B4FF4A0724D
:104D90001A804FF4F0725A80FEF789BE9C00002002
:104DA00030B583B00121052000F090FC022500956C
:104DB00001238DF8043000228DF8062003228DF89F
:104DC00005208DF807300B4C6946204600F0B2FBF9
:104DD0002946204600F001FC2025009504F50064DA
:104DE0006946204600F0A6FB2946204600F0F5FB68
:104DF00003B030BD00000240F0B585B03E4800F081
:104E0000CDFE01250295102401943C4B00931F23F5
:104E10004FF4784214210020FCF72CFA02950194FB
:104E2000374B00931F234FF478422D210020FCF7CD
:104E300021FA02950194334B00931F231A46462111
:104E40000020FCF717FA304EB088E840343802955D
:104E500001942E4B00931F231A465F2180B2FCF76A
:104E600087F9B088E840343802950194284B0093C4
:104E70001F231A46782180B2FCF77AF9B088E840FF
:104E800002950194234F00971F234FF47842782115
:104E90001430FCF76DF9B088E8403438029501947D
:104EA0001D4B00931F231A46912180B2FCF760F935
:104EB000B088E8400295019400971F234FF4784290
:104EC00091211430FCF754F902950194134B00938F
:104ED0001F231A46AA210020FCF7CCF90295019461
:104EE0000F4B00931F234FF4FC62C3210020FCF7FB
:104EF000C1F905B0F0BD00BFDC820008E8820008FF
:104F000004830008148300089C0000202483000808
:104F1000308300083C830008448300085083000865
:104F20005C8300080000000070B52DED028B82B09C
:104F300014210520FBF71EFE07EE900AF8EE677AB3
:104F400017EE900AFBF72AFC1DA3D3E90023FBF719
:104F500097F9FBF79BFC08EE100AFCEEC87A17EEF7
:104F6000903A9CB2144EB08840080023019310255B
:104F700000950123224691211430FBF7E9FE07EE4C
:104F8000904AF8EEE77A38EE678ADFED0C7A28EE81
:104F9000278AB08840080123019300950323FCEE83
:104FA000C87A17EE902A91212430FBF7D1FE02B087
:104FB000BDEC028B70BD00BF9C00002000007A4455
:104FC0006666666666664A3FF0B52DED028B83B075
:104FD000002000F023FA0446254EB0884008002740
:104FE000019710250095042322465F211430FBF71A
:104FF000AFFE07EE904AF8EE677A17EE900AFBF7DD
:10500000CDFB19A3D3E90023FBF73AF9FBF73EFCEC
:1050100008EE100AFCEEC87A17EE902A94B2B08817
:10502000400801970095012378211430FBF790FE8A
:1050300007EE904AF8EEE77A38EE678ADFED0D7AF0
:1050400028EE278AB08840080123019300950323A6
:10505000FCEEC87A17EE902A78212430FBF778FE10
:1050600003B0BDEC028BF0BD6666666666664A3FBD
:105070009C00002000007A44F0B589B0064601216A
:10508000084600F023FB0121102000F049FB274FC8
:1050900007220921384600F0A2FA07220A213846E1
:1050A00000F09DFA4FF4C063069302238DF81C3084
:1050B0008DF81D3000248DF81E4001258DF81F50FD
:1050C00006A9384600F036FA0296ADF80C40ADF865
:1050D0000E40ADF81040ADF814400C23ADF812307E
:1050E00004F1804404F5883402A9204600F034FB22
:1050F0002946204600F096FB4021204600F0BFFBE9
:105100002A4640F22551204600F09EFB25238DF8CB
:10511000043003238DF805308DF806308DF80750E4
:1051200001A800F057F809B0F0BD00BF0000024030
:1051300008B540F225511A4800F0A5FB00B908BD9A
:10514000174800F07DFBC0B2164A1388B2F9002060
:10515000002AF4DB13F4804F0CD00A2803D0114B43
:1051600000221A80EBE76FEA43436FEA53430D4A8C
:105170001380E4E70D280DD0C3F30D020A498854CB
:1051800001339BB2074A1380FF2BD8D91346002264
:105190001A80D4E743F48043024A1380CFE700BF6C
:1051A00000100140B4010020B40000207047FEE769
:1051B000FEE7FEE7FEE77047704770477047000064
:1051C00040F0BF6040F40030014BD860704700BF32
:1051D00000ED00E0C378FBB1154BDB68DB43C3F3A4
:1051E0000222C2F10401C9B20F23134142788A405E
:1051F000D2B281780B4013431B01DBB202780D4918
:105200000A4482F80033037803F01F005B0901228F
:10521000824041F823207047037803F01F015B09A7
:1052200001228A402033034941F82320704700BF00
:1052300000ED00E000E100E0042806D04FF0E0229D
:10524000136923F00403136170474FF0E0221369E0
:1052500043F004031361704710B4426822F04072B7
:1052600022F4807291F804C00B6843EA0C231343C4
:10527000436083680C4A1A400B69CC6823438C68EE
:10528000234391F805C043EA4C0313438360C36A88
:1052900023F470030A7D013AD2B243EA0253C36297
:1052A0005DF8044B704700BFFDF7FFC010B408491C
:1052B0004B68084A1A4003684468234384682343C0
:1052C000C068034313434B605DF8044B704700BF55
:1052D00000230140E030FCFF21B1836843F001036B
:1052E00083607047836823F001038360704710B5C3
:1052F00009291DD9C468A1F10A0C0CEB4C0C4FF024
:10530000070E0EFA0CFE24EA0E0403FA0CF32343F4
:10531000C360062A1BD8436B013A02EB82021F24AA
:10532000944023EA040301FA02F21A43426310BDD7
:10533000046901EB410E4FF0070C0CFA0EFC24EA55
:105340000C0C03FA0EF34CEA03030361E1E70C2AA9
:105350000CD8036B073A02EB82021F24944023EA25
:10536000040301FA02F21A430263E0E7C36A0D3A4A
:1053700002EB82021F24944023EA040301FA02F2A2
:105380001A43C262D3E7836843F080438360704767
:10539000C06C80B270470368194201D00120704789
:1053A0000020704730B40A4C226840F6FE738340F8
:1053B00022EA03020B684D682B438D682B43C968B2
:1053C0000B4303FA00F01043206030BC704700BF6D
:1053D0000074004039B108490B68012202FA00F05C
:1053E00018430860704704490B68012202FA00F074
:1053F00023EA0000086070470074004082B0002378
:105400000193054B0193019B034408330193019BD6
:10541000196002B0704700BF0074004082B00023E2
:105420000193064B0193019B03EB90032C330193F3
:10543000019B186880B202B0704700BF0074004042
:10544000436882681343C268134302691343426985
:10545000134382691343C2691343026A1343426AC6
:105460001343826A1343C26A1343026B01681343F6
:105470004FF0204242F821308368082B25D0426B40
:105480001368516843EA0113916843EA0123D16824
:1054900043EA0143116943EA0153516943EA016355
:1054A0009169026801320B434FF0204141F82230EC
:1054B000C36AB3F5804F10D003689B0003F120430B
:1054C0006FF07042C3F804217047016852F8213030
:1054D00043F0400342F82130D1E7826B13685168F2
:1054E00043EA0113916843EA0123116943EA015336
:1054F000516943EA0163916902680B43920002F12A
:105500002042C2F80431704741B14FF0204252F8B6
:10551000203043F0010342F8203070474FF0204222
:1055200052F82010024B0B4042F82030704700BF69
:10553000FEFF0F0000230F2B4ED830B516E0C268D7
:105540001FFA83FE4FEA4E044FF0030E0EFA04FEDC
:1055500022EA0E02C260C26891F807E00EFA0CFC63
:1055600042EA0C02C26001330F2B34D801229A4068
:105570000C68A243F7D104684FEA430C032202FAF5
:105580000CF26FEA020E24EA0202026002680C7951
:1055900004FA0CF4224302600A79013AD2B2012AD9
:1055A000CDD882680EEA0202826082684C7904FAE1
:1055B0000CF42243826044689DB24FF0010E0EFA53
:1055C00005FE24EA0E04446044688A79AA4092B237
:1055D00022434260B3E730BD70470183704700B596
:1055E00001F007039B0002FA03FCC908083150F8D8
:1055F00021204FF00F0E0EFA03F322EA030340F8C6
:10560000213050F8212042EA0C0240F821205DF8B8
:1056100004FB000010B4294B9B6803F00C03042B1F
:1056200023D0082B24D013B1254B036001E0244B79
:105630000360224CA368C3F303132249CB5CDAB2A4
:105640000368D3404360A268C2F382228A5CD2B26C
:1056500023FA02F28260A268C2F342328A5CD2B2BA
:10566000D340C3605DF8044B7047174B0360E0E71D
:10567000124B59685A6802F03F0211F4800F12D0A1
:10568000114BB3FBF2F30D4A5268C2F3881202FBCE
:1056900003F30A4A5268C2F3014201325200B3FBDB
:1056A000F2F30360C5E7064BB3FBF2F3034A52681B
:1056B000C2F3881202FB03F3EBE700BF003802409D
:1056C0000024F4000400002000127A0021B1054AF1
:1056D000136B184310637047024A136B23EA0000F0
:1056E000106370470038024021B1054A936B18439C
:1056F00090637047024A936B23EA000090637047FF
:105700000038024021B1054A136C184310647047F9
:10571000024A136C23EA000010647047003802400C
:1057200021B1054A536C184350647047024A536CC8
:1057300023EA0000506470470038024021B1054A56
:10574000536A184350627047024A536A23EA0000C2
:10575000506270470038024030B585B004460D46AF
:10576000038A9BB223F44053CA881343038283897C
:105770009BB223F4B05323F00C03898828896A89EB
:1057800001430A431343A381A38A9BB223F44073CA
:10579000AA891343A3826846FFF73CFF1F4B9C4234
:1057A00005D003F580639C4201D0029B00E0039B7F
:1057B000A28912F4004F1FD103EB830303EB830391
:1057C0002A689200B3FBF2F3154AA2FB03125209B6
:1057D0001101642002FB1033A28912F4004F14D18E
:1057E0001B0132330E4AA2FB0323C3F343130B43C3
:1057F0009BB2238105B030BD03EB830303EB83032E
:105800002A685200B3FBF2F3DEE7DB003233044ACE
:10581000A2FB0323C3F342130B43E9E7001001404B
:105820001F85EB5129B183899BB243F400538381D7
:10583000704783899BB223F400539BB283817047E6
:105840008088C0F308007047C1F3421C01F01F01BB
:10585000012303FA01F19C4508D0BCF1020F07D0E7
:1058600014303AB103681943016070470C30F8E70F
:105870001030F6E7036823EA010101607047C9436D
:1058800089B201807047C1F3421201F01F0C01235D
:1058900003FA0CF3012A0FD0022A11D0828A92B2A5
:1058A0001340090A012202FA01F1028892B20A4069
:1058B00053B15AB900207047828992B21340F0E781
:1058C000028A92B21340ECE7002070470120704733
:1058D00082B00023019300932A4A136843F4803373
:1058E0001360284B1B6803F400330093019B0133C2
:1058F0000193009B1BB9019BB3F5A04FF1D1214B44
:105900001B6813F4003F06D001230093009B012B7A
:1059100004D002B0704700230093F7E7194B1A6CCC
:1059200042F080521A6418490A6842F440420A6000
:105930009A689A609A6842F400429A609A6842F4BF
:10594000A0529A60114A5A601A6842F080721A6036
:105950000C4B1B6813F0007FFAD00D4B40F2057220
:105960001A60A3F580639A6822F003029A609A682D
:1059700042F002029A60034B9B6803F00C03082B71
:10598000F9D1C6E7003802400070004008544007D3
:10599000003C024010B5104CD4F8883043F470033A
:1059A000C4F888300D4B1A6842F001021A600021D9
:1059B00099601A6822F0847222F480321A60084AD0
:1059C0005A601A6822F480221A60D960FFF780FFBB
:1059D0004FF00063A36010BD00ED00E0003802400E
:1059E00010300024DFF834D00D480E490E4A002351
:1059F00002E0D458C4500433C4188C42F9D30B4A83
:105A00000B4C002301E013600432A242FBD3FFF7EA
:105A1000C1FF00F011F8FAF789FF7047000002207B
:105A20000000002078000020148400087800002086
:105A3000CC010020FEE7000070B50D4D0D4C641B3D
:105A4000A4100026A64209D10B4D0C4C01F028F8F9
:105A5000641BA4100026A64205D170BD55F8043B76
:105A600098470136EEE755F8043B98470136F2E7D0
:105A70000C8400080C8400080C84000810840008C2
:105A800002440346934200D1704703F8011BF9E733
:105A90000FB40A4B13B51C6824B1A36913B920468F
:105AA00000F05EFA05AB049AA1680193204600F06D
:105AB0002DFC02B0BDE8104004B070471400002077
:105AC00070B50E46054618B183690BB900F048FA67
:105AD000AB69AC6813B9284600F042FA2C4B9C42E3
