:020000040800F2
:100000000000022059590008A1520008A35200081C
:10001000A5520008A7520008A952000800000000DD
:10002000000000000000000000000000AB520008CB
:10003000AD52000800000000AF520008B1520008A5
:10004000A9590008A9590008A9590008A959000888
:10005000A9590008A9590008A9590008A959000878
:10006000A9590008A9590008A9590008A959000868
:10007000A9590008A9590008A9590008A959000858
:10008000A9590008A9590008A9590008A959000848
:10009000A9590008A9590008A9590008A959000838
:1000A000A9590008A9590008A9590008A959000828
:1000B000A9590008A9590008A9590008A959000818
:1000C000A9590008A9590008A9590008A959000808
:1000D000A9590008694F0008A9590008A959000842
:1000E000A9590008A9590008A9590008A9590008E8
:1000F000A9590008A9590008A9590008A9590008D8
:10010000A9590008A9590008A9590008A9590008C7
:10011000A9590008A9590008A9590008A9590008B7
:10012000A9590008A9590008A9590008A9590008A7
:10013000A9590008A9590008A9590008A959000897
:10014000A9590008A9590008A9590008A959000887
:10015000A9590008A9590008A9590008A959000877
:10016000A9590008A9590008A9590008A959000867
:10017000A9590008A9590008A95900080000000061
:08018000A9590008A959000863
:1001900010B5054C237833B9044B13B10448AFF3C1
:1001A00000800123237010BD7800002000000000B3
:1001B000146A000808B5034B1BB103490348AFF3A9
:1001C000008008BD000000007C000020146A0008C8
:1001D000034613F8012B002AFBD1181A0138704787
:1001E00001F0FF01102A2BDB10F0070F08D010F8E8
:1001F000013B013A8B422DD010F0070F42B3F6D1EC
:10020000F0B441EA012141EA014122F007047FF004
:1002100000070023F0E80256083C85EA010586EA5B
:10022000010685FA47F5A3FA87F586FA47F6A5FA97
:1002300087F68EB9EED1F0BC01F0FF0102F00702A3
:1002400032B110F8013B013A83EA010313B1F8D14E
:100250000020704701387047002D06BF354603382F
:10026000073815F0010F07D1013015F4807F02BF68
:10027000013015F4C03F0130F0BC0138704700BFB9
:1002800070B54FF0FF0C4CF4E06C1CEA11541DBF2C
:100290001CEA135594EA0C0F95EA0C0F00F0DEF8F7
:1002A0002C4481EA030621EA4C5123EA4C5350EADC
:1002B000013518BF52EA033541F4801143F480132D
:1002C00038D0A0FB02CE4FF00005E1FB02E506F0BE
:1002D0000042E0FB03E54FF00006E1FB03569CF013
:1002E000000F18BF4EF0010EA4F1FF04B6F5007F19
:1002F00064F5407404D25FEA4E0E6D4146EB06068B
:1003000042EAC62141EA55514FEAC52040EA5E5013
:100310004FEACE2EB4F1FD0C88BFBCF5E06F1ED8BD
:10032000BEF1004F08BF5FEA500E50F1000041EBF4
:10033000045170BD06F0004646EA010140EA0200A1
:1003400081EA0301B4EB5C04C2BFD4EB0C0541EAC3
:10035000045170BD41F480114FF0000E013C00F3D8
:10036000AB8014F1360FDEBF002001F0004170BDFC
:10037000C4F10004203C35DA0C341BDC04F1140415
:10038000C4F1200500FA05F320FA04F001FA05F2A1
:1003900040EA020001F0004221F0004110EBD3706E
:1003A00021FA04F642EB06015EEA430E08BF20EA9A
:1003B000D37070BDC4F10C04C4F1200500FA04F33D
:1003C00020FA05F001FA04F240EA020001F00041CF
:1003D00010EBD37041F100015EEA430E08BF20EA42
:1003E000D37070BDC4F1200500FA05F24EEA020E8A
:1003F00020FA04F301FA05F243EA020321FA04F0B9
:1004000001F0004121FA04F220EA020000EBD3706F
:100410005EEA430E08BF20EAD37070BD94F0000F6F
:100420000FD101F00046400041EB010111F4801FA3
:1004300008BF013CF7D041EA060195F0000F18BF54
:10044000704703F00046520043EB030313F4801F90
:1004500008BF013DF7D043EA0603704794EA0C0F4A
:100460000CEA135518BF95EA0C0F0CD050EA410660
:1004700018BF52EA4306D1D181EA030101F00041DD
:100480004FF0000070BD50EA410606BF1046194605
:1004900052EA430619D094EA0C0F02D150EA013611
:1004A00013D195EA0C0F05D152EA03361CBF104652
:1004B00019460AD181EA030101F0004141F0FE41F1
:1004C00041F470014FF0000070BD41F0FE4141F475
:1004D000780170BD81F0004102E000BF83F000436D
:1004E00030B54FEA41044FEA430594EA050F08BFCF
:1004F00090EA020F1FBF54EA000C55EA020C7FEA93
:10050000645C7FEA655C00F0E2804FEA5454D4EB0F
:100510005555B8BF6D420CDD2C4480EA020281EAD9
:10052000030382EA000083EA010180EA020281EA11
:100530000303362D88BF30BD11F0004F4FEA013163
:100540004FF4801C4CEA113102D0404261EB410172
:1005500013F0004F4FEA03334CEA133302D05242F8
:1005600063EB430394EA050F00F0A780A4F10104B4
:10057000D5F1200E0DDB02FA0EFC22FA05F28018EE
:1005800041F1000103FA0EF2801843FA05F35941D4
:100590000EE0A5F120050EF1200E012A03FA0EFC53
:1005A00028BF4CF0020C43FA05F3C01851EBE3717D
:1005B00001F0004507D54FF0000EDCF1000C7EEB9A
:1005C00000006EEB0101B1F5801F1BD3B1F5001FD8
:1005D0000CD349085FEA30004FEA3C0C04F10104F7
:1005E0004FEA445212F5800F80F09A80BCF1004F20
:1005F00008BF5FEA500C50F1000041EB045141EAA2
:10060000050130BD5FEA4C0C404141EB0101013C6A
:1006100028BFB1F5801FE9D291F0000F04BF014659
:100620000020B1FA81F308BF2033A3F10B03B3F12B
:1006300020020CDA0C3208DD02F1140CC2F10C02BB
:1006400001FA0CF021FA02F10CE002F11402D8BF19
:10065000C2F1200C01FA02F120FA0CFCDCBF41EAE5
:100660000C019040E41AA2BF01EB0451294330BDB4
:100670006FEA04041F3C1CDA0C340EDC04F1140491
:10068000C4F1200220FA04F001FA02F340EA030068
:1006900021FA04F345EA030130BDC4F10C04C4F1AE
:1006A000200220FA02F001FA04F340EA030029468E
:1006B00030BD21FA04F0294630BD94F0000F83F4D8
:1006C000801306BF81F480110134013D4EE77FEABB
:1006D000645C18BF7FEA655C29D094EA050F08BF07
:1006E00090EA020F05D054EA000C04BF19461046E8
:1006F00030BD91EA030F1EBF0021002030BD5FEA2C
:10070000545C05D14000494128BF41F0004130BD53
:1007100014F580043CBF01F5801130BD01F00045A7
:1007200045F0FE4141F470014FF0000030BD7FEA1A
:10073000645C1ABF194610467FEA655C1CBF0B4615
:10074000024650EA013406BF52EA033591EA030F2C
:1007500041F4002130BD00BF90F0000F04BF002124
:10076000704730B54FF4806404F132044FF0000557
:100770004FF0000150E700BF90F0000F04BF0021D0
:10078000704730B54FF4806404F1320410F0004536
:1007900048BF40424FF000013EE700BF42004FEA31
:1007A000E2014FEA31014FEA02701FBF12F07F43AE
:1007B00093F07F4F81F06051704732F07F4208BF65
:1007C000704793F07F4F04BF41F40021704730B56C
:1007D0004FF4607401F0004521F000411CE700BFB8
:1007E00050EA010208BF704730B54FF000050AE03B
:1007F00050EA010208BF704730B511F0004502D53C
:10080000404261EB41014FF4806404F132045FEA3D
:10081000915C3FF4D8AE4FF003025FEADC0C18BFE6
:1008200003325FEADC0C18BF033202EBDC02C2F1D8
:10083000200300FA03FC20FA02F001FA03FE40EA6A
:100840000E0021FA02F11444BDE600BF4A0011D2A5
:1008500012F5001211D20DD56FF47873B3EB62521A
:100860000ED44FEAC12343F0004343EA505323FA26
:1008700002F070474FF00000704750EA013002D19B
:100880004FF0FF3070474FF00000704710B5002464
:100890004FF4A06004F00EFDA82000F039F84FF4EA
:1008A000E13004F005FB04F033F901F007F900F042
:1008B000BBFB04F0D9FB04F0E9F919E004F078FA85
:1008C000114BA3FB04231B0903EB8303A4EB83035A
:1008D00013F0FF0316D10D49D1F88422B2FA82F247
:1008E0005209C1F884220133DCB20A2000F066F814
:1008F000002000F0BDFB0228E0D00128E0D104F088
:1009000095FADDE72346EEE7CDCCCCCC00004042A3
:1009100010B504466FF0040004F008FDE008054B34
:100920001870C0EB401300EB8300C000024B18802E
:1009300010BD00BF96000020940000200E4B1B78D5
:1009400003FB00F04FF0E023586100229A611A691E
:1009500042F001021A614FF0E0231B6903F001131A
:10096000012BF8D04FF0E0231A6922F001021A613E
:1009700000229A61704700BF960000200E4B1B8832
:1009800003FB00F04FF0E023586100229A611A69DE
:1009900042F001021A614FF0E0231B6903F00113DA
:1009A000012BF8D04FF0E0231A6922F001021A61FE
:1009B00000229A61704700BF9400002038B50C4CAB
:1009C000A4FB0034650A2C464FF4077303FB1500A3
:1009D00085B205E04FF40770FFF7D0FF013CE4B2A9
:1009E000002CF7D105B938BD2846FFF7C7FFFAE755
:1009F00049D6B9F22DE9F041BDF81860151AADB22B
:100A00000135ADB2A3EB01081FFA88F808F101081F
:100A10001FFA88F800F046FD002708E0304600F095
:100A2000BBFB0134A4B2AC42F8D30137BFB2474597
:100A300001D20024F7E7064B9A88DB88013B013A94
:100A40009BB292B20021084600F02CFDBDE8F08177
:100A50009C0000202DE9F04F85B08B4617461D46BF
:100A60009DF83C909DF840400194464B1A880292B4
:100A70009DF838A0AAF1200A5FFA8AFA4FEA5906CF
:100A8000039000EB590292B201EB09039BB2013BC8
:100A9000013A9BB292B200F005FD84B34FF000081A
:100AA000CDF804A0DDF80CA04DE00AEB4A03364A6D
:100AB00002EB830313F80B801FE0384600F06CFB59
:100AC0004FEA48085FFA88F80134E4B2A64206D932
:100AD00018F0800FF1D1284600F05EFBF0E70BF133
:100AE000010B5FFA8BFBCB453AD2B9F10C0FDCD08E
:100AF000264B03EB0A1313F80B80019CE6E7DDF8A5
:100B000004B0F0E7019B03EB43031F4A02EB8303AE
:100B100013F8085022E06D00EDB20134E4B2A642B1
:100B20000DD9184B1F8015F0800FF4D00BEB080186
:100B30000AEB040089B280B200F006FEEBE708F190
:100B400001085FFA88F8C8450AD2B9F10C0FD9D06C
:100B50000E4B019A03EB021313F808500024DEE752
:100B6000084B029A1A800A4B9A88DB88013B013AAB
:100B70009BB292B20021084600F094FC05B0BDE89B
:100B8000F08F00BF980000202C6A0008A06E0008BB
:100B90009C0000202DE9F04F85B0834601919246DC
:100BA00003939DF83C9005464FF0000843E0404613
:100BB00000F0F2FA13E03A4BA3F800A006EB06139C
:100BC000384A02EB43033B449A78802323411A427C
:100BD0001BD10135ADB2A5EB0B03102B1AD001349C
:100BE000E4B2072C1BD8B9F1000FE4D106EB0613D1
:100BF0002C4A02EB43033B449A78802323411A4258
:100C0000D5D0504600F0C8FAE9E70199284600F02F
:100C10009BFDDEE7019B01339BB201935D460137EB
:100C2000FFB21F2F01D80024DBE7DDF8088008F1B0
:100C300001081FFA88F8B8F1470F23D8464608EB99
:100C40000813184A12F813200E9B1B789A42EED113
:100C500008EB0813134A02EB43035A780E9B5B78A8
:100C60009A42E4D101990B460F3305F10F029BB272
:100C700092B2284600F016FC0027CDF80880DDF877
:100C80000C80CEE7084B9A88DB88013B013A9BB287
:100C900092B20021084600F005FC05B0BDE8F08FD7
:100CA00098000020907400089C0000202DE9F04F6F
:100CB00085B082460191914602939DF83C8005469D
:100CC0004FF0000B41E0584600F066FA12E0394B55
:100CD000A3F80090384B4A2202FB073333449A783A
:100CE000802323411A421AD10135ADB2A5EB0A0384
:100CF000182B19D00134E4B2072C1AD8B8F1000F20
:100D0000E5D12D4B4A2202FB073333449A788023E6
:100D100023411A42D7D0484600F03EFAEAE701994B
:100D2000284600F011FDDFE7019B01339BB20193E0
:100D300055460136F6B2472E01D80024DCE7DDF82F
:100D40000CB00BF1010B1FFA8BFBBBF1060F22D885
:100D50005F464A2303FB0BF3174AD25C0E9B1B78BA
:100D60009A42EED1144B4A2202FB0B335A780E9B67
:100D70005B789A42E5D101990B46173305F11702CA
:100D80009BB292B2284600F08DFB0026CDF80CB045
:100D9000DDF808B0CFE7094B9A88DB88013B013AC0
:100DA0009BB292B20021084600F07CFB05B0BDE882
:100DB000F08F00BF98000020207E00089C000020DB
:100DC0002DE9F04F85B082460191914602939DF83E
:100DD0003C8005464FF0000B44E0584600F0DCF93B
:100DE00013E03B4BA3F8009006EB8613394A02EB65
:100DF00043033B449A78802323411A421BD1013597
:100E0000ADB2A5EB0A03202B1AD00134E4B2072CB3
:100E10001BD8B8F1000FE4D106EB86132D4A02EB84
:100E200043033B449A78802323411A42D5D0484655
:100E300000F0B2F9E9E70199284600F085FCDEE709
:100E4000019B01339BB2019355460137FFB217F066
:100E5000800F01D10024DAE7DDF80CB00BF1010BB3
:100E60001FFA8BFBBBF1030F23D85E460BEB8B13F2
:100E7000184A12F813200E9B1B789A42EED10BEB06
:100E80008B13144A02EB43035A780E9B5B789A4209
:100E9000E4D101990B461F3305F11F029BB292B2B8
:100EA000284600F0FFFA0027CDF80CB0DDF808B0B6
:100EB000CDE7094B9A88DB88013B013A9BB292B29D
:100EC0000021084600F0EEFA05B0BDE8F08F00BF43
:100ED00098000020288000089C0000202DE9F04F99
:100EE00087B00590884692460493109F9DF8446011
:100EF0009DF848B004464FF000092FE0B0441FFAB7
:100F000088F80137059C013728E0CDF808B0019634
:100F10000093049B524641462046FFF79BFD2C441C
:100F2000A4B2F0E72D4B9B889B1B9C4253DC2B4BC0
:100F3000DB889B1B98454EDC202E35D0182E3DD0EB
:100F4000CDF804B00097049B524641462046FFF777
:100F500021FE02373444A4B24FF000093B78002B45
:100F600039D0B9F1000FDDD11C4A92887508A2EB87
:100F7000560294422FDC194AD288921B90452ADCF3
:100F8000802B25D80D2BB9D0102EBED9CDF808B0A6
:100F9000102201920093049B524641462046FFF7DF
:100FA00059FD0834A4B2AEE7CDF804B00097049B15
:100FB000524641462046FFF703FFCAE7CDF804B08A
:100FC0000097049B524641462046FFF76FFEC0E75C
:100FD0004FF00109C2E707B0BDE8F08F9C00002088
:100FE000F0B585B00C4615461E460A9F3846FFF7F9
:100FF000EFF80C4BB3F804C080B2ACEBC00000EBD0
:10100000D0709DF8303002939DF82C3001930097FA
:1010100033462A462146C0F34F00FFF75FFF05B075
:10102000F0BD00BF9C00002010B582B0012111204E
:1010300004F0D2FA1023009300238DF80430032328
:101040008DF8053001248DF807406946064804F004
:10105000F7F9009402238DF807306946034804F03D
:10106000EFF902B010BD00BF0010024000000240C6
:1010700008B510B11A4B01221A70194B1B7843B1F5
:10108000184BD3F810325BB1174BD3F80032012B59
:1010900006D0144BD3F81032012B12D0002008BD1B
:1010A0000A20FFF78BFC0E4B00221A700D4BD3F871
:1010B00010327BB10C4BD3F80032012B0CD0104610
:1010C000EDE7094BD3F8003243B9054B01221A7002
:1010D0000020E4E70120E2E70220E0E70020DEE76D
:1010E00000000020000042420000404282B0ADF803
:1010F0000600BDF806309BB2ADF80630BDF80630EC
:101100009BB2024AA2F8FE3002B0704700FF0160B5
:1011100082B0ADF80600BDF806309BB2ADF80630DF
:10112000BDF806309BB2024AA2F8003102B0704707
:1011300000FF016082B0054BB3F800319BB2ADF8FF
:101140000630BDF8060080B202B0704700FF0160B3
:10115000024BA3F8FE00A3F80011704700FF0160E6
:1011600070B50C461546FFF7C1FF08E0FFF7E2FF38
:1011700024F8020B4FF49670FFF7E0FB35466E1E25
:10118000002DF3D170BD000008B5024B9889FFF720
:10119000ADFF08BD9C000020014BA3F80001704783
:1011A00000FF01600000000010B50446BE20FFF7FC
:1011B0009DFF0520FFF7ACFF2046FFF7DDFA0CA3EB
:1011C000D3E90023FFF75CF8FFF740FB80B2FFF79D
:1011D0009FFF0120FFF79CFFFF20FFF799FF0020F2
:1011E000FFF796FF0020FFF793FF10BDAFF30080DD
:1011F00066666666666604402DE9F043A1B001218B
:101200001A2004F0E9F90121084604F0F3F94FF43B
:1012100000431E9301278DF87C7000248DF87E40DA
:101220004FF002098DF87D908DF87F701EA96C48F3
:1012300004F006F94FF400531E938DF87C708DF87E
:101240007E404FF003088DF87D808DF87F70654DEE
:101250001EA9284604F0F4F84CF233731E938DF85F
:101260007C908DF87E408DF87D808DF87F701EA972
:10127000284604F0E5F84FF680731E938DF87C90B5
:101280008DF87E408DF87D808DF87F70564E1EA9BA
:10129000304604F0D5F84FF408631E938DF87C9027
:1012A0008DF87E408DF87D808DF87F701EA92846D0
:1012B00004F0C6F80C222146284604F016F90C2248
:1012C0003946284604F011F90C220421284604F07E
:1012D0000CF90C220521284604F007F90C220821FC
:1012E000284604F002F90C220921284604F0FDF8F2
:1012F0000C220A21284604F0F8F80C220E21284678
:1013000004F0F3F80C220F21284604F0EEF80C222A
:101310000721304604F0E9F80C220821304604F099
:10132000E4F80C220921304604F0DFF80C220A21EF
:10133000304604F0DAF80C220B21304604F0D5F8E0
:101340000C221146304604F0D0F80C220D21304614
:1013500004F0CBF80C220E21304604F0C6F80C2223
:101360000F21304604F0C1F80C220721284604F072
:10137000BCF80C220B21284604F0B7F80F23089381
:1013800009943C230A930B940C940D940E94092316
:1013900001930294082303930494059406940794FC
:1013A0000F94109411941023129313941594149481
:1013B000169417944FF48053189319944FF4804364
:1013C0001A931B9408AB1C9301AB1D930FA803F059
:1013D000BDFF3946204604F01DF821B0BDE8F0837A
:1013E00000040240000C0240001002402B4B5A68DF
:1013F00022F00F025A605A6822F470625A60284B39
:101400001B8949F24132934220D049F286429342ED
:1014100026D049F28842934222D045F210329342BC
:101420001ED047F2967293421AD041F6631293424D
:1014300016D04BF2095293421CD047F2937293425A
:1014400018D045F2105293421ED07047134B5A6881
:1014500042F004025A605A6842F440725A6070477F
:101460000E4B5A6842F004025A605A6842F4806295
:101470005A607047094B5A6842F005025A605A6830
:1014800042F480625A607047044B5A6842F003028B
:101490005A605A6842F400725A60D6E7000100A010
:1014A0009C0000202DE9F84305460C4617461E46D1
:1014B0004FF00008C146924B1B894BF209529342F0
:1014C00037D047F29372934233D045F21052934291
:1014D00000F0958041F66312934200F0DD80DFF862
:1014E0002082B8F81000FFF701FEC5F30F20FFF7C8
:1014F0000FFEE8B2FFF70CFEC7F30F20FFF708FE60
:10150000F8B2FFF705FEB8F81200FFF7EFFDC4F3DD
:101510000F20FFF7FDFDE0B2FFF7FAFDC6F30F2045
:10152000FFF7F6FDF0B2FFF7F3FDFFF72DFEBDE884
:10153000F883734B9B7A032B41D8DFE803F03E021C
:10154000152B6F4BDA88931B9BB2013BA2EB04086F
:101550001FFA88F808F1FF381FFA88F8A9463E46B6
:1015600047462C469DB22AE0654A9388D91B89B22A
:1015700001395F1BBFB2013FBFB2D288931B9BB240
:10158000013B161BB6B2013EB6B2B146B8469CB29C
:101590008DB214E05A4B9B88DA1B92B2013AA3EB4E
:1015A00005091FFA89F909F1FF391FFA89F9A046DF
:1015B00037464E46254694B201E0A146A846294644
:1015C0004FF40470FFF7C4FD214640F21220FFF7EC
:1015D000BFFD394640F21120FFF7BAFD314640F217
:1015E0001320FFF7B5FD464C4146208AFFF7B0FDBA
:1015F0004946608AFFF7ACFDFFF7C6FD97E7DFF8C5
:101600000081B8F81000FFF771FDC5F30F20FFF758
:101610007FFDB8F81000013080B2FFF767FDE8B237
:10162000FFF776FDB8F81000023080B2FFF75EFDDC
:10163000C7F30F20FFF76CFDB8F81000033080B23D
:10164000FFF754FDF8B2FFF763FDB8F81200FFF79B
:101650004DFDC4F30F20FFF75BFDB8F81200013019
:1016600080B2FFF743FDE0B2FFF752FDB8F8120079
:10167000023080B2FFF73AFDC6F30F20FFF748FDB6
:10168000B8F81200033080B2FFF730FDF0B2FFF778
:101690003FFDFFF779FD4AE7194B9B7A022B0FD0EC
:1016A000032B18D0002B7FF41AAF154B9B88DA1B45
:1016B00092B2013A1F1ABFB2013FBFB295B20EE714
:1016C0000F4BDB889A1B92B2013A5E1AB6B2013E0A
:1016D000B6B294B203E70A498B88DA1B92B2013A98
:1016E0001F1ABFB2013FBFB2CB88991B89B2013923
:1016F0001E1BB6B2013EB6B28CB295B2EFE600BF89
:101700009C00002038B504460A4B9A88DB8803FB0E
:1017100002F5013B013A9BB292B200210846FFF765
:10172000C1FE002303E0044AA2F800410133AB42AA
:10173000F9D338BD9C00002000FF016008B50246C7
:101740000B46FFF7AFFE08BD08B5FFF7F7FF024BEA
:101750001888FFF721FD08BD9800002000B583B070
:1017600000230093019300F00300874B987210F060
:10177000010145D05A889A801A88DA80824B1B89E9
:1017800049F24132934241D049F2864293423DD0E0
:1017900049F28842934239D045F21032934235D013
:1017A00047F29672934231D045F21052934200F0C4
:1017B0008F804BF20952934200F0A48047F293725B
:1017C000934200F09F8041F66312934256D1002964
:1017D00000F0B6806C4B2A221A822B225A826A4B66
:1017E0002C229A812E22DA8136229A82A023ADF809
:1017F00000306023ADF80430C023ADF806303DE082
:10180000614B1A889A805A88DA80B7E75E4A2A21A3
:1018100011822B2151822C2191812E21D1813621BF
:10182000918249F2413293421CD049F2864293425E
:101830002AD049F28842934233D045F21032934283
:101840003CD047F29672934218D14823ADF800304D
:101850002823ADF802309823ADF80430F823ADF812
:1018600006300BE00823ADF800306823ADF80230F5
:10187000C823ADF80430A823ADF8063003286BD890
:10188000DFE800F0646D747B4823ADF80030382346
:10189000ADF802308823ADF80430E823ADF8063007
:1018A000ECE70823ADF800306823ADF80230C82318
:1018B000ADF80430A823ADF80630DFE76023ADF8BB
:1018C0000230C023ADF80430A023ADF80630D5E7D0
:1018D0002D4B4FF428521A824FF42C525A824FF457
:1018E00030529A814FF43852DA814FF458529A822A
:1018F0006023ADF80230C023ADF80430A023ADF86A
:101900000630BBE7204B4FF400721A8240F20122EE
:101910005A8240F202229A81DA8103229A8241F2AB
:101920003003ADF8003041F22803ADF802304FF437
:101930008053ADF8043041F21803ADF806309DE74E
:10194000114B2B221A822A225A8248E7BDF8001036
:101950000D4B988AFFF7FCFB03B05DF804FBBDF864
:101960000210094B988AFFF7F3FBF5E7BDF8041066
:10197000054B988AFFF7ECFBEEE7BDF80610024B2B
:10198000988AFFF7E5FBE7E79C00002000B583B0ED
:10199000012269460020FFF7E3FBBDF800004BF28F
:1019A0000953984200F0848047F2937398427FD0A5
:1019B00004226946D320FFF7D3FBBDF80430BDF9FC
:1019C000060040EA032080B2ADF8000049F241333E
:1019D00098426DD049F28643984269D049F28843D3
:1019E000984265D047F29673984261D004226946C6
:1019F000D420FFF7B5FBBDF80430BDF9060040EA7E
:101A0000032080B2ADF8000045F2103398424FD069
:101A100003226946A120FFF7A3FBBDF80220BDF910
:101A2000043043EA02239BB2ADF8003045F2617204
:101A3000934240D04FF47040FFF758FB5520FFF71A
:101A400067FB4FF20100FFF751FBAA20FFF760FB95
:101A50004FF20200FFF74AFB5220FFF759FB4FF20B
:101A60000300FFF743FB0820FFF752FB4FF204008F
:101A7000FFF73CFB0120FFF74BFB01220DF10201B8
:101A80004FF44540FFF76CFB012201A94CF20150D5
:101A9000FFF766FBBDF80230BDF9040040EA032001
:101AA00080B2ADF8000045F21053984200D00020FB
:101AB00003B05DF804FB41F66310F9E710B5FFF7DA
:101AC0009BFBFFF763FF0146794C2081794803F0C7
:101AD00099FFFFF78BFC6420FEF770FF238947F224
:101AE0009672934201F09A8740F2E68049F286426C
:101AF000934201F0A98641F2738549F288429342EC
:101B000041F09986F720FFF7F1FAA920FFF700FBD3
:101B10005120FFF7FDFA2C20FFF7FAFA8220FFF799
:101B2000F7FAC020FFF7E2FA1120FFF7F1FA0920D7
:101B3000FFF7EEFAC120FFF7D9FA4120FFF7E8FAE4
:101B4000C520FFF7D3FA0020FFF7E2FA0A20FFF7DB
:101B5000DFFA8020FFF7DCFAB120FFF7C7FAB020E8
:101B6000FFF7D6FA1120FFF7D3FAB420FFF7BEFA39
:101B70000220FFF7CDFAB620FFF7B8FA0220FFF7F0
:101B8000C7FA2220FFF7C4FAB720FFF7AFFAC62042
:101B9000FFF7BEFABE20FFF7A9FA0020FFF7B8FA58
:101BA0000420FFF7B5FAE920FFF7A0FA0020FFF7BD
:101BB000AFFA3620FFF79AFA0820FFF7A9FA3A2081
:101BC000FFF794FA5520FFF7A3FAE020FFF78EFA0B
:101BD0000020FFF79DFA0720FFF79AFA1020FFF781
:101BE00097FA0920FFF794FA1720FFF791FA0B20D4
:101BF000FFF78EFA4120FFF78BFA8920FFF788FA6A
:101C00004B20FFF785FA0A20FFF782FA0C20FFF736
:101C10007FFA0E20FFF77CFA1820FFF779FA1B20D5
:101C2000FFF776FA0F20FFF773FAE120FFF75EFA6D
:101C30000020FFF76DFA1720FFF76AFA1A20FFF766
:101C400067FA0420FFF764FA0E20FFF761FA062016
:101C5000FFF75EFA2F20FFF75BFA4520FFF758FAEF
:101C60004320FFF755FA0220FFF752FA0A20FFF748
:101C70004FFA0920FFF74CFA3220FFF749FA3620D5
:101C8000FFF746FA0F20FFF743FA1120FFF72EFA6D
:101C90007820FEF793FE2920FFF728FA044B4FF433
:101CA000A0721A804FF4F0725A8001F0B8BD00BFE4
:101CB0009C0000203082000845F21032934201F06F
:101CC000A58741F2C68245F21052934241F08683C5
:101CD0004FF47040FFF70AFA5520FFF719FA4FF258
:101CE0000100FFF703FAAA20FFF712FA4FF20200F1
:101CF000FFF7FCF95220FFF70BFA4FF20300FFF752
:101D0000F5F90820FFF704FA4FF20400FFF7EEF9A7
:101D10000120FFF7FDF94FF43640FFF7E7F93420D3
:101D2000FFF7F6F94BF20160FFF7E0F93420FFF717
:101D3000EFF94BF20260FFF7D9F93420FFF7E8F929
:101D40004FF43040FFF7D2F90D20FFF7E1F94BF2E5
:101D50000100FFF7CBF90D20FFF7DAF94BF2020093
:101D6000FFF7C4F90D20FFF7D3F94FF43740FFF721
:101D7000BDF92420FFF7CCF94BF20170FFF7B6F95B
:101D80002420FFF7C5F94BF20270FFF7AFF92420CA
:101D9000FFF7BEF94FF43140FFF7A8F90D20FFF728
:101DA000B7F94BF20110FFF7A1F90D20FFF7B0F9D9
:101DB0004BF20210FFF79AF90D20FFF7A9F94FF443
:101DC0003840FFF793F92420FFF7A2F94BF6010002
:101DD000FFF78CF92420FFF79BF94BF60200FFF781
:101DE00085F92420FFF794F94FF43240FFF77EF98C
:101DF0000020FFF78DF94FF43940FFF777F92420E1
:101E0000FFF786F94BF60110FFF770F92420FFF772
:101E10007FF94BF60210FFF769F92420FFF778F9F4
:101E20004FF43340FFF762F90520FFF771F94BF2E9
:101E30000130FFF75BF90520FFF76AF94BF202303A
:101E4000FFF754F90520FFF763F94FF43A40FFF725
:101E50004DF93420FFF75CF94BF60120FFF746F906
:101E60003420FFF755F94BF60220FFF73FF93420F5
:101E7000FFF74EF94FF43540FFF738F90B20FFF725
:101E800047F94BF20150FFF731F90B20FFF740F90A
:101E90004BF20250FFF72AF90B20FFF739F94FF404
:101EA0003C40FFF723F90020FFF732F94BF60140E1
:101EB000FFF71CF9A320FFF72BF94BF60240FFF7C1
:101EC00015F90020FFF724F94FF43D40FFF70EF914
:101ED0000020FFF71DF94BF60150FFF707F9A3208B
:101EE000FFF716F94BF60250FFF700F90020FFF755
:101EF0000FF94FF43E40FFF7F9F80020FFF708F91B
:101F00004BF60160FFF7F2F86320FFF701F94FF499
:101F10005140FFF7EBF80020FFF7FAF84DF20110FF
:101F2000FFF7E4F83720FFF7F3F84DF20210FFF760
:101F3000DDF80020FFF7ECF84DF20310FFF7D6F8BC
:101F40005220FFF7E5F84DF20410FFF7CFF800201C
:101F5000FFF7DEF84DF20510FFF7C8F87B20FFF71A
:101F6000D7F84DF20610FFF7C1F80020FFF7D0F8C0
:101F70004DF20710FFF7BAF89920FFF7C9F84DF2B4
:101F80000810FFF7B3F80020FFF7C2F84DF2091070
:101F9000FFF7ACF8B120FFF7BBF84DF20A10FFF7DE
:101FA000A5F80020FFF7B4F84DF20B10FFF79EF8EC
:101FB000D220FFF7ADF84DF20C10FFF797F8002094
:101FC000FFF7A6F84DF20D10FFF790F8F620FFF797
:101FD0009FF84DF20E10FFF789F80120FFF798F8EF
:101FE0004DF20F10FFF782F82720FFF791F84DF21E
:101FF0001010FFF77BF80120FFF78AF84DF211105F
:10200000FFF774F84E20FFF783F84DF21210FFF738
:102010006DF80120FFF77CF84DF21310FFF766F81A
:102020008C20FFF775F84DF21410FFF75FF80120D0
:10203000FFF76EF84DF21510FFF758F8BE20FFF7C6
:1020400067F84DF21610FFF751F80220FFF760F81D
:102050004DF21710FFF74AF80B20FFF759F84DF231
:102060001810FFF743F80220FFF752F84DF219104D
:10207000FFF73CF84820FFF74BF84DF21A10FFF736
:1020800035F80220FFF744F84DF21B10FFF72EF849
:102090004A20FFF73DF84DF21C10FFF727F8022009
:1020A000FFF736F84DF21D10FFF720F87E20FFF7FE
:1020B0002FF84DF21E10FFF719F80220FFF728F84D
:1020C0004DF21F10FFF712F8BC20FFF721F84DF278
:1020D0002010FFF70BF80220FFF71AF84DF221103D
:1020E000FFF704F8E120FFF713F84DF22210FEF796
:1020F000FDFF0320FFF70CF84DF22310FEF7F6FF6B
:102100001020FFF705F84DF22410FEF7EFFF032033
:10211000FEF7FEFF4DF22510FEF7E8FF3120FEF737
:10212000F7FF4DF22610FEF7E1FF0320FEF7F0FF68
:102130004DF22710FEF7DAFF5A20FEF7E9FF4DF2C5
:102140002810FEF7D3FF0320FEF7E2FF4DF229101F
:10215000FEF7CCFF7320FEF7DBFF4DF22A10FEF7EF
:10216000C5FF0320FEF7D4FF4DF22B10FEF7BEFF94
:102170009420FEF7CDFF4DF22C10FEF7B7FF0320A1
:10218000FEF7C6FF4DF22D10FEF7B0FF9F20FEF7C1
:10219000BFFF4DF22E10FEF7A9FF0320FEF7B8FF98
:1021A0004DF22F10FEF7A2FFB320FEF7B1FF4DF264
:1021B0003010FEF79BFF0320FEF7AAFF4DF231100F
:1021C000FEF794FFB920FEF7A3FF4DF23210FEF7A1
:1021D0008DFF0320FEF79CFF4DF23310FEF786FFC4
:1021E000C120FEF795FF4FF45240FEF77FFF00201D
:1021F000FEF78EFF4DF20120FEF778FF3720FEF745
:1022000087FF4DF20220FEF771FF0020FEF780FFEE
:102210004DF20320FEF76AFF5220FEF779FF4DF2E0
:102220000420FEF763FF0020FEF772FF4DF2052049
:10223000FEF75CFF7B20FEF76BFF4DF20620FEF7FA
:1022400055FF0020FEF764FF4DF20720FEF74EFF1A
:102250009920FEF75DFF4DF20820FEF747FF0020B2
:10226000FEF756FF4DF20920FEF740FFB120FEF7C2
:102270004FFF4DF20A20FEF739FF0020FEF748FF1E
:102280004DF20B20FEF732FFD220FEF741FF4DF258
:102290000C20FEF72BFF0020FEF73AFF4DF20D2039
:1022A000FEF724FFF620FEF733FF4DF20E20FEF777
:1022B0001DFF0120FEF72CFF4DF20F20FEF716FF49
:1022C0002720FEF725FF4DF21020FEF70FFF01201B
:1022D000FEF71EFF4DF21120FEF708FF4E20FEF71D
:1022E00017FF4DF21220FEF701FF0120FEF710FF4D
:1022F0004DF21320FEF7FAFE8C20FEF709FF4DF297
:102300001420FEF7F3FE0120FEF702FF4DF2152028
:10231000FEF7ECFEBE20FEF7FBFE4DF21620FEF7A8
:10232000E5FE0220FEF7F4FE4DF21720FEF7DEFE7A
:102330000B20FEF7EDFE4DF21820FEF7D7FE02202F
:10234000FEF7E6FE4DF21920FEF7D0FE4820FEF71C
:10235000DFFE4DF21A20FEF7C9FE0220FEF7D8FE7E
:102360004DF21B20FEF7C2FE4A20FEF7D1FE4DF2D1
:102370001C20FEF7BBFE0220FEF7CAFE4DF21D2018
:10238000FEF7B4FE7E20FEF7C3FE4DF21E20FEF7E0
:10239000ADFE0220FEF7BCFE4DF21F20FEF7A6FEAA
:1023A000BC20FEF7B5FE4DF22020FEF79FFE022076
:1023B000FEF7AEFE4DF22120FEF798FEE120FEF77B
:1023C000A7FE4DF22220FEF791FE0320FEF7A0FEAD
:1023D0004DF22320FEF78AFE1020FEF799FE4DF203
:1023E0002420FEF783FE0320FEF792FE4DF2252007
:1023F000FEF77CFE3120FEF78BFE4DF22620FEF725
:1024000075FE0320FEF784FE4DF22720FEF76EFED8
:102410005A20FEF77DFE4DF22820FEF767FE0320CE
:10242000FEF776FE4DF22920FEF760FE7320FEF7E0
:102430006FFE4DF22A20FEF759FE0320FEF768FEDC
:102440004DF22B20FEF752FE9420FEF761FE4DF276
:102450002C20FEF74BFE0320FEF75AFE4DF22D20F6
:10246000FEF744FE9F20FEF753FE4DF22E20FEF7AE
:102470003DFE0320FEF74CFE4DF22F20FEF736FE08
:10248000B320FEF745FE4DF23020FEF72FFE03206D
:10249000FEF73EFE4DF23120FEF728FEB920FEF792
:1024A00037FE4DF23220FEF721FE0320FEF730FE0C
:1024B0004DF23320FEF71AFEC120FEF729FE4FF43D
:1024C0005340FEF713FE0020FEF722FE4DF20130CE
:1024D000FEF70CFE3720FEF71BFE4DF20230FEF732
:1024E00005FE0020FEF714FE4DF20330FEF7FEFD60
:1024F0005220FEF70DFE4DF20430FEF7F7FD0020EE
:10250000FEF706FE4DF20530FEF7F0FD7B20FEF7EC
:10251000FFFD4DF20630FEF7E9FD0020FEF7F8FD65
:102520004DF20730FEF7E2FD9920FEF7F1FD4DF286
:102530000830FEF7DBFD0020FEF7EAFD4DF2093022
:10254000FEF7D4FDB120FEF7E3FD4DF20A30FEF7B1
:10255000CDFD0020FEF7DCFD4DF20B30FEF7C6FD91
:10256000D220FEF7D5FD4DF20C30FEF7BFFD002066
:10257000FEF7CEFD4DF20D30FEF7B8FDF620FEF76A
:10258000C7FD4DF20E30FEF7B1FD0120FEF7C0FD94
:102590004DF20F30FEF7AAFD2720FEF7B9FD4DF2F0
:1025A0001030FEF7A3FD0120FEF7B2FD4DF2113011
:1025B000FEF79CFD4E20FEF7ABFD4DF21230FEF70C
:1025C00095FD0120FEF7A4FD4DF21330FEF78EFDC0
:1025D0008C20FEF79DFD4DF21430FEF787FD0120A3
:1025E000FEF796FD4DF21530FEF780FDBE20FEF79A
:1025F0008FFD4DF21630FEF779FD0220FEF788FDC3
:102600004DF21730FEF772FD0B20FEF781FD4DF203
:102610001830FEF76BFD0220FEF77AFD4DF21930FF
:10262000FEF764FD4820FEF773FD4DF21A30FEF709
:102630005DFD0220FEF76CFD4DF21B30FEF756FDEE
:102640004A20FEF765FD4DF21C30FEF74FFD0220DB
:10265000FEF75EFD4DF21D30FEF748FD7E20FEF7D1
:1026600057FD4DF21E30FEF741FD0220FEF750FDF2
:102670004DF21F30FEF73AFDBC20FEF749FD4DF24A
:102680002030FEF733FD0220FEF742FD4DF22130EF
:10269000FEF72CFDE120FEF73BFD4DF22230FEF768
:1026A00025FD0320FEF734FD4DF22330FEF71EFD1D
:1026B0001020FEF72DFD4DF22430FEF717FD03200C
:1026C000FEF726FD4DF22530FEF710FD3120FEF716
:1026D0001FFD4DF22630FEF709FD0320FEF718FD21
:1026E0004DF22730FEF702FD5A20FEF711FD4DF2A4
:1026F0002830FEF7FBFC0320FEF70AFD4DF22930DF
:10270000FEF7F4FC7320FEF703FD4DF22A30FEF7CE
:10271000EDFC0320FEF7FCFC4DF22B30FEF7E6FC4F
:102720009420FEF7F5FC4DF22C30FEF7DFFC032081
:10273000FEF7EEFC4DF22D30FEF7D8FC9F20FEF7A1
:10274000E7FC4DF22E30FEF7D1FC0320FEF7E0FC53
:102750004DF22F30FEF7CAFCB320FEF7D9FC4DF244
:102760003030FEF7C3FC0320FEF7D2FC4DF23130CF
:10277000FEF7BCFCB920FEF7CBFC4DF23230FEF781
:10278000B5FC0320FEF7C4FC4DF23330FEF7AEFC7F
:10279000C120FEF7BDFC4FF45440FEF7A7FC00201B
:1027A000FEF7B6FC4DF20140FEF7A0FC3720FEF725
:1027B000AFFC4DF20240FEF799FC0020FEF7A8FCAA
:1027C0004DF20340FEF792FC5220FEF7A1FC4DF2C1
:1027D0000440FEF78BFC0020FEF79AFC4DF205400A
:1027E000FEF784FC7B20FEF793FC4DF20640FEF7DB
:1027F0007DFC0020FEF78CFC4DF20740FEF776FCD6
:102800009920FEF785FC4DF20840FEF76FFC002092
:10281000FEF77EFC4DF20940FEF768FCB120FEF7A2
:1028200077FC4DF20A40FEF761FC0020FEF770FCD9
:102830004DF20B40FEF75AFCD220FEF769FC4DF238
:102840000C40FEF753FC0020FEF762FC4DF20D40F9
:10285000FEF74CFCF620FEF75BFC4DF20E40FEF757
:1028600045FC0120FEF754FC4DF20F40FEF73EFC04
:102870002720FEF74DFC4DF21040FEF737FC0120FB
:10288000FEF746FC4DF21140FEF730FC4E20FEF7FD
:102890003FFC4DF21240FEF729FC0120FEF738FC08
:1028A0004DF21340FEF722FC8C20FEF731FC4DF276
:1028B0001440FEF71BFC0120FEF72AFC4DF21540E8
:1028C000FEF714FCBE20FEF723FC4DF21640FEF787
:1028D0000DFC0220FEF71CFC4DF21740FEF706FC33
:1028E0000B20FEF715FC4DF21840FEF7FFFB02200F
:1028F000FEF70EFC4DF21940FEF7F8FB4820FEF7FC
:1029000007FC4DF21A40FEF7F1FB0220FEF700FC37
:102910004DF21B40FEF7EAFB4A20FEF7F9FB4DF2B1
:102920001C40FEF7E3FB0220FEF7F2FB4DF21D40D8
:10293000FEF7DCFB7E20FEF7EBFB4DF21E40FEF7C0
:10294000D5FB0220FEF7E4FB4DF21F40FEF7CEFB65
:10295000BC20FEF7DDFB4DF22040FEF7C7FB022056
:10296000FEF7D6FB4DF22140FEF7C0FBE120FEF75B
:10297000CFFB4DF22240FEF7B9FB0320FEF7C8FB68
:102980004DF22340FEF7B2FB1020FEF7C1FB4DF2E3
:102990002440FEF7ABFB0320FEF7BAFB4DF22540C7
:1029A000FEF7A4FB3120FEF7B3FB4DF22640FEF705
:1029B0009DFB0320FEF7ACFB4DF22740FEF796FB94
:1029C0005A20FEF7A5FB4DF22840FEF78FFB0320AF
:1029D000FEF79EFB4DF22940FEF788FB7320FEF7C1
:1029E00097FB4DF22A40FEF781FB0320FEF790FB98
:1029F0004DF22B40FEF77AFB9420FEF789FB4DF257
:102A00002C40FEF773FB0320FEF782FB4DF22D40B6
:102A1000FEF76CFB9F20FEF77BFB4DF22E40FEF78E
:102A200065FB0320FEF774FB4DF22F40FEF75EFBC3
:102A3000B320FEF76DFB4DF23040FEF757FB03204D
:102A4000FEF766FB4DF23140FEF750FBB920FEF772
:102A50005FFB4DF23240FEF749FB0320FEF758FBC7
:102A60004DF23340FEF742FBC120FEF751FB4FF41D
:102A70005540FEF73BFB0020FEF74AFB4DF20150AC
:102A8000FEF734FB3720FEF743FB4DF20250FEF712
:102A90002DFB0020FEF73CFB4DF20350FEF726FB1A
:102AA0005220FEF735FB4DF20450FEF71FFB0020CD
:102AB000FEF72EFB4DF20550FEF718FB7B20FEF7CC
:102AC00027FB4DF20650FEF711FB0020FEF720FB1E
:102AD0004DF20750FEF70AFB9920FEF719FB4DF265
:102AE0000850FEF703FB0020FEF712FB4DF20950E1
:102AF000FEF7FCFAB120FEF70BFB4DF20A50FEF791
:102B0000F5FA0020FEF704FB4DF20B50FEF7EEFA4B
:102B1000D220FEF7FDFA4DF20C50FEF7E7FA002046
:102B2000FEF7F6FA4DF20D50FEF7E0FAF620FEF74A
:102B3000EFFA4DF20E50FEF7D9FA0120FEF7E8FA4F
:102B40004DF20F50FEF7D2FA2720FEF7E1FA4DF2D0
:102B50001050FEF7CBFA0120FEF7DAFA4DF21150D1
:102B6000FEF7C4FA4E20FEF7D3FA4DF21250FEF7EC
:102B7000BDFA0120FEF7CCFA4DF21350FEF7B6FA7B
:102B80008C20FEF7C5FA4DF21450FEF7AFFA012083
:102B9000FEF7BEFA4DF21550FEF7A8FABE20FEF77A
:102BA000B7FA4DF21650FEF7A1FA0220FEF7B0FA7E
:102BB0004DF21750FEF79AFA0B20FEF7A9FA4DF2E4
:102BC0001850FEF793FA0220FEF7A2FA4DF21950C0
:102BD000FEF78CFA4820FEF79BFA4DF21A50FEF7EA
:102BE00085FA0220FEF794FA4DF21B50FEF77EFAAA
:102BF0004A20FEF78DFA4DF21C50FEF777FA0220BC
:102C0000FEF786FA4DF21D50FEF770FA7E20FEF7B1
:102C10007FFA4DF21E50FEF769FA0220FEF778FAAD
:102C20004DF21F50FEF762FABC20FEF771FA4DF22A
:102C30002050FEF75BFA0220FEF76AFA4DF22150AF
:102C4000FEF754FAE120FEF763FA4DF22250FEF748
:102C50004DFA0320FEF75CFA4DF22350FEF746FAD8
:102C60001020FEF755FA4DF22450FEF73FFA0320EC
:102C7000FEF74EFA4DF22550FEF738FA3120FEF7F6
:102C800047FA4DF22650FEF731FA0320FEF740FADC
:102C90004DF22750FEF72AFA5A20FEF739FA4DF284
:102CA0002850FEF723FA0320FEF732FA4DF229509E
:102CB000FEF71CFA7320FEF72BFA4DF22A50FEF7AE
:102CC00015FA0320FEF724FA4DF22B50FEF70EFA08
:102CD0009420FEF71DFA4DF22C50FEF707FA032060
:102CE000FEF716FA4DF22D50FEF700FA9F20FEF780
:102CF0000FFA4DF22E50FEF7F9F90320FEF708FA0D
:102D00004DF22F50FEF7F2F9B320FEF701FA4DF223
:102D10003050FEF7EBF90320FEF7FAF94DF231508F
:102D2000FEF7E4F9B920FEF7F3F94DF23250FEF761
:102D3000DDF90320FEF7ECF94DF23350FEF7D6F93A
:102D4000C120FEF7E5F94FF45640FEF7CFF9002019
:102D5000FEF7DEF94DF20160FEF7C8F93720FEF705
:102D6000D7F94DF20260FEF7C1F90020FEF7D0F965
:102D70004DF20360FEF7BAF95220FEF7C9F94DF2A1
:102D80000460FEF7B3F90020FEF7C2F94DF20560CA
:102D9000FEF7ACF97B20FEF7BBF94DF20660FEF7BB
:102DA000A5F90020FEF7B4F94DF20760FEF79EF991
:102DB0009920FEF7ADF94DF20860FEF797F9002073
:102DC000FEF7A6F94DF20960FEF790F9B120FEF783
:102DD0009FF94DF20A60FEF789F90020FEF798F995
:102DE0004DF20B60FEF782F9D220FEF791F94DF219
:102DF0000C60FEF77BF90020FEF78AF94DF20D60BA
:102E0000FEF774F9F620FEF783F94DF20E60FEF737
:102E10006DF90120FEF77CF94DF20F60FEF766F9BF
:102E20002720FEF775F94DF21060FEF75FF90120DB
:102E3000FEF76EF94DF21160FEF758F94E20FEF7DD
:102E400067F94DF21260FEF751F90120FEF760F9C3
:102E50004DF21360FEF74AF98C20FEF759F94DF256
:102E60001460FEF743F90120FEF752F94DF21560A8
:102E7000FEF73CF9BE20FEF74BF94DF21660FEF767
:102E800035F90220FEF744F94DF21760FEF72EF9EE
:102E90000B20FEF73DF94DF21860FEF727F90220EE
:102EA000FEF736F94DF21960FEF720F94820FEF7DB
:102EB0002FF94DF21A60FEF719F90220FEF728F9F2
:102EC0004DF21B60FEF712F94A20FEF721F94DF290
:102ED0001C60FEF70BF90220FEF71AF94DF21D6097
:102EE000FEF704F97E20FEF713F94DF21E60FEF79F
:102EF000FDF80220FEF70CF94DF21F60FEF7F6F820
:102F0000BC20FEF705F94DF22060FEF7EFF8022035
:102F1000FEF7FEF84DF22160FEF7E8F8E120FEF73B
:102F2000F7F84DF22260FEF7E1F80320FEF7F0F823
:102F30004DF22360FEF7DAF81020FEF7E9F84DF2C3
:102F40002460FEF7D3F80320FEF7E2F84DF2256087
:102F5000FEF7CCF83120FEF7DBF84DF22660FEF7E5
:102F6000C5F80320FEF7D4F84DF22760FEF7BEF84F
:102F70005A20FEF7CDF84DF22860FEF7B7F803208F
:102F8000FEF7C6F84DF22960FEF7B0F87320FEF7A1
:102F9000BFF84DF22A60FEF7A9F80320FEF7B8F853
:102FA0004DF22B60FEF7A2F89420FEF7B1F84DF237
:102FB0002C60FEF79BF80320FEF7AAF84DF22D6077
:102FC000FEF794F89F20FEF7A3F84DF22E60FEF76F
:102FD0008DF80320FEF79CF84DF22F60FEF786F87F
:102FE000B320FEF795F84DF23060FEF77FF803202E
:102FF000FEF78EF84DF23160FEF778F8B920FEF753
:1030000087F84DF23260FEF771F80320FEF780F882
:103010004DF23360FEF76AF8C120FEF779F84FF4FD
:103020007040FEF763F85520FEF772F84FF201008A
:10303000FEF75CF8AA20FEF76BF84FF20200FEF7ED
:1030400055F85220FEF764F84FF20300FEF74EF8F1
:103050000820FEF75DF84FF20400FEF747F8002065
:10306000FEF756F84FF43040FEF740F80820FEF720
:103070004FF84BF20100FEF739F80520FEF748F84B
:103080004BF20200FEF732F80220FEF741F84BF255
:103090000300FEF72BF80520FEF73AF84BF2040088
:1030A000FEF724F80220FEF733F84FF43640FEF71F
:1030B0001DF80820FEF72CF84FF43540FEF716F8FF
:1030C0005020FEF725F84FF43740FEF70FF80020A8
:1030D000FEF71EF84BF20170FEF708F80020FEF72D
:1030E00017F84FF43840FEF701F80120FEF710F80A
:1030F0004BF60100FDF7FAFF0520FEF709F84BF645
:103100000200FDF7F3FF0520FEF702F84BF603007F
:10311000FDF7ECFF0520FDF7FBFF4FF43C40FDF70A
:10312000E5FF0020FDF7F4FF4BF60140FDF7DEFF61
:103130000020FDF7EDFF4BF60240FDF7D7FF002022
:10314000FDF7E6FF4FF44C40FDF7D0FF0320FDF7FD
:10315000DFFF4CF60140FDF7C9FF0020FDF7D8FF67
:103160004CF60240FDF7C2FF0020FDF7D1FF4FF4FF
:103170003D40FDF7BBFF0120FDF7CAFF4BF60150B4
:10318000FDF7B4FF8420FDF7C3FF4BF60250FDF7B7
:10319000ADFF0720FDF7BCFF4BF60350FDF7A6FF80
:1031A0003120FDF7B5FF4BF60450FDF79FFF0020DF
:1031B000FDF7AEFF4FF43A40FDF798FF0120FDF711
:1031C000A7FF4FF47F40FDF791FFAA20FDF7A0FF76
:1031D0004FF60170FDF78AFF5520FDF799FF4FF676
:1031E0000270FDF783FF2520FDF792FF4FF6037075
:1031F000FDF77CFF0120FDF78BFF4FF45450FDF7E6
:1032000075FF0020FDF784FF4FF45850FDF76EFF67
:103210000020FDF77DFF4FF46850FDF767FF552054
:10322000FDF776FF4FF48850FDF760FF7820FDF73B
:10323000C5FB4FF42450FDF759FF4FF43050FDF714
:1032400055FFE64B4FF4F0721A804FF448725A80E3
:10325000E5E241F66312934240F0F282E220FDF78C
:1032600045FF1D20FDF754FF0220FDF751FF04200C
:10327000FDF74EFF6420FDF761FBE020FDF736FF10
:103280000120FDF745FF0A20FDF798FBE020FDF740
:103290002DFF0320FDF73CFF0C20FDF78FFB0120E5
:1032A000FDF724FF0A20FDF789FBE620FDF71EFF4E
:1032B0002F20FDF72DFFFF20FDF72AFFFF20FDF750
:1032C00027FFB020FDF712FF2020FDF721FF00208F
:1032D000FDF71EFF0320FDF71BFF40F21F30FDF737
:1032E00017FF0120FDF714FF40F2DF10FDF710FF7C
:1032F0000020FDF70DFFB420FDF7F8FE0420FDF7D8
:1033000007FF40F21F40FDF703FF0020FDF700FF1D
:103310002E20FDF7FDFE0020FDF7FAFE0020FDF750
:10332000F7FE0020FDF7F4FE0020FDF7F1FEB620C9
:10333000FDF7DCFE0220FDF7EBFE4FF40370FDF716
:10334000E7FE0020FDF7E4FE1720FDF7E1FE152063
:10335000FDF7DEFE0020FDF7DBFE0020FDF7D8FEC6
:10336000F020FDF7C3FE0320FDF7D2FE2920FDF774
:10337000BDFED020FDF7BAFE0020FDF7C9FEBE203D
:10338000FDF7B4FE0520FDF7C3FEFE20FDF7C0FEED
:103390000120FDF7BDFE0020FDF7BAFE0020FDF77D
:1033A000B7FE0020FDF7B4FEB820FDF79FFE032016
:1033B000FDF7AEFE0120FDF7ABFEBA20FDF796FE4D
:1033C0000120FDF7A5FE6420FDF7EEFE834B4FF4D0
:1033D000F0721A804FF448725A8020E247F29372DA
:1033E000934240F02D8200210846FDF7B1FE0021F6
:1033F0000846FDF7ADFE00210846FDF7A9FE0021B5
:103400000846FDF7A5FE0F20FDF7D8FA4FF4C4419A
:103410004FF48060FDF79CFE40F608010820FDF7A0
:1034200097FE4FF440614FF44070FDF791FE45F672
:103430000B2140F20130FDF78BFE40F6061140F201
:103440000230FDF785FE41F2170140F20330FDF72F
:103450007FFE4FF40C514FF44170FDF779FE4FF4AD
:10346000B85140F20530FDF773FE46F2093140F2E3
:103470000630FDF76DFE40F6094140F20730FDF7DA
:1034800067FE41F20C014FF44270FDF761FE42F21B
:10349000322140F20930FDF75BFE16211020FDF7C6
:1034A00057FE40F201111120FDF752FE00211220BB
:1034B000FDF74EFE01211320FDF74AFE4FF44C713B
:1034C0004FF48070FDF744FE40F2372140F20110C6
:1034D000FDF73EFE4FF4506140F20310FDF738FE59
:1034E0004FF4C2414FF42070FDF732FE4CF2B011A0
:1034F0004FF48170FDF72CFE3220FDF75FFA4FF498
:1035000080710120FDF724FE4FF480710220FDF749
:103510001FFE41F230010320FDF71AFE01210920B0
:10352000FDF716FE00210C20FDF712FE4FF40041BE
:103530009020FDF70DFE00210F20FDF709FE002170
:103540004FF40470FDF704FEEF2140F21120FDF767
:10355000FFFD002140F21220FDF7FAFD40F28F112D
:1035600040F21320FDF7F4FD00214FF4A060FDF7B9
:10357000EFFD002140F20150FDF7EAFD5F2140F22E
:103580000250FDF7E5FD012140F20140FDF7E0FDAD
:10359000002140F20440FDF7DBFD3220FDF70EFA7A
:1035A0004FF480710720FDF7D3FD3220FDF706FAB6
:1035B00000214FF40070FDF7CBFD002140F2012007
:1035C000FDF7C6FD40F20220FDF790FD034BF0220F
:1035D0001A804FF4C8725A8021E100BF9C0000207D
:1035E00049F24132934240F02B81CF20FDF77EFD1E
:1035F0000020FDF78DFDC920FDF78AFD3020FDF785
:1036000087FDED20FDF772FD6420FDF781FD0320AD
:10361000FDF77EFD1220FDF77BFD8120FDF778FD93
:10362000E820FDF763FD8520FDF772FD1020FDF712
:103630006FFD7A20FDF76CFDCB20FDF757FD39209B
:10364000FDF766FD2C20FDF763FD0020FDF760FD12
:103650003420FDF75DFD0220FDF75AFDF720FDF750
:1036600045FD2020FDF754FDEA20FDF73FFD002039
:10367000FDF74EFD0020FDF74BFDC020FDF736FDA8
:103680001B20FDF745FDC120FDF730FD0020FDF7B3
:103690003FFDC520FDF72AFD3020FDF739FD302024
:1036A000FDF736FDC720FDF721FDB720FDF730FD02
:1036B0003620FDF71BFD0820FDF72AFD3A20FDF717
:1036C00015FD5520FDF724FDB120FDF70FFD00206D
:1036D000FDF71EFD1A20FDF71BFDB620FDF706FDC8
:1036E0000A20FDF715FDA220FDF712FDF220FDF7DF
:1036F000FDFC0020FDF70CFD2620FDF7F7FC012066
:10370000FDF706FDE020FDF7F1FC0F20FDF700FDC1
:103710002A20FDF7FDFC2820FDF7FAFC0820FDF724
:10372000F7FC0E20FDF7F4FC0820FDF7F1FC542017
:10373000FDF7EEFCA920FDF7EBFC4320FDF7E8FCCC
:103740000A20FDF7E5FC0F20FDF7E2FC0020FDF765
:10375000DFFC0020FDF7DCFC0020FDF7D9FC002099
:10376000FDF7D6FCE120FDF7C1FC0020FDF7D0FC01
:103770001520FDF7CDFC1720FDF7CAFC0720FDF74B
:10378000C7FC1120FDF7C4FC0620FDF7C1FC2B206F
:10379000FDF7BEFC5620FDF7BBFC3C20FDF7B8FC56
:1037A0000520FDF7B5FC1020FDF7B2FC0F20FDF75A
:1037B000AFFC3F20FDF7ACFC3F20FDF7A9FC0F203C
:1037C000FDF7A6FC2B20FDF791FC0020FDF7A0FCE7
:1037D0000020FDF79DFC0120FDF79AFC3F20FDF73E
:1037E00097FC2A20FDF782FC0020FDF791FC0020C9
:1037F000FDF78EFC0020FDF78BFCEF20FDF788FC29
:103800001120FDF773FC7820FDF7D8F82920FDF78B
:103810006DFC7F4BF0221A804FF4A0725A8000207A
:10382000FDF79CFF7B4B0122C3F8BC224FF6FF70D3
:10383000FDF768FF10BD4BF2095293423FF4D3AD40
:10384000754802F065F9EAE7F120FDF74FFC3620F4
:10385000FDF75EFC0420FDF75BFC0020FDF758FC43
:103860003C20FDF755FC0F20FDF752FC8F20FDF7A3
:103870004FFCF220FDF73AFC1820FDF749FCA3208D
:10388000FDF746FC1220FDF743FC0220FDF740FC4B
:10389000B220FDF73DFC1220FDF73AFCFF20FDF7BA
:1038A00037FC1020FDF734FC0020FDF731FCF82038
:1038B000FDF71CFC2120FDF72BFC0420FDF728FC64
:1038C000F920FDF713FC0020FDF722FC0820FDF78E
:1038D0001FFC3620FDF70AFC0820FDF719FCB42078
:1038E000FDF704FC0020FDF713FCC120FDF7FEFBF3
:1038F0004720FDF70DFCC520FDF7F8FB0020FDF784
:1039000007FCAF20FDF704FC8020FDF701FC002040
:10391000FDF7FEFBE020FDF7E9FB0F20FDF7F8FBCC
:103920001F20FDF7F5FB1C20FDF7F2FB0C20FDF737
:10393000EFFB0F20FDF7ECFB0820FDF7E9FB48202B
:10394000FDF7E6FB9820FDF7E3FB3720FDF7E0FBF2
:103950000A20FDF7DDFB1320FDF7DAFB0420FDF75D
:10396000D7FB1120FDF7D4FB0D20FDF7D1FB002084
:10397000FDF7CEFBE120FDF7B9FB0F20FDF7C8FBFB
:103980003220FDF7C5FB2E20FDF7C2FB0B20FDF713
:10399000BFFB0D20FDF7BCFB0520FDF7B9FB472061
:1039A000FDF7B6FB7520FDF7B3FB3720FDF7B0FB45
:1039B0000620FDF7ADFB1020FDF7AAFB0320FDF765
:1039C000A7FB2420FDF7A4FB2020FDF7A1FB00208E
:1039D000FDF79EFB3A20FDF789FB5520FDF798FB8C
:1039E0001120FDF783FB3620FDF780FB2820FDF733
:1039F0008FFB7820FCF7E2FF2920FDF777FB044BD3
:103A00004FF4A0721A804FF4F0725A8007E700BF9B
:103A10009C0000200080404240820008F020FDF71A
:103A200065FBC320FDF774FBF020FDF75FFB9620DC
:103A3000FDF76EFB3620FDF759FB6820FDF768FBAC
:103A40003A20FDF753FB0520FDF762FBB020FDF7A0
:103A50004DFB8020FDF75CFBB620FDF747FB2020E7
:103A6000FDF756FB0220FDF753FBB520FDF73EFBAB
:103A70000220FDF74DFB0320FDF74AFB0020FDF778
:103A800047FB0420FDF744FBB120FDF72FFB80200E
:103A9000FDF73EFB1020FDF73BFBB420FDF726FBB6
:103AA0000020FDF735FBB720FDF720FBC620FDF712
:103AB0002FFBC520FDF71AFB2420FDF729FBE4208E
:103AC000FDF714FB3120FDF723FBE820FDF70EFB8B
:103AD0004020FDF71DFB8A20FDF71AFB0020FDF7B3
:103AE00017FB0020FDF714FB2920FDF711FB19201F
:103AF000FDF70EFBA520FDF70BFB3320FDF708FBC0
:103B0000C220FDF7F3FAA720FDF7F0FAE020FDF759
:103B1000EDFAF020FDF7FCFA0920FDF7F9FA132081
:103B2000FDF7F6FA1220FDF7F3FA1220FDF7F0FA8E
:103B30002B20FDF7EDFA3C20FDF7EAFA4420FDF7D3
:103B4000E7FA4B20FDF7E4FA1B20FDF7E1FA182015
:103B5000FDF7DEFA1720FDF7DBFA1D20FDF7D8FA96
:103B60002120FDF7D5FAE120FDF7C0FAF020FDF79E
:103B7000CFFA0920FDF7CCFA1320FDF7C9FA0C2083
:103B8000FDF7C6FA0D20FDF7C3FA2720FDF7C0FAAE
:103B90003B20FDF7BDFA4420FDF7BAFA4D20FDF7B2
:103BA000B7FA0B20FDF7B4FA1720FDF7B1FA17208A
:103BB000FDF7AEFA1D20FDF7ABFA2120FDF7A8FABC
:103BC0003620FDF793FAEC20FDF7A2FAF020FDF77E
:103BD0008DFAC320FDF79CFAF020FDF787FA6920E3
:103BE000FDF796FA1320FDF781FA1120FDF77EFA12
:103BF0002920FDF77BFA044B4FF4A0721A804FF492
:103C0000F0725A800BE600BF9C000020ED20FDF70B
:103C10006DFA0120FDF77CFAFE20FDF779FAEE201F
:103C2000FDF764FADE20FDF773FA2120FDF770FA44
:103C3000F120FDF75BFA0120FDF76AFADF20FDF7BE
:103C400055FA1020FDF764FAC420FDF74FFA8F20D3
:103C5000FDF75EFAC620FDF749FA0020FDF758FA95
:103C6000E220FDF755FAE220FDF752FAE220FDF7D7
:103C70004FFABF20FDF73AFAAA20FDF749FAB02023
:103C8000FDF734FA0D20FDF743FA0020FDF740FA66
:103C90000D20FDF73DFA0020FDF73AFA1120FDF75F
:103CA00037FA0020FDF734FA1920FDF731FA002029
:103CB000FDF72EFA2120FDF72BFA0020FDF728FA58
:103CC0002D20FDF725FA0020FDF722FA3D20FDF713
:103CD0001FFA0020FDF71CFA5D20FDF719FA0020FD
:103CE000FDF716FA5D20FDF713FA0020FDF710FA34
:103CF000B120FDF7FBF98020FDF70AFA0020FDF75F
:103D000007FA8B20FDF704FA0020FDF701FA962050
:103D1000FDF7FEF90020FDF7FBF9B220FDF7E6F90B
:103D20000020FDF7F5F90020FDF7F2F90220FDF77C
:103D3000EFF90020FDF7ECF90320FDF7E9F9002089
:103D4000FDF7E6F9B320FDF7D1F90020FDF7E0F922
:103D50000020FDF7DDF90020FDF7DAF90020FDF77E
:103D6000D7F90020FDF7D4F90020FDF7D1F90020A4
:103D7000FDF7CEF90020FDF7CBF90020FDF7C8F9DB
:103D80000020FDF7C5F90020FDF7C2F90020FDF77E
:103D9000BFF90020FDF7BCF90020FDF7B9F90020BC
:103DA000FDF7B6F90020FDF7B3F90020FDF7B0F9F3
:103DB0000020FDF7ADF90020FDF7AAF90020FDF77E
:103DC000A7F90020FDF7A4F90020FDF7A1F90020D4
:103DD000FDF79EF90020FDF79BF9B420FDF786F969
:103DE0008B20FDF795F90020FDF792F99620FDF75D
:103DF0008FF90020FDF78CF9A120FDF789F900204B
:103E0000FDF786F9B520FDF771F90220FDF780F97D
:103E10000020FDF77DF90320FDF77AF90020FDF77A
:103E200077F90420FDF774F90020FDF771F9B62049
:103E3000FDF75CF90020FDF76BF90020FDF768F94C
:103E4000B720FDF753F90020FDF762F90020FDF7D8
:103E50005FF93F20FDF75CF90020FDF759F95E207E
:103E6000FDF756F90020FDF753F96420FDF750F9EE
:103E70000020FDF74DF98C20FDF74AF90020FDF7F1
:103E800047F9AC20FDF744F90020FDF741F9DC20AB
:103E9000FDF73EF90020FDF73BF97020FDF738F9FA
:103EA0000020FDF735F99020FDF732F90020FDF7ED
:103EB0002FF9EB20FDF72CF90020FDF729F9DC2084
:103EC000FDF726F90020FDF723F9B820FDF70EF9DC
:103ED0000020FDF71DF90020FDF71AF90020FDF77D
:103EE00017F90020FDF714F90020FDF711F9002063
:103EF000FDF70EF90020FDF70BF90020FDF708F99A
:103F0000BA20FDF7F3F82420FDF702F90020FDF7B1
:103F1000FFF80020FDF7FCF80020FDF7F9F8C120BC
:103F2000FDF7E4F82020FDF7F3F80020FDF7F0F8A6
:103F30005420FDF7EDF80020FDF7EAF8FF20FDF72B
:103F4000E7F80020FDF7E4F8C220FDF7CFF80A20DB
:103F5000FDF7DEF80020FDF7DBF80420FDF7D8F8C8
:103F60000020FDF7D5F8C320FDF7C0F83C20FDF791
:103F7000CFF80020FDF7CCF83A20FDF7C9F8002073
:103F8000FDF7C6F83920FDF7C3F80020FDF7C0F8AB
:103F90003720FDF7BDF80020FDF7BAF83C20FDF70B
:103FA000B7F80020FDF7B4F83620FDF7B1F800208F
:103FB000FDF7AEF83220FDF7ABF80020FDF7A8F8CA
:103FC0002F20FDF7A5F80020FDF7A2F82C20FDF723
:103FD0009FF80020FDF79CF82920FDF799F80020B4
:103FE000FDF796F82620FDF793F80020FDF790F8EE
:103FF0002420FDF78DF80020FDF78AF82420FDF736
:1040000087F80020FDF784F82320FDF781F80020D1
:10401000FDF77EF83C20FDF77BF80020FDF778F8EF
:104020003620FDF775F80020FDF772F83220FDF715
:104030006FF80020FDF76CF82F20FDF769F80020DD
:10404000FDF766F82C20FDF763F80020FDF760F817
:104050002920FDF75DF80020FDF75AF82620FDF72E
:1040600057F80020FDF754F82420FDF751F8002000
:10407000FDF74EF82420FDF74BF80020FDF748F837
:104080002320FDF745F80020FDF742F8C420FDF796
:104090002DF86220FDF73CF80020FDF739F80520E7
:1040A000FDF736F80020FDF733F88420FDF730F8EF
:1040B0000020FDF72DF8F020FDF72AF80020FDF78D
:1040C00027F81820FDF724F80020FDF721F8A42098
:1040D000FDF71EF80020FDF71BF81820FDF718F873
:1040E0000020FDF715F85020FDF712F80020FDF72D
:1040F0000FF80C20FDF70CF80020FDF709F8172049
:10410000FDF706F80020FDF703F89520FDF700F80D
:104110000020FCF7FDFFF320FCF7FAFF0020FCF77E
:10412000F7FFE620FCF7F4FF0020FCF7F1FFC520C5
:10413000FCF7DCFF3220FCF7EBFF0020FCF7E8FF88
:104140004420FCF7E5FF0020FCF7E2FF6520FCF7C8
:10415000DFFF0020FCF7DCFF7620FCF7D9FF002012
:10416000FCF7D6FF8820FCF7D3FF0020FCF7D0FF38
:10417000C620FCF7BBFF2020FCF7CAFF0020FCF79D
:10418000C7FF1720FCF7C4FF0020FCF7C1FF012088
:10419000FCF7BEFF0020FCF7BBFFC720FCF7A6FF23
:1041A0000020FCF7B5FF0020FCF7B2FF0020FCF771
:1041B000AFFF0020FCF7ACFFC820FCF797FF002002
:1041C000FCF7A6FF0020FCF7A3FF0020FCF7A0FFF0
:1041D0000020FCF79DFFC920FCF788FF0020FCF7BA
:1041E00097FF0020FCF794FF0020FCF791FF0020D0
:1041F000FCF78EFF0020FCF78BFF0020FCF788FF08
:104200000020FCF785FF0020FCF782FF0020FCF770
:104210007FFF0020FCF77CFF0020FCF779FF0020E7
:10422000FCF776FF0020FCF773FF0020FCF770FF1F
:104230000020FCF76DFF0020FCF76AFFE020FCF790
:1042400055FF1620FCF764FF0020FCF761FF1C20DF
:10425000FCF75EFF0020FCF75BFF2120FCF758FF16
:104260000020FCF755FF3620FCF752FF0020FCF73A
:104270004FFF4620FCF74CFF0020FCF749FF52207F
:10428000FCF746FF0020FCF743FF6420FCF740FFEB
:104290000020FCF73DFF7A20FCF73AFF0020FCF7F6
:1042A00037FF8B20FCF734FF0020FCF731FF99200B
:1042B000FCF72EFF0020FCF72BFFA820FCF728FFBF
:1042C0000020FCF725FFB920FCF722FF0020FCF7B7
:1042D0001FFFC420FCF71CFF0020FCF719FFCA20B9
:1042E000FCF716FF0020FCF713FFD220FCF710FFAD
:1042F0000020FCF70DFFD920FCF70AFF0020FCF797
:1043000007FFE020FCF704FF0020FCF701FFF3208B
:10431000FCF7FEFE0020FCF7FBFEE120FCF7E6FECA
:104320001620FCF7F5FE0020FCF7F2FE1C20FCF73F
:10433000EFFE0020FCF7ECFE2220FCF7E9FE002057
:10434000FCF7E6FE3620FCF7E3FE0020FCF7E0FE7B
:104350004520FCF7DDFE0020FCF7DAFE5220FCF7DA
:10436000D7FE0020FCF7D4FE6420FCF7D1FE00202D
:10437000FCF7CEFE7A20FCF7CBFE0020FCF7C8FE4F
:104380008B20FCF7C5FE0020FCF7C2FE9920FCF74D
:10439000BFFE0020FCF7BCFEA820FCF7B9FE002001
:1043A000FCF7B6FEB920FCF7B3FE0020FCF7B0FE28
:1043B000C420FCF7ADFE0020FCF7AAFECA20FCF7E3
:1043C000A7FE0020FCF7A4FED220FCF7A1FE0020EF
:1043D000FCF79EFED820FCF79BFE0020FCF798FE21
:1043E000E020FCF795FE0020FCF792FEF320FCF79E
:1043F0008FFE0020FCF78CFEE220FCF777FE052004
:10440000FCF786FE0020FCF783FE0B20FCF780FE05
:104410000020FCF77DFE1B20FCF77AFE0020FCF755
:1044200077FE3420FCF774FE0020FCF771FE442078
:10443000FCF76EFE0020FCF76BFE4F20FCF768FED9
:104440000020FCF765FE6120FCF762FE0020FCF70F
:104450005FFE7920FCF75CFE0020FCF759FE882007
:10446000FCF756FE0020FCF753FE9720FCF750FEA9
:104470000020FCF74DFEA620FCF74AFE0020FCF7CA
:1044800047FEB720FCF744FE0020FCF741FEC220A7
:10449000FCF73EFE0020FCF73BFEC720FCF738FE91
:1044A0000020FCF735FED120FCF732FE0020FCF79F
:1044B0002FFED620FCF72CFE0020FCF729FEDD2085
:1044C000FCF726FE0020FCF723FEF320FCF720FE7D
:1044D0000020FCF71DFEE320FCF708FE0520FCF79A
:1044E00017FE0020FCF714FE0A20FCF711FE002046
:1044F000FCF70EFE1C20FCF70BFE0020FCF708FE6C
:104500003320FCF705FE0020FCF702FE4420FCF7F8
:10451000FFFD0020FCF7FCFD5020FCF7F9FD00201A
:10452000FCF7F6FD6220FCF7F3FD0020FCF7F0FD40
:104530007820FCF7EDFD0020FCF7EAFD8820FCF771
:10454000E7FD0020FCF7E4FD9720FCF7E1FD0020EB
:10455000FCF7DEFDA620FCF7DBFD0020FCF7D8FD14
:10456000B720FCF7D5FD0020FCF7D2FDC220FCF7F8
:10457000CFFD0020FCF7CCFDC720FCF7C9FD0020D3
:10458000FCF7C6FDD120FCF7C3FD0020FCF7C0FD01
:10459000D520FCF7BDFD0020FCF7BAFDDD20FCF7BF
:1045A000B7FD0020FCF7B4FDF320FCF7B1FD0020BF
:1045B000FCF7AEFDE420FCF799FD0120FCF7A8FD17
:1045C0000020FCF7A5FD0120FCF7A2FD0020FCF770
:1045D0009FFD0220FCF79CFD0020FCF799FD2A209E
:1045E000FCF796FD0020FCF793FD3C20FCF790FDC6
:1045F0000020FCF78DFD4B20FCF78AFD0020FCF726
:1046000087FD5D20FCF784FD0020FCF781FD742010
:10461000FCF77EFD0020FCF77BFD8420FCF778FD95
:104620000020FCF775FD9320FCF772FD0020FCF7DD
:104630006FFDA220FCF76CFD0020FCF769FDB320A4
:10464000FCF766FD0020FCF763FDBE20FCF760FD73
:104650000020FCF75DFDC420FCF75AFD0020FCF7AC
:1046600057FDCD20FCF754FD0020FCF751FDD32071
:10467000FCF74EFD0020FCF74BFDDD20FCF748FD6C
:104680000020FCF745FDF320FCF742FD0020FCF77D
:104690003FFDE520FCF72AFD0020FCF739FD002056
:1046A000FCF736FD0020FCF733FD0020FCF730FD61
:1046B0000220FCF72DFD0020FCF72AFD2920FCF745
:1046C00027FD0020FCF724FD3C20FCF721FD002005
:1046D000FCF71EFD4B20FCF71BFD0020FCF718FD2E
:1046E0005D20FCF715FD0020FCF712FD7420FCF79F
:1046F0000FFD0020FCF70CFD8420FCF709FD0020D5
:10470000FCF706FD9320FCF703FD0020FCF700FDFD
:10471000A220FCF7FDFC0020FCF7FAFCB320FCF71C
:10472000F7FC0020FCF7F4FCBE20FCF7F1FC0020B5
:10473000FCF7EEFCC420FCF7EBFC0020FCF7E8FCE7
:10474000CD20FCF7E5FC0020FCF7E2FCD320FCF7D1
:10475000DFFC0020FCF7DCFCDC20FCF7D9FC0020AF
:10476000FCF7D6FCF320FCF7D3FC0020FCF7D0FCD0
:10477000E620FCF7BBFC1120FCF7CAFC0020FCF78C
:10478000C7FC3420FCF7C4FC0020FCF7C1FC562019
:10479000FCF7BEFC0020FCF7BBFC7620FCF7B8FC65
:1047A0000020FCF7B5FC7720FCF7B2FC0020FCF7FA
:1047B000AFFC6620FCF7ACFC0020FCF7A9FC8820CD
:1047C000FCF7A6FC0020FCF7A3FC9920FCF7A0FC5A
:1047D0000020FCF79DFCBB20FCF79AFC0020FCF7B6
:1047E00097FC9920FCF794FC0020FCF791FC6620D4
:1047F000FCF78EFC0020FCF78BFC5520FCF788FCB6
:104800000020FCF785FC5520FCF782FC0020FCF71B
:104810007FFC4520FCF77CFC0020FCF779FC432062
:10482000FCF776FC0020FCF773FC4420FCF770FCDE
:104830000020FCF76DFCE720FCF758FC3220FCF769
:1048400067FC0020FCF764FC5520FCF761FC0020AD
:10485000FCF75EFC7620FCF75BFC0020FCF758FCC4
:104860006620FCF755FC0020FCF752FC6720FCF7A3
:104870004FFC0020FCF74CFC6720FCF749FC0020B3
:10488000FCF746FC8720FCF743FC0020FCF740FCCB
:104890009920FCF73DFC0020FCF73AFCBB20FCF71C
:1048A00037FC0020FCF734FC9920FCF731FC002099
:1048B000FCF72EFC7720FCF72BFC0020FCF728FCF3
:1048C0004420FCF725FC0020FCF722FC5620FCF7D6
:1048D0001FFC0020FCF71CFC2320FCF719FC002027
:1048E000FCF716FC3320FCF713FC0020FCF710FC4F
:1048F0004520FCF70DFC0020FCF70AFCE820FCF743
:10490000F5FB0020FCF704FC0020FCF701FC9920DB
:10491000FCF7FEFB0020FCF7FBFB8720FCF7F8FB15
:104920000020FCF7F5FB8820FCF7F2FB0020FCF7E9
:10493000EFFB7720FCF7ECFB0020FCF7E9FB66209F
:10494000FCF7E6FB0020FCF7E3FB8820FCF7E0FB2C
:104950000020FCF7DDFBAA20FCF7DAFB0020FCF7C7
:10496000D7FBBB20FCF7D4FB0020FCF7D1FB992040
:10497000FCF7CEFB0020FCF7CBFB6620FCF7C8FB66
:104980000020FCF7C5FB5520FCF7C2FB0020FCF71C
:10499000BFFB5520FCF7BCFB0020FCF7B9FB442013
:1049A000FCF7B6FB0020FCF7B3FB4420FCF7B0FBA0
:1049B0000020FCF7ADFB5520FCF7AAFB0020FCF71C
:1049C000A7FBE920FCF792FBAA20FCF7A1FB002043
:1049D000FCF79EFB0020FCF79BFB0020FCF798FBFC
:1049E0000020FCF783FBAA20FCF792FBCF20FCF70A
:1049F0007DFB0020FCF78CFB0020FCF789FB0020EE
:104A0000FCF786FB0020FCF783FB0020FCF780FB13
:104A10000020FCF77DFB0020FCF77AFB0020FCF770
:104A200077FB0020FCF774FB0020FCF771FB0020F3
:104A3000FCF76EFB0020FCF76BFB0020FCF768FB2B
:104A40000020FCF765FB0020FCF762FB0020FCF770
:104A50005FFB0020FCF75CFBF020FCF747FB00202D
:104A6000FCF756FB5020FCF753FB0020FCF750FBF3
:104A70000020FCF74DFB0020FCF74AFBF320FCF77D
:104A800035FB0020FCF744FBF920FCF72FFB062048
:104A9000FCF73EFB1020FCF73BFB2920FCF738FB22
:104AA0000020FCF735FB3A20FCF720FB5520FCF7F3
:104AB0002FFB1120FCF71AFB6420FBF77FFF292056
:104AC000FCF714FB3520FCF711FB0020FCF720FB62
:104AD0005120FCF70BFBFF20FCF71AFB5320FCF7DF
:104AE00005FB2C20FCF714FB5520FCF7FFFA822075
:104AF000FCF70EFB2C20FCF7F9FA044B4FF4A072E4
:104B00001A804FF4F0725A80FEF789BE9C00002094
:104B100030B583B00121052000F05EFD022500952F
:104B200001238DF8043000228DF8062003228DF831
:104B300005208DF807300B4C6946204600F080FCBC
:104B40002946204600F0CFFC2025009504F500649E
:104B50006946204600F074FC2946204600F0C3FC5C
:104B600003B030BD0000024008B5084A13889BB26C
:104B700023F038039BB2138013889BB20343138046
:104B80000121104600F087FD08BD00BF0030014044
:104B900010B5044602210A4800F090FD0028F9D023
:104BA0002146074800F088FD0121054800F086FDF8
:104BB0000028F9D0024800F07CFDC0B210BD00BF53
:104BC000003001402DE9F04389B00121022000F0BE
:104BD00003FD01214FF4805000F01AFD382706979D
:104BE0004FF002088DF81C8000248DF81E404FF015
:104BF00003098DF81D9001258DF81F50214E06A93F
:104C0000304600F01DFC05224946304600F06DFCA0
:104C100005220421304600F068FC0522114630468A
:104C200000F063FC29464FF4805000F0FFFC214661
:104C30004FF4805000F0FAFCADF804404FF482735A
:104C4000ADF80630ADF80840ADF80A80ADF80C506C
:104C50004FF40073ADF80E30ADF81070ADF812409F
:104C60000723ADF81430084C01A9204600F0ECFCF5
:104C70002946204600F00FFDFF20FFF789FF09B00D
:104C8000BDE8F083000402400030014070B584B0FC
:104C90003D4800F03DFF01250295102401943B4B57
:104CA00000931F234FF4784214210020FCF798F959
:104CB00002950194364B00931F234FF478422D2127
:104CC0000020FCF78DF902950194324B00931F23CD
:104CD0001A4646210020FCF783F929E000240294BB
:104CE000102501952C4B00934FF6FF734FF478423B
:104CF0005F212046FCF774F94FF4FA70FBF75EFE73
:104D000002940195254B00934FF6FF734FF47842C0
:104D10005F212046FCF764F94FF4FA70FBF74EFE72
:104D20001F4AD2F88432B3FA83F35B09C2F88432A3
:104D300000F078F94EF616739842CFD10024029411
:104D400010250195174B00934FF6FF731F225F212B
:104D50002046FCF745F9012602960195124B009377
:104D60001F231A46A5212046FCF73AF90296019521
:104D70000E4B00931F234FF4FC62BE212046FCF72C
:104D80002FF904B070BD00BF508200086482000893
:104D90008082000890820008A8820008C082000873
:104DA00000004042D8820008E8820008F48200082F
:104DB000F0B585B0184DAA88013A4FF6FF740094FB
:104DC0009C2392B28C210020FBF714FEA888400897
:104DD00054380027029710260196104B0093234663
:104DE0004FF47842782180B2FCF778F817220C490A
:104DF0000C4800F003FAA88840085438029701963E
:104E0000094B009323464FF47842782180B2FCF797
:104E100065F805B0F0BD00BF9C0000200C830008C1
:104E2000C0FF7F006C83000824830008F0B58BB0BE
:104E30001B4FB8884008543800250295102401946F
:104E4000184B00934FF6FF734FF47842782180B2ED
:104E5000FCF744F80DEB040617221349304600F026
:104E600033F9B88840085438029501940F4B0093E9
:104E70004FF6FF734FF47842782180B2FCF72EF89A
:104E8000B888400854380295019400964FF6FF7395
:104E90001F228C2180B2FCF721F80BB0F0BD00BFBF
:104EA0009C0000203C830008C0FF7F005483000862
:104EB000F0B589B006460121084600F08DFB0121BE
:104EC000102000F0A5FB274F07220921384600F0EB
:104ED0000CFB07220A21384600F007FB4FF4C063A1
:104EE000069302238DF81C308DF81D3000248DF8B8
:104EF0001E4001258DF81F5006A9384600F0A0FA83
:104F00000296ADF80C40ADF80E40ADF81040ADF88B
:104F100014400C23ADF8123004F1804404F58834B9
:104F200002A9204600F0D2FB2946204600F034FCBE
:104F30004021204600F05DFC2A4640F225512046E3
:104F400000F03CFC25238DF8043003238DF8053058
:104F50008DF806308DF8075001A800F0B5F909B0BA
:104F6000F0BD00BF0000024008B540F225511A48CC
:104F700000F043FC00B908BD174800F01BFCC0B2AC
:104F8000164A1388B2F90020002AF4DB13F4804F8C
:104F90000CD00A2803D0114B00221A80EBE76FEAED
:104FA00043436FEA53430D4A1380E4E70D280DD0C5
:104FB000C3F30D020A49885401339BB2074A138098
:104FC000FF2BD8D9134600221A80D4E743F480433C
:104FD000024A1380CFE700BF00100140B401002057
:104FE000B400002010B5074C0023C4F8B8320520E7
:104FF000FFF7CEFDFF20FFF7CBFD0123C4F8B83249
:1050000010BD00BF0080404210B5054C0023C4F81D
:10501000B8320620FFF7BCFD0123C4F8B83210BD3A
:105020000080404238B50F4D0024C5F8B8429020AA
:10503000FFF7AEFD2046FFF7ABFD2046FFF7A8FDCA
:105040002046FFF7A5FDFF20FFF7A2FD0402A4B252
:10505000FF20FFF79DFD80B20123C5F8B832204341
:1050600038BD00BF0080404210B582B0012102204F
:1050700000F0B2FA0121402000F0AEFA4FF4804374
:10508000009301248DF8044000238DF8063003239B
:105090008DF805308DF807406946084800F0D0F9D2
:1050A000074BC3F8B842FFF78DFD0820FFF75CFD02
:1050B000FFF7B8FF034B188002B010BD0004024098
:1050C0000080404202000020F8B506460F46154613
:1050D00000240F4BC3F8B8420320FFF759FDC7F374
:1050E0000740FFF755FDC7F30720FFF751FDF8B262
:1050F000FFF74EFD05E0FF20FFF74AFD3055013474
:10510000A4B2AC42F7D3024B0122C3F8B822F8BDD7
:105110000080404208B5FFF765FF10F0010FFAD19B
:1051200008BD0000F8B506460F461546FFF76CFFB0
:105130000024104BC3F8B8420220FFF729FDC7F343
:105140000740FFF725FDC7F30720FFF721FDF8B261
:10515000FFF71EFD04E0305DFFF71AFD0134A4B235
:10516000AC42F8D3034B0122C3F8B822FFF7D2FFB9
:10517000F8BD00BF00804042F8B507460E46144611
:10518000CDB2C5F58075ADB2954203D3154601E0A9
:105190004FF480752A4631463846FFF7C3FFAC42CC
:1051A00008D02F442E44641BA4B2B4F5807FEFD8FE
:1051B0002546EFE7F8BD000038B50403FFF724FFEC
:1051C000FFF7A8FF0C4D0023C5F8B8322020FFF7E9
:1051D000DFFCC4F30740FFF7DBFC200A00F0F0001F
:1051E000FFF7D6FC0020FFF7D3FC0123C5F8B83247
:1051F000FFF790FF38BD00BF008040422DE9F04727
:105200000646894617464FEA1138C1F30B05C5F526
:105210008054A4B2944204D3144602E04FF4805464
:1052200000254FEA083A4FF4805251461B48FFF7D9
:105230004BFF00239C4207D9EA181849525CFF2A09
:1052400002D101339BB2F5E79C4211D82246494670
:105250003046FFF791FFA7421ED008F1010826440F
:10526000A1443F1BBFB2B7F5805FD7D83C46D7E714
:105270004046FFF7A1FF002305E05919F05C074AFB
:10528000885401339BB29C42F7D84FF48052514668
:105290000248FFF771FFDEE7BDE8F087B8010020A4
:1052A0007047FEE7FEE7FEE7FEE77047704770478E
:1052B0007047000040F0BF6040F40030014BD86000
:1052C000704700BF00ED00E0C378FBB1154BDB6811
:1052D000DB43C3F30222C2F10401C9B20F2313411D
:1052E00042788A40D2B281780B4013431B01DBB273
:1052F00002780D490A4482F80033037803F01F0056
:105300005B090122824041F823207047037803F0B3
:105310001F015B0901228A402033034941F8232001
:10532000704700BF00ED00E000E100E0042806D077
:105330004FF0E022136923F00403136170474FF02C
:10534000E022136943F004031361704743688268E5
:105350001343C268134302691343426913438269CA
:105360001343C2691343026A1343426A1343826AB6
:105370001343C26A1343026B016813434FF0204288
:1053800042F821308368082B25D0426B136851689E
:1053900043EA0113916843EA0123D16843EA0143D8
:1053A000116943EA0153516943EA01639169026853
:1053B00001320B434FF0204141F82230C36AB3F56C
:1053C000804F10D003689B0003F120436FF07042C0
:1053D000C3F804217047016852F8213043F04003BC
:1053E00042F82130D1E7826B1368516843EA011318
:1053F000916843EA0123116943EA0153516943EA81
:105400000163916902680B43920002F12042C2F8E5
:105410000431704741B14FF0204252F8203043F040
:10542000010342F8203070474FF0204252F820101C
:10543000024B0B4042F82030704700BFFEFF0F00C8
:1054400000230F2B4ED830B516E0C2681FFA83FE3A
:105450004FEA4E044FF0030E0EFA04FE22EA0E024B
:10546000C260C26891F807E00EFA0CFC42EA0C0236
:10547000C26001330F2B34D801229A400C68A2433A
:10548000F7D104684FEA430C032202FA0CF26FEAE8
:10549000020E24EA0202026002680C7904FA0CF49B
:1054A000224302600A79013AD2B2012ACDD8826839
:1054B0000EEA0202826082684C7904FA0CF42243FC
:1054C000826044689DB24FF0010E0EFA05FE24EA98
:1054D0000E04446044688A79AA4092B22243426032
:1054E000B3E730BD70470183704700B501F0070393
:1054F0009B0002FA03FCC908083150F821204FF044
:105500000F0E0EFA03F322EA030340F8213050F89D
:10551000212042EA0C0240F821205DF804FB000043
:1055200010B4294B9B6803F00C03042B23D0082BE9
:1055300024D013B1254B036001E0244B0360224CBF
:10554000A368C3F303132249CB5CDAB20368D340E8
:105550004360A268C2F382228A5CD2B223FA02F2CA
:105560008260A268C2F342328A5CD2B2D340C36086
:105570005DF8044B7047174B0360E0E7124B596826
:105580005A6802F03F0211F4800F12D0114BB3FBA6
:10559000F2F30D4A5268C2F3881202FB03F30A4A7F
:1055A0005268C2F3014201325200B3FBF2F30360CE
:1055B000C5E7064BB3FBF2F3034A5268C2F3881205
:1055C00002FB03F3EBE700BF003802400024F400C5
:1055D0000400002000127A0021B1054A136B184321
:1055E00010637047024A136B23EA00001063704790
:1055F0000038024021B1054A936B1843906370470D
:10560000024A936B23EA000090637047003802401F
:1056100021B1054A536C184350647047024A536CD9
:1056200023EA0000506470470038024021B1054A67
:10563000536A184350627047024A536A23EA0000D3
:1056400050627047003802402DE9F041038803F4AE
:1056500041520F88B1F802808E88CD880C89B1F84C
:105660000AE0B1F80CC0CB8947EA08073E4335434E
:105670002C434EEA040E4CEA0E0C43EA0C0313438F
:105680000380838B9BB223F400639BB283830B8ADA
:105690000382BDE8F08129B103889BB243F0400347
:1056A0000380704703889BB223F040039BB20380C2
:1056B0007047808980B270478181704703891942A1
:1056C00001D00120704700207047000030B585B040
:1056D00004460D46038A9BB223F44053CA88134301
:1056E000038283899BB223F4B05323F00C0389888F
:1056F00028896A8901430A431343A381A38A9BB281
:1057000023F44073AA891343A3826846FFF708FF76
:105710001F4B9C4205D003F580639C4201D0029B45
:1057200000E0039BA28912F4004F1FD103EB830317
:1057300003EB83032A689200B3FBF2F3154AA2FB42
:10574000031252091101642002FB1033A28912F4E2
:10575000004F14D11B0132330E4AA2FB0323C3F3C3
:1057600043130B439BB2238105B030BD03EB83038E
:1057700003EB83032A685200B3FBF2F3DEE7DB009E
:105780003233044AA2FB0323C3F342130B43E9E77A
:10579000001001401F85EB5129B183899BB243F46E
:1057A00000538381704783899BB223F400539BB2DB
:1057B000838170478088C0F308007047C1F3421CA2
:1057C00001F01F01012303FA01F19C4508D0BCF14F
:1057D000020F07D014303AB10368194301607047D3
:1057E0000C30F8E71030F6E7036823EA01010160A6
:1057F0007047C94389B201807047C1F3421201F07A
:105800001F0C012303FA0CF3012A0FD0022A11D036
:10581000828A92B21340090A012202FA01F1028837
:1058200092B20A4053B15AB900207047828992B2AD
:105830001340F0E7028A92B21340ECE70020704771
:105840000120704782B00023019300932A4A136815
:1058500043F480331360284B1B6803F40033009338
:10586000019B01330193009B1BB9019BB3F5A04F32
:10587000F1D1214B1B6813F4003F06D001230093A4
:10588000009B012B04D002B0704700230093F7E780
:10589000194B1A6C42F080521A6418490A6842F493
:1058A00040420A609A689A609A6842F400429A609C
:1058B0009A6842F4A0529A60114A5A601A6842F0FB
:1058C00080721A600C4B1B6813F0007FFAD00D4BEE
:1058D00040F205721A60A3F580639A6822F0030211
:1058E0009A609A6842F002029A60034B9B6803F048
:1058F0000C03082BF9D1C6E70038024000700040C5
:1059000008544007003C024010B5104CD4F88830D1
:1059100043F47003C4F888300D4B1A6842F001025A
:105920001A60002199601A6822F0847222F4803291
:105930001A60084A5A601A6822F480221A60D960F4
:10594000FFF780FF4FF00063A36010BD00ED00E0A3
:105950000038024010300024DFF834D00D480E49E2
:105960000E4A002302E0D458C4500433C4188C42B9
:10597000F9D30B4A0B4C002301E013600432A2421E
:10598000FBD3FFF7C1FF00F011F8FAF77FFF704774
:10599000000002200000002078000020248400087D
:1059A00078000020CC110020FEE7000070B50D4DFE
:1059B0000D4C641BA4100026A64209D10B4D0C4CC3
:1059C00001F028F8641BA4100026A64205D170BD82
:1059D00055F8043B98470136EEE755F8043B9847E5
:1059E0000136F2E71C8400081C8400081C840008AF
:1059F0002084000802440346934200D1704703F814
:105A0000011BF9E70FB40A4B13B51C6824B1A36955
:105A100013B9204600F05EFA05AB049AA168019321
:105A2000204600F02DFC02B0BDE8104004B07047E5
:105A30001400002070B50E46054618B183690BB9F5
:105A400000F048FAAB69AC6813B9284600F042FA96
:105A50002C4B9C4220D16C68636EDB0705D4A38974
:105A6000980502D4A06D00F0D3FAA38919071DD5BB
:105A70002369DBB1013EA36816F8011F013BA36057
:105A800039BB002B38DA22460A21284600F048F8B4
:105A9000013011D00A2511E01B4B9C4201D1AC68AA
:105AA000DAE71A4B9C4208BFEC68D5E72146284646
:105AB00000F088F80028DDD04FF0FF35636EDA077C
:105AC00005D4A3899B0502D4A06D00F0A2FA284654
:105AD00070BD002B04DAA2699A4206DC0A2904D0C0
