:020000040800F2
:1000000000000220C9940008BD8E0008BF8E0008C1
:10001000C18E0008C38E0008C58E000800000000D5
:10002000000000000000000000000000C78E000873
:10003000C98E000800000000CB8E0008CD8E00089D
:1000400019950008199500081995000819950008D8
:10005000199500081995000819950008B52C000895
:1000600019950008199500081995000819950008B8
:1000700019950008199500081995000819950008A8
:100080001995000819950008199500081995000898
:100090001995000819950008199500081995000888
:1000A0001995000819950008199500081995000878
:1000B0001995000819950008199500081995000868
:1000C0001995000819950008199500081995000858
:1000D00019950008418E0008199500081995000827
:1000E0001995000819950008199500081995000838
:1000F0001995000819950008199500081995000828
:100100001995000819950008199500081995000817
:100110001995000819950008199500081995000807
:1001200019950008199500081995000819950008F7
:1001300019950008199500081995000819950008E7
:1001400019950008199500081995000819950008D7
:1001500019950008199500081995000819950008C7
:1001600019950008199500081995000819950008B7
:10017000199500081995000819950008000000005D
:0801800019950008199500080B
:1001C0000348044B834202D0034B03B118477047E6
:1001D000B4000020B40000200000000005480649DB
:1001E0000B1AD90F01EBA301491002D0034B03B145
:1001F00018477047B4000020B40000200000000041
:1002000010B5064C237843B9FFF7DAFF044B13B15E
:100210000448AFF300800123237010BDB400002018
:10022000000000001C95000808B5044B1BB10449F0
:100230000448AFF30080BDE80840CFE700000000AD
:10024000B80000201C95000870B50D4E0D4D761BB2
:10025000B61006D00024013455F8043B9847A64256
:10026000F9D1094E094D761B09F058F9B61006D0A0
:100270000024013455F8043B9847A642F9D170BDDB
:1002800058AF000858AF00085CAF000858AF00082E
:10029000F0B4860746D0541E002A3CD0CAB20346AA
:1002A00002E014F1FF3436D303F8012B9D07F8D197
:1002B000032C29D9CDB245EA05250F2C45EA054581
:1002C00033D9A4F11006360903F1200707EB06170E
:1002D00003F1100242E9045542E902551032BA42D4
:1002E000F8D1721C14F00C0F03EB021204F00F068D
:1002F00013D0331F23F003030433134442F8045B89
:100300009342FBD106F003042CB1C9B21C4403F89C
:10031000011B9C42FBD1F0BC704734461346002CB5
:10032000F3D1F8E714460346C2E71A462646E0E74B
:100330000EB410B5044683B008B1836963B106A852
:1003400003460190059AA168204600F08DFD03B098
:10035000BDE8104003B0704700F0A0FBEFE700BF1E
:100360000FB410B50B4B1C6882B00CB1A36963B11C
:1003700005A803460190049AA168204600F074FD88
:1003800002B0BDE8104004B07047204600F086FB84
:10039000EEE700BF0000002083692DE9F0418046B0
:1003A0000E4633B384682F4B9C4230D02E4B9C4278
:1003B00039D02E4B9C4208BFD8F80C40A3891B07AC
:1003C0002AD5236943B3013EA36816F8015F013BB8
:1003D000A3609DB3002B07DAA7699F4222462946F6
:1003E000404623DC0A2D21D023685A1C22601D7050
:1003F000EAE700F053FBD8F81830D8F80840002B93
:10040000D1D1404600F04AFB164B9C42CED1D8F8E1
:100410000440A3891B07D4D42146404600F0FEF8CF
:100420000028D0D006E0D8F80840C7E700F096F8DA
:100430000130C9D14FF0FF30BDE8F081002B09DA5F
:10044000224640460A2100F089F80130F2D00A2005
:10045000BDE8F08123680A22591C21601A701046F9
:10046000BDE8F08178950008589500083895000897
:10047000024B01461868FFF78FBF00BF0000002045
:1004800090F800F06DE9024520F007016FF0000CD4
:1004900010F0070491F820F040F049804FF000047C
:1004A0006FF00700D1E9002391F840F000F1080057
:1004B00082FA4CF2A4FA8CF283FA4CF3A2FA8CF38F
:1004C0004BBBD1E9022382FA4CF200F10800A4FAF6
:1004D0008CF283FA4CF3A2FA8CF3E3B9D1E904234A
:1004E00082FA4CF200F10800A4FA8CF283FA4CF381
:1004F000A2FA8CF37BB9D1E9062301F1200182FA3B
:100500004CF200F10800A4FA8CF283FA4CF3A2FA40
:100510008CF3002BC6D0002A04BF04301A4612BA4E
:10052000B2FA82F2FDE8024500EBD2007047D1E951
:10053000002304F00305C4F100004FEAC50514F0E0
:10054000040F91F840F00CFA05F562EA05021CBFB1
:1005500063EA050362464FF00004A9E7F8B50D46CB
:100560001446064608B1836943B3254B9C422AD002
:10057000244B9C4229D0244B9C4208BFF468A38999
:10058000A269A2601A0722D5236903B322686169B0
:10059000D31AEDB299422F4629DD0133A168501CD0
:1005A0000139A1602060157062699A4216D0A38952
:1005B000DB0701D50A2D11D03846F8BD00F06EFAE0
:1005C0000F4B9C42D4D17468D9E7B468D7E7214671
:1005D000304600F023F838B92369D7E72146304682
:1005E00000F032F90028E7D04FF0FF37E4E721466A
:1005F000304600F029F90028F6D122680123CDE722
:10060000789500085895000838950008024B0A466E
:1006100001461868FFF7A2BF000000203B4B70B5F1
:100620001D6806460C460DB1AB69DBB1384B9C42E8
:100630001ED0384B9C424AD0374B9C4208BFEC68D6
:10064000B4F90C2093B2190718D5206908B313F038
:1006500001022CD0636900225B42A361A26060B3F7
:10066000002070BD284600F019FA294B9C42E0D1C9
:100670006C68B4F90C2093B21907E6D4DD063CD5BA
:10068000580726D4206942F00803A3819BB20028B2
:10069000DDD103F42072B2F5007FD8D03046214678
:1006A00000F09AFAA389206913F00102D2D19907C8
:1006B00058BF6269A2600028D2D1B4F90C301A0682
:1006C000CFD543F04003A3814FF0FF3070BDAC683D
:1006D000B6E7616B51B104F14403994204D030464E
:1006E00000F0C4FAB4F90C200023636300232069EE
:1006F000636022F024022060C5E742F04002092333
:1007000033604FF0FF30A28170BD00BF00000020B9
:100710007895000858950008389500088B891A07C5
:100720002DE9F0410C46804641D44A68002A59DD43
:10073000E66A002E53D00022D8F80050216AC8F88B
:10074000002013F4805251D101234046B047431C8E
:100750005FD0A389E66A216A5F0705D56268636B8B
:10076000801A0BB1236CC01A024600234046B047E2
:10077000461C45D1D8F80030B4F90C20002B55D0D8
:100780001D2B01D0162B5AD123690022C4E9003257
:10079000616BC8F8005011B304F14403994202D0D0
:1007A000404600F063FA00206063BDE8F0810E6906
:1007B000AEB10D680E6099070CBF63690023AD1BD5
:1007C000A3600AE02B463246A76A216A4046B84732
:1007D0000028A5EB000506440ADD002DF2DC002010
:1007E000BDE8F0810A6C002AA2DCF8E7606DB3E78F
:1007F000A38943F04003A3814FF0FF30BDE8F081AF
:100800002269A389226000226260DA04C0D5606593
:10081000BEE7D8F80030002B9BD01D2B0CD0162B38
:100820000AD0A38943F04003A381D9E72169C4E931
:100830000013D304ACD5EAE7C8F80050CFE742F084
:100840004002A281CCE700BF0B6923B310B5044678
:1008500082B008B18369BBB1104B994212D0104BE2
:10086000994216D00F4B994208BFE168B1F90C309C
:100870002BB1204602B0BDE81040FFF74FBF00206B
:1008800002B010BD6168F1E7019100F007F901992C
:10089000E2E7A168EAE70020704700BF789500080A
:1008A000589500083895000820B1054B0146186896
:1008B000FFF7CABF034B0449186800F035B900BF01
:1008C0000000002034950008490800080020704707
:1008D000014900F029B900BF49080008002070470D
:1008E00070B54A1E682505FB02F50E4605F1740138
:1008F00000F012FA044640B100210C30666005F1A8
:1009000068022160A060FFF7C3FC204670BD00BFF5
:100910001E4B70B51D68AB69064643B34835D5E933
:100920000134013B05D51EE0013B5A1C04F168046B
:1009300019D0B4F90C20002AF6D10025144B6566B5
:10094000C4E90055A560C4E90455A5612946E360E2
:10095000082204F15C00FFF79BFCC4E90D55C4E9D3
:100960001255204670BD2C682CB12546D7E7284685
:1009700000F010F8D2E704213046FFF7B1FF04463B
:1009800028600028F1D10C233360EAE73495000891
:100990000100FFFF2DE9F84F334B34491A6881629B
:1009A00090424FF00003C0E91233036504BF0123F6
:1009B00083610546FFF7ACFF68602846FFF7A8FF94
:1009C000A8602846FFF7A4FF6E68E86000240423AF
:1009D000F3607466C6E90044B460C6E90444B461D7
:1009E000214606F15C000822FFF752FCDFF888B0D0
:1009F000AF68DFF888A0DFF88890DFF888801C4BAC
:100A0000C6F83080C6E9086BC6E90AA92146FB6032
:100A100008227C66C7E90044BC60C7E90444BC61A5
:100A200007F15C00FFF734FCEE68124BC7F830802A
:100A3000C7E9087BC7E90AA92146F3607466C6E9DD
:100A40000044B460C6E90444B46106F15C000822C5
:100A5000FFF71EFC0123C6E9086BC6E90AA9C6F820
:100A60003080AB61BDE8F88F34950008D1080008EC
:100A700009000100120002002D150008551500089C
:100A800095150008B5150008024B0349186800F0D9
:100A90004BB800BF3495000849080008836903B9C2
:100AA00078E77047704700BF704700BF704700BFCE
:100AB000704700BF024B0349186800F00FB800BF31
:100AC00000000020CD080008024B0349186800F020
:100AD00005B800BF00000020DD0800082DE9F04146
:100AE00010F148071BD088460026D7E90154013D84
:100AF0000FD4A389012B05F1FF3506D9B4F90E30C7
:100B00000133204601D0C04706436B1C04F1680442
:100B1000EFD13F68002FE8D13046BDE8F0813E4676
:100B20003046BDE8F08100BF2DE9F84310F14807D9
:100B30001FD0884606464FF00009D7E90154013D11
:100B400011D4A389012B05F1FF3508D9B4F90E3072
:100B500001332146304602D0C04749EA00096B1CE8
:100B600004F16804EDD13F68002FE6D14846BDE8A6
:100B7000F883B9464846BDE8F88300BF70B50C4617
:100B8000B1F90E10002996B016461D4613DB6A46D1
:100B900000F03CFD00280EDB019A02F47042A2F541
:100BA0000052B2FA82F252094FF4806300202A60A8
:100BB000336016B070BDA38900221B062A6004D5DD
:100BC00040230020336016B070BD4FF480630020D6
:100BD000336016B070BD00BF8A8992070B4606D5F8
:100BE00001F1470201211A60C3E90421704770B581
:100BF00082B001AB6A460C460646FFF7BFFF00997C
:100C00000546304600F088F8B4F90C3070B116494A
:100C1000B162019A0099206043F08003A381C4E986
:100C200004018AB92B43A38102B070BD9A05FBD49D
:100C300023F0030304F1470243F002030121A381DF
:100C40002260C4E90421EFE73046B4F90E1000F049
:100C500075FE10B9B4F90C30E4E7A38923F003035F
:100C600043F001031BB2DDE7D108000800293CD0A6
:100C700038B551F8043C0C1F002BB8BFE4180546EA
:100C800000F0D8FF234B1A682AB1A2420DD921687F
:100C90006018824223D0626028461C60BDE838405C
:100CA00000F0CABFA34203D81A465368002BF9D1FB
:100CB00011685018A04219D024D8216860188342C6
:100CC00006D0636054602846BDE8384000F0B4BFE9
:100CD000D3E900030144636021605460F3E7D2E983
:100CE0000002014462602160D6E770472068014439
:100CF000501883421160E6D1D3E9000301445360E8
:100D00001160E0E70C232B602846BDE8384000F076
:100D100093BF00BFD0000020F8B5CD1C25F003051F
:100D200008350C2D38BF0C25002D064633DBA942B3
:100D300031D82A4F00F07EFF3A6852B113685B1B2E
:100D400004D43FE023685B1B29D522465468002C5D
:100D5000F8D1796800293BD02946304600F0D4FB11
:100D6000431C28D0C41C24F00304A04205D0211A3F
:100D7000304600F0C9FB01301DD02560304600F040
:100D80005BFF04F10B0020F00700231DC21A01D005
:100D90001B1AA350F8BD0C2232600020F8BD0B2BAB
:100DA00005D8A242636811D05360E7E71446236078
:100DB0001C442560E2E70C233046336000F03CFF22
:100DC0000020F8BD0B2BF1D8536814463B60D5E7E3
:100DD000304600F099FB7860BEE700BFD0000020ED
:100DE0009368013B002B936011DA10B49469A3421D
:100DF00009DB0A2907D01368581C106019700846CF
:100E00005DF8044B70475DF8044BFFF7A7BB136810
:100E1000581C106019700846704700BF9BB1F8B5A8
:100E200013440F4606465D1E541E01E0AC4208D036
:100E30003A4614F8011F3046FFF7D2FF431CF5D1A4
:100E4000F8BD0020F8BD0020704700BF936810B5C2
:100E5000144613B95360184610BD00F0EBFB002395
:100E6000C4E9013310BD00BF2DE9F04F9FB08B46A0
:100E700090461C46039018B18369002B00F0B780A0
:100E8000A24B9B4500F0B980A14B9B4500F0C78069
:100E9000A04B9B4504BF039BD3F80CB0BBF80C30B0
:100EA000180740F1B280DBF81030002B00F0AD8065
:100EB00030238DF8323098F800300594002120223C
:100EC0000B918DF83120944E0127002B00F0878084
:100ED000252B00F01581454603E0252B00F0A3806B
:100EE00025466B786C1C002BF7D1B4EB080A76D042
:100EF0004246534659460398FFF790FF01306ED0A3
:100F00000B9B6A7853440B93002A68D000234FF060
:100F1000FF3201340693CDE908338DF85B301C9322
:100F2000079205E0069A07FA03F313432C4606934B
:100F30002546052215F8011B304600F029FDAA467A
:100F4000831B0028EED1069BD90644BF20228DF8D2
:100F50005B2021781A0744BF2B228DF85B202A29B9
:100F600066D1059A1168043200290592C0F29D806D
:100F700009916178A51C2E2973D0684C0322204664
:100F800000F006FD002800F08680001B069B402430
:100F900004FA00F00343069305F10108297860483C
:100FA0008DF83010062200F0F3FC002800F083805A
:100FB0005C4B002B72D005AB00935A465A4B0398FA
:100FC00006A9AFF300808146B9F1FF3F07D00B9B24
:100FD0004B440B9398F80030002B7FF479AFBBF8AB
:100FE0000C305B0618D40B981FB0BDE8F08FFFF7EC
:100FF00055FD464B9B457FF447AF039BD3F804B0A8
:10100000BBF80C3018073FF54EAF59460398FFF771
:1010100005FB00283FF44CAF4FF0FF30E4E7039BA3
:10102000D3F808B03AE7B4EB080A3FF46FAF5FE7D4
:10103000A1F13002092A88BFA2469CD8099B01E091
:101040002C460135297803EB830302EB4303A1F11E
:101050003002092AAA46F3D92E2904F10205099380
:101060008BD19AF801102A292FD1059B9AF80210EA
:101070001A6807920433002A05930AF103050AF15E
:10108000020338DB254C032220469A4600F080FC00
:1010900000287FF47AAFA84655467FE7059B0733C3
:1010A00023F007030833059391E7494243F0020315
:1010B000099106935DE705AB00935A461A4B0398D6
:1010C00006A900F0D5F881467EE7A1F130020023A1
:1010D000092A079301D915E05546697803EB830384
:1010E00002EB4303A1F13002092A05F1010AF3D909
:1010F0000235079341E74FF0FF329A4607923CE7EB
:10110000444603E7AA46013537E700BF7895000853
:1011100058950008389500081CAF000824AF000857
:1011200028AF0008000000001D0E000810B4044C99
:1011300013460A46014620685DF8044BFFF794BE4B
:10114000000000202DE9F0470C4691460A698968A5
:10115000DDF820808A42B8BF0A46C9F8002094F81A
:10116000431006461F4611B10132C9F8002023681A
:1011700099065CD5D9F800200232C9F8002023680E
:1011800013F0060F19461DD1E1688A1A002AD8BF4C
:10119000194617DD04F1190A002505E0E368D9F8BE
:1011A00000209B1AAB420CDD0123524639463046E3
:1011B000C047013005F10105F0D14FF0FF30BDE827
:1011C000F087216894F84330003318BF01238A0662
:1011D0000AD5E1185A1C302081F84300224494F8C3
:1011E000451082F84310023304F143023946304679
:1011F000C0470130E1D02368A268216903F00603EB
:10120000042B1DD08A4226DD4FF00009521A91446A
:101210001A34002501E04D451DDA012322463946E6
:101220003046C047013005F10105F4D1C5E713F0A0
:10123000060F13D094F84330003318BF0123D3E7CF
:10124000D9F80000E3688A42A3EB000323EAE379BC
:10125000DCDC002BDCDC0020BDE8F087E168D9F89D
:1012600000208A1A002AD8BF194693DCAAE700BFDB
:101270002DE9F0430C46097E85B06E2906461746D7
:101280000C98984604F1430E6DD039D9732900F0BB
:10129000F68044D9752900F00481782940F0118145
:1012A00078232268DFF858C284F8453001681506B3
:1012B00051F8043B016040F1A180D10744BF42F0E6
:1012C00020022260002B00F093801022002184F87D
:1012D00043106068A0600028C0F2C880216821F037
:1012E00004012160002B40F0A380002840F0C08062
:1012F0007546082A00F0AC80AEEB0503236141E09F
:10130000632900F0E5801AD8002938D0582940F028
:10131000D88084F845102268DFF8E8C1C6E76F2955
:1013200000F0BF80702940F0CC802268DFF8D0C187
:1013300042F020027823226084F84530B6E7642921
:1013400002D0692940F0BD8022680368110603F1CC
:10135000040557D5196805600B46002959DBDFF8ED
:10136000A4C10A22B5E70368226861691D1D0560F2
:1013700015061B6802D4500600F1BD8019600023D9
:1013800075462361CDF800803B4603AA21463046CE
:10139000FFF7D8FE013020D02A462369394630466F
:1013A000C047013019D022680398E368920719D525
:1013B0001A1A002A16DD04F11909002504E0E36871
:1013C00003981A1AAA420DDD01234A4639463046CF
:1013D000C047013005F10105F1D14FF0FF3005B0F4
:1013E000BDE8F0839842B8BF184605B0BDE8F08369
:1013F000226822F020022260102267E7500648BFD0
:101400009BB25AE75106A5D5B3F9003005601946DD
:10141000A3E76168A1602D200029C3F1000384F8CF
:10142000430002DB22F004022260DFF8D8C00A2267
:10143000754600E00B46B3FBF2F102FB113093421C
:101440001CF8000005F8010DF4D2082A7FF454AF0F
:101450002368DB077FF550AF626823699A423FF744
:101460004BAF302305F8013C013D45E7002BDFD1B0
:101470009CF8003084F8423004F1420539E70368F3
:101480006268191D01601D680021284600F080FA7D
:10149000002832D0401B60602061002384F8433074
:1014A00070E72268036812F0800F03F104051AD078
:1014B0001B6805606F290CBF08220A22DFF844C0B0
:1014C00004E7012384F84210236104F14205E4E7B4
:1014D00003681A68191D0123016004F1420584F8AC
:1014E00042202361D9E712F0400F0DBF1B68056051
:1014F0001B880560DEE7198041E76068CCE700BF24
:1015000044AF000830AF000838B5074C002305464B
:101510000846236000F004FD431C00D038BD23685A
:10152000002BFBD02B6038BD6802002010B50C46A4
:10153000B1F90E1000F0A8FB002803DB636D034433
:10154000636510BDA38923F48053A38110BD00BF40
:10155000002070472DE9F0411646B1F90C201F46D6
:10156000D3050C460546B1F90E1009D422F4805279
:10157000A2813B4632462846BDE8F04100F01EB845
:101580000022022300F0ECF9B4F90C20B4F90E109B
:10159000ECE700BF10B50C46B1F90E1000F0E0F911
:1015A000A389421C0EBF23F4805343F4805360652B
:1015B000A38110BDB1F90E1000F016B870B50D463C
:1015C000084C114606461A4628460023236000F0C0
:1015D000B5FC431C00D070BD2368002BFBD03360EA
:1015E00070BD00BF6802002038B5074C00230546D7
:1015F0000846236000F06CFC431C00D038BD236813
:10160000002BFBD02B6038BD6802002038B50B469C
:10161000074C0546114618460023236000F060FC85
:10162000431C00D038BD2368002BFBD02B6038BD95
:10163000680200209368002B00F002812DE9F04F32
:10164000B1F90C309BB20C46190783B08246904624
:1016500035D522699AB313F00202D8F800603DD064
:101660000027D4F828B0D4F820C0DFF8CC923D464B
:101670004D452B463A4628BF4B4661465046D5B1AC
:10168000D847002840F3D280D8F808301B1A074406
:101690002D1AC8F80830002B00F0B780D4F820C00D
:1016A000D4F828B04D452B463A4628BF4B466146F4
:1016B0005046002DE4D1D6E900750836D8E721461A
:1016C0005046FEF7ABFF002840F03081B4F90C30F3
:1016D000D8F800609BB213F00202C1D113F00109E7
:1016E00040F0B080A76820684D46002D54D09A0580
:1016F00040F1BC80AF42BB4600F2E78013F4906F2C
:101700002FD0D4E9041707EB4707A0EB010B07EB39
:10171000D777681C7F105844B8423A4684BF0746C2
:101720003A465B0540F1E98011465046FFF7F4FA6E
:10173000002800F0F5805A462169019000F078F900
:10174000A289019B22F4906242F08002A281A7EB61
:101750000B0203EB0B00676123612060A2602F4640
:10176000AB465A46494600F0FDF9A2682368D21BF1
:101770005B442F46A26023600025D8F80830DB1BAD
:10178000B944C8F80830002B3FD0B4F90C30A76832
:1017900020689BB2002DAAD1D6E900950836A4E7AF
:1017A0000BF1080353E902679B460833002FF9D079
:1017B0003A460A21304600F0EBF8002853D00130B9
:1017C000A0EB06094B46D4E904122068BB4228BFAF
:1017D0003B46884203D9A5681544AB4219DC9A42BE
:1017E0007DDC1346A56A216A32465046A847051E8D
:1017F0001CDDB9EB05096BD00120D8F808305B1B64
:101800002E447F1BC8F8083013BB002003B0BDE88E
:10181000F08F31462A4600F0A5F923682B44236057
:1018200021465046FFF710F80028E2D0B4F90C30FA
:1018300043F040034FF0FF30A38103B0BDE8F08FC9
:101840000020704733469146104617464E469B4649
:10185000002FA5D00028B5D13A460A21304600F025
:1018600097F80028ABD17B1C9946ACE723698342EB
:1018700015D36169A94212D82E4BA76A9D4294BF25
:101880002B466FF000434A4693FBF1F3504601FBB1
:1018900003F3216AB847071EC8DDED1B6DE7AF42B1
:1018A00028BF2F463A46494600F05CF9A3682268F3
:1018B000DB1B3A44A3602260002BEED12146504648
:1018C000FEF7C2FF0028E8D0B0E72F46AB4648E756
:1018D00021465046FEF7B8FF00288ED0A6E71A46EC
:1018E0003146019300F03EF9019BA1682268C91AB4
:1018F0001A44A16022601D467BE7504600F09EF925
:10190000034600287FF423AF21695046FFF7AEF964
:10191000B4F90C300C2223F08003CAF8002087E7CA
:101920000C23CAF80030B4F90C3081E74FF0FF30D7
:101930006CE700BFFEFFFF7F00FCFF7F38B5074C60
:10194000002305460846236000F0D2FA431C00D06D
:1019500038BD2368002BFBD02B6038BD6802002007
:1019600070B50D46084C114606461A462846002317
:10197000236000F0C5FA431C00D070BD2368002B23
:10198000FBD0336070BD00BF680200200000000083
:1019900001F0FF01102A2BDB10F0070F08D010F820
:1019A000013B013A8B422DD010F0070F42B3F6D124
:1019B000F0B441EA012141EA014122F007047FF03D
:1019C00000070023F0E80256083C85EA010586EA94
:1019D000010685FA47F5A3FA87F586FA47F6A5FAD0
:1019E00087F68EB9EED1F0BC01F0FF0102F00702DC
:1019F00032B110F8013B013A83EA010313B1F8D187
:101A00000020704701387047002D06BF3546033867
:101A1000073815F0010F07D1013015F4807F02BFA0
:101A2000013015F4C03F0130F0BC0138704700BFF1
:101A3000844641EA000313F003036DD1403A41D3D9
:101A400051F8043B40F8043B51F8043B40F8043B98
:101A500051F8043B40F8043B51F8043B40F8043B88
:101A600051F8043B40F8043B51F8043B40F8043B78
:101A700051F8043B40F8043B51F8043B40F8043B68
:101A800051F8043B40F8043B51F8043B40F8043B58
:101A900051F8043B40F8043B51F8043B40F8043B48
:101AA00051F8043B40F8043B51F8043B40F8043B38
:101AB00051F8043B40F8043B51F8043B40F8043B28
:101AC000403ABDD2303211D351F8043B40F8043BC8
:101AD00051F8043B40F8043B51F8043B40F8043B08
:101AE00051F8043B40F8043B103AEDD20C3205D3D8
:101AF00051F8043B40F8043B043AF9D2043208D0D0
:101B0000D2071CBF11F8013B00F8013B01D30B8841
:101B100003806046704700BF082A13D38B078DD01F
:101B200010F003038AD0C3F10403D21ADB071CBFF1
:101B300011F8013B00F8013B80D331F8023B20F85B
:101B4000023B7BE7043AD9D3013A11F8013B00F894
:101B5000013BF9D20B7803704B7843708B7883701C
:101B6000604670478842F0B40DD98B1883420AD979
:101B7000841832B1224613F8014D02F8014D994202
:101B8000F9D1F0BC70470F2A0ED80346541E002A24
:101B9000F7D001340C44013B11F8012B03F8012F5D
:101BA000A142F9D1F0BC704740EA01039B073BD149
:101BB000A2F110073F0901F1200606EB071601F11B
:101BC000100300F1100453F8105C44F8105C53F853
:101BD0000C5C44F80C5C53F8085C44F8085C53F85F
:101BE000045C44F8045C1033B34204F11004EAD1FD
:101BF0007B1C1B0112F00C0F194402F00F0503446B
:101C000015D0043DAD0803EB850C1C1F0E4656F89D
:101C1000047B44F8047F6445F9D10135AD002B44C1
:101C2000294402F00302B1E7541E0346B1E72A46F5
:101C3000ACE700BF704700BF704700BF09B3F8B5FD
:101C40001446CAB106460D4600F034F8A04202D34D
:101C50002F463846F8BD21463046FFF75DF8074667
:101C60000028F6D022462946FFF7E2FE30462946F4
:101C7000FEF7FCFF3846F8BD2746FEF7F7FF38466B
:101C8000F8BD1146FFF748B870B50D46084C11462F
:101C900006461A4628460023236000F039F9431C03
:101CA00000D070BD2368002BFBD0336070BD00BF37
:101CB0006802002051F8043C181F002BBCBF0B58D1
:101CC000C018704738B52DED028B55EC104B00F065
:101CD00033F8184BB0EE408AF0EE608A93F900308A
:101CE00001330DD022462B462046294600F084FDC4
:101CF00030B9204629460022002300F055FD30B9B6
:101D0000B0EE480AF0EE680ABDEC028B38BD00F078
:101D1000A9FD00220023212101601046194600F090
:101D2000FBFB41EC180BB0EE480AF0EE680ABDEC84
:101D3000028B38BD640000202DE9F041634955EC69
:101D4000104BA94300F09F80002D2B4610EE102A67
:101D500052DD5FEA255E00F0B180C3F31303AEF2FB
:101D6000FF3E43F48013D10F1EF0010F01EB43033C
:101D70004FEA420403D0E40F04EB430394004FF016
:101D8000000C4FEA6E0E664616254FF40012B1188D
:101D9000994202DC5B1A8E1894445B00013D03EB10
:101DA000D4734FEA52024FEA4404F0D12F46202068
:101DB0004FF0004209E041D0E10F01384FEA5202F2
:101DC00001EB43034FEA440441D0B34202EB050167
:101DD000F1DD002901EB020509DBB0469B1BA142A6
:101DE00088BF03F1FF33641A17444646E4E7002D29
:101DF000F3DB06F10108F1E725F00041214339D07A
:101E0000002D50D1D40A153B52052146002CF9D0A3
:101E1000E50256D4002000E028464900CC0200F13B
:101E20000105F9D50C461146AA40C5F1200521FA55
:101E300005F5A3EB000E45EA04038EE7A142BBD8EB
:101E4000002901EB0205D2DB98460023CBE72343B0
:101E500012D178084FEA6C0101F17F511CF0010F9B
:101E600001F5001118BF40F0004001EB0E5302468F
:101E700043EC102BBDE8F0817B1C16BF781C0CF1E5
:101E8000010C4008E6E710EE102A2B4610EE100A6F
:101E9000294600F017FA22462B4600F05DF841EC87
:101EA000100BBDE8F0812046294600F053F80246A9
:101EB0000B4600F031FB41EC100BDBE72946734683
:101EC000A8E7114620254FF0FF30B0E70000F07F73
:101ED000024B58221A604FF0FF3070476802002012
:101EE000024B58221A604FF0FF3070476802002002
:101EF000024B58221A600020704700BF6802002081
:101F0000024B58221A604FF0FF30704768020020E1
:101F1000024B58221A604FF0FF30704768020020D1
:101F2000044A05491368002B08BF0B46184410608B
:101F300018467047D800002070020020024B58223B
:101F40001A604FF0FF3070476802002081F00041B6
:101F500002E000BF83F0004330B54FEA41044FEA8E
:101F6000430594EA050F08BF90EA020F1FBF54EA29
:101F7000000C55EA020C7FEA645C7FEA655C00F0C5
:101F8000E2804FEA5454D4EB5555B8BF6D420CDD96
:101F90002C4480EA020281EA030382EA000083EA19
:101FA000010180EA020281EA0303362D88BF30BDB9
:101FB00011F0004F4FEA01314FF4801C4CEA11310F
:101FC00002D0404261EB410113F0004F4FEA03336E
:101FD0004CEA133302D0524263EB430394EA050FF9
:101FE00000F0A780A4F10104D5F1200E0DDB02FA68
:101FF0000EFC22FA05F2801841F1000103FA0EF2FC
:10200000801843FA05F359410EE0A5F120050EF1C1
:10201000200E012A03FA0EFC28BF4CF0020C43FAF2
:1020200005F3C01851EBE37101F0004507D54FF0FF
:10203000000EDCF1000C7EEB00006EEB0101B1F54F
:10204000801F1BD3B1F5001F0CD349085FEA300095
:102050004FEA3C0C04F101044FEA445212F5800FA0
:1020600080F09A80BCF1004F08BF5FEA500C50F13D
:10207000000041EB045141EA050130BD5FEA4C0C20
:10208000404141EB0101013C28BFB1F5801FE9D27D
:1020900091F0000F04BF01460020B1FA81F308BFA0
:1020A0002033A3F10B03B3F120020CDA0C3208DD6C
:1020B00002F1140CC2F10C0201FA0CF021FA02F147
:1020C0000CE002F11402D8BFC2F1200C01FA02F1B7
:1020D00020FA0CFCDCBF41EA0C019040E41AA2BFDC
:1020E00001EB0451294330BD6FEA04041F3C1CDAA4
:1020F0000C340EDC04F11404C4F1200220FA04F0C4
:1021000001FA02F340EA030021FA04F345EA03016D
:1021100030BDC4F10C04C4F1200220FA02F001FA2F
:1021200004F340EA0300294630BD21FA04F02946B1
:1021300030BD94F0000F83F4801306BF81F480114A
:102140000134013D4EE77FEA645C18BF7FEA655CBD
:1021500029D094EA050F08BF90EA020F05D054EA8F
:10216000000C04BF1946104630BD91EA030F1EBF94
:102170000021002030BD5FEA545C05D14000494198
:1021800028BF41F0004130BD14F580043CBF01F58B
:10219000801130BD01F0004545F0FE4141F4700171
:1021A0004FF0000030BD7FEA645C1ABF194610464C
:1021B0007FEA655C1CBF0B46024650EA013406BF4D
:1021C00052EA033591EA030F41F4002130BD00BF0C
:1021D00090F0000F04BF0021704730B54FF48064C9
:1021E00004F132044FF000054FF0000150E700BF4A
:1021F00090F0000F04BF0021704730B54FF48064A9
:1022000004F1320410F0004548BF40424FF0000195
:102210003EE700BF42004FEAE2014FEA31014FEAD8
:1022200002701FBF12F07F4393F07F4F81F0605127
:10223000704732F07F4208BF704793F07F4F04BF72
:1022400041F40021704730B54FF4607401F000454F
:1022500021F000411CE700BF50EA010208BF7047AF
:1022600030B54FF000050AE050EA010208BF7047A0
:1022700030B511F0004502D5404261EB41014FF409
:10228000806404F132045FEA915C3FF4D8AE4FF011
:1022900003025FEADC0C18BF03325FEADC0C18BFF4
:1022A000033202EBDC02C2F1200300FA03FC20FA45
:1022B00002F001FA03FE40EA0E0021FA02F1144492
:1022C000BDE600BF70B54FF0FF0C4CF4E06C1CEAAB
:1022D00011541DBF1CEA135594EA0C0F95EA0C0F1C
:1022E00000F0DEF82C4481EA030621EA4C5123EA8F
:1022F0004C5350EA013518BF52EA033541F48011BE
:1023000043F4801338D0A0FB02CE4FF00005E1FB70
:1023100002E506F00042E0FB03E54FF00006E1FBBA
:1023200003569CF0000F18BF4EF0010EA4F1FF04FD
:10233000B6F5007F64F5407404D25FEA4E0E6D413D
:1023400046EB060642EAC62141EA55514FEAC5204E
:1023500040EA5E504FEACE2EB4F1FD0C88BFBCF5CA
:10236000E06F1ED8BEF1004F08BF5FEA500E50F17B
:10237000000041EB045170BD06F0004646EA010141
:1023800040EA020081EA0301B4EB5C04C2BFD4EB73
:102390000C0541EA045170BD41F480114FF0000E6C
:1023A000013C00F3AB8014F1360FDEBF002001F0DA
:1023B000004170BDC4F10004203C35DA0C341BDC54
:1023C00004F11404C4F1200500FA05F320FA04F026
:1023D00001FA05F240EA020001F0004221F000415A
:1023E00010EBD37021FA04F642EB06015EEA430ECD
:1023F00008BF20EAD37070BDC4F10C04C4F12005FD
:1024000000FA04F320FA05F001FA04F240EA0200AF
:1024100001F0004110EBD37041F100015EEA430E80
:1024200008BF20EAD37070BDC4F1200500FA05F2A0
:102430004EEA020E20FA04F301FA05F243EA02031F
:1024400021FA04F001F0004121FA04F220EA02002E
:1024500000EBD3705EEA430E08BF20EAD37070BD74
:1024600094F0000F0FD101F00046400041EB010154
:1024700011F4801F08BF013CF7D041EA060195F036
:10248000000F18BF704703F00046520043EB0303F0
:1024900013F4801F08BF013DF7D043EA06037047DD
:1024A00094EA0C0F0CEA135518BF95EA0C0F0CD0E8
:1024B00050EA410618BF52EA4306D1D181EA03012E
:1024C00001F000414FF0000070BD50EA410606BF28
:1024D0001046194652EA430619D094EA0C0F02D16D
:1024E00050EA013613D195EA0C0F05D152EA0336B2
:1024F0001CBF104619460AD181EA030101F00041D0
:1025000041F0FE4141F470014FF0000070BD41F018
:10251000FE4141F4780170BD70B54FF0FF0C4CF4F2
:10252000E06C1CEA11541DBF1CEA135594EA0C0F11
:1025300095EA0C0F00F0A7F8A4EB050481EA030E5E
:1025400052EA03354FEA013100F088804FEA033345
:102550004FF0805545EA131343EA12634FEA022213
:1025600045EA111545EA10654FEA00260EF00041D4
:102570009D4208BF964244F1FD0404F5407402D226
:102580005B084FEA3202B61A65EB03055B084FEAB7
:1025900032024FF480104FF4002CB6EB020E75EBB4
:1025A000030E22BFB61A754640EA0C005B084FEADC
:1025B0003202B6EB020E75EB030E22BFB61A754659
:1025C00040EA5C005B084FEA3202B6EB020E75EBA4
:1025D000030E22BFB61A754640EA9C005B084FEA1C
:1025E0003202B6EB020E75EB030E22BFB61A754629
:1025F00040EADC0055EA060E18D04FEA051545EA18
:1026000016754FEA06164FEAC30343EA52734FEAC0
:10261000C2025FEA1C1CC0D111F4801F0BD141EA39
:1026200000014FF000004FF0004CB6E711F4801F9E
:1026300004BF01430020B4F1FD0C88BFBCF5E06F7E
:102640003FF6AFAEB5EB030C04BFB6EB020C5FEA8E
:10265000500C50F1000041EB045170BD0EF0004EE3
:102660004EEA113114EB5C04C2BFD4EB0C0541EA15
:10267000045170BD41F480114FF0000E013C90E612
:1026800045EA060E8DE60CEA135594EA0C0F08BFD6
:1026900095EA0C0F3FF43BAF94EA0C0F0AD150EAD5
:1026A00001347FF434AF95EA0C0F7FF425AF104668
:1026B00019462CE795EA0C0F06D152EA03353FF490
:1026C000FDAE1046194622E750EA410618BF52EA0D
:1026D00043067FF4C5AE50EA41047FF40DAF52EAE1
:1026E00043057FF4EBAE12E74FF0FF3C06E000BF7E
:1026F0004FF0010C02E000BF4FF0010C4DF804CD8B
:102700004FEA410C7FEA6C5C4FEA430C18BF7FEA4A
:102710006C5C1BD001B050EA410C0CBF52EA430C78
:1027200091EA030F02BF90EA020F0020704710F1F8
:10273000000F91EA030F58BF994208BF90422CBF87
:10274000D8176FEAE37040F0010070474FEA410C80
:102750007FEA6C5C02D150EA013C07D14FEA430C9E
:102760007FEA6C5CD6D152EA033CD3D05DF8040B0F
:10277000704700BF8446104662468C461946634641
:1027800000E000BF01B5FFF7B7FF002848BF10F118
:10279000000F01BD4DF808EDFFF7F4FF0CBF01205D
:1027A00000205DF808FB00BF4DF808EDFFF7EAFFD9
:1027B00034BF012000205DF808FB00BF4DF808ED94
:1027C000FFF7E0FF94BF012000205DF808FB00BF89
:1027D0004DF808EDFFF7CEFF94BF012000205DF813
:1027E00008FB00BF4DF808EDFFF7C4FF34BF012020
:1027F00000205DF808FB00BF4FEA410C7FEA6C5CEB
:1028000002D150EA013C0AD14FEA430C7FEA6C5CEA
:1028100002D152EA033C02D14FF0000070474FF062
:10282000010070474A0011D212F5001211D20DD5E5
:102830006FF47873B3EB62520ED44FEAC12343F0C6
:10284000004343EA505323FA02F070474FF0000070
:10285000704750EA013002D14FF0FF3070474FF01F
:1028600000007047014B1868704700BF000000204F
:1028700008B54FF4A06006F02BFBA82000F016F876
:102880004FF4E13006F07EFA05F0D8F902F0AEF927
:1028900001F064FC00F078F806F04CFA0248FDF70D
:1028A0005FFD06F0FDF9F9E79895000810B50446BC
:1028B0006FF0040006F048FBE008054B1870C0EB11
:1028C000401300EB8300C000024B188010BD00BF16
:1028D000DE000020DC0000200C4B1B7800FB03F026
:1028E0000B4B586000229A601A6842F001021A608D
:1028F000074B1B6803F00113012BF9D0044B1A6836
:1029000022F001021A6000229A607047DE00002067
:1029100010E000E00C4B1B8800FB03F00B4B5860F1
:1029200000229A601A6842F001021A60074B1B6885
:1029300003F00113012BF9D0044B1A6822F00102B5
:102940001A6000229A607047DC00002010E000E06E
:1029500038B50C4CA4FB0034650A2C464FF40773C1
:1029600003FB1505ADB234B14FF40770FFF7D2FF8A
:10297000013CE4B2F7E705B938BD2846FFF7CAFFC6
:10298000FAE700BF49D6B9F208B501F0B9FA08BDB7
:1029900010B5044601F0D6FA230A5B00DBB2603BB7
:1029A00003F0FE0001F07AFB01F00CFBE0B201F055
:1029B00075FB01F007FB01F0C5FAA12001F06EFBE9
:1029C00001F000FB002001F097FB044601F0DAFA69
:1029D000204610BD38B504460D4601F0B3FA230A6F
:1029E0005B00DBB2603B03F0FE0001F057FB01F03F
:1029F000E9FAE0B201F052FB01F0E4FA284601F0F6
:102A00004DFB01F0DFFA01F0BDFA0A20FFF7A0FF4D
:102A100038BDF8B507460E4615460024AC420AD22A
:102A2000E10026FA01F13819C9B280B2FFF7D2FFEE
:102A30000134E4B2F2E7F8BDF8B507460E460020CF
:102A40000446B4420CD20502B81980B2001B80B211
:102A5000013880B2FFF79CFF28440134E4B2F0E76C
:102A6000F8BD08B50120FFF737FF08BD10B582B0EB
:102A70000121062006F0B2FB012400948DF80440E9
:102A800000238DF8063003238DF805308DF80740BC
:102A90006946094806F0E6FA102300938DF80440D1
:102AA0006946064806F0DEFA054B1C6003F5004354
:102AB00010331C6002B010BD000402400008024048
:102AC0008082404270B50B4B1A6822F440721A6043
:102AD0001A6842F480721A60074E01233360074C73
:102AE0002360FFF7BEFF00253560FFF7BAFF2560C2
:102AF00070BD00BF00080240900241428082404207
:102B000070B50B4B1A6822F440721A601A6842F4CE
:102B100080721A60074E00233360074C2360FFF772
:102B2000A0FF01253560FFF79CFF256070BD00BF49
:102B300000080240808240429002414208B5104B9A
:102B40001A6822F440721A601A681A6001230D4A4A
:102B50001360A2F50042103A1360FFF782FF0023D2
:102B6000094A12683AB10133DBB2FA2BF8D9FFF700
:102B7000C7FF012002E00020044B186008BD00BF21
:102B800000080240900241421002414280824042CD
:102B900038B50B4C002525600A4B1A6822F44072A8
:102BA0001A601A6842F480721A60074B1D60FFF7C2
:102BB00058FF01232360FFF754FF256038BD00BF95
:102BC00080824042000802409002414270B50B4CA6
:102BD000002525600A4B1A6822F440721A601A68B0
:102BE00042F480721A600126064B1E60FFF739FF1F
:102BF0002660FFF736FF256070BD00BF808240422F
:102C0000000802409002414270B505460F4B1A6819
:102C100022F440721A601A6842F480721A6000242A
:102C20000B4B1C600FE0EA090A4B1A606D00EDB215
:102C3000074E01233360FFF714FF00233360FFF7D3
:102C400010FF0134E4B2072CEDD970BD000802403A
:102C50008082404290024142F8B50746124B1A6802
:102C600022F440721A601A681A600024264601E0B5
:102C7000731CDEB2072E0FD80C4D00232B60FFF71C
:102C8000F0FE01232B609C40E4B2094B1B68002B33
:102C9000EED00134E4B2EBE71FB9FFF797FF20460F
:102CA000F8BDFFF775FFFAE7000802408082404256
:102CB0001002414208B5034B01221A70022006F0AF
:102CC00053F908BDDF000020F8B504460F4615464D
:102CD000FFF7F8FE7020FFF797FFFFF72FFFE0B236
:102CE000FFF792FFFFF72AFF00263446AC4209D2D5
:102CF000385DFFF789FFFFF721FF064610B9013461
:102D0000E4B2F3E7FFF7FCFE3046F8BD70B50446C9
:102D10000E461546FFF7D6FE7020FFF775FFFFF74A
:102D20000DFFE0B2FFF770FFFFF708FFFFF7CAFEE5
:102D30007120FFF769FFFFF701FF0024AC4209D2C1
:102D4000681E201A18BF0120FFF786FF3055013496
:102D5000E4B2F3E7FFF7D4FE70BD0000F0B585B034
:102D60000121062006F03AFA0226019600258DF888
:102D700008508DF80A5003238DF8093001248DF88E
:102D80000B4001A9204806F06DF94FF40053019360
:102D90008DF8084001A91D4806F064F9FFF766FEAA
:102DA0001B4F3D601420FFF7D3FD3C603220FFF73E
:102DB000CFFD8DF80C50224603A92846FFF784FF6B
:102DC000224603A9A420FFF77FFF16238DF80C30BD
:102DD000224603A98020FFF777FF0C238DF80C30E3
:102DE00022460DEB03018820FFF76EFF324603A950
:102DF000A120FFF78BFF9DF80D30B34202D0204693
:102E000005B0F0BD0020FBE70004024000080240CE
:102E1000B402414230B583B07D4B1A780132D2B250
:102E20001A707C4BA3FB0213DB0803EB83035900EE
:102E3000511A11F0FF0F02D0092A00F2C5800122B9
:102E40000DF103010220FFF761FF9DF8030000F080
:102E50000F00002800F0B980052800F2D280FF237F
:102E60008340DB4363F03F036B4A137600242BE07F
:102E70006A4B9A889DF804301B0203F470639DF836
:102E800005100B44D31A644A02EB44018B809DF871
:102E900006301B0203F470639DF807100B44211DDC
:102EA00002EB4102D3809DF8043003F0F003802B45
:102EB00008D0594B2A1D03EB42020021D18003EBBD
:102EC0004505A9800134E4B2042C70D8524B1B7E16
:102ED0002546234113F0010FF4D004220DEB02012B
:102EE0004F4B33F81400FFF711FF4C4B9B7A032B29
:102EF000D9D801A252F823F0712E0008092F00083A
:102F00003B2F0008732F00089DF804301B0203F4C8
:102F100070639DF8052013443F4A211D02EB4101D7
:102F2000CB809DF806301B0203F470639DF80710F8
:102F30000B4402EB44029380B5E79DF804301B027A
:102F400003F470639DF805201344334A02EB4401F7
:102F50008B80324BD9889DF806301B0203F47063D6
:102F60009DF807000344CB1A211D02EB4102D380D8
:102F700099E72A48C2889DF804301B0203F4706365
:102F80009DF805100B44D31A234A211D02EB410181
:102F9000CB8081889DF806301B0203F470639DF896
:102FA00007000344CB1A02EB440293807BE71A4BE1
:102FB0009B8823B9184BDB890BB98DF80330144B70
:102FC00000221A70012000E000209DF8033013F069
:102FD0001F0F0DD1104A137E92F91820002A12DB20
:102FE0000D4A4FF6FF719180D18123F01F031376B4
:102FF000074B1B78F02B02D9054B0A221A7003B03D
:1030000030BD0020E1E703F07F03034A1376EFE7CA
:10301000E0000020CDCCCCCC78000020E8000020DF
:10302000A495000808B5064B00221A60FFF790FC33
:10303000044B1A6822F00C021A601A681A6008BD64
:103040008482404200040240F8B504460D4F012638
:103050003E600D4D2E601420FFF77AFC00232B609C
:103060003B601420FFF774FC282C14BF00240124BB
:103070003C601420FFF76CFC2E601420FFF768FC06
:10308000F8BD00BF84824042B402414210B5064CF4
:10309000002323600A20FFF75BFC012323600A2042
:1030A000FFF756FC10BD00BFB402414230B583B0FB
:1030B0000121062006F092F80223009300238DF8E8
:1030C00004308DF8063003238DF8053001258DF886
:1030D0000750124C6946204605F0C4FF4FF40053D8
:1030E00000938DF804500E4D6946284605F0BAFF4E
:1030F000FFF7BCFC2B6823F040632B602B6843F088
:1031000080632B60236823F00C032360236843F063
:1031100004032360FFF7BAFF03B030BD0004024090
:103120000008024010B50446FFF7CCFCBA20FFF7B8
:103130006BFDFFF703FD200AFFF766FDFFF7FEFCBE
:10314000E0B2FFF761FDFFF7F9FC012010BD38B5D3
:1031500005460C46FFF7B6FC2846FFF7E3FF20467E
:10316000FFF752FDFFF7EAFCFFF7CAFC012038BD6C
:1031700070B504460D461646FFF7A4FC2046FFF73F
:10318000D1FFFFF79FFC1420FFF7A6FBBB20FFF742
:103190003BFDFFF7D3FC0024AC4209D2681E201A85
:1031A00018BF0120FFF758FD30550134E4B2F3E7B2
:1031B000FFF7A6FC012070BD00B583B0FFF776FFD6
:1031C000BA20FFF741FF3220FFF72CFF01AA0421AC
:1031D00048F24010FFF7CCFF9DF80430392B03D0A4
:1031E000002003B05DF804FB0120FAE72DE9F0416F
:1031F0008CB0B84B1A780132D2B21A70B64BA3FB1E
:103200000213DB0803EB83035900511A11F0FF0F7F
:1032100002D0092A00F2388101AA2A2148F24E1070
:10322000FFF7A6FF9DF804309DF90420002A09DB72
:103230009DF8044014F00F0000F02781052833D9D1
:10324000002022E103F00F03052BF1D8002148F202
:103250004E10FFF77CFFEBE741F010010133DBB2CA
:10326000834224D2DA0001320CAD2A4412F82C2C0D
:10327000042AF3D801A555F822F000BFA3320008B4
:103280009D32000897320008913200085932000838
:1032900041F00801E2E741F00401DFE741F00201FB
:1032A000DCE741F00101D9E700210B46D8E78B4B61
:1032B0001E7E41F0C00119769A889A81DA89DA82F5
:1032C00000235AE001282DD0022800F08480032832
:1032D00051D1D800C51C0CAF3D4415F82C7C851C81
:1032E0000DF1300C654415F82CCC0CEB072C7B4D04
:1032F0001F1D05EB4707A7F806C0794FBF8800F1EF
:10330000050C0DF1300EF4441CF82CCC0430704444
:1033100010F82C0C00EB0C2080B2381A05EB43029D
:10332000908028E06E48C788D800C51C0DF1300C8D
:10333000654415F82CEC00F1020C0CADAC441CF803
:103340002C5C05EB0E25ADB27D1B644F03F1040C24
:1033500007EB4C0CACF80650451D0DF1300C6544E4
:1033600015F82C5C0430604410F82C0C00EB0520A0
:1033700007EB430290800133DBB2042B5BD81A4683
:1033800041FA03F010F0010FF5D05548807A00287B
:1033900098D1D800C51C0CAF3D4415F82CCC851C29
:1033A0003D4415F82C7C07EB0C274C4D05EB430CEA
:1033B000ACF80470471D0DF1300C674417F82C7CF5
:1033C0000430604410F82C0C00EB0720043205EBAD
:1033D0004205E880CFE7DFF808E1BEF80470D800C6
:1033E000C51C0DF1300C654415F82C8C00F1020C55
:1033F0000CADAC441CF82C5C05EB0825ADB27D1B74
:10340000364F07EB430CACF80450BEF8065000F101
:10341000050C0DF1300EF4441CF82CCC0430704433
:1034200010F82C0C00EB0C2080B2281A043207EBA9
:103430004207F8809FE7294B9A88294B9B889A423C
:1034400005D8264BDA89264BDB889A4217D914F027
:103450000E0F09D0214BDA889A801A8ADA811D4B27
:1034600000221A70012010E01C4B9A899A80DA8A97
:10347000DA8180228DF804201E76012005E0154BAC
:1034800000221A70012000E000209DF8043003F0B3
:103490008F03802B09D00F4B1B78F02B02D90D4BDB
:1034A0000A221A700CB0BDE8F0810C4A137E92F922
:1034B0001820002A08DB094A4FF6FF719180D1815C
:1034C00023F01F031376E6E703F07F03034A137626
:1034D000E1E700BFE1000020CDCCCCCC780000209B
:1034E000E800002010B5144601F0B8F9204600F0BD
:1034F000E3FE10BD2DE9F041BDF81860151AADB21C
:103500000135ADB2A3EB01081FFA88F808F10108F4
:103510001FFA88F801F056F8002708E0304600F05E
:10352000CBFE0134A4B2AC42F8D30137BFB2474559
:1035300001D20024F7E7064B9A88DB88013B013A69
:103540009BB292B20021084601F03CF8BDE8F08140
:10355000E80000202DE9F04F83B08046A2EB000A7E
:103560008946A3EB010BBAF1000F0DDD0122009299
:10357000BBF1000F14DD01230193DA451CDD564633
:1035800000252F462C461BE0BAF1000F05D0A0EB1A
:10359000020A4FF0FF320092EAE7CDF800A0E7E719
:1035A000BBF1000F05D0A1EB030B4FF0FF330193EC
:1035B000E3E7CDF804B0E0E75E46E1E70134A4B20A
:1035C000731C9C4212DC1FFA89F11FFA88F001F08B
:1035D0004BF957445D44BE4202DABF1B009B98443E
:1035E000AE42EBDAAD1B019B9944E7E703B0BDE8BF
:1035F000F08F2DE9F84FBDF8286084B21FFA82F8E9
:1036000004EB080B1FFA8BFB8DB21FFA83FA05EB54
:103610000A091FFA89F9324649465846FFF762FF00
:10362000A4EB0807BFB2324649463846FFF75AFFB7
:10363000A5EB0A091FFA89F9324649465846FFF7B1
:1036400051FF324649463846FFF74CFF04EB0A0764
:10365000BFB208EB05091FFA89F9324649463846D8
:10366000FFF740FFA4EB0A04A4B2324649462046C5
:10367000FFF738FFA5EB0805ADB2324629463846BC
:10368000FFF730FF324629462046FFF72BFFBDE803
:10369000F88F2DE9F04782B00746884691461D46CF
:1036A0000A9C4FEA430ACAF1030A24B3002614E035
:1036B000CDF800902346324641463846FFF799FF41
:1036C0000134A542F4DABAF1000F0ADB731B0AEBEE
:1036D000830A0AF10A0A013D0136AE421FDC344674
:1036E000EFE70AEB860A0AF1060AF5E70AEB840A15
:1036F0000AF1060A0134AC4211DCCDF800902B46E9
:10370000224641463846FFF774FFBAF1000FEDDB61
:10371000631B0AEB830A0AF10A0A013DEAE702B0D9
:10372000BDE8F0872DE9F04F87B0BDF84080BDF8C7
:1037300044B040454DD390454BD8884549D898452D
:1037400047D88146141A03948A465D1A0295002CC4
:103750000FDD01220492029A002A14DD0123059351
:10376000039E029A964200DC164600252F462C4600
:1037700015E02CB1821A03924FF0FF320492EAE76F
:10378000039A0492E7E72AB1CB1A02934FF0FF3372
:103790000593E5E7029B0593E2E70134A4B2731CAD
:1037A0009C4216DC0123009343465A465146484644
:1037B000FFF76FFF039B1F44029B1D44BE4202DACA
:1037C000BF1B049B9944AE42E7DAAD1B059B9A44AC
:1037D000E3E707B0BDE8F08F2DE9F04F85B08B46E9
:1037E00017461D469DF83C909DF840400194464B7D
:1037F0001A8802929DF838A0AAF1200A5FFA8AFA84
:103800004FEA5906039000EB590292B201EB09030B
:103810009BB2013B013A9BB292B200F0D3FE84B35B
:103820004FF00008CDF804A0DDF80CA04DE00AEB45
:103830004A03364A02EB830313F80B801FE0384635
:1038400000F03AFD4FEA48085FFA88F80134E4B224
:10385000A64206D918F0800FF1D1284600F02CFDC1
:10386000F0E70BF1010B5FFA8BFBCB453AD2B9F1D4
:103870000C0FDCD0264B03EB0A1313F80B80019CD2
:10388000E6E7DDF804B0F0E7019B03EB43031F4AD2
:1038900002EB830313F8085022E06D00EDB201340F
:1038A000E4B2A6420DD9184B1F8015F0800FF4D05A
:1038B0000BEB08010AEB040089B280B200F0D4FFE0
:1038C000EBE708F101085FFA88F8C8450AD2B9F1B8
:1038D0000C0FD9D00E4B019A03EB021313F80850CA
:1038E0000024DEE7084B029A1A800A4B9A88DB888C
:1038F000013B013A9BB292B20021084600F062FE01
:1039000005B0BDE8F08F00BFE2000020B0950008D0
:10391000249A0008E80000202DE9F04184B0044614
:103920000E4617461D469DF828800FE0CDF808800A
:10393000019700930E4B1B880E4A12883146204691
:10394000FFF74AFF04EB5704A4B201352B78A3F12B
:103950002000C0B25E2807D8074A9288A24203D945
:10396000054AD288B242E1D804B0BDE8F08100BF78
:1039700066000020E2000020E8000020024601204E
:103980004B1EDBB219B102FB00F01946F8E7704795
:103990002DE9F04F85B08246894690461D469DF838
:1039A00038609DF83CB000273C4636E0BBF1000F84
:1039B0000FD0700800FB04A00293019630230093FF
:1039C000264B1B88264A1288494680B2FFF704FF1F
:1039D00021E0700800FB04A000230293019620233D
:1039E00000931E4B1B881E4A1288494680B2FFF77F
:1039F000F3FE10E0700800FB04A000220292019682
:103A00003033DBB20093154B1B88154A12884946A8
:103A100080B2FFF7E1FE0134E4B2AC421AD2291BB6
:103A2000C9B20139C9B20A20FFF7A8FFB8FBF0F00C
:103A30000C4BA3FB0023DB0803EB8303A0EB430346
:103A4000DBB2002FD6D16A1E9442D3DA002BADD060
:103A50000127CFE705B0BDE8F08F00BF660000206A
:103A6000E2000020CDCCCCCC2DE9F04F85B08346D0
:103A70000191924603939DF83C9005464FF0000853
:103A800043E0404600F018FC13E03A4BA3F800A0D6
:103A900006EB0613384A02EB43033B449A78802333
:103AA00023411A421BD10135ADB2A5EB0B03102BFC
:103AB0001AD00134E4B2072C1BD8B9F1000FE4D1BD
:103AC00006EB06132C4A02EB43033B449A7880230F
:103AD00023411A42D5D0504600F0EEFBE9E70199A8
:103AE000284600F0C1FEDEE7019B01339BB2019343
:103AF0005D460137FFB21F2F01D80024DBE7DDF858
:103B0000088008F101081FFA88F8B8F1470F23D898
:103B1000464608EB0813184A12F813200E9B1B7830
:103B20009A42EED108EB0813134A02EB43035A788A
:103B30000E9B5B789A42E4D101990B460F3305F155
:103B40000F029BB292B2284600F03CFD0027CDF850
:103B50000880DDF80C80CEE7084B9A88DB88013BB3
:103B6000013A9BB292B20021084600F02BFD05B04D
:103B7000BDE8F08FE200002014A00008E80000205B
:103B80002DE9F04F85B082460191914602939DF850
:103B90003C8005464FF0000B41E0584600F08CFB9E
:103BA00012E0394BA3F80090384A4A2303FB07235D
:103BB00033449A78802323411A421AD10135ADB299
:103BC000A5EB0A03182B19D00134E4B2072C1AD83C
:103BD000B8F1000FE5D12D4A4A2303FB07233344F4
:103BE0009A78802323411A42D7D0484600F064FBDC
:103BF000EAE70199284600F037FEDFE7019B013331
:103C00009BB2019355460136F6B2472E01D80024E7
:103C1000DCE7DDF80CB00BF1010B1FFA8BFBBBF1FD
:103C2000060F22D85F464A2303FB0BF3174AD25CE8
:103C30000E9B1B789A42EED1144A4A2303FB0B23B6
:103C40005A780E9B5B789A42E5D101990B4617335F
:103C500005F117029BB292B2284600F0B3FC002691
:103C6000CDF80CB0DDF808B0CFE7094B9A88DB88B7
:103C7000013B013A9BB292B20021084600F0A2FC3F
:103C800005B0BDE8F08F00BFE2000020A4A9000845
:103C9000E80000202DE9F04F85B082460191914661
:103CA00002939DF83C8005464FF0000B44E05846D7
:103CB00000F002FB13E03B4BA3F8009006EB8613E9
:103CC000394A02EB43033B449A78802323411A424A
:103CD0001BD10135ADB2A5EB0A03202B1AD001345C
:103CE000E4B2072C1BD8B8F1000FE4D106EB861321
:103CF0002D4A02EB43033B449A78802323411A4226
:103D0000D5D0484600F0D8FAE9E70199284600F0F6
:103D1000ABFDDEE7019B01339BB2019355460137B2
:103D2000FFB217F0800F01D10024DAE7DDF80CB004
:103D30000BF1010B1FFA8BFBBBF1030F23D85E467F
:103D40000BEB8B13184A12F813200E9B1B789A4228
:103D5000EED10BEB8B13144A02EB43035A780E9B04
:103D60005B789A42E4D101990B461F3305F11F029B
:103D70009BB292B2284600F025FC0027CDF80CB08B
:103D8000DDF808B0CDE7094B9A88DB88013B013AA2
:103D90009BB292B20021084600F014FC05B0BDE8C9
:103DA000F08F00BFE2000020ACAB0008E80000206C
:103DB0002DE9F04F87B00590884692460493109FF6
:103DC0009DF844609DF848B004464FF000092FE08C
:103DD000B0441FFA88F80137059C013728E0CDF878
:103DE00008B001960093049B524641462046FFF7D7
:103DF000F3FC2C44A4B2F0E72D4B9B889B1B9C4208
:103E000053DC2B4BDB889B1B98454EDC202E35D09A
:103E1000182E3DD0CDF804B00097049B5246414681
:103E20002046FFF721FE02373444A4B24FF00009C8
:103E30003B78002B39D0B9F1000FDDD11C4A9288B4
:103E40007508A2EB560294422FDC194AD288921BC5
:103E500090452ADC802B25D80D2BB9D0102EBED949
:103E6000CDF808B0102201920093049B52464146BF
:103E70002046FFF7B1FC0834A4B2AEE7CDF804B099
:103E80000097049B524641462046FFF703FFCAE7CE
:103E9000CDF804B00097049B524641462046FFF7F8
:103EA0006FFEC0E74FF00109C2E707B0BDE8F08F31
:103EB000E80000202DE9F04184B00D4616461F466B
:103EC000DDF828804046FCF7DBFA0C4B9C8880B27A
:103ED000A4EBC00000EBD0709DF8303002939DF849
:103EE0002C300193CDF800803B4632462946C0F382
:103EF0004F00FFF75DFF04B0BDE8F081E80000204F
:103F000010B582B00121022005F068F94FF440732A
:103F1000009301248DF8044000238DF8063003231C
:103F20008DF805308DF807406946044805F09AF889
:103F3000034B1C6004331C6002B010BD000402403F
:103F4000A082404270B50C4B1A6822F440221A60DD
:103F50001A6842F480221A60084E01233360084C2C
:103F600023600420FEF7B8FC002535600420FEF72E
:103F7000B3FC256070BD00BF00040240A482404233
:103F8000A082404238B50C4B1A6822F440221A60D5
:103F90001A6842F480221A60084D00232B60084CF6
:103FA00023600420FEF798FC01232B60236004208B
:103FB000FEF792FC38BD00BF00040240A0824042E0
:103FC000A482404210B5114B1A6822F440221A60B4
:103FD0001A681A6001240E4B1C602046FEF77CFC18
:103FE0000C4B1C602046FEF777FC00230A4A12683F
:103FF0003AB10133DBB2FA2BF8D9FFF7C3FF012046
:1040000002E00020034B186010BD00BF0004024016
:10401000A4824042A08240422482404238B50C4CE7
:10402000002525600B4B1A6822F440221A601A689A
:1040300042F480221A60084B1D600220FEF74CFCFF
:10404000012323600220FEF747FC256038BD00BF36
:10405000A082404200040240A482404270B50C4C51
:10406000002525600B4B1A6822F440221A601A685A
:1040700042F480221A600126074B1E600220FEF7E0
:104080002BFC26600220FEF727FC256070BD00BFD8
:10409000A082404200040240A482404270B505461E
:1040A000124B1A6822F440221A601A6842F48022E5
:1040B0001A6000240E4B1C6014E0EA090D4B1A60D4
:1040C0006D00EDB20220FEF707FC094E01233360BC
:1040D0000220FEF701FC002333600220FEF7FCFB08
:1040E0000134E4B2072CE8D970BD00BF00040240DF
:1040F000A0824042A4824042F8B50746144B1A6899
:1041000022F440221A601A681A600024264604E04D
:104110000120FEF7E1FB731CDEB2072E10D80D4D17
:1041200000232B600220FEF7D7FB01232B609C406D
:10413000E4B2094B1B68002BEAD00134E4B2E7E794
:104140001FB9FFF78BFF2046F8BDFFF767FFFAE7BF
:1041500000040240A08240422482404210B582B056
:104160000121112005F03AF81023009300238DF867
:10417000043003238DF8053001248DF8074069468B
:10418000064804F06FFF009402238DF8073069465B
:10419000034804F067FF02B010BD00BF00100240EA
:1041A0000000024008B510B1174B01221A70164BDF
:1041B0001B7833B1154B1B684BB1154B1B68012B9A
:1041C00005D0124B1B68012B10D0002008BD0A201F
:1041D000FEF7BEFB0C4B00221A700C4B1B686BB138
:1041E0000B4B1B68012B0BD01046EFE7084B1B68ED
:1041F00043B9054B01221A700020E7E70120E5E7EB
:104200000220E3E70020E1E76500002010024242BF
:104210000002404282B0ADF80600BDF806309BB205
:10422000ADF80630BDF806309BB2024A138002B0EA
:10423000704700BFFEFF016082B0ADF80600BDF818
:1042400006309BB2ADF80630BDF806309BB2024A8C
:10425000538002B0704700BFFEFF016082B0054B83
:104260005B889BB2ADF80630BDF8060080B202B0A4
:10427000704700BFFEFF0160014B188059807047F6
:10428000FEFF016070B50C461546FFF7C3FF6E1EBA
:104290004DB1FFF7E3FF24F8020B4FF49670FEF7E1
:1042A0001BFB3546F3E770BD08B5024B9889FFF755
:1042B000B1FF08BDE8000020014B5880704700BFE7
:1042C000FEFF01600000000010B50446BE20FFF7AD
:1042D000A1FF0520FFF7B0FF2046FDF789FF0CA3E3
:1042E000D3E90023FDF7EEFFFEF79CFA80B2FFF75B
:1042F000A3FF0120FFF7A0FFFF20FFF79DFF002095
:10430000FFF79AFF0020FFF797FF10BDAFF3008083
:1043100066666666666604402DE9F043A1B0012139
:104320001A2004F05BFF0121084604F065FF4FF4FA
:1043300000431E9301278DF87C7000248DF87E4089
:104340004FF002098DF87D908DF87F701EA96C48A2
:1043500004F088FE4FF400531E938DF87C708DF8A6
:104360007E404FF003088DF87D808DF87F70654D9D
:104370001EA9284604F076FE4CF233731E938DF886
:104380007C908DF87E408DF87D808DF87F701EA921
:10439000284604F067FE4FF680731E938DF87C90DC
:1043A0008DF87E408DF87D808DF87F70564E1EA969
:1043B000304604F057FE4FF408631E938DF87C904E
:1043C0008DF87E408DF87D808DF87F701EA928467F
:1043D00004F048FE0C222146284604F08BFE0C22F5
:1043E0003946284604F086FE0C220421284604F0B3
:1043F00081FE0C220521284604F07CFE0C220821B7
:10440000284604F077FE0C220921284604F072FEAB
:104410000C220A21284604F06DFE0C220E212846AB
:1044200004F068FE0C220F21284604F063FE0C22E3
:104430000721304604F05EFE0C220821304604F0CD
:1044400059FE0C220921304604F054FE0C220A21A8
:10445000304604F04FFE0C220B21304604F04AFE99
:104460000C221146304604F045FE0C220D21304648
:1044700004F040FE0C220E21304604F03BFE0C22DC
:104480000F21304604F036FE0C220721284604F0A6
:1044900031FE0C220B21284604F02CFE0F2308933A
:1044A00009943C230A930B940C940D940E940923C5
:1044B00001930294082303930494059406940794AB
:1044C0000F94109411941023129313941594149430
:1044D000169417944FF48053189319944FF4804313
:1044E0001A931B9408AB1C9301AB1D930FA804F007
:1044F00041FD3946204604F09FFD21B0BDE8F08320
:1045000000040240000C0240001002402B4B1A68CD
:1045100022F00F021A601A6822F470621A60284BA7
:104520001B8949F24132934220D049F2864293429C
:1045300026D049F28842934222D045F2103293426B
:104540001ED047F2967293421AD041F663129342FC
:1045500016D04BF2095293421CD047F29372934209
:1045600018D045F2105293421ED07047134B1A6870
:1045700042F004021A601A6842F440721A607047EE
:104580000E4B1A6842F004021A601A6842F4806204
:104590001A607047094B1A6842F005021A601A68DF
:1045A00042F480621A607047044B1A6842F00302BA
:1045B0001A601A6842F400721A60D6E7040100A07B
:1045C000E80000202DE9F84305460C4617461E4634
:1045D0004FF00008C146924B1B894BF2095293429F
:1045E00037D047F29372934233D045F21052934240
:1045F00000F0958041F66312934200F0DD80DFF811
:104600002082B8F81000FFF705FEC5F30F20FFF772
:1046100013FEE8B2FFF710FEC7F30F20FFF70CFE02
:10462000F8B2FFF709FEB8F81200FFF7F3FDC4F384
:104630000F20FFF701FEE0B2FFF7FEFDC6F30F20EB
:10464000FFF7FAFDF0B2FFF7F7FDFFF72DFEBDE82B
:10465000F883734B9B7A032B41D8DFE803F03E02CB
:10466000152B6F4BD9888B1B9BB2013BA1EB040828
:104670001FFA88F808F1FF381FFA88F8A9463E4665
:1046800047462C469DB22AE0654B9888C21B92B2E1
:10469000013A471BBFB2013FBFB2D9888B1B9BB207
:1046A000013B0E1BB6B2013EB6B2B146B8469CB253
:1046B00095B214E05A4B9888C31B9BB2013BA0EB08
:1046C00005091FFA89F909F1FF391FFA89F9A0468E
:1046D00037464E4625469CB201E0A146A8462946EB
:1046E0004FF40470FFF7C8FD214640F21220FFF797
:1046F000C3FD394640F21120FFF7BEFD314640F2BE
:104700001320FFF7B9FD464C4146208AFFF7B4FD60
:104710004946608AFFF7B0FDFFF7C6FD97E7DFF86F
:104720000081B8F81000FFF775FDC5F30F20FFF703
:1047300083FDB8F81000013080B2FFF76BFDE8B2DE
:10474000FFF77AFDB8F81000023080B2FFF762FD83
:10475000C7F30F20FFF770FDB8F81000033080B2E8
:10476000FFF758FDF8B2FFF767FDB8F81200FFF742
:1047700051FDC4F30F20FFF75FFDB8F812000130C0
:1047800080B2FFF747FDE0B2FFF756FDB8F8120020
:10479000023080B2FFF73EFDC6F30F20FFF74CFD5D
:1047A000B8F81200033080B2FFF734FDF0B2FFF723
:1047B00043FDFFF779FD4AE7194B9B7A022B0FD097
:1047C000032B18D0002B7FF41AAF154B9B88DA1BF4
:1047D00092B2013A1F1ABFB2013FBFB295B20EE7C3
:1047E0000F4BDB889A1B92B2013A5E1AB6B2013EB9
:1047F000B6B294B203E70A498B88DA1B92B2013A47
:104800001F1ABFB2013FBFB2CB88991B89B20139D1
:104810001E1BB6B2013EB6B28CB295B2EFE600BF37
:10482000E800002038B504460A4B9A88DB8803FB71
:1048300002F5013B013A9BB292B200210846FFF714
:10484000C1FE0023AB4203D2034A54800133F9E78F
:1048500038BD00BFE8000020FEFF016008B5024639
:104860000B46FFF7AFFE08BD08B5FFF7F7FF024B99
:104870001888FFF721FD08BDE200002000B583B0D5
:1048800000230093019300F003008C4B987210F00A
:10489000010148D05A889A801A88DA80874B1B8990
:1048A00049F24132934244D049F28642934240D089
:1048B00049F2884293423CD045F21032934238D0BC
:1048C00047F29672934234D045F21052934200F070
:1048D00095804BF20952934200F0AD8047F29372FB
:1048E000934200F0A88041F66312934259D1002907
:1048F00000F0BF80714B2A221A822B225A826F4B02
:104900002C229A812E22DA8136229A82A023ADF8B7
:1049100000300023ADF802306023ADF80430C0232E
:10492000ADF806303DE0654B1A889A805A88DA80E7
:10493000B4E7624A2A2111822B2151822C219181D4
:104940002E21D1813621918249F2413293421CD0ED
:1049500049F2864293422AD049F28842934233D0A8
:1049600045F2103293423CD047F29672934218D1EE
:104970004823ADF800302823ADF802309823ADF875
:104980000430F823ADF806300BE00823ADF8003012
:104990006823ADF80230C823ADF80430A823ADF881
:1049A0000630032871D8DFE800F06A737A81482363
:1049B000ADF800303823ADF802308823ADF804306C
:1049C000E823ADF80630ECE70823ADF800306823A3
:1049D000ADF80230C823ADF80430A823ADF8063096
:1049E000DFE70023ADF800306023ADF80230C023CC
:1049F000ADF80430A023ADF80630D2E72F4B4FF4CA
:104A000028521A824FF42C525A824FF430529A8113
:104A10004FF43852DA814FF458529A820023ADF89D
:104A200000306023ADF80230C023ADF80430A0237D
:104A3000ADF80630B5E7214B4FF400721A8240F210
:104A400001225A8240F202229A81DA8103229A825A
:104A500041F23003ADF8003041F22803ADF80230E6
:104A60004FF48053ADF8043041F21803ADF806302E
:104A700097E7124B2B221A822A225A823FE7BDF86F
:104A800000100E4B988AFFF7F7FB03B05DF804FBAC
:104A9000BDF80210094B988AFFF7EEFBF5E7BDF869
:104AA0000410064B988AFFF7E7FBEEE7BDF8061007
:104AB000024B988AFFF7E0FBE7E700BFE800002021
:104AC00000B583B0012269460020FFF7DBFBBDF88B
:104AD00000004BF20953984200F0828047F2937332
:104AE00098427DD004226946D320FFF7CBFBBDF866
:104AF0000430BDF9060040EA032080B2ADF80000A2
:104B000049F2413398426BD049F28643984267D0CC
:104B100049F28843984263D047F2967398425FD037
:104B200004226946D420FFF7ADFBBDF80430BDF97F
:104B3000060040EA032080B2ADF8000045F21033D1
:104B400098424DD003226946A120FFF79BFBBDF898
:104B50000220BDF9043043EA02239BB2ADF80030D5
:104B600045F2617293423ED04FF47040FFF752FB22
:104B70005520FFF761FB4FF20100FFF74BFBAA2026
:104B8000FFF75AFB4FF20200FFF744FB5220FFF7FA
:104B900053FB4FF20300FFF73DFB0820FFF74CFBF0
:104BA0004FF20400FFF736FB0120FFF745FB01221F
:104BB0000DF102014FF44540FFF764FB012201A90A
:104BC0004CF20150FFF75EFBBDF80230BDF9040066
:104BD00040EA032080B245F21053984200D00020F2
:104BE00003B05DF804FB41F66310F9E710B5FFF779
:104BF00093FBFFF765FF0146794C20817948FBF76D
:104C0000AFFBFFF783FC6420FDF7A2FE238947F288
:104C10009672934201F0988740F2E68049F286420C
:104C2000934201F0A88641F2738549F2884293428B
:104C300041F09886F720FFF7EDFAA920FFF7FCFA7C
:104C40005120FFF7F9FA2C20FFF7F6FA8220FFF740
:104C5000F3FAC020FFF7DEFA1120FFF7EDFA092082
:104C6000FFF7EAFAC120FFF7D5FA4120FFF7E4FA8F
:104C7000C520FFF7CFFA0020FFF7DEFA0A20FFF782
:104C8000DBFA8020FFF7D8FAB120FFF7C3FAB02093
:104C9000FFF7D2FA1120FFF7CFFAB420FFF7BAFAE4
:104CA0000220FFF7C9FAB620FFF7B4FA0220FFF797
:104CB000C3FA2220FFF7C0FAB720FFF7ABFAC620ED
:104CC000FFF7BAFABE20FFF7A5FA0020FFF7B4FA03
:104CD0000420FFF7B1FAE920FFF79CFA0020FFF764
:104CE000ABFA3620FFF796FA0820FFF7A5FA3A202C
:104CF000FFF790FA5520FFF79FFAE020FFF78AFAB6
:104D00000020FFF799FA0720FFF796FA1020FFF727
:104D100093FA0920FFF790FA1720FFF78DFA0B207E
:104D2000FFF78AFA4120FFF787FA8920FFF784FA14
:104D30004B20FFF781FA0A20FFF77EFA0C20FFF7DD
:104D40007BFA0E20FFF778FA1820FFF775FA1B2080
:104D5000FFF772FA0F20FFF76FFAE120FFF75AFA18
:104D60000020FFF769FA1720FFF766FA1A20FFF70D
:104D700063FA0420FFF760FA0E20FFF75DFA0620C1
:104D8000FFF75AFA2F20FFF757FA4520FFF754FA9A
:104D90004320FFF751FA0220FFF74EFA0A20FFF7EF
:104DA0004BFA0920FFF748FA3220FFF745FA362080
:104DB000FFF742FA0F20FFF73FFA1120FFF72AFA18
:104DC0007820FDF7C5FD2920FFF724FA044B4FF4A6
:104DD000A0721A804FF4F0725A8001F0B8BD00BF83
:104DE000E8000020B4AD000845F21032934201F013
:104DF000A38741F2C68245F21052934241F0868366
:104E00004FF47040FFF706FA5520FFF715FA4FF2FE
:104E10000100FFF7FFF9AA20FFF70EFA4FF2020098
:104E2000FFF7F8F95220FFF707FA4FF20300FFF7F8
:104E3000F1F90820FFF700FA4FF20400FFF7EAF952
:104E40000120FFF7F9F94FF43640FFF7E3F934207A
:104E5000FFF7F2F94BF20160FFF7DCF93420FFF7BE
:104E6000EBF94BF20260FFF7D5F93420FFF7E4F9D4
:104E70004FF43040FFF7CEF90D20FFF7DDF94BF28C
:104E80000100FFF7C7F90D20FFF7D6F94BF202003A
:104E9000FFF7C0F90D20FFF7CFF94FF43740FFF7C8
:104EA000B9F92420FFF7C8F94BF20170FFF7B2F906
:104EB0002420FFF7C1F94BF20270FFF7ABF9242071
:104EC000FFF7BAF94FF43140FFF7A4F90D20FFF7CF
:104ED000B3F94BF20110FFF79DF90D20FFF7ACF984
:104EE0004BF20210FFF796F90D20FFF7A5F94FF4EA
:104EF0003840FFF78FF92420FFF79EF94BF60100A9
:104F0000FFF788F92420FFF797F94BF60200FFF727
:104F100081F92420FFF790F94FF43240FFF77AF936
:104F20000020FFF789F94FF43940FFF773F9242087
:104F3000FFF782F94BF60110FFF76CF92420FFF719
:104F40007BF94BF60210FFF765F92420FFF774F99F
:104F50004FF43340FFF75EF90520FFF76DF94BF290
:104F60000130FFF757F90520FFF766F94BF20230E1
:104F7000FFF750F90520FFF75FF94FF43A40FFF7CC
:104F800049F93420FFF758F94BF60120FFF742F9B1
:104F90003420FFF751F94BF60220FFF73BF934209C
:104FA000FFF74AF94FF43540FFF734F90B20FFF7CC
:104FB00043F94BF20150FFF72DF90B20FFF73CF9B5
:104FC0004BF20250FFF726F90B20FFF735F94FF4AB
:104FD0003C40FFF71FF90020FFF72EF94BF6014088
:104FE000FFF718F9A320FFF727F94BF60240FFF768
:104FF00011F90020FFF720F94FF43D40FFF70AF9BF
:105000000020FFF719F94BF60150FFF703F9A32031
:10501000FFF712F94BF60250FFF7FCF80020FFF7FC
:105020000BF94FF43E40FFF7F5F80020FFF704F9C5
:105030004BF60160FFF7EEF86320FFF7FDF84FF441
:105040005140FFF7E7F80020FFF7F6F84DF20110A6
:10505000FFF7E0F83720FFF7EFF84DF20210FFF707
:10506000D9F80020FFF7E8F84DF20310FFF7D2F867
:105070005220FFF7E1F84DF20410FFF7CBF80020C3
:10508000FFF7DAF84DF20510FFF7C4F87B20FFF7C1
:10509000D3F84DF20610FFF7BDF80020FFF7CCF86B
:1050A0004DF20710FFF7B6F89920FFF7C5F84DF25B
:1050B0000810FFF7AFF80020FFF7BEF84DF2091017
:1050C000FFF7A8F8B120FFF7B7F84DF20A10FFF785
:1050D000A1F80020FFF7B0F84DF20B10FFF79AF897
:1050E000D220FFF7A9F84DF20C10FFF793F800203B
:1050F000FFF7A2F84DF20D10FFF78CF8F620FFF73E
:105100009BF84DF20E10FFF785F80120FFF794F899
:105110004DF20F10FFF77EF82720FFF78DF84DF2C4
:105120001010FFF777F80120FFF786F84DF2111005
:10513000FFF770F84E20FFF77FF84DF21210FFF7DF
:1051400069F80120FFF778F84DF21310FFF762F8C5
:105150008C20FFF771F84DF21410FFF75BF8012077
:10516000FFF76AF84DF21510FFF754F8BE20FFF76D
:1051700063F84DF21610FFF74DF80220FFF75CF8C8
:105180004DF21710FFF746F80B20FFF755F84DF2D8
:105190001810FFF73FF80220FFF74EF84DF21910F4
:1051A000FFF738F84820FFF747F84DF21A10FFF7DD
:1051B00031F80220FFF740F84DF21B10FFF72AF8F4
:1051C0004A20FFF739F84DF21C10FFF723F80220B0
:1051D000FFF732F84DF21D10FFF71CF87E20FFF7A5
:1051E0002BF84DF21E10FFF715F80220FFF724F8F8
:1051F0004DF21F10FFF70EF8BC20FFF71DF84DF21F
:105200002010FFF707F80220FFF716F84DF22110E3
:10521000FFF700F8E120FFF70FF84DF22210FEF73C
:10522000F9FF0320FFF708F84DF22310FEF7F2FF15
:105230001020FFF701F84DF22410FEF7EBFF0320DA
:10524000FEF7FAFF4DF22510FEF7E4FF3120FEF7DE
:10525000F3FF4DF22610FEF7DDFF0320FEF7ECFF13
:105260004DF22710FEF7D6FF5A20FEF7E5FF4DF26C
:105270002810FEF7CFFF0320FEF7DEFF4DF22910C6
:10528000FEF7C8FF7320FEF7D7FF4DF22A10FEF796
:10529000C1FF0320FEF7D0FF4DF22B10FEF7BAFF3F
:1052A0009420FEF7C9FF4DF22C10FEF7B3FF032048
:1052B000FEF7C2FF4DF22D10FEF7ACFF9F20FEF768
:1052C000BBFF4DF22E10FEF7A5FF0320FEF7B4FF43
:1052D0004DF22F10FEF79EFFB320FEF7ADFF4DF20B
:1052E0003010FEF797FF0320FEF7A6FF4DF23110B6
:1052F000FEF790FFB920FEF79FFF4DF23210FEF748
:1053000089FF0320FEF798FF4DF23310FEF782FF6E
:10531000C120FEF791FF4FF45240FEF77BFF0020C3
:10532000FEF78AFF4DF20120FEF774FF3720FEF7EB
:1053300083FF4DF20220FEF76DFF0020FEF77CFF99
:105340004DF20320FEF766FF5220FEF775FF4DF287
:105350000420FEF75FFF0020FEF76EFF4DF20520F0
:10536000FEF758FF7B20FEF767FF4DF20620FEF7A1
:1053700051FF0020FEF760FF4DF20720FEF74AFFC5
:105380009920FEF759FF4DF20820FEF743FF002059
:10539000FEF752FF4DF20920FEF73CFFB120FEF769
:1053A0004BFF4DF20A20FEF735FF0020FEF744FFC9
:1053B0004DF20B20FEF72EFFD220FEF73DFF4DF2FF
:1053C0000C20FEF727FF0020FEF736FF4DF20D20E0
:1053D000FEF720FFF620FEF72FFF4DF20E20FEF71E
:1053E00019FF0120FEF728FF4DF20F20FEF712FFF4
:1053F0002720FEF721FF4DF21020FEF70BFF0120C2
:10540000FEF71AFF4DF21120FEF704FF4E20FEF7C3
:1054100013FF4DF21220FEF7FDFE0120FEF70CFFF8
:105420004DF21320FEF7F6FE8C20FEF705FF4DF23D
:105430001420FEF7EFFE0120FEF7FEFE4DF21520D0
:10544000FEF7E8FEBE20FEF7F7FE4DF21620FEF74F
:10545000E1FE0220FEF7F0FE4DF21720FEF7DAFE25
:105460000B20FEF7E9FE4DF21820FEF7D3FE0220D6
:10547000FEF7E2FE4DF21920FEF7CCFE4820FEF7C3
:10548000DBFE4DF21A20FEF7C5FE0220FEF7D4FE29
:105490004DF21B20FEF7BEFE4A20FEF7CDFE4DF278
:1054A0001C20FEF7B7FE0220FEF7C6FE4DF21D20BF
:1054B000FEF7B0FE7E20FEF7BFFE4DF21E20FEF787
:1054C000A9FE0220FEF7B8FE4DF21F20FEF7A2FE55
:1054D000BC20FEF7B1FE4DF22020FEF79BFE02201D
:1054E000FEF7AAFE4DF22120FEF794FEE120FEF722
:1054F000A3FE4DF22220FEF78DFE0320FEF79CFE58
:105500004DF22320FEF786FE1020FEF795FE4DF2A9
:105510002420FEF77FFE0320FEF78EFE4DF22520AD
:10552000FEF778FE3120FEF787FE4DF22620FEF7CB
:1055300071FE0320FEF780FE4DF22720FEF76AFE83
:105540005A20FEF779FE4DF22820FEF763FE032075
:10555000FEF772FE4DF22920FEF75CFE7320FEF787
:105560006BFE4DF22A20FEF755FE0320FEF764FE87
:105570004DF22B20FEF74EFE9420FEF75DFE4DF21D
:105580002C20FEF747FE0320FEF756FE4DF22D209D
:10559000FEF740FE9F20FEF74FFE4DF22E20FEF755
:1055A00039FE0320FEF748FE4DF22F20FEF732FEB3
:1055B000B320FEF741FE4DF23020FEF72BFE032014
:1055C000FEF73AFE4DF23120FEF724FEB920FEF739
:1055D00033FE4DF23220FEF71DFE0320FEF72CFEB7
:1055E0004DF23320FEF716FEC120FEF725FE4FF4E4
:1055F0005340FEF70FFE0020FEF71EFE4DF2013075
:10560000FEF708FE3720FEF717FE4DF20230FEF7D8
:1056100001FE0020FEF710FE4DF20330FEF7FAFD0A
:105620005220FEF709FE4DF20430FEF7F3FD002094
:10563000FEF702FE4DF20530FEF7ECFD7B20FEF793
:10564000FBFD4DF20630FEF7E5FD0020FEF7F4FD10
:105650004DF20730FEF7DEFD9920FEF7EDFD4DF22D
:105660000830FEF7D7FD0020FEF7E6FD4DF20930C9
:10567000FEF7D0FDB120FEF7DFFD4DF20A30FEF758
:10568000C9FD0020FEF7D8FD4DF20B30FEF7C2FD3C
:10569000D220FEF7D1FD4DF20C30FEF7BBFD00200D
:1056A000FEF7CAFD4DF20D30FEF7B4FDF620FEF711
:1056B000C3FD4DF20E30FEF7ADFD0120FEF7BCFD3F
:1056C0004DF20F30FEF7A6FD2720FEF7B5FD4DF297
:1056D0001030FEF79FFD0120FEF7AEFD4DF21130B8
:1056E000FEF798FD4E20FEF7A7FD4DF21230FEF7B3
:1056F00091FD0120FEF7A0FD4DF21330FEF78AFD6B
:105700008C20FEF799FD4DF21430FEF783FD012049
:10571000FEF792FD4DF21530FEF77CFDBE20FEF740
:105720008BFD4DF21630FEF775FD0220FEF784FD6D
:105730004DF21730FEF76EFD0B20FEF77DFD4DF2AA
:105740001830FEF767FD0220FEF776FD4DF21930A6
:10575000FEF760FD4820FEF76FFD4DF21A30FEF7B0
:1057600059FD0220FEF768FD4DF21B30FEF752FD99
:105770004A20FEF761FD4DF21C30FEF74BFD022082
:10578000FEF75AFD4DF21D30FEF744FD7E20FEF778
:1057900053FD4DF21E30FEF73DFD0220FEF74CFD9D
:1057A0004DF21F30FEF736FDBC20FEF745FD4DF2F1
:1057B0002030FEF72FFD0220FEF73EFD4DF2213096
:1057C000FEF728FDE120FEF737FD4DF22230FEF70F
:1057D00021FD0320FEF730FD4DF22330FEF71AFDC8
:1057E0001020FEF729FD4DF22430FEF713FD0320B3
:1057F000FEF722FD4DF22530FEF70CFD3120FEF7BD
:105800001BFD4DF22630FEF705FD0320FEF714FDCB
:105810004DF22730FEF7FEFC5A20FEF70DFD4DF24B
:105820002830FEF7F7FC0320FEF706FD4DF2293085
:10583000FEF7F0FC7320FEF7FFFC4DF22A30FEF776
:10584000E9FC0320FEF7F8FC4DF22B30FEF7E2FCFA
:105850009420FEF7F1FC4DF22C30FEF7DBFC032028
:10586000FEF7EAFC4DF22D30FEF7D4FC9F20FEF748
:10587000E3FC4DF22E30FEF7CDFC0320FEF7DCFCFE
:105880004DF22F30FEF7C6FCB320FEF7D5FC4DF2EB
:105890003030FEF7BFFC0320FEF7CEFC4DF2313076
:1058A000FEF7B8FCB920FEF7C7FC4DF23230FEF728
:1058B000B1FC0320FEF7C0FC4DF23330FEF7AAFC2A
:1058C000C120FEF7B9FC4FF45440FEF7A3FC0020C2
:1058D000FEF7B2FC4DF20140FEF79CFC3720FEF7CC
:1058E000ABFC4DF20240FEF795FC0020FEF7A4FC55
:1058F0004DF20340FEF78EFC5220FEF79DFC4DF268
:105900000440FEF787FC0020FEF796FC4DF20540B0
:10591000FEF780FC7B20FEF78FFC4DF20640FEF781
:1059200079FC0020FEF788FC4DF20740FEF772FC80
:105930009920FEF781FC4DF20840FEF76BFC002039
:10594000FEF77AFC4DF20940FEF764FCB120FEF749
:1059500073FC4DF20A40FEF75DFC0020FEF76CFC84
:105960004DF20B40FEF756FCD220FEF765FC4DF2DF
:105970000C40FEF74FFC0020FEF75EFC4DF20D40A0
:10598000FEF748FCF620FEF757FC4DF20E40FEF7FE
:1059900041FC0120FEF750FC4DF20F40FEF73AFCAF
:1059A0002720FEF749FC4DF21040FEF733FC0120A2
:1059B000FEF742FC4DF21140FEF72CFC4E20FEF7A4
:1059C0003BFC4DF21240FEF725FC0120FEF734FCB3
:1059D0004DF21340FEF71EFC8C20FEF72DFC4DF21D
:1059E0001440FEF717FC0120FEF726FC4DF215408F
:1059F000FEF710FCBE20FEF71FFC4DF21640FEF72E
:105A000009FC0220FEF718FC4DF21740FEF702FCDD
:105A10000B20FEF711FC4DF21840FEF7FBFB0220B5
:105A2000FEF70AFC4DF21940FEF7F4FB4820FEF7A2
:105A300003FC4DF21A40FEF7EDFB0220FEF7FCFBE3
:105A40004DF21B40FEF7E6FB4A20FEF7F5FB4DF258
:105A50001C40FEF7DFFB0220FEF7EEFB4DF21D407F
:105A6000FEF7D8FB7E20FEF7E7FB4DF21E40FEF767
:105A7000D1FB0220FEF7E0FB4DF21F40FEF7CAFB10
:105A8000BC20FEF7D9FB4DF22040FEF7C3FB0220FD
:105A9000FEF7D2FB4DF22140FEF7BCFBE120FEF702
:105AA000CBFB4DF22240FEF7B5FB0320FEF7C4FB13
:105AB0004DF22340FEF7AEFB1020FEF7BDFB4DF28A
:105AC0002440FEF7A7FB0320FEF7B6FB4DF225406E
:105AD000FEF7A0FB3120FEF7AFFB4DF22640FEF7AC
:105AE00099FB0320FEF7A8FB4DF22740FEF792FB3F
:105AF0005A20FEF7A1FB4DF22840FEF78BFB032056
:105B0000FEF79AFB4DF22940FEF784FB7320FEF767
