:020000040800F2
:1000000000000220557100083D6B00083F6B00089E
:10001000416B0008436B0008456B000800000000BE
:10002000000000000000000000000000476B000816
:10003000496B0008000000004B6B00084D6B000886
:10004000A5710008A5710008A5710008A571000838
:10005000A5710008A5710008A5710008A571000828
:10006000A5710008A5710008A5710008A571000818
:10007000A5710008A5710008A5710008A571000808
:10008000A5710008A5710008A5710008A5710008F8
:10009000A5710008A5710008A5710008A5710008E8
:1000A000A5710008A5710008A5710008A5710008D8
:1000B000A5710008A5710008A5710008A5710008C8
:1000C000A5710008A5710008A5710008A5710008B8
:1000D000A5710008C16A0008A5710008A571000893
:1000E000A5710008A5710008A5710008A571000898
:1000F000A5710008A5710008A5710008A571000888
:10010000A5710008A5710008A5710008A571000877
:10011000A5710008A5710008A5710008A571000867
:10012000A5710008A5710008A5710008A571000857
:10013000A5710008A5710008A5710008A571000847
:10014000A5710008A5710008A5710008A571000837
:10015000A5710008A5710008A5710008A571000827
:10016000A5710008A5710008A5710008A571000817
:10017000A5710008A5710008A57100080000000025
:08018000A5710008A57100083B
:1001900010B5054C237833B9044B13B10448AFF3C1
:1001A00000800123237010BD940000200000000097
:1001B000B887000808B5034B1BB103490348AFF3E8
:1001C000008008BD0000000098000020B8870008EB
:1001D000034613F8012B002AFBD1181A0138704787
:1001E00001F0FF01102A2BDB10F0070F08D010F8E8
:1001F000013B013A8B422DD010F0070F42B3F6D1EC
:10020000F0B441EA012141EA014122F007047FF004
:1002100000070023F0E80256083C85EA010586EA5B
:10022000010685FA47F5A3FA87F586FA47F6A5FA97
:1002300087F68EB9EED1F0BC01F0FF0102F00702A3
:1002400032B110F8013B013A83EA010313B1F8D14E
:100250000020704701387047002D06BF354603382F
:10026000073815F0010F07D1013015F4807F02BF68
:10027000013015F4C03F0130F0BC0138704700BFB9
:1002800070B54FF0FF0C4CF4E06C1CEA11541DBF2C
:100290001CEA135594EA0C0F95EA0C0F00F0DEF8F7
:1002A0002C4481EA030621EA4C5123EA4C5350EADC
:1002B000013518BF52EA033541F4801143F480132D
:1002C00038D0A0FB02CE4FF00005E1FB02E506F0BE
:1002D0000042E0FB03E54FF00006E1FB03569CF013
:1002E000000F18BF4EF0010EA4F1FF04B6F5007F19
:1002F00064F5407404D25FEA4E0E6D4146EB06068B
:1003000042EAC62141EA55514FEAC52040EA5E5013
:100310004FEACE2EB4F1FD0C88BFBCF5E06F1ED8BD
:10032000BEF1004F08BF5FEA500E50F1000041EBF4
:10033000045170BD06F0004646EA010140EA0200A1
:1003400081EA0301B4EB5C04C2BFD4EB0C0541EAC3
:10035000045170BD41F480114FF0000E013C00F3D8
:10036000AB8014F1360FDEBF002001F0004170BDFC
:10037000C4F10004203C35DA0C341BDC04F1140415
:10038000C4F1200500FA05F320FA04F001FA05F2A1
:1003900040EA020001F0004221F0004110EBD3706E
:1003A00021FA04F642EB06015EEA430E08BF20EA9A
:1003B000D37070BDC4F10C04C4F1200500FA04F33D
:1003C00020FA05F001FA04F240EA020001F00041CF
:1003D00010EBD37041F100015EEA430E08BF20EA42
:1003E000D37070BDC4F1200500FA05F24EEA020E8A
:1003F00020FA04F301FA05F243EA020321FA04F0B9
:1004000001F0004121FA04F220EA020000EBD3706F
:100410005EEA430E08BF20EAD37070BD94F0000F6F
:100420000FD101F00046400041EB010111F4801FA3
:1004300008BF013CF7D041EA060195F0000F18BF54
:10044000704703F00046520043EB030313F4801F90
:1004500008BF013DF7D043EA0603704794EA0C0F4A
:100460000CEA135518BF95EA0C0F0CD050EA410660
:1004700018BF52EA4306D1D181EA030101F00041DD
:100480004FF0000070BD50EA410606BF1046194605
:1004900052EA430619D094EA0C0F02D150EA013611
:1004A00013D195EA0C0F05D152EA03361CBF104652
:1004B00019460AD181EA030101F0004141F0FE41F1
:1004C00041F470014FF0000070BD41F0FE4141F475
:1004D000780170BD81F0004102E000BF83F000436D
:1004E00030B54FEA41044FEA430594EA050F08BFCF
:1004F00090EA020F1FBF54EA000C55EA020C7FEA93
:10050000645C7FEA655C00F0E2804FEA5454D4EB0F
:100510005555B8BF6D420CDD2C4480EA020281EAD9
:10052000030382EA000083EA010180EA020281EA11
:100530000303362D88BF30BD11F0004F4FEA013163
:100540004FF4801C4CEA113102D0404261EB410172
:1005500013F0004F4FEA03334CEA133302D05242F8
:1005600063EB430394EA050F00F0A780A4F10104B4
:10057000D5F1200E0DDB02FA0EFC22FA05F28018EE
:1005800041F1000103FA0EF2801843FA05F35941D4
:100590000EE0A5F120050EF1200E012A03FA0EFC53
:1005A00028BF4CF0020C43FA05F3C01851EBE3717D
:1005B00001F0004507D54FF0000EDCF1000C7EEB9A
:1005C00000006EEB0101B1F5801F1BD3B1F5001FD8
:1005D0000CD349085FEA30004FEA3C0C04F10104F7
:1005E0004FEA445212F5800F80F09A80BCF1004F20
:1005F00008BF5FEA500C50F1000041EB045141EAA2
:10060000050130BD5FEA4C0C404141EB0101013C6A
:1006100028BFB1F5801FE9D291F0000F04BF014659
:100620000020B1FA81F308BF2033A3F10B03B3F12B
:1006300020020CDA0C3208DD02F1140CC2F10C02BB
:1006400001FA0CF021FA02F10CE002F11402D8BF19
:10065000C2F1200C01FA02F120FA0CFCDCBF41EAE5
:100660000C019040E41AA2BF01EB0451294330BDB4
:100670006FEA04041F3C1CDA0C340EDC04F1140491
:10068000C4F1200220FA04F001FA02F340EA030068
:1006900021FA04F345EA030130BDC4F10C04C4F1AE
:1006A000200220FA02F001FA04F340EA030029468E
:1006B00030BD21FA04F0294630BD94F0000F83F4D8
:1006C000801306BF81F480110134013D4EE77FEABB
:1006D000645C18BF7FEA655C29D094EA050F08BF07
:1006E00090EA020F05D054EA000C04BF19461046E8
:1006F00030BD91EA030F1EBF0021002030BD5FEA2C
:10070000545C05D14000494128BF41F0004130BD53
:1007100014F580043CBF01F5801130BD01F00045A7
:1007200045F0FE4141F470014FF0000030BD7FEA1A
:10073000645C1ABF194610467FEA655C1CBF0B4615
:10074000024650EA013406BF52EA033591EA030F2C
:1007500041F4002130BD00BF90F0000F04BF002124
:10076000704730B54FF4806404F132044FF0000557
:100770004FF0000150E700BF90F0000F04BF0021D0
:10078000704730B54FF4806404F1320410F0004536
:1007900048BF40424FF000013EE700BF42004FEA31
:1007A000E2014FEA31014FEA02701FBF12F07F43AE
:1007B00093F07F4F81F06051704732F07F4208BF65
:1007C000704793F07F4F04BF41F40021704730B56C
:1007D0004FF4607401F0004521F000411CE700BFB8
:1007E00050EA010208BF704730B54FF000050AE03B
:1007F00050EA010208BF704730B511F0004502D53C
:10080000404261EB41014FF4806404F132045FEA3D
:10081000915C3FF4D8AE4FF003025FEADC0C18BFE6
:1008200003325FEADC0C18BF033202EBDC02C2F1D8
:10083000200300FA03FC20FA02F001FA03FE40EA6A
:100840000E0021FA02F11444BDE600BF4A0011D2A5
:1008500012F5001211D20DD56FF47873B3EB62521A
:100860000ED44FEAC12343F0004343EA505323FA26
:1008700002F070474FF00000704750EA013002D19B
:100880004FF0FF3070474FF00000704708B54FF44D
:10089000A06006F05DF9A82000F032F84FF4E130D6
:1008A00006F0B2F804F036FE01F00AFE134B002207
:1008B000C3F8842204F0A6FE05F0D4F904F002FF88
:1008C00004F080FF04F0DAFF05F08AF805F028F85C
:1008D00005F0F6F805F03AF905F0C2FF05F07EF9EB
:1008E00005F040FA05F028FB05F070FC05F016FD58
:1008F00005F0C8FD05F014FEDCE700BF0000404233
:1009000010B504466FF0040006F05EF9E008054BF0
:100910001870C0EB401300EB8300C000024B18803E
:1009200010BD00BFB2000020B00000200E4B1B78AD
:1009300003FB00F04FF0E023586100229A611A692E
:1009400042F001021A614FF0E0231B6903F001132A
:10095000012BF8D04FF0E0231A6922F001021A614E
:1009600000229A61704700BFB20000200E4B1B8826
:1009700003FB00F04FF0E023586100229A611A69EE
:1009800042F001021A614FF0E0231B6903F00113EA
:10099000012BF8D04FF0E0231A6922F001021A610E
:1009A00000229A61704700BFB000002038B50C4C9F
:1009B000A4FB0034650A2C464FF4077303FB1500B3
:1009C00085B205E04FF40770FFF7D0FF013CE4B2B9
:1009D000002CF7D105B938BD2846FFF7C7FFFAE765
:1009E00049D6B9F203880A8802800B80704710B597
:1009F000144601F08FFB204601F066F810BD0000A0
:100A00002DE9F041BDF81860151AADB20135ADB24F
:100A1000A3EB01081FFA88F808F101081FFA88F80B
:100A200001F02CFA002708E0304601F04DF80134BF
:100A3000A4B2AC42F8D30137BFB2474501D200247B
:100A4000F7E7064B9A88DB88013B013A9BB292B2EA
:100A50000021084601F012FABDE8F081B80000203C
:100A60002DE9F04F83B08046A2EB000A8946A3EB44
:100A7000010BBAF1000F0DDD01220092BBF1000F56
:100A800014DD01230193DA451CDD564600252F466F
:100A90002C461BE0BAF1000F05D0A0EB020A4FF084
:100AA000FF320092EAE7CDF800A0E7E7BBF1000FC4
:100AB00005D0A1EB030B4FF0FF330193E3E7CDF833
:100AC00004B0E0E75E46E1E70134A4B2731C9C4247
:100AD00012DC1FFA89F11FFA88F001F021FB57445C
:100AE0005D44BE4202DABF1B009B9844AE42EBDA83
:100AF000AD1B019B9944E7E703B0BDE8F08FF8B563
:100B000007460E4615461C460B46FFF7A9FF23462F
:100B10003A4631463846FFF7A3FF23462A46214688
:100B20003846FFF79DFF23462A4631462846FFF701
:100B300097FFF8BD10B582B0034C24880094FFF7EE
:100B40005FFF02B010BD00BFB40000202DE9F84FD8
:100B5000BDF8286084B21FFA82F804EB080B1FFA74
:100B60008BFB8DB21FFA83FA05EB0A091FFA89F98C
:100B7000324649465846FFF73AFFA4EB0807BFB292
:100B8000324649463846FFF732FFA5EB0A091FFAFD
:100B900089F9324649465846FFF729FF3246494609
:100BA0003846FFF724FF04EB0A07BFB208EB05093C
:100BB0001FFA89F9324649463846FFF718FFA4EB79
:100BC0000A04A4B2324649462046FFF710FFA5EBBF
:100BD0000805ADB2324629463846FFF708FF3246CF
:100BE00029462046FFF703FFBDE8F88F2DE9F047BF
:100BF00082B00746884691461D460A9C4FEA430A42
:100C0000CAF1030A24B3002614E0CDF8009023466D
:100C1000324641463846FFF799FF0134A542F4DADF
:100C2000BAF1000F0ADB731B0AEB830A0AF10A0A06
:100C3000013D0136AE421FDC3446EFE70AEB860A7F
:100C40000AF1060AF5E70AEB840A0AF1060A0134FA
:100C5000AC4211DCCDF800902B4622464146384686
:100C6000FFF774FFBAF1000FEDDB631B0AEB830A99
:100C70000AF10A0A013DEAE702B0BDE8F0872DE972
:100C8000F84304460D4616461F46BDF82080BDF8C1
:100C90002490FFF7E5FE4B46424639463046FFF7C3
:100CA000DFFE2B46224649464046FFF7D9FEBDE807
:100CB000F88300002DE9F04F89B0ADF81600ADF8CB
:100CC0001410ADF81220ADF810308AB29BB29A42DF
:100CD00031D8BDF81020BDF84C309A4236D8BDF856
:100CE0001420BDF810309A423AD8BDF81440BDF82F
:100CF0004C309C423FD0BDF81220BDF81670D11B7D
:100D0000BDF81090A9EB040BBDF848A0AAEB0707AB
:100D1000A3EB0408AAEB020AA3EB090202924B45DB
:100D200003D009F1FF391FFA89F900252E46CDF8C5
:100D30000CA08A465AE004A905A8FFF753FE0DF15E
:100D400012010DF11600FFF74DFEC2E704A913A82A
:100D5000FFF748FE0DF1120112A8FFF743FEBEE7B0
:100D600004A905A8FFF73EFE0DF112010DF11600D2
:100D7000FFF738FEB9E7BDF81630ADF81C30ADF816
:100D80001E30BDF81220934217D9ADF81E20BDF8D1
:100D90004830BDF81E20934214D2ADF81E303D4BB2
:100DA0001B8800932346BDF81C202146BDF81E0079
:100DB000FFF726FE09B0BDE8F08F9342E7D2ADF809
:100DC0001C20E4E7BDF81C209342E8D9ADF81C30A4
:100DD000E5E7304B1B8800932346BDF81C202146D5
:100DE000BDF81E00FFF70CFE0134A4B24C4517D825
:100DF00096FBFBF2BDF816301A4492B2ADF81E20F5
:100E000095FBF8F10B449BB2ADF81C3056443D44C1
:100E10009A42DED907A90DF11E00FFF7E3FDD8E7DE
:100E2000DDF80CA0BDF81060A61B0AFB06F6BDF8A5
:100E30001450651B07FB05F5DDF808900CE0154B19
:100E40001B8800932346BDF81C202146BDF81E00D8
:100E5000FFF7D6FD0134A4B2BDF84C30A342A9D3AC
:100E600096FBF9F2BDF812301A4492B2ADF81E208A
:100E700095FBF8F3BDF816100B449BB2ADF81C308F
:100E800056443D449A42DAD907A90DF11E00FFF7F6
:100E9000A9FDD4E7B40000202DE9F04F85B08B46C2
:100EA00017461D469DF83C909DF840400194464BE6
:100EB0001A8802929DF838A0AAF1200A5FFA8AFAED
:100EC0004FEA5906039000EB590292B201EB090375
:100ED0009BB2013B013A9BB292B200F0CFFF84B3C8
:100EE0004FF00008CDF804A0DDF80CA04DE00AEBAF
:100EF0004A03364A02EB830313F80B801FE038469F
:100F000000F0E2FD4FEA48085FFA88F80134E4B2E5
:100F1000A64206D918F0800FF1D1284600F0D4FD82
:100F2000F0E70BF1010B5FFA8BFBCB453AD2B9F13D
:100F30000C0FDCD0264B03EB0A1313F80B80019C3B
:100F4000E6E7DDF804B0F0E7019B03EB43031F4A3B
:100F500002EB830313F8085022E06D00EDB2013478
:100F6000E4B2A6420DD9184B1F8015F0800FF4D0C3
:100F70000BEB08010AEB040089B280B201F0D0F853
:100F8000EBE708F101085FFA88F8C8450AD2B9F121
:100F90000C0FD9D00E4B019A03EB021313F8085033
:100FA0000024DEE7084B029A1A800A4B9A88DB88F5
:100FB000013B013A9BB292B20021084600F05EFF6D
:100FC00005B0BDE8F08F00BFB4000020E087000846
:100FD000548C0008B80000202DE9F04184B004468C
:100FE0000E4617461D469DF828800FE0CDF8088074
:100FF000019700930E4B1B880E4A128831462046FB
:10100000FFF74AFF04EB5704A4B201352B78A3F194
:101010002000C0B25E2807D8074A9288A24203D9AE
:10102000054AD288B242E1D804B0BDE8F08100BFE1
:1010300000000020B4000020B8000020024601207B
:1010400002E002FB00F019464B1EDBB20029F8D18A
:10105000704700002DE9F04784B0824689469046EB
:101060001D469DF8306000273C4622E0700800FBDA
:1010700004A002930196202300931F4B1B881F4A54
:101080001288494680B2FFF707FF10E0700800FBA6
:1010900004A00022029201963033DBB20093164B7B
:1010A0001B88164A1288494680B2FFF7F5FE0134C4
:1010B000E4B2AC421CD2291BC9B20139C9B20A2020
:1010C000FFF7BCFFB8FBF0F00D4BA3FB003C4FEA71
:1010D000DC0C0CEB8C0CA0EB4C0C5FFA8CF3002FAF
:1010E000D4D16A1E9442D1DA002BBFD00127CDE7BC
:1010F00004B0BDE8F08700BF00000020B40000206D
:10110000CDCCCCCC2DE9F04F85B0834601919246F1
:1011100003939DF83C9005464FF0000843E040469D
:1011200000F0D2FC13E03A4BA3F800A006EB061344
:10113000384A02EB43033B449A78802323411A4206
:101140001BD10135ADB2A5EB0B03102B1AD0013426
:10115000E4B2072C1BD8B9F1000FE4D106EB06135B
:101160002C4A02EB43033B449A78802323411A42E2
:10117000D5D0504600F0A8FCE9E70199284600F0D8
:10118000CFFFDEE7019B01339BB201935D46013740
:10119000FFB21F2F01D80024DBE7DDF8088008F13B
:1011A00001081FFA88F8B8F1470F23D8464608EB24
:1011B0000813184A12F813200E9B1B789A42EED19E
:1011C00008EB0813134A02EB43035A780E9B5B7833
:1011D0009A42E4D101990B460F3305F10F029BB2FD
:1011E00092B2284600F04AFE0027CDF80880DDF8CC
:1011F0000C80CEE7084B9A88DB88013B013A9BB212
:1012000092B20021084600F039FE05B0BDE8F08F2B
:10121000B400002044920008B80000202DE9F04FEF
:1012200085B082460191914602939DF83C80054627
:101230004FF0000B41E0584600F046FC12E0394BFD
:10124000A3F80090384B4A2202FB073333449A78C4
:10125000802323411A421AD10135ADB2A5EB0A030E
:10126000182B19D00134E4B2072C1AD8B8F1000FAA
:10127000E5D12D4B4A2202FB073333449A78802371
:1012800023411A42D7D0484600F01EFCEAE70199F4
:10129000284600F045FFDFE7019B01339BB2019335
:1012A00055460136F6B2472E01D80024DCE7DDF8BA
:1012B0000CB00BF1010B1FFA8BFBBBF1060F22D810
:1012C0005F464A2303FB0BF3174AD25C0E9B1B7845
:1012D0009A42EED1144B4A2202FB0B335A780E9BF2
:1012E0005B789A42E5D101990B46173305F1170255
:1012F0009BB292B2284600F0C1FD0026CDF80CB09A
:10130000DDF808B0CFE7094B9A88DB88013B013A4A
:101310009BB292B20021084600F0B0FD05B0BDE8D6
:10132000F08F00BFB4000020D49B0008B80000205C
:101330002DE9F04F85B082460191914602939DF8C8
:101340003C8005464FF0000B44E0584600F0BCFBE3
:1013500013E03B4BA3F8009006EB8613394A02EBEF
:1013600043033B449A78802323411A421BD1013521
:10137000ADB2A5EB0A03202B1AD00134E4B2072C3E
:101380001BD8B8F1000FE4D106EB86132D4A02EB0F
:1013900043033B449A78802323411A42D5D04846E0
:1013A00000F092FBE9E70199284600F0B9FEDEE77C
:1013B000019B01339BB2019355460137FFB217F0F1
:1013C000800F01D10024DAE7DDF80CB00BF1010B3E
:1013D0001FFA8BFBBBF1030F23D85E460BEB8B137D
:1013E000184A12F813200E9B1B789A42EED10BEB91
:1013F0008B13144A02EB43035A780E9B5B789A4294
:10140000E4D101990B461F3305F11F029BB292B242
:10141000284600F033FD0027CDF80CB0DDF808B009
:10142000CDE7094B9A88DB88013B013A9BB292B227
:101430000021084600F022FD05B0BDE8F08F00BF96
:10144000B4000020DC9D0008B80000202DE9F04F1A
:1014500087B00590884692460493109F9DF844609B
:101460009DF848B004464FF000092FE0B0441FFA41
:1014700088F80137059C013728E0CDF808B00196BF
:101480000093049B524641462046FFF705FD2C443D
:10149000A4B2F0E72D4B9B889B1B9C4253DC2B4B4B
:1014A000DB889B1B98454EDC202E35D0182E3DD076
:1014B000CDF804B00097049B524641462046FFF702
:1014C00021FE02373444A4B24FF000093B78002BD0
:1014D00039D0B9F1000FDDD11C4A92887508A2EB12
:1014E000560294422FDC194AD288921B90452ADC7E
:1014F000802B25D80D2BB9D0102EBED9CDF808B031
:10150000102201920093049B524641462046FFF769
:10151000C3FC0834A4B2AEE7CDF804B00097049B36
:10152000524641462046FFF703FFCAE7CDF804B014
:101530000097049B524641462046FFF76FFEC0E7E6
:101540004FF00109C2E707B0BDE8F08FB8000020F6
:10155000F0B585B00C4615461E460A9F3846FEF784
:1015600037FE0C4BB3F804C080B2ACEBC00000EB0C
:10157000D0709DF8303002939DF82C300193009785
:1015800033462A462146C0F34F00FFF75FFF05B000
:10159000F0BD00BFB8000020F8B517461E46069DF6
:1015A000821892B2CB189BB2013B013A9BB292B225
:1015B00000F064FC002409E0610015F8140001311A
:1015C0006B5C40EA032000F07FFA013406FB07F170
:1015D000A142F1DC054B9A88DB88013B013A9BB2C2
:1015E00092B20021084600F049FCF8BDB800002086
:1015F0002DE9F04F83B005460C469046274E3280C9
:1016000000F1FF391FFA89F9043989B2484600F020
:1016100087FD308800F00CFA308800F009FA2F1F9F
:10162000BFB204F1FF3B1FFA8BFB5946384600F06E
:1016300077FD2146384600F073FD04F1010A1FFAD8
:101640008AFA5146384600F06BFD2F1DBFB259464D
:10165000384600F065FD2146384600F061FD5146F0
:10166000384600F05DFD211D89B2484600F058FD66
:10167000308800F0DDF9308800F0DAF9E31CEA1C6C
:10168000E11EE81ECDF800809BB292B289B280B212
:10169000FFF7B6F903B0BDE8F08F00BFB40000203B
:1016A0002DE9F04F85B082460E4615461C46DFF800
:1016B000BCB048F21043ABF800300B46FFF7D0F94E
:1016C0000296771CBFB22346524639465046FFF772
:1016D000C7F90023ABF800300AF101091FFA89F9B4
:1016E0006E1EB6B23B46324639464846FFF7B8F959
:1016F000029B023398B204F1FF381FFA88F8434680
:101700004A46039001464846FFF7AAF94FF0FF32D8
:10171000ABF8002023462A4621465046FFF7A0F9A1
:1017200023462A4602992846FFF79AF94CF2186395
:10173000ABF800304346324641464846FFF790F941
:101740004346324639463046FFF78AF9A31EAA1EA1
:101750000AF102004FF6FF7400949BB292B2039913
:1017600080B2FFF74DF905B0BDE8F08FB40000205E
:101770002DE9F04F83B082460E461D46DFF89CB03F
:101780004CF21863ABF8003014460B46FFF768F9CB
:101790002B46524631465046FFF762F94FF6FF732B
:1017A000ABF800300AF101091FFA89F90196771C9C
:1017B000BFB2661EB6B23B46324639464846FFF7D0
:1017C0004FF905F1FF381FFA88F843464A46394673
:1017D0004846FFF745F90023ABF800302B46224678
:1017E00029465046FFF73CF92B46224601992046F0
:1017F000FFF736F948F21043ABF800304346324663
:1018000041464846FFF72CF94346324639463046B2
:10181000FFF726F903B0BDE8F08F00BFB400002049
:10182000F0B583B005460E4614461F46D2B2FFF708
:101830009FFFBB1EA21EB11CA81C4CF21864009492
:101840009BB292B289B280B2FFF7DAF803B0F0BD72
:101850002DE9F04F83B00F461D46DFF8A0A000230E
:10186000AAF80030064614460B46FFF7F9F82B4657
:10187000324639463046FFF7F3F848F21043AAF8EB
:10188000003006F1010B019707F101081FFA88F8F3
:10189000671EBFB243463A4641465846FFF7E0F856
:1018A00005F1FF391FFA89F94B465A464146584619
:1018B000FFF7D6F84CF21863AAF800304B463A46C8
:1018C00049465846FFF7CCF84B463A46414638461B
:1018D000FFF7C6F84FF6FF73AAF800302B462246F2
:1018E00029463046FFF7BCF82B4622460199204690
:1018F000FFF7B6F803B0BDE8F08F00BFB4000020DA
:10190000F8B504460D46204B00221A80083189B2F2
:1019100000F10E0206300B4692B280B2FFF7A0F83B
:1019200005F1090189B204F10D02E01D0B4692B2E6
:1019300080B2FFF795F805F10A0189B204F10C02B3
:1019400004F108000B4692B280B2FFF789F805F166
:101950000B06B6B204F10900314680B200F0E0FB9C
:1019600004F10A07BFB23146384600F0D9FB04F152
:101970000B00314680B200F0D3FB05F10C0189B2B7
:10198000384600F0CDFBF8BDB40000202DE9F0434F
:1019900085B006460C4615461F46FFF741FF06F187
:1019A00003081FFA88F8033DADB204F11903E11CE6
:1019B00040F2CF19CDF800909BB22A4689B240463A
:1019C000FFF71EF8FB1E04F11D019BB22A4689B2E7
:1019D0004046FFF765FE4FF6FF720A4B1A800A4B2E
:1019E000A3F80090A11D701D012302931023019301
:1019F0000C9B00934B4689B280B2FFF727FD05B0E0
:101A0000BDE8F083B40000200000002082B0ADF8F3
:101A10000600BDF806309BB2ADF80630BDF80630C2
:101A20009BB2024AA2F8FE3002B0704700FF01608C
:101A300082B0ADF80600BDF806309BB2ADF80630B6
:101A4000BDF806309BB2024AA2F8003102B07047DE
:101A500000FF016082B0054BB3F800319BB2ADF8D6
:101A60000630BDF8060080B202B0704700FF01608A
:101A7000024BA3F8FE00A3F80011704700FF0160BD
:101A800070B50C461546FFF7C1FF08E0FFF7E2FF0F
:101A900024F8020B4FF49670FEF748FF35466E1E91
:101AA000002DF3D170BD000008B5024B9889FFF7F7
:101AB000ADFF08BDB800002008B5024BD889FFF77C
:101AC000A5FF08BDB8000020014BA3F80001704736
:101AD00000FF0160000200F4784000B2C90001F488
:101AE000FC61084340EAD20080B2704710B5FFF7AE
:101AF000B1FF0446204B1A8941F663139A4238D04D
:101B00000120FEF713FFFFF7A5FF04461A4B1B89C0
:101B10004BF2095293422CD047F29372934228D051
:101B200049F28642934224D047F29672934220D0E3
:101B30000120FEF7FBFEFFF78DFF0F4B1B8949F2DB
:101B4000413293420DD049F28842934209D045F286
:101B50001032934205D045F21052934201D0002436
:101B600007E0C0F30722E1B2C4F30720FFF7B2FF9A
:101B70000446204610BD00BFB80000200000000051
:101B800010B50446BE20FFF741FF0520FFF750FFC8
:101B90002046FEF7F1FD0CA3D3E90023FEF770FB0E
:101BA000FEF754FE80B2FFF743FF0120FFF740FF2E
:101BB000FF20FFF73DFF0020FFF73AFF0020FFF76F
:101BC00037FF10BDAFF30080666666666666044048
:101BD0002DE9F043A1B001211A2005F04BF90121B4
:101BE000084605F055F94FF400431E9301278DF880
:101BF0007C7000248DF87E404FF002098DF87D90B6
:101C00008DF87F701EA96C4805F068F84FF40053FA
:101C10001E938DF87C708DF87E404FF003088DF890
:101C20007D808DF87F70654D1EA9284605F056F819
:101C30004CF233731E938DF87C908DF87E408DF8B6
:101C40007D808DF87F701EA9284605F047F84FF675
:101C500080731E938DF87C908DF87E408DF87D808A
:101C60008DF87F70564E1EA9304605F037F84FF4B8
:101C700008631E938DF87C908DF87E408DF87D80F2
:101C80008DF87F701EA9284605F028F80C22214601
:101C9000284605F078F80C223946284605F073F8F6
:101CA0000C220421284605F06EF80C220521284656
:101CB00005F069F80C220821284605F064F80C228A
:101CC0000921284605F05FF80C220A21284605F074
:101CD0005AF80C220E21284605F055F80C220F2147
:101CE000284605F050F80C220721304605F04BF845
:101CF0000C220821304605F046F80C220921304616
:101D000005F041F80C220A21304605F03CF80C227F
:101D10000B21304605F037F80C221146304605F00D
:101D200032F80C220D21304605F02DF80C220E2140
:101D3000304605F028F80C220F21304605F023F834
:101D40000C220721284605F01EF80C220B212846FC
:101D500005F019F80F23089309943C230A930B9478
:101D60000C940D940E940923019302940823039379
:101D700004940594069407940F94109411941023DE
:101D80001293139415941494169417944FF480534B
:101D9000189319944FF480431A931B9408AB1C9327
:101DA00001AB1D930FA804F01FFF3946204604F035
:101DB0007FFF21B0BDE8F08300040240000C024028
:101DC000001002402B4B5A6822F00F025A605A68EA
:101DD00022F470625A60284B1B8949F241329342C7
:101DE00020D049F28642934226D049F2884293425B
:101DF00022D045F2103293421ED047F2967293429F
:101E00001AD041F66312934216D04BF20952934214
:101E10001CD047F29372934218D045F2105293426D
:101E20001ED07047134B5A6842F004025A605A6839
:101E300042F440725A6070470E4B5A6842F00402F6
:101E40005A605A6842F480625A607047094B5A6877
:101E500042F005025A605A6842F480625A60704744
:101E6000044B5A6842F003025A605A6842F4007206
:101E70005A60D6E7000100A0B80000202DE9F84321
:101E800005460C4617461E464FF00008C146924BC9
:101E90001B894BF20952934237D047F29372934217
:101EA00033D045F21052934200F0958041F6631210
:101EB000934200F0DD80DFF82082B8F81000FFF7D1
:101EC000A5FDC5F30F20FFF7B3FDE8B2FFF7B0FDA6
:101ED000C7F30F20FFF7ACFDF8B2FFF7A9FDB8F884
:101EE0001200FFF793FDC4F30F20FFF7A1FDE0B24E
:101EF000FFF79EFDC6F30F20FFF79AFDF0B2FFF744
:101F000097FDFFF7D1FDBDE8F883734B9B7A032B58
:101F100041D8DFE803F03E02152B6F4BDA88931BA4
:101F20009BB2013BA2EB04081FFA88F808F1FF38C6
:101F30001FFA88F8A9463E4647462C469DB22AE03D
:101F4000654A9388D91B89B201395F1BBFB2013F33
:101F5000BFB2D288931B9BB2013B161BB6B2013EA7
:101F6000B6B2B146B8469CB28DB214E05A4B9B88CB
:101F7000DA1B92B2013AA3EB05091FFA89F909F1BC
:101F8000FF391FFA89F9A04637464E46254694B2D6
:101F900001E0A146A84629464FF40470FFF768FD0A
:101FA000214640F21220FFF763FD394640F211202E
:101FB000FFF75EFD314640F21320FFF759FD464C16
:101FC0004146208AFFF754FD4946608AFFF750FDDD
:101FD000FFF76AFD97E7DFF80081B8F81000FFF718
:101FE00015FDC5F30F20FFF723FDB8F810000130F1
:101FF00080B2FFF70BFDE8B2FFF71AFDB8F810004A
:10200000023080B2FFF702FDC7F30F20FFF710FD8B
:10201000B8F81000033080B2FFF7F8FCF8B2FFF711
:1020200007FDB8F81200FFF7F1FCC4F30F20FFF72B
:10203000FFFCB8F81200013080B2FFF7E7FCE0B215
:10204000FFF7F6FCB8F81200023080B2FFF7DEFCB2
:10205000C6F30F20FFF7ECFCB8F81200033080B293
:10206000FFF7D4FCF0B2FFF7E3FCFFF71DFD4AE7F2
:10207000194B9B7A022B0FD0032B18D0002B7FF427
:102080001AAF154B9B88DA1B92B2013A1F1ABFB2E6
:10209000013FBFB295B20EE70F4BDB889A1B92B29D
:1020A000013A5E1AB6B2013EB6B294B203E70A49EB
:1020B0008B88DA1B92B2013A1F1ABFB2013FBFB23E
:1020C000CB88991B89B201391E1BB6B2013EB6B24C
:1020D0008CB295B2EFE600BFB800002038B50446D8
:1020E0000A4B9A88DB8803FB02F5013B013A9BB25D
:1020F00092B200210846FFF7C1FE002303E0044A24
:10210000A2F800410133AB42F9D338BDB80000203A
:1021100000FF016008B502460B46FFF7AFFE08BDA1
:1021200008B5FFF7F7FF024B1888FFF7CDFC08BD95
:10213000B400002008B5094B9B8883420CD9074B9B
:10214000DB888B4201D8002007E0FFF7E3FFFFF7B1
:10215000B3FCFFF7CBFC00E0002008BDB800002076
:1021600000B583B000230093019300F00300874B78
:10217000987210F0010145D05A889A801A88DA8046
:10218000824B1B8949F24132934241D049F2864247
:1021900093423DD049F28842934239D045F2103201
:1021A000934235D047F29672934231D045F21052A5
:1021B000934200F08F804BF20952934200F0A480CA
:1021C00047F29372934200F09F8041F6631293426C
:1021D00056D1002900F0B6806C4B2A221A822B229D
:1021E0005A826A4B2C229A812E22DA8136229A82D6
:1021F000A023ADF800306023ADF80430C023ADF863
:1022000006303DE0614B1A889A805A88DA80B7E739
:102210005E4A2A2111822B2151822C2191812E216B
:10222000D1813621918249F2413293421CD049F248
:10223000864293422AD049F28842934233D045F2F3
:10224000103293423CD047F29672934218D1482301
:10225000ADF800302823ADF802309823ADF80430F3
:10226000F823ADF806300BE00823ADF80030682302
:10227000ADF80230C823ADF80430A823ADF806301D
:1022800003286BD8DFE800F0646D747B4823ADF859
:1022900000303823ADF802308823ADF80430E8234D
:1022A000ADF80630ECE70823ADF800306823ADF850
:1022B0000230C823ADF80430A823ADF80630DFE7BC
:1022C0006023ADF80230C023ADF80430A023ADF890
:1022D0000630D5E72D4B4FF428521A824FF42C527A
:1022E0005A824FF430529A814FF43852DA814FF4C7
:1022F00058529A826023ADF80230C023ADF8043002
:10230000A023ADF80630BBE7204B4FF400721A82D1
:1023100040F201225A8240F202229A81DA8103229B
:102320009A8241F23003ADF8003041F22803ADF853
:1023300002304FF48053ADF8043041F21803ADF889
:1023400006309DE7114B2B221A822A225A8248E737
:10235000BDF800100D4B988AFFF78AFB03B05DF8BB
:1023600004FBBDF80210094B988AFFF781FBF5E7E3
:10237000BDF80410054B988AFFF77AFBEEE7BDF82D
:102380000610024B988AFFF773FBE7E7B8000020BE
:1023900000B583B0012269460020FFF771FBBDF84C
:1023A00000004BF20953984200F0848047F2937387
:1023B00098427FD004226946D320FFF761FBBDF825
:1023C0000430BDF9060040EA032080B2ADF80000F9
:1023D00049F2413398426DD049F28643984269D020
:1023E00049F28843984265D047F29673984261D08B
:1023F00004226946D420FFF743FBBDF80430BDF941
:10240000060040EA032080B2ADF8000045F2103328
:1024100098424FD003226946A120FFF731FBBDF857
:102420000220BDF9043043EA02239BB2ADF800302C
:1024300045F26172934240D04FF47040FFF7E6FAE4
:102440005520FFF7F5FA4FF20100FFF7DFFAAA2057
:10245000FFF7EEFA4FF20200FFF7D8FA5220FFF72B
:10246000E7FA4FF20300FFF7D1FA0820FFF7E0FA8E
:102470004FF20400FFF7CAFA0120FFF7D9FA012250
:102480000DF102014FF44540FFF7FAFA012201A9CC
:102490004CF20150FFF7F4FABDF80230BDF9040028
:1024A00040EA032080B2ADF8000045F21053984294
:1024B00000D0002003B05DF804FB41F66310F9E79B
:1024C00010B5FFF785FBFFF763FF0146794C2081CC
:1024D000794804F095FEFFF775FC6420FEF766FA74
:1024E000238947F29672934201F09A8740F2E68080
:1024F00049F28642934201F0A98641F2738549F27E
:102500008842934241F09986F720FFF77FFAA9208D
:10251000FFF78EFA5120FFF78BFA2C20FFF788FA8D
:102520008220FFF785FAC020FFF770FA1120FFF72D
:102530007FFA0920FFF77CFAC120FFF767FA4120F4
:10254000FFF776FAC520FFF761FA0020FFF770FA6F
:102550000A20FFF76DFA8020FFF76AFAB120FFF733
:1025600055FAB020FFF764FA1120FFF761FAB420A2
:10257000FFF74CFA0220FFF75BFAB620FFF746FAA6
:102580000220FFF755FA2220FFF752FAB720FFF793
:102590003DFAC620FFF74CFABE20FFF737FA0020BD
:1025A000FFF746FA0420FFF743FAE920FFF72EFA77
:1025B0000020FFF73DFA3620FFF728FA0820FFF742
:1025C00037FA3A20FFF722FA5520FFF731FAE020D8
:1025D000FFF71CFA0020FFF72BFA0720FFF728FA75
:1025E0001020FFF725FA0920FFF722FA1720FFF73E
:1025F0001FFA0B20FFF71CFA4120FFF719FA892078
:10260000FFF716FA4B20FFF713FA0A20FFF710FA2C
:102610000C20FFF70DFA0E20FFF70AFA1820FFF73B
:1026200007FA1B20FFF704FA0F20FFF701FAE12059
:10263000FFF7ECF90020FFF7FBF91720FFF7F8F997
:102640001A20FFF7F5F90420FFF7F2F90E20FFF743
:10265000EFF90620FFF7ECF92F20FFF7E9F9452005
:10266000FFF7E6F94320FFF7E3F90220FFF7E0F96F
:102670000A20FFF7DDF90920FFF7DAF93220FFF72A
:10268000D7F93620FFF7D4F90F20FFF7D1F9112041
:10269000FFF7BCF97820FEF789F92920FFF7B6F992
:1026A000044B4FF4A0721A804FF4F0725A8001F07C
:1026B000B8BD00BFB8000020E49F000845F210320A
:1026C000934201F0A58741F2C68245F2105293422F
:1026D00041F086834FF47040FFF798F95520FFF7DB
:1026E000A7F94FF20100FFF791F9AA20FFF7A0F92F
:1026F0004FF20200FFF78AF95220FFF799F94FF2E3
:102700000300FFF783F90820FFF792F94FF2040066
:10271000FFF77CF90120FFF78BF94FF43640FFF704
:1027200075F93420FFF784F94BF20160FFF76EF979
:102730003420FFF77DF94BF20260FFF767F9342090
:10274000FFF776F94FF43040FFF760F90D20FFF7FF
:102750006FF94BF20100FFF759F90D20FFF768F907
:102760004BF20200FFF752F90D20FFF761F94FF429
:102770003740FFF74BF92420FFF75AF94BF201706D
:10278000FFF744F92420FFF753F94BF20270FFF7EB
:102790003DF92420FFF74CF94FF43140FFF736F9AB
:1027A0000D20FFF745F94BF20110FFF72FF90D202F
:1027B000FFF73EF94BF20210FFF728F90D20FFF763
:1027C00037F94FF43840FFF721F92420FFF730F9AB
:1027D0004BF60100FFF71AF92420FFF729F94BF611
:1027E0000200FFF713F92420FFF722F94FF43240DB
:1027F000FFF70CF90020FFF71BF94FF43940FFF702
:1028000005F92420FFF714F94BF60110FFF7FEF845
:102810002420FFF70DF94BF60210FFF7F7F82420FC
:10282000FFF706F94FF43340FFF7F0F80520FFF704
:10283000FFF84BF20130FFF7E9F80520FFF7F8F851
:102840004BF20230FFF7E2F80520FFF7F1F84FF402
:102850003A40FFF7DBF83420FFF7EAF84BF60120A7
:10286000FFF7D4F83420FFF7E3F84BF60220FFF728
:10287000CDF83420FFF7DCF84FF43540FFF7C6F809
:102880000B20FFF7D5F84BF20150FFF7BFF80B20F4
:10289000FFF7CEF84BF20250FFF7B8F80B20FFF726
:1028A000C7F84FF43C40FFF7B1F80020FFF7C0F83D
:1028B0004BF60140FFF7AAF8A320FFF7B9F84BF653
:1028C0000240FFF7A3F80020FFF7B2F84FF43D40B5
:1028D000FFF79CF80020FFF7ABF84BF60150FFF72D
:1028E00095F8A320FFF7A4F84BF60250FFF78EF8F7
:1028F0000020FFF79DF84FF43E40FFF787F80020D7
:10290000FFF796F84BF60160FFF780F86320FFF7BA
:102910008FF84FF45140FFF779F80020FFF788F85F
:102920004DF20110FFF772F83720FFF781F84DF2F2
:102930000210FFF76BF80020FFF77AF84DF2031052
:10294000FFF764F85220FFF773F84DF20410FFF719
:102950005DF80020FFF76CF84DF20510FFF756F810
:102960007B20FFF765F84DF20610FFF74FF80020C7
:10297000FFF75EF84DF20710FFF748F89920FFF7D0
:1029800057F84DF20810FFF741F80020FFF750F814
:102990004DF20910FFF73AF8B120FFF749F84DF270
:1029A0000A10FFF733F80020FFF742F84DF20B1042
:1029B000FFF72CF8D220FFF73BF84DF20C10FFF791
:1029C00025F80020FFF734F84DF20D10FFF71EF840
:1029D000F620FFF72DF84DF20E10FFF717F8012043
:1029E000FFF726F84DF20F10FFF710F82720FFF73A
:1029F0001FF84DF21010FFF709F80120FFF718F843
:102A00004DF21110FFF702F84E20FFF711F84DF2CA
:102A10001210FEF7FBFF0120FFF70AF84DF213102A
:102A2000FEF7F4FF8C20FFF703F84DF21410FEF7C9
:102A3000EDFF0120FEF7FCFF4DF21510FEF7E6FF5B
:102A4000BE20FEF7F5FF4DF21610FEF7DFFF022065
:102A5000FEF7EEFF4DF21710FEF7D8FF0B20FEF742
:102A6000E7FF4DF21810FEF7D1FF0220FEF7E0FF5E
:102A70004DF21910FEF7CAFF4820FEF7D9FF4DF2BC
:102A80001A10FEF7C3FF0220FEF7D2FF4DF21B1013
:102A9000FEF7BCFF4A20FEF7CBFF4DF21C10FEF7FD
:102AA000B5FF0220FEF7C4FF4DF21D10FEF7AEFF8A
:102AB0007E20FEF7BDFF4DF21E10FEF7A7FF02209D
:102AC000FEF7B6FF4DF21F10FEF7A0FFBC20FEF789
:102AD000AFFF4DF22010FEF799FF0220FEF7A8FF8E
:102AE0004DF22110FEF792FFE120FEF7A1FF4DF21B
:102AF0002210FEF78BFF0320FEF79AFF4DF2231002
:102B0000FEF784FF1020FEF793FF4DF22410FEF72E
:102B10007DFF0320FEF78CFF4DF22510FEF776FFB8
:102B20003120FEF785FF4DF22610FEF76FFF0320E0
:102B3000FEF77EFF4DF22710FEF768FF5A20FEF7E2
:102B400077FF4DF22810FEF761FF0320FEF770FFBC
:102B50004DF22910FEF75AFF7320FEF769FF4DF280
:102B60002A10FEF753FF0320FEF762FF4DF22B10F1
:102B7000FEF74CFF9420FEF75BFF4DF22C10FEF7A2
:102B800045FF0320FEF754FF4DF22D10FEF73EFFE8
:102B90009F20FEF74DFF4DF22E10FEF737FF03206A
:102BA000FEF746FF4DF22F10FEF730FFB320FEF781
:102BB0003FFF4DF23010FEF729FF0320FEF738FFEC
:102BC0004DF23110FEF722FFB920FEF731FF4DF232
:102BD0003210FEF71BFF0320FEF72AFF4DF23310E1
:102BE000FEF714FFC120FEF723FF4FF45240FEF71B
:102BF0000DFF0020FEF71CFF4DF20120FEF706FF3F
:102C00003720FEF715FF4DF20220FEF7FFFE0020F1
:102C1000FEF70EFF4DF20320FEF7F8FE5220FEF7FE
:102C200007FF4DF20420FEF7F1FE0020FEF700FF43
:102C30004DF20520FEF7EAFE7B20FEF7F9FE4DF28D
:102C40000620FEF7E3FE0020FEF7F2FE4DF207201D
:102C5000FEF7DCFE9920FEF7EBFE4DF20820FEF7B2
:102C6000D5FE0020FEF7E4FE4DF20920FEF7CEFE71
:102C7000B120FEF7DDFE4DF20A20FEF7C7FE002070
:102C8000FEF7D6FE4DF20B20FEF7C0FED220FEF777
:102C9000CFFE4DF20C20FEF7B9FE0020FEF7C8FE75
:102CA0004DF20D20FEF7B2FEF620FEF7C1FE4DF20A
:102CB0000E20FEF7ABFE0120FEF7BAFE4DF20F200C
:102CC000FEF7A4FE2720FEF7B3FE4DF21020FEF71C
:102CD0009DFE0120FEF7ACFE4DF21120FEF796FEA0
:102CE0004E20FEF7A5FE4DF21220FEF78FFE0120CA
:102CF000FEF79EFE4DF21320FEF788FE8C20FEF7B5
:102D000097FE4DF21420FEF781FE0120FEF790FEA3
:102D10004DF21520FEF77AFEBE20FEF789FE4DF239
:102D20001620FEF773FE0220FEF782FE4DF21720FA
:102D3000FEF76CFE0B20FEF77BFE4DF21820FEF72F
:102D400065FE0220FEF774FE4DF21920FEF75EFECE
:102D50004820FEF76DFE4DF21A20FEF757FE0220C6
:102D6000FEF766FE4DF21B20FEF750FE4A20FEF7EE
:102D70005FFE4DF21C20FEF749FE0220FEF758FED2
:102D80004DF21D20FEF742FE7E20FEF751FE4DF271
:102D90001E20FEF73BFE0220FEF74AFE4DF21F20EA
:102DA000FEF734FEBC20FEF743FE4DF22020FEF776
:102DB0002DFE0220FEF73CFE4DF22120FEF726FEFE
:102DC000E120FEF735FE4DF22220FEF71FFE032024
:102DD000FEF72EFE4DF22320FEF718FE1020FEF720
:102DE00027FE4DF22420FEF711FE0320FEF720FE01
:102DF0004DF22520FEF70AFE3120FEF719FE4DF2B6
:102E00002620FEF703FE0320FEF712FE4DF22720D8
:102E1000FEF7FCFD5A20FEF70BFE4DF22820FEF7D0
:102E2000F5FD0320FEF704FE4DF22920FEF7EEFD2E
:102E30007320FEF7FDFD4DF22A20FEF7E7FD03208B
:102E4000FEF7F6FD4DF22B20FEF7E0FD9420FEF795
:102E5000EFFD4DF22C20FEF7D9FD0320FEF7E8FD33
:102E60004DF22D20FEF7D2FD9F20FEF7E1FD4DF241
:102E70002E20FEF7CBFD0320FEF7DAFD4DF22F20CA
:102E8000FEF7C4FDB320FEF7D3FD4DF23020FEF770
:102E9000BDFD0320FEF7CCFD4DF23120FEF7B6FD5F
:102EA000B920FEF7C5FD4DF23220FEF7AFFD03203D
:102EB000FEF7BEFD4DF23320FEF7A8FDC120FEF760
:102EC000B7FD4FF45340FEF7A1FD0020FEF7B0FD23
:102ED0004DF20130FEF79AFD3720FEF7A9FD4DF2C5
:102EE0000230FEF793FD0020FEF7A2FD4DF2033005
:102EF000FEF78CFD5220FEF79BFD4DF20430FEF7ED
:102F000085FD0020FEF794FD4DF20530FEF77EFDB5
:102F10007B20FEF78DFD4DF20630FEF777FD002099
:102F2000FEF786FD4DF20730FEF770FD9920FEF7A3
:102F30007FFD4DF20830FEF769FD0020FEF778FDB9
:102F40004DF20930FEF762FDB120FEF771FD4DF242
:102F50000A30FEF75BFD0020FEF76AFD4DF20B30F4
:102F6000FEF754FDD220FEF763FD4DF20C30FEF764
:102F70004DFD0020FEF75CFD4DF20D30FEF746FDE5
:102F8000F620FEF755FD4DF20E30FEF73FFD012015
:102F9000FEF74EFD4DF20F30FEF738FD2720FEF70D
:102FA00047FD4DF21030FEF731FD0120FEF740FDE8
:102FB0004DF21130FEF72AFD4E20FEF739FD4DF29D
:102FC0001230FEF723FD0120FEF732FD4DF21330E3
:102FD000FEF71CFD8C20FEF72BFD4DF21430FEF7A2
:102FE00015FD0120FEF724FD4DF21530FEF70EFD14
:102FF000BE20FEF71DFD4DF21630FEF707FD022044
:10300000FEF716FD4DF21730FEF700FD0B20FEF720
:103010000FFD4DF21830FEF7F9FC0220FEF708FD17
:103020004DF21930FEF7F2FC4820FEF701FD4DF29B
:103030001A30FEF7EBFC0220FEF7FAFC4DF21B30D3
:10304000FEF7E4FC4A20FEF7F3FC4DF21C30FEF7DD
:10305000DDFC0220FEF7ECFC4DF21D30FEF7D6FC45
:103060007E20FEF7E5FC4DF21E30FEF7CFFC02207D
:10307000FEF7DEFC4DF21F30FEF7C8FCBC20FEF769
:10308000D7FC4DF22030FEF7C1FC0220FEF7D0FC49
:103090004DF22130FEF7BAFCE120FEF7C9FC4DF2FB
:1030A0002230FEF7B3FC0320FEF7C2FC4DF22330C2
:1030B000FEF7ACFC1020FEF7BBFC4DF22430FEF70F
:1030C000A5FC0320FEF7B4FC4DF22530FEF79EFC74
:1030D0003120FEF7ADFC4DF22630FEF797FC0320C1
:1030E000FEF7A6FC4DF22730FEF790FC5A20FEF7C3
:1030F0009FFC4DF22830FEF789FC0320FEF798FC78
:103100004DF22930FEF782FC7320FEF791FC4DF260
:103110002A30FEF77BFC0320FEF78AFC4DF22B30B1
:10312000FEF774FC9420FEF783FC4DF22C30FEF782
:103130006DFC0320FEF77CFC4DF22D30FEF766FCA3
:103140009F20FEF775FC4DF22E30FEF75FFC03204A
:10315000FEF76EFC4DF22F30FEF758FCB320FEF761
:1031600067FC4DF23030FEF751FC0320FEF760FCA7
:103170004DF23130FEF74AFCB920FEF759FC4DF212
:103180003230FEF743FC0320FEF752FC4DF23330A1
:10319000FEF73CFCC120FEF74BFC4FF45440FEF719
:1031A00035FC0020FEF744FC4DF20140FEF72EFCFA
:1031B0003720FEF73DFC4DF20240FEF727FC0020D1
:1031C000FEF736FC4DF20340FEF720FC5220FEF7DE
:1031D0002FFC4DF20440FEF719FC0020FEF728FCFE
:1031E0004DF20540FEF712FC7B20FEF721FC4DF26C
:1031F0000640FEF70BFC0020FEF71AFC4DF20740DC
:10320000FEF704FC9920FEF713FC4DF20840FEF790
:10321000FDFB0020FEF70CFC4DF20940FEF7F6FB2B
:10322000B120FEF705FC4DF20A40FEF7EFFB00204F
:10323000FEF7FEFB4DF20B40FEF7E8FBD220FEF757
:10324000F7FB4DF20C40FEF7E1FB0020FEF7F0FB30
:103250004DF20D40FEF7DAFBF620FEF7E9FB4DF2EA
:103260000E40FEF7D3FB0120FEF7E2FB4DF20F40CC
:10327000FEF7CCFB2720FEF7DBFB4DF21040FEF7FC
:10328000C5FB0120FEF7D4FB4DF21140FEF7BEFB5B
:103290004E20FEF7CDFB4DF21240FEF7B7FB0120AA
:1032A000FEF7C6FB4DF21340FEF7B0FB8C20FEF795
:1032B000BFFB4DF21440FEF7A9FB0120FEF7B8FB5F
:1032C0004DF21540FEF7A2FBBE20FEF7B1FB4DF21A
:1032D0001640FEF79BFB0220FEF7AAFB4DF21740BB
:1032E000FEF794FB0B20FEF7A3FB4DF21840FEF710
:1032F0008DFB0220FEF79CFB4DF21940FEF786FB8A
:103300004820FEF795FB4DF21A40FEF77FFB0220A6
:10331000FEF78EFB4DF21B40FEF778FB4A20FEF7CE
:1033200087FB4DF21C40FEF771FB0220FEF780FB8D
:103330004DF21D40FEF76AFB7E20FEF779FB4DF251
:103340001E40FEF763FB0220FEF772FB4DF21F40AA
:10335000FEF75CFBBC20FEF76BFB4DF22040FEF756
:1033600055FB0220FEF764FB4DF22140FEF74EFBB9
:10337000E120FEF75DFB4DF22240FEF747FB032004
:10338000FEF756FB4DF22340FEF740FB1020FEF700
:103390004FFB4DF22440FEF739FB0320FEF748FBBC
:1033A0004DF22540FEF732FB3120FEF741FB4DF296
:1033B0002640FEF72BFB0320FEF73AFB4DF2274099
:1033C000FEF724FB5A20FEF733FB4DF22840FEF7B0
:1033D0001DFB0320FEF72CFB4DF22940FEF716FBE8
:1033E0007320FEF725FB4DF22A40FEF70FFB03206A
:1033F000FEF71EFB4DF22B40FEF708FB9420FEF774
:1034000017FB4DF22C40FEF701FB0320FEF710FBEB
:103410004DF22D40FEF7FAFA9F20FEF709FB4DF220
:103420002E40FEF7F3FA0320FEF702FB4DF22F4089
:10343000FEF7ECFAB320FEF7FBFA4DF23040FEF750
:10344000E5FA0320FEF7F4FA4DF23140FEF7DEFA1A
:10345000B920FEF7EDFA4DF23240FEF7D7FA03201D
:10346000FEF7E6FA4DF23340FEF7D0FAC120FEF740
:10347000DFFA4FF45540FEF7C9FA0020FEF7D8FAFC
:103480004DF20150FEF7C2FA3720FEF7D1FA4DF2A5
:103490000250FEF7BBFA0020FEF7CAFA4DF20350C5
:1034A000FEF7B4FA5220FEF7C3FA4DF20450FEF7CD
:1034B000ADFA0020FEF7BCFA4DF20550FEF7A6FA71
:1034C0007B20FEF7B5FA4DF20650FEF79FFA00207A
:1034D000FEF7AEFA4DF20750FEF798FA9920FEF784
:1034E000A7FA4DF20850FEF791FA0020FEF7A0FA75
:1034F0004DF20950FEF78AFAB120FEF799FA4DF223
:103500000A50FEF783FA0020FEF792FA4DF20B50B4
:10351000FEF77CFAD220FEF78BFA4DF20C50FEF744
:1035200075FA0020FEF784FA4DF20D50FEF76EFAA0
:10353000F620FEF77DFA4DF20E50FEF767FA0120F5
:10354000FEF776FA4DF20F50FEF760FA2720FEF7ED
:103550006FFA4DF21050FEF759FA0120FEF768FAA3
:103560004DF21150FEF752FA4E20FEF761FA4DF27D
:103570001250FEF74BFA0120FEF75AFA4DF21350A3
:10358000FEF744FA8C20FEF753FA4DF21450FEF782
:103590003DFA0120FEF74CFA4DF21550FEF736FACF
:1035A000BE20FEF745FA4DF21650FEF72FFA022024
:1035B000FEF73EFA4DF21750FEF728FA0B20FEF701
:1035C00037FA4DF21850FEF721FA0220FEF730FAD2
:1035D0004DF21950FEF71AFA4820FEF729FA4DF27B
:1035E0001A50FEF713FA0220FEF722FA4DF21B5092
:1035F000FEF70CFA4A20FEF71BFA4DF21C50FEF7BC
:1036000005FA0220FEF714FA4DF21D50FEF7FEF9FE
:103610007E20FEF70DFA4DF21E50FEF7F7F902205C
:10362000FEF706FA4DF21F50FEF7F0F9BC20FEF748
:10363000FFF94DF22050FEF7E9F90220FEF7F8F904
:103640004DF22150FEF7E2F9E120FEF7F1F94DF2DB
:103650002250FEF7DBF90320FEF7EAF94DF2235082
:10366000FEF7D4F91020FEF7E3F94DF22450FEF7EF
:10367000CDF90320FEF7DCF94DF22550FEF7C6F92F
:103680003120FEF7D5F94DF22650FEF7BFF90320A1
:10369000FEF7CEF94DF22750FEF7B8F95A20FEF7A3
:1036A000C7F94DF22850FEF7B1F90320FEF7C0F933
:1036B0004DF22950FEF7AAF97320FEF7B9F94DF241
:1036C0002A50FEF7A3F90320FEF7B2F94DF22B5072
:1036D000FEF79CF99420FEF7ABF94DF22C50FEF763
:1036E00095F90320FEF7A4F94DF22D50FEF78EF95F
:1036F0009F20FEF79DF94DF22E50FEF787F903202B
:10370000FEF796F94DF22F50FEF780F9B320FEF741
:103710008FF94DF23050FEF779F90320FEF788F962
:103720004DF23150FEF772F9B920FEF781F94DF2F2
:103730003250FEF76BF90320FEF77AF94DF2335061
:10374000FEF764F9C120FEF773F94FF45640FEF717
:103750005DF90020FEF76CF94DF20160FEF756F9B5
:103760003720FEF765F94DF20260FEF74FF90020B1
:10377000FEF75EF94DF20360FEF748F95220FEF7BE
:1037800057F94DF20460FEF741F90020FEF750F9B9
:103790004DF20560FEF73AF97B20FEF749F94DF24C
:1037A0000660FEF733F90020FEF742F94DF207609C
:1037B000FEF72CF99920FEF73BF94DF20860FEF771
:1037C00025F90020FEF734F94DF20960FEF71EF9E5
:1037D000B120FEF72DF94DF20A60FEF717F900202F
:1037E000FEF726F94DF20B60FEF710F9D220FEF736
:1037F0001FF94DF20C60FEF709F90020FEF718F9E9
:103800004DF20D60FEF702F9F620FEF711F94DF2C8
:103810000E60FEF7FBF80120FEF70AF94DF20F608B
:10382000FEF7F4F82720FEF703F94DF21060FEF7DB
:10383000EDF80120FEF7FCF84DF21160FEF7E6F816
:103840004E20FEF7F5F84DF21260FEF7DFF801208A
:10385000FEF7EEF84DF21360FEF7D8F88C20FEF775
:10386000E7F84DF21460FEF7D1F80120FEF7E0F81A
:103870004DF21560FEF7CAF8BE20FEF7D9F84DF2FA
:103880001660FEF7C3F80220FEF7D2F84DF217607B
:10389000FEF7BCF80B20FEF7CBF84DF21860FEF7F0
:1038A000B5F80220FEF7C4F84DF21960FEF7AEF845
:1038B0004820FEF7BDF84DF21A60FEF7A7F8022087
:1038C000FEF7B6F84DF21B60FEF7A0F84A20FEF7AF
:1038D000AFF84DF21C60FEF799F80220FEF7A8F849
:1038E0004DF21D60FEF792F87E20FEF7A1F84DF232
:1038F0001E60FEF78BF80220FEF79AF84DF21F606B
:10390000FEF784F8BC20FEF793F84DF22060FEF736
:103910007DF80220FEF78CF84DF22160FEF776F874
:10392000E120FEF785F84DF22260FEF76FF80320E4
:10393000FEF77EF84DF22360FEF768F81020FEF7E0
:1039400077F84DF22460FEF761F80320FEF770F877
:103950004DF22560FEF75AF83120FEF769F84DF276
:103960002660FEF753F80320FEF762F84DF2276059
:10397000FEF74CF85A20FEF75BF84DF22860FEF790
:1039800045F80320FEF754F84DF22960FEF73EF8A3
:103990007320FEF74DF84DF22A60FEF737F803204A
:1039A000FEF746F84DF22B60FEF730F89420FEF754
:1039B0003FF84DF22C60FEF729F80320FEF738F8A7
:1039C0004DF22D60FEF722F89F20FEF731F84DF200
:1039D0002E60FEF71BF80320FEF72AF84DF22F6049
:1039E000FEF714F8B320FEF723F84DF23060FEF72F
:1039F0000DF80320FEF71CF84DF23160FEF706F8D3
:103A0000B920FEF715F84DF23260FDF7FFFF0320F5
:103A1000FEF70EF84DF23360FDF7F8FFC120FEF718
:103A200007F84FF47040FDF7F1FF5520FEF700F85E
:103A30004FF20100FDF7EAFFAA20FDF7F9FF4FF270
:103A40000200FDF7E3FF5220FDF7F2FF4FF2030003
:103A5000FDF7DCFF0820FDF7EBFF4FF20400FDF758
:103A6000D5FF0020FDF7E4FF4FF43040FDF7CEFF17
:103A70000820FDF7DDFF4BF20100FDF7C7FF052031
:103A8000FDF7D6FF4BF20200FDF7C0FF0220FDF765
:103A9000CFFF4BF20300FDF7B9FF0520FDF7C8FF8C
:103AA0004BF20400FDF7B2FF0220FDF7C1FF4FF417
:103AB0003640FDF7ABFF0820FDF7BAFF4FF4354065
:103AC000FDF7A4FF5020FDF7B3FF4FF43740FDF79B
:103AD0009DFF0020FDF7ACFF4BF20170FDF796FF54
:103AE0000020FDF7A5FF4FF43840FDF78FFF0120C0
:103AF000FDF79EFF4BF60100FDF788FF0520FDF75F
:103B000097FF4BF60200FDF781FF0520FDF790FFC0
:103B10004BF60300FDF77AFF0520FDF789FF4FF410
:103B20003C40FDF773FF0020FDF782FF4BF601409C
:103B3000FDF76CFF0020FDF77BFF4BF60240FDF721
:103B400065FF0020FDF774FF4FF44C40FDF75EFF6A
:103B50000320FDF76DFF4CF60140FDF757FF0020F5
:103B6000FDF766FF4CF60240FDF750FF0020FDF721
:103B70005FFF4FF43D40FDF749FF0120FDF758FF7F
:103B80004BF60150FDF742FF8420FDF751FF4BF645
:103B90000250FDF73BFF0720FDF74AFF4BF60350AD
:103BA000FDF734FF3120FDF743FF4BF60450FDF7DE
:103BB0002DFF0020FDF73CFF4FF43A40FDF726FFB4
:103BC0000120FDF735FF4FF47F40FDF71FFFAA20CE
:103BD000FDF72EFF4FF60170FDF718FF5520FDF79A
:103BE00027FF4FF60270FDF711FF2520FDF720FF9C
:103BF0004FF60370FDF70AFF0120FDF719FF4FF4A0
:103C00005450FDF703FF0020FDF712FF4FF458500A
:103C1000FDF7FCFE0020FDF70BFF4FF46850FDF7A9
:103C2000F5FE5520FDF704FF4FF48850FDF7EEFE3A
:103C30007820FCF7BBFE4FF42450FDF7E7FE4FF46D
:103C40003050FDF7E3FEE64B4FF4F0721A804FF46C
:103C500048725A80E5E241F66312934240F0F282E4
:103C6000E220FDF7D3FE1D20FDF7E2FE0220FDF766
:103C7000DFFE0420FDF7DCFE6420FCF757FEE020A9
:103C8000FDF7C4FE0120FDF7D3FE0A20FCF78EFEEF
:103C9000E020FDF7BBFE0320FDF7CAFE0C20FCF779
:103CA00085FE0120FDF7B2FE0A20FCF77FFEE6202C
:103CB000FDF7ACFE2F20FDF7BBFEFF20FDF7B8FEA1
:103CC000FF20FDF7B5FEB020FDF7A0FE2020FDF798
:103CD000AFFE0020FDF7ACFE0320FDF7A9FE40F289
:103CE0001F30FDF7A5FE0120FDF7A2FE40F2DF1018
:103CF000FDF79EFE0020FDF79BFEB420FDF786FE3B
:103D00000420FDF795FE40F21F40FDF791FE0020D4
:103D1000FDF78EFE2E20FDF78BFE0020FDF788FEBE
:103D20000020FDF785FE0020FDF782FE0020FDF754
:103D30007FFEB620FDF76AFE0220FDF779FE4FF404
:103D40000370FDF775FE0020FDF772FE1720FDF7EA
:103D50006FFE1520FDF76CFE0020FDF769FE0020C8
:103D6000FDF766FEF020FDF751FE0320FDF760FE33
:103D70002920FDF74BFED020FDF748FE0020FDF77F
:103D800057FEBE20FDF742FE0520FDF751FEFE2046
:103D9000FDF74EFE0120FDF74BFE0020FDF748FE2B
:103DA0000020FDF745FE0020FDF742FEB820FDF79C
:103DB0002DFE0320FDF73CFE0120FDF739FEBA2061
:103DC000FDF724FE0120FDF733FE6420FDF7D8FE49
:103DD000834B4FF4F0721A804FF448725A8020E2FD
:103DE00047F29372934240F02D8200210846FDF77E
:103DF0003FFE00210846FDF73BFE00210846FDF787
:103E000037FE00210846FDF733FE0F20FCF7CEFDFC
:103E10004FF4C4414FF48060FDF72AFE40F60801DC
:103E20000820FDF725FE4FF440614FF44070FDF788
:103E30001FFE45F60B2140F20130FDF719FE40F65A
:103E4000061140F20230FDF713FE41F2170140F275
:103E50000330FDF70DFE4FF40C514FF44170FDF7A8
:103E600007FE4FF4B85140F20530FDF701FE46F26F
:103E7000093140F20630FDF7FBFD40F6094140F202
:103E80000730FDF7F5FD41F20C014FF44270FDF7EC
:103E9000EFFD42F2322140F20930FDF7E9FD162133
:103EA0001020FDF7E5FD40F201111120FDF7E0FDC6
:103EB00000211220FDF7DCFD01211320FDF7D8FDC4
:103EC0004FF44C714FF48070FDF7D2FD40F2372172
:103ED00040F20110FDF7CCFD4FF4506140F20310A9
:103EE000FDF7C6FD4FF4C2414FF42070FDF7C0FD51
:103EF0004CF2B0114FF48170FDF7BAFD3220FCF79F
:103F000055FD4FF480710120FDF7B2FD4FF4807133
:103F10000220FDF7ADFD41F230010320FDF7A8FDC1
:103F200001210920FDF7A4FD00210C20FDF7A0FDD3
:103F30004FF400419020FDF79BFD00210F20FDF77D
:103F400097FD00214FF40470FDF792FDEF2140F240
:103F50001120FDF78DFD002140F21220FDF788FDB4
:103F600040F28F1140F21320FDF782FD00214FF443
:103F7000A060FDF77DFD002140F20150FDF778FDC6
:103F80005F2140F20250FDF773FD012140F2014034
:103F9000FDF76EFD002140F20440FDF769FD32207F
:103FA000FCF704FD4FF480710720FDF761FD32201E
:103FB000FCF7FCFC00214FF40070FDF759FD0021D7
:103FC00040F20120FDF754FD40F20220FDF71EFDF6
:103FD000034BF0221A804FF4C8725A8021E100BFCF
:103FE000B800002049F24132934240F02B81CF20AB
:103FF000FDF70CFD0020FDF71BFDC920FDF718FDA6
:104000003020FDF715FDED20FDF700FD6420FDF7E4
:104010000FFD0320FDF70CFD1220FDF709FD8120A7
:10402000FDF706FDE820FDF7F1FC8520FDF700FD1A
:104030001020FDF7FDFC7A20FDF7FAFCCB20FDF700
:10404000E5FC3920FDF7F4FC2C20FDF7F1FC002005
:10405000FDF7EEFC3420FDF7EBFC0220FDF7E8FC59
:10406000F720FDF7D3FC2020FDF7E2FCEA20FDF766
:10407000CDFC0020FDF7DCFC0020FDF7D9FCC020C2
:10408000FDF7C4FC1B20FDF7D3FCC120FDF7BEFCEF
:104090000020FDF7CDFCC520FDF7B8FC3020FDF772
:1040A000C7FC3020FDF7C4FCC720FDF7AFFCB720EC
:1040B000FDF7BEFC3620FDF7A9FC0820FDF7B8FC93
:1040C0003A20FDF7A3FC5520FDF7B2FCB120FDF727
:1040D0009DFC0020FDF7ACFC1A20FDF7A9FCB620E2
:1040E000FDF794FC0A20FDF7A3FCA220FDF7A0FC3D
:1040F000F220FDF78BFC0020FDF79AFC2620FDF74F
:1041000085FC0120FDF794FCE020FDF77FFC0F20EB
:10411000FDF78EFC2A20FDF78BFC2820FDF788FC9C
:104120000820FDF785FC0E20FDF782FC0820FDF736
:104130007FFC5420FDF77CFCA920FDF779FC43208F
:10414000FDF776FC0A20FDF773FC0F20FDF770FCED
:104150000020FDF76DFC0020FDF76AFC0020FDF754
:1041600067FC0020FDF764FCE120FDF74FFC002018
:10417000FDF75EFC1520FDF75BFC1720FDF758FCF2
:104180000720FDF755FC1120FDF752FC0620FDF736
:104190004FFC2B20FDF74CFC5620FDF749FC3C2042
:1041A000FDF746FC0520FDF743FC1020FDF740FC21
:1041B0000F20FDF73DFC3F20FDF73AFC3F20FDF7C7
:1041C00037FC0F20FDF734FC2B20FDF71FFC0020EF
:1041D000FDF72EFC0020FDF72BFC0120FDF728FC4D
:1041E0003F20FDF725FC2A20FDF710FC0020FDF7FD
:1041F0001FFC0020FDF71CFC0020FDF719FCEF2040
:10420000FDF716FC1120FDF701FC7820FCF7CEFB32
:104210002920FDF7FBFB7F4BF0221A804FF4A072A0
:104220005A800020FDF79CFF7B4B0122C3F8BC2283
:104230004FF6FF70FDF752FF10BD4BF2095293424B
:104240003FF4D3AD754803F061F8EAE7F120FDF7DC
:10425000DDFB3620FDF7ECFB0420FDF7E9FB002039
:10426000FDF7E6FB3C20FDF7E3FB0F20FDF7E0FB4D
:104270008F20FDF7DDFBF220FDF7C8FB1820FDF7CE
:10428000D7FBA320FDF7D4FB1220FDF7D1FB0220C2
:10429000FDF7CEFBB220FDF7CBFB1220FDF7C8FBEC
:1042A000FF20FDF7C5FB1020FDF7C2FB0020FDF746
:1042B000BFFBF820FDF7AAFB2120FDF7B9FB042086
:1042C000FDF7B6FBF920FDF7A1FB0020FDF7B0FBE1
:1042D0000820FDF7ADFB3620FDF798FB0820FDF721
:1042E000A7FBB420FDF792FB0020FDF7A1FBC12046
:1042F000FDF78CFB4720FDF79BFBC520FDF786FBF8
:104300000020FDF795FBAF20FDF792FB8020FDF725
:104310008FFB0020FDF78CFBE020FDF777FB0F20E3
:10432000FDF786FB1F20FDF783FB1C20FDF780FBBC
:104330000C20FDF77DFB0F20FDF77AFB0820FDF731
:1043400077FB4820FDF774FB9820FDF771FB3720C1
:10435000FDF76EFB0A20FDF76BFB1320FDF768FBF2
:104360000420FDF765FB1120FDF762FB0D20FDF732
:104370005FFB0020FDF75CFBE120FDF747FB0F2012
:10438000FDF756FB3220FDF753FB2E20FDF750FBC7
:104390000B20FDF74DFB0D20FDF74AFB0520FDF737
:1043A00047FB4720FDF744FB7520FDF741FB372015
:1043B000FDF73EFB0620FDF73BFB1020FDF738FB29
:1043C0000320FDF735FB2420FDF732FB2020FDF70D
:1043D0002FFB0020FDF72CFB3A20FDF717FB5520A3
:1043E000FDF726FB1120FDF711FB3620FDF70EFB34
:1043F0002820FDF71DFB7820FCF7D8FA2920FDF7CF
:1044000005FB044B4FF4A0721A804FF4F0725A80EF
:1044100007E700BFB800002000804042F49F00087A
:10442000F020FDF7F3FAC320FDF702FBF020FDF7C3
:10443000EDFA9620FDF7FCFA3620FDF7E7FA682042
:10444000FDF7F6FA3A20FDF7E1FA0520FDF7F0FA5C
:10445000B020FDF7DBFA8020FDF7EAFAB620FDF781
:10446000D5FA2020FDF7E4FA0220FDF7E1FAB520A5
:10447000FDF7CCFA0220FDF7DBFA0320FDF7D8FAAE
:104480000020FDF7D5FA0420FDF7D2FAB120FDF7A0
:10449000BDFA8020FDF7CCFA1020FDF7C9FAB42050
:1044A000FDF7B4FA0020FDF7C3FAB720FDF7AEFA26
:1044B000C620FDF7BDFAC520FDF7A8FA2420FDF7B8
:1044C000B7FAE420FDF7A2FA3120FDF7B1FAE820AF
:1044D000FDF79CFA4020FDF7ABFA8A20FDF7A8FA19
:1044E0000020FDF7A5FA0020FDF7A2FA2920FDF72C
:1044F0009FFA1920FDF79CFAA520FDF799FA3320C1
:10450000FDF796FAC220FDF781FAA720FDF77EFAA3
:10451000E020FDF77BFAF020FDF78AFA0920FDF78D
:1045200087FA1320FDF784FA1220FDF781FA122092
:10453000FDF77EFA2B20FDF77BFA3C20FDF778FA99
:104540004420FDF775FA4B20FDF772FA1B20FDF7AA
:104550006FFA1820FDF76CFA1720FDF769FA1D2095
:10456000FDF766FA2120FDF763FAE120FDF74EFA28
:10457000F020FDF75DFA0920FDF75AFA1320FDF748
:1045800057FA0C20FDF754FA0D20FDF751FA2720B9
:10459000FDF74EFA3B20FDF74BFA4420FDF748FAB1
:1045A0004D20FDF745FA0B20FDF742FA1720FDF7E5
:1045B0003FFA1720FDF73CFA1D20FDF739FA2120BC
:1045C000FDF736FA3620FDF721FAEC20FDF730FA38
:1045D000F020FDF71BFAC320FDF72AFAF020FDF7C3
:1045E00015FA6920FDF724FA1320FDF70FFA1120C0
:1045F000FDF70CFA2920FDF709FA044B4FF4A072DD
:104600001A804FF4F0725A800BE600BFB800002009
:10461000ED20FDF7FBF90120FDF70AFAFE20FDF77A
:1046200007FAEE20FDF7F2F9DE20FDF701FA21206E
:10463000FDF7FEF9F120FDF7E9F90120FDF7F8F9A2
:10464000DF20FDF7E3F91020FDF7F2F9C420FDF7B4
:10465000DDF98F20FDF7ECF9C620FDF7D7F9002032
:10466000FDF7E6F9E220FDF7E3F9E220FDF7E0F9D6
:10467000E220FDF7DDF9BF20FDF7C8F9AA20FDF71C
:10468000D7F9B020FDF7C2F90D20FDF7D1F90020D0
:10469000FDF7CEF90D20FDF7CBF90020FDF7C8F9A5
:1046A0001120FDF7C5F90020FDF7C2F91920FDF72B
:1046B000BFF90020FDF7BCF92120FDF7B9F9002072
:1046C000FDF7B6F92D20FDF7B3F90020FDF7B0F99D
:1046D0003D20FDF7ADF90020FDF7AAF95D20FDF7BB
:1046E000A7F90020FDF7A4F95D20FDF7A1F900204E
:1046F000FDF79EF9B120FDF789F98020FDF798F9C3
:104700000020FDF795F98B20FDF792F90020FDF7C9
:104710008FF99620FDF78CF90020FDF789F9B2207A
:10472000FDF774F90020FDF783F90020FDF780F90B
:104730000220FDF77DF90020FDF77AF90320FDF74F
:1047400077F90020FDF774F9B320FDF75FF9002039
:10475000FDF76EF90020FDF76BF90020FDF768F911
:104760000020FDF765F90020FDF762F90020FDF754
:104770005FF90020FDF75CF90020FDF759F90020F2
:10478000FDF756F90020FDF753F90020FDF750F929
:104790000020FDF74DF90020FDF74AF90020FDF754
:1047A00047F90020FDF744F90020FDF741F900200A
:1047B000FDF73EF90020FDF73BF90020FDF738F941
:1047C0000020FDF735F90020FDF732F90020FDF754
:1047D0002FF90020FDF72CF90020FDF729F9B4206E
:1047E000FDF714F98B20FDF723F90020FDF720F9E0
:1047F0009620FDF71DF90020FDF71AF9A120FDF71D
:1048000017F90020FDF714F9B520FDF7FFF8022095
:10481000FDF70EF90020FDF70BF90320FDF708F96D
:104820000020FDF705F90420FDF702F90020FDF74F
:10483000FFF8B620FDF7EAF80020FDF7F9F80020B0
:10484000FDF7F6F8B720FDF7E1F80020FDF7F0F8E6
:104850000020FDF7EDF83F20FDF7EAF80020FDF716
:10486000E7F85E20FDF7E4F80020FDF7E1F86420AA
:10487000FDF7DEF80020FDF7DBF88C20FDF7D8F817
:104880000020FDF7D5F8AC20FDF7D2F80020FDF7A9
:10489000CFF8DC20FDF7CCF80020FDF7C9F8702038
:1048A000FDF7C6F80020FDF7C3F89020FDF7C0F82B
:1048B0000020FDF7BDF8EB20FDF7BAF80020FDF76A
:1048C000B7F8DC20FDF7B4F80020FDF7B1F8B82008
:1048D000FDF79CF80020FDF7ABF80020FDF7A8F8E5
:1048E0000020FDF7A5F80020FDF7A2F80020FDF755
:1048F0009FF80020FDF79CF80020FDF799F80020B4
:10490000FDF796F8BA20FDF781F82420FDF790F81E
:104910000020FDF78DF80020FDF78AF80020FDF754
:1049200087F8C120FDF772F82020FDF781F80020FC
:10493000FDF77EF85420FDF77BF80020FDF778F8AE
:10494000FF20FDF775F80020FDF772F8C220FDF793
:104950005DF80A20FDF76CF80020FDF769F80420E7
:10496000FDF766F80020FDF763F8C320FDF74EF869
:104970003C20FDF75DF80020FDF75AF83A20FDF7DE
:1049800057F80020FDF754F83920FDF751F80020C2
:10499000FDF74EF83720FDF74BF80020FDF748F8FB
:1049A0003C20FDF745F80020FDF742F83620FDF7E2
:1049B0003FF80020FDF73CF83220FDF739F80020E1
:1049C000FDF736F82F20FDF733F80020FDF730F81B
:1049D0002C20FDF72DF80020FDF72AF82920FDF7FF
:1049E00027F80020FDF724F82620FDF721F8002005
:1049F000FDF71EF82420FDF71BF80020FDF718F83E
:104A00002420FDF715F80020FDF712F82320FDF70C
:104A10000FF80020FDF70CF83C20FDF709F8002006
:104A2000FDF706F83620FDF703F80020FDF700F843
:104A30003220FCF7FDFF0020FCF7FAFF2F20FCF7E7
:104A4000F7FF0020FCF7F4FF2C20FCF7F1FF00201B
:104A5000FCF7EEFF2920FCF7EBFF0020FCF7E8FF56
:104A60002620FCF7E5FF0020FCF7E2FF2420FCF7FE
:104A7000DFFF0020FCF7DCFF2420FCF7D9FF00203B
:104A8000FCF7D6FF2320FCF7D3FF0020FCF7D0FF74
:104A9000C420FCF7BBFF6220FCF7CAFF0020FCF734
:104AA000C7FF0520FCF7C4FF0020FCF7C1FF8420EE
:104AB000FCF7BEFF0020FCF7BBFFF020FCF7B8FFBF
:104AC0000020FCF7B5FF1820FCF7B2FF0020FCF730
:104AD000AFFFA420FCF7ACFF0020FCF7A9FF1820D3
:104AE000FCF7A6FF0020FCF7A3FF5020FCF7A0FF77
:104AF0000020FCF79DFF0C20FCF79AFF0020FCF73C
:104B000097FF1720FCF794FF0020FCF791FF9520FA
:104B1000FCF78EFF0020FCF78BFFF320FCF788FFEB
:104B20000020FCF785FFE620FCF782FF0020FCF761
:104B30007FFFC520FCF76AFF3220FCF779FF0020D9
:104B4000FCF776FF4420FCF773FF0020FCF770FFB2
:104B50006520FCF76DFF0020FCF76AFF7620FCF76C
:104B600067FF0020FCF764FF8820FCF761FF00204E
:104B7000FCF75EFFC620FCF749FF2020FCF758FF3A
:104B80000020FCF755FF1720FCF752FF0020FCF730
:104B90004FFF0120FCF74CFF0020FCF749FFC72026
:104BA000FCF734FF0020FCF743FF0020FCF740FF38
:104BB0000020FCF73DFF0020FCF73AFFC820FCF77F
:104BC00025FF0020FCF734FF0020FCF731FF002018
:104BD000FCF72EFF0020FCF72BFFC920FCF716FF87
:104BE0000020FCF725FF0020FCF722FF0020FCF747
:104BF0001FFF0020FCF71CFF0020FCF719FF00201E
:104C0000FCF716FF0020FCF713FF0020FCF710FF55
:104C10000020FCF70DFF0020FCF70AFF0020FCF746
:104C200007FF0020FCF704FF0020FCF701FF002035
:104C3000FCF7FEFE0020FCF7FBFE0020FCF7F8FE70
:104C4000E020FCF7E3FE1620FCF7F2FE0020FCF764
:104C5000EFFE1C20FCF7ECFE0020FCF7E9FE212013
:104C6000FCF7E6FE0020FCF7E3FE3620FCF7E0FE52
:104C70000020FCF7DDFE4620FCF7DAFE0020FCF702
:104C8000D7FE5220FCF7D4FE0020FCF7D1FE6420B2
:104C9000FCF7CEFE0020FCF7CBFE7A20FCF7C8FE26
:104CA0000020FCF7C5FE8B20FCF7C2FE0020FCF7BD
:104CB000BFFE9920FCF7BCFE0020FCF7B9FEA8203F
:104CC000FCF7B6FE0020FCF7B3FEB920FCF7B0FEFF
:104CD0000020FCF7ADFEC420FCF7AAFE0020FCF784
:104CE000A7FECA20FCF7A4FE0020FCF7A1FED220FC
:104CF000FCF79EFE0020FCF79BFED920FCF798FEF7
:104D00000020FCF795FEE020FCF792FE0020FCF767
:104D10008FFEF320FCF78CFE0020FCF789FEE120DB
:104D2000FCF774FE1620FCF783FE0020FCF780FEE3
:104D30001C20FCF77DFE0020FCF77AFE2220FCF709
:104D400077FE0020FCF774FE3620FCF771FE002091
:104D5000FCF76EFE4520FCF76BFE0020FCF768FEBA
:104D60005220FCF765FE0020FCF762FE6420FCF791
:104D70005FFE0020FCF75CFE7A20FCF759FE002065
:104D8000FCF756FE8B20FCF753FE0020FCF750FE8C
:104D90009920FCF74DFE0020FCF74AFEA820FCF706
:104DA00047FE0020FCF744FEB920FCF741FE00203E
:104DB000FCF73EFEC420FCF73BFE0020FCF738FE6B
:104DC000CA20FCF735FE0020FCF732FED220FCF7AB
:104DD0002FFE0020FCF72CFED820FCF729FE002037
:104DE000FCF726FEE020FCF723FE0020FCF720FE67
:104DF000F320FCF71DFE0020FCF71AFEE220FCF772
:104E000005FE0520FCF714FE0020FCF711FE0B2028
:104E1000FCF70EFE0020FCF70BFE1B20FCF708FE43
:104E20000020FCF705FE3420FCF702FE0020FCF712
:104E3000FFFD4420FCF7FCFD0020FCF7F9FD4F20AE
:104E4000FCF7F6FD0020FCF7F3FD6120FCF7F0FD18
:104E50000020FCF7EDFD7920FCF7EAFD0020FCF7CF
:104E6000E7FD8820FCF7E4FD0020FCF7E1FD97203A
:104E7000FCF7DEFD0020FCF7DBFDA620FCF7D8FDEB
:104E80000020FCF7D5FDB720FCF7D2FD0020FCF791
:104E9000CFFDC220FCF7CCFD0020FCF7C9FDC720E8
:104EA000FCF7C6FD0020FCF7C3FDD120FCF7C0FDD8
:104EB0000020FCF7BDFDD620FCF7BAFD0020FCF772
:104EC000B7FDDD20FCF7B4FD0020FCF7B1FDF320B9
:104ED000FCF7AEFD0020FCF7ABFDE320FCF796FDF0
:104EE0000520FCF7A5FD0020FCF7A2FD0A20FCF739
:104EF0009FFD0020FCF79CFD1C20FCF799FD002085
:104F0000FCF796FD3320FCF793FD0020FCF790FDA5
:104F10004420FCF78DFD0020FCF78AFD5020FCF7B3
:104F200087FD0020FCF784FD6220FCF781FD002056
:104F3000FCF77EFD7820FCF77BFD0020FCF778FD78
:104F40008820FCF775FD0020FCF772FD9720FCF728
:104F50006FFD0020FCF76CFDA620FCF769FD00202A
:104F6000FCF766FDB720FCF763FD0020FCF760FD51
:104F7000C220FCF75DFD0020FCF75AFDC720FCF7BE
:104F800057FD0020FCF754FDD120FCF751FD002017
:104F9000FCF74EFDD520FCF74BFD0020FCF748FD4B
:104FA000DD20FCF745FD0020FCF742FDF320FCF777
:104FB0003FFD0020FCF73CFDE420FCF727FD01202D
:104FC000FCF736FD0020FCF733FD0120FCF730FD37
:104FD0000020FCF72DFD0220FCF72AFD0020FCF745
:104FE00027FD2A20FCF724FD0020FCF721FD3C20B2
:104FF000FCF71EFD0020FCF71BFD4B20FCF718FD05
:105000000020FCF715FD5D20FCF712FD0020FCF7E9
:105010000FFD7420FCF70CFD0020FCF709FD842037
:10502000FCF706FD0020FCF703FD9320FCF700FDD4
:105030000020FCF7FDFCA220FCF7FAFC0020FCF7A6
:10504000F7FCB320FCF7F4FC0020FCF7F1FCBE20D9
:10505000FCF7EEFC0020FCF7EBFCC420FCF7E8FCBE
:105060000020FCF7E5FCCD20FCF7E2FC0020FCF77B
:10507000DFFCD320FCF7DCFC0020FCF7D9FCDD20B2
:10508000FCF7D6FC0020FCF7D3FCF320FCF7D0FCA7
:105090000020FCF7CDFCE520FCF7B8FC0020FCF775
:1050A000C7FC0020FCF7C4FC0020FCF7C1FC00207A
:1050B000FCF7BEFC0220FCF7BBFC0020FCF7B8FCB0
:1050C0002920FCF7B5FC0020FCF7B2FC3C20FCF7E3
:1050D000AFFC0020FCF7ACFC4B20FCF7A9FC002047
:1050E000FCF7A6FC5D20FCF7A3FC0020FCF7A0FC6D
:1050F0007420FCF79DFC0020FCF79AFC8420FCF750
:1051000097FC0020FCF794FC9320FCF791FC002016
:10511000FCF78EFCA220FCF78BFC0020FCF788FC3F
:10512000B320FCF785FC0020FCF782FCBE20FCF7D6
:105130007FFC0020FCF77CFCC420FCF779FC0020FD
:10514000FCF776FCCD20FCF773FC0020FCF770FC2C
:10515000D320FCF76DFC0020FCF76AFCDC20FCF798
:1051600067FC0020FCF764FCF320FCF761FC0020E6
:10517000FCF75EFCE620FCF749FC1120FCF758FC2C
:105180000020FCF755FC3420FCF752FC0020FCF713
:105190004FFC5620FCF74CFC0020FCF749FC762025
:1051A000FCF746FC0020FCF743FC7720FCF740FCB2
:1051B0000020FCF73DFC6620FCF73AFC0020FCF7E1
:1051C00037FC8820FCF734FC0020FCF731FC9920E8
:1051D000FCF72EFC0020FCF72BFCBB20FCF728FC86
:1051E0000020FCF725FC9920FCF722FC0020FCF7AE
:1051F0001FFC6620FCF71CFC0020FCF719FC552066
:10520000FCF716FC0020FCF713FC5520FCF710FC03
:105210000020FCF70DFC4520FCF70AFC0020FCF701
:1052200007FC4320FCF704FC0020FCF701FC4420B1
:10523000FCF7FEFB0020FCF7FBFBE720FCF7E6FB9E
:105240003220FCF7F5FB0020FCF7F2FB5520FCF7C1
:10525000EFFB0020FCF7ECFB7620FCF7E9FB0020DD
:10526000FCF7E6FB6620FCF7E3FB0020FCF7E0FB25
:105270006720FCF7DDFB0020FCF7DAFB6720FCF77A
:10528000D7FB0020FCF7D4FB8720FCF7D1FB0020E4
:10529000FCF7CEFB9920FCF7CBFB0020FCF7C8FB0A
:1052A000BB20FCF7C5FB0020FCF7C2FB9920FCF7F4
:1052B000BFFB0020FCF7BCFB7720FCF7B9FB00200C
:1052C000FCF7B6FB4420FCF7B3FB0020FCF7B0FB77
:1052D0005620FCF7ADFB0020FCF7AAFB2320FCF7CF
:1052E000A7FB0020FCF7A4FB3320FCF7A1FB002068
:1052F000FCF79EFB4520FCF79BFB0020FCF798FB8E
:10530000E820FCF783FB0020FCF792FB0020FCF771
:105310008FFB9920FCF78CFB0020FCF789FB872092
:10532000FCF786FB0020FCF783FB8820FCF780FB62
:105330000020FCF77DFB7720FCF77AFB0020FCF7D0
:1053400077FB6620FCF774FB0020FCF771FB8820DC
:10535000FCF76EFB0020FCF76BFBAA20FCF768FB58
:105360000020FCF765FBBB20FCF762FB0020FCF78C
:105370005FFB9920FCF75CFB0020FCF759FB6620E3
:10538000FCF756FB0020FCF753FB5520FCF750FBC5
:105390000020FCF74DFB5520FCF74AFB0020FCF7F2
:1053A00047FB4420FCF744FB0020FCF741FB442072
:1053B000FCF73EFB0020FCF73BFB5520FCF738FBDD
:1053C0000020FCF735FBE920FCF720FBAA20FCF7C6
:1053D0002FFB0020FCF72CFB0020FCF729FB002012
:1053E000FCF726FB0020FCF711FBAA20FCF720FBB2
:1053F000CF20FCF70BFB0020FCF71AFB0020FCF78A
:1054000017FB0020FCF714FB0020FCF711FB002029
:10541000FCF70EFB0020FCF70BFB0020FCF708FB61
:105420000020FCF705FB0020FCF702FB0020FCF746
:10543000FFFA0020FCF7FCFA0020FCF7F9FA002044
:10544000FCF7F6FA0020FCF7F3FA0020FCF7F0FA7C
:105450000020FCF7EDFA0020FCF7EAFAF020FCF758
:10546000D5FA0020FCF7E4FA5020FCF7E1FA00201E
:10547000FCF7DEFA0020FCF7DBFA0020FCF7D8FA94
:10548000F320FCF7C3FA0020FCF7D2FAF920FCF76E
:10549000BDFA0620FCF7CCFA1020FCF7C9FA292047
:1054A000FCF7C6FA0020FCF7C3FA3A20FCF7AEFA84
:1054B0005520FCF7BDFA1120FCF7A8FA6420FBF791
:1054C00075FA2920FCF7A2FA3520FCF79FFA002094
:1054D000FCF7AEFA5120FCF799FAFF20FCF7A8FA86
:1054E0005320FCF793FA2C20FCF7A2FA5520FCF786
:1054F0008DFA8220FCF79CFA2C20FCF787FA044BEB
:105500004FF4A0721A804FF4F0725A80FEF789BEF1
:10551000B800002030B583B00121052001F0AAFCBD
:105520000225009501238DF8043000228DF8062015
:1055300003228DF805208DF807300B4C6946204674
:1055400001F0CCFB2946204601F01BFC20250095EC
:1055500004F500646946204601F0C0FB2946204658
:1055600001F00FFC03B030BD000002402DE9F04314
:1055700085B081464FF6FF751F4B1D801F4C1F26BF
:1055800000961423A28800210846FBF739FA4FF051
:105590000108CDF8088010270197CDF80090334618
:1055A0002A4602210020FBF7D3FFE188A2884B1E88
:1055B000013A143900969BB292B289B20020FBF7EF
:1055C0001FFAE1881239CDF8088001970C4B00933F
:1055D00033462A4689B20020FBF7BAFFA288E38847
:1055E000153B013A00959BB292B215210020FBF7C2
:1055F00007FA05B0BDE8F083B4000020B800002031
:105600003CA0000830B585B02748FFF7AFFF012563
:10561000029510240194254B00931F234FF47842E8
:1056200028210020FBF794FF02950194204B009362
:105630001F234FF4784246210020FBF789FF029593
:1056400001941C4B00931F234FF61F02642100207E
:10565000FBF77EFF02950194174B00931F234FF633
:105660001F0278210020FBF773FF02950194134B72
:1056700000931F234FF61F028C210020FBF768FFC9
:10568000029501940E4B00931F231A46AA21002075
:10569000FBF75EFF40F2DC50FBF788F940F2DC508C
:1056A000FBF784F905B030BD54A000086CA00008D9
:1056B0005CA0000888A00008A4A00008C0A0000802
:1056C000DCA00008F0B585B0394CA288E388013B26
:1056D000013A4FF6FF7100919BB292B20021084649
:1056E000FBF78EF90126029610250195314B0093A8
:1056F0004FF6E0731F221E211420FBF7A7FE4FF484
:105700004870FBF753F9A288E388013B013A4FF454
:10571000784700979BB292B200210846FBF770F9D8
:1057200002960195244B00934FF6E0731F221E2131
:105730001420FBF78BFE4FF44870FBF737F9A28873
:10574000E388013B013A4FF4FC6100919BB292B2B5
:1057500000210846FBF754F902960195174B009378
:105760004FF6E0731F221E211420FBF76FFE4FF44B
:105770004870FBF71BF9A288E388013B013A1F211F
:1057800000919BB292B200210846FBF739F90296CC
:1057900001950B4B00934FF6E0733A461E211420FF
:1057A000FBF754FE4FF44870FBF700F905B0F0BD6D
:1057B000B8000020F8A0000800A1000808A1000817
:1057C00010A1000810B52948FFF7D0FE00241EE004
:1057D000274B33F81420274B1A80274B9888C4EBAB
:1057E000041189B201EB500080B2DB8801EB530158
:1057F00089B2A1F11403A0F11402503950389BB2C0
:1058000092B289B280B2FBF77AF90134E4B2042C87
:10581000DED940F2DC50FBF7C9F800241EE0144B3F
:1058200033F81420134B1A80134B9888C4EB0411DF
:1058300089B201EB500080B2DB8801EB530189B2E1
:10584000A1F11403A0F11402503950389BB292B266
:1058500089B280B2FBF76EF90134E4B2042CDED9D0
:1058600040F2DC50FBF7A2F810BD00BF18A1000801
:1058700004000020B4000020B800002010B582B061
:105880002448FFF773FE002419E0234BB3F804C04B
:105890004FEA5C0CACF1500C04EB840000EB800090
:1058A000D98849083239002300931E231B4A32F855
:1058B000142001446044FBF799F90134E4B2042C4C
:1058C000E3D940F2DC50FBF771F8002419E0124BE9
:1058D000B3F804C04FEA5C0CACF1500C04EB84004C
:1058E00000EB8000D98849083239012300931E2338
:1058F0000A4A32F8142001446044FBF777F9013476
:10590000E4B2042CE3D940F2DC50FBF74FF802B0CC
:1059100010BD00BF30A10008B80000200400002026
:1059200070B584B02748FFF721FE002402940C25AF
:105930000195254B00934FF6E0731F221E210A208C
:10594000FBF784FD012602960195204B00934FF64C
:10595000E0731F222D210A20FBF778FD02940195A8
:105960001B4B00934FF6E0731F223C210A20FBF7EC
:105970006DFD029410250195164B00934FF6E073D0
:105980001F2250210A20FBF761FD02960195124B60
:1059900000934FF6E0731F2264210A20FBF756FDA7
:1059A000029401950D4B00934FF6E0731F2278216E
:1059B0000A20FBF74BFD4FF49660FAF7F7FF04B0AF
:1059C00070BD00BF48A100085CA1000888A10008C4
:1059D000B4A10008D4A1000800A200082CA200086D
:1059E00030B583B03248FFF7C1FD002525E0314BCB
:1059F00033F81520304B1A80304B998805EB85021F
:105A0000940004EB5104A4B2DA88C5EB051303EB50
:105A100052039BB2A3F1140189B2493BA4F13302B2
:105A2000A4F150000191153CA4B200949BB292B233
:105A300080B2FBF724F90135EDB2042DD7D940F23D
:105A4000DC50FAF7B3FF002529E01A4B33F8152094
:105A5000194B1A80194B998805EB85024FEA820C85
:105A60000CEB510C1FFA8CFCDA88C5EB051303EB29
:105A700052039BB2A3F1140189B2493BACF133024A
:105A8000ACF150000191ACF1150C1FFA8CF40094AC
:105A90009BB292B280B2FBF70DF90135EDB2042D45
:105AA000D3D940F2DC50FAF781FF03B030BD00BF1C
:105AB0004CA2000804000020B4000020B800002020
:105AC00030B585B01C48FFF751FD00250295102424
:105AD00001941A4B00934FF6E0731F221E210A20F7
