:020000040800F2
:1000000000000220290800086104000863040008B9
:100010006504000867040008690400080000000087
:100020000000000000000000000000006B04000859
:100030006D040008000000006F040008710400084F
:10004000790800087908000879080008790800088C
:1000500079080008790800080D02000879080008EE
:1000600079080008790800083502000879080008B6
:10007000790800087908000879080008790800085C
:10008000790800087908000879080008790800084C
:10009000790800087908000879080008790800083C
:1000A000790800087908000879080008790800082C
:1000B000790800087908000879080008790800081C
:1000C000790800087908000879080008790800080C
:1000D00079080008790800087908000879080008FC
:1000E00079080008790800087908000879080008EC
:1000F00079080008790800087908000879080008DC
:1001000079080008790800087908000879080008CB
:1001100079080008790800087908000879080008BB
:1001200079080008790800087908000879080008AB
:10013000790800087908000879080008790800089B
:10014000790800087908000879080008790800088B
:10015000790800087908000879080008790800087B
:10016000790800087908000879080008790800086B
:1001700079080008790800087908000800000000E4
:08018000790800087908000865
:1001880010B5054C237833B9044B13B10448AFF3C9
:1001980000800123237010BD000000200000000033
:1001A800C408000808B5034B1BB103490348AFF363
:1001B800008008BD0000000004000020C4080008FA
:1001C80008B54FF4A06000F051F9A82000F0F2F84B
:1001D80000F0A0F800F044F800F0C0F8C82000F0E3
:1001E8001FF94FF4FA71052000F07DF8044B002246
:1001F800C3F894224FF47A7000F012F9FAE700BFBE
:100208000000414208B50A2000F00AF90121064819
:1002180000F019FA012803D0012000F0BBF908BD4D
:1002280000F073F8F8E700BF0000024008B50A20A4
:1002380000F0F6F81021084800F005FA38B9074A26
:10024800D2F88432B3FA83F35B09C2F884321020FF
:1002580000F0A0F908BD00BF0010024000004042B5
:1002680030B585B001214FF4804000F025FA042113
:10027800084600F02FFA0021084600F02BFA012466
:10028800019400258DF8085008238DF809308DF861
:100298000A4001A800F036F9102301938DF80850A0
:1002A8000C238DF809308DF80A4001A800F02AF9CE
:1002B80006238DF80C308DF80D5002258DF80E5060
:1002C8008DF80F4003A800F0DBF80A238DF80C30F6
:1002D8008DF80D408DF80E508DF80F4003A800F0F2
:1002E800CFF805B030BD38B505460C4645F2555037
:1002F80000F0B2F9284600F0B5F9204600F0B8F948
:1003080000F0BCF900F0C2F938BD08B500F0B6F944
:1003180008BD000010B582B00121112000F0BEF91F
:100328001023009300238DF8043003238DF8053043
:1003380001248DF807406946064800F031F9009419
:1003480002238DF807306946034800F029F902B006
:1003580010BD00BF001002400000024030B583B05D
:100368000121052000F09AF90225009501238DF856
:10037800043000228DF8062003228DF805208DF820
:1003880007300B4C6946204600F00AF929462046FA
:1003980000F060F92025009504F5006469462046C0
:1003A80000F0FEF82946204600F054F903B030BDAD
:1003B8000000024010B504466FF0040000F092F807
:1003C800E008054B1870C0EB401300EB8300C00039
:1003D800024B188010BD00BF1E0000201C0000202A
:1003E8000E4B1B8803FB00F04FF0E02358610022FE
:1003F8009A611A6942F001021A614FF0E0231B6901
:1004080003F00113012BF8D04FF0E0231A6922F012
:1004180001021A6100229A61704700BF1C00002087
:1004280038B50C4CA4FB0034650A2C464FF407730E
:1004380003FB150085B205E04FF40770FFF7D0FF06
:10044800013CE4B2002CF7D105B938BD2846FFF7C6
:10045800C7FFFAE749D6B9F27047FEE7FEE7FEE7BD
:10046800FEE77047704770477047000040F0BF6074
:1004780040F40030014BD860704700BF00ED00E049
:10048800C378FBB1154BDB68DB43C3F30222C2F12F
:100498000401C9B20F23134142788A40D2B281784D
:1004A8000B4013431B01DBB202780D490A4482F862
:1004B8000033037803F01F005B090122824041F8F2
:1004C80023207047037803F01F015B0901228A404B
:1004D8002033034941F82320704700BF00ED00E0B6
:1004E80000E100E0042806D04FF0E022136923F071
:1004F8000403136170474FF0E022136943F00403CB
:10050800136170478379002B36D010B4204B1A68DA
:10051800016822EA01021A605A68016822EA0102A7
:100528005A60027902F1804202F59E32116804682D
:10053800214311609A68016822EA01029A60DA6828
:10054800016822EA0102DA604379102B0AD003F12C
:10055800804303F59E331A6801680A431A605DF800
:10056800044B70470A4B9A6801680A439A60DA6834
:1005780001680A43DA60F2E7037903F1804303F57F
:100588009E331A68016822EA01021A60704700BFA8
:10059800003C0140014B5861704700BF003C0140DE
:1005A80000230F2B4ED830B516E0C2681FFA83FE21
:1005B8004FEA4E044FF0030E0EFA04FE22EA0E0232
:1005C800C260C26891F807E00EFA0CFC42EA0C021D
:1005D800C26001330F2B34D801229A400C68A24321
:1005E800F7D104684FEA430C032202FA0CF26FEACF
:1005F800020E24EA0202026002680C7904FA0CF482
:10060800224302600A79013AD2B2012ACDD882681F
:100618000EEA0202826082684C7904FA0CF42243E2
:10062800826044689DB24FF0010E0EFA05FE24EA7E
:100638000E04446044688A79AA4092B22243426018
:10064800B3E730BD70470369194201D001207047F4
:100658000020704701837047014B1860704700BF46
:1006680000300040014B5860704700BF0030004028
:10067800014B9860704700BF00300040024B4AF6BB
:10068800AA221A60704700BF00300040024B4CF6A7
:10069800CC421A60704700BF0030004021B1054AC3
:1006A800136B184310637047024A136B23EA000068
:1006B800106370470038024021B1054A536C184353
:1006C80050647047024A536C23EA00005064704734
:1006D8000038024010B401F0030292000F2404FA1B
:1006E80002FC8908084B023153F8214024EA0C0423
:1006F80043F8214053F821409040044343F82140F7
:100708005DF8044B704700BF0038014082B00023F9
:10071800019300932A4A136843F480331360284BEB
:100728001B6803F400330093019B01330193009B82
:100738001BB9019BB3F5A04FF1D1214B1B6813F4F2
:10074800003F06D001230093009B012B04D002B088
:10075800704700230093F7E7194B1A6C42F0805258
:100768001A6418490A6842F440420A609A689A6012
:100778009A6842F400429A609A6842F4A0529A60D9
:10078800114A5A601A6842F080721A600C4B1B6852
:1007980013F0007FFAD00D4B40F205721A60A3F5F2
:1007A80080639A6822F003029A609A6842F0020213
:1007B8009A60034B9B6803F00C03082BF9D1C6E73A
:1007C800003802400070004008544007003C0240D6
:1007D80010B5104CD4F8883043F47003C4F888304E
:1007E8000D4B1A6842F001021A60002199601A68DC
:1007F80022F0847222F480321A60084A5A601A6819
:1008080022F480221A60D960FFF780FF4FF000635E
:10081800A36010BD00ED00E0003802401030002455
:10082800DFF834D00D480E490E4A002302E0D458B0
:10083800C4500433C4188C42F9D30B4A0B4C002320
:1008480001E013600432A242FBD3FFF7C1FF00F0BE
:1008580011F8FFF7B5FC70470000022000000020E7
:1008680000000020E408000800000020200000200C
:10087800FEE7000070B50D4D0D4C641BA41000265A
:10088800A64209D10B4D0C4C00F018F8641BA410BB
:100898000026A64205D170BD55F8043B984701369D
:1008A800EEE755F8043B98470136F2E7DC08000804
:1008B800DC080008DC080008E0080008F8B500BFFC
:1008C800F8BC08BC9E467047F8B500BFF8BC08BC29
:0408D8009E46704781
:0408DC00AD01000862
:0408E0008901000882
:0400000508000829BE
:00000001FF
